{"abi":[{"type":"constructor","inputs":[],"stateMutability":"nonpayable"},{"type":"function","name":"DEFAULT_ADMIN_ROLE","inputs":[],"outputs":[{"name":"","type":"bytes32","internalType":"bytes32"}],"stateMutability":"view"},{"type":"function","name":"MAX_AVATAR_LENGTH","inputs":[],"outputs":[{"name":"","type":"uint256","internalType":"uint256"}],"stateMutability":"view"},{"type":"function","name":"MAX_BIO_LENGTH","inputs":[],"outputs":[{"name":"","type":"uint256","internalType":"uint256"}],"stateMutability":"view"},{"type":"function","name":"MAX_COMMENT_LENGTH","inputs":[],"outputs":[{"name":"","type":"uint256","internalType":"uint256"}],"stateMutability":"view"},{"type":"function","name":"MAX_NICKNAME_LENGTH","inputs":[],"outputs":[{"name":"","type":"uint256","internalType":"uint256"}],"stateMutability":"view"},{"type":"function","name":"MAX_ORIGINAL_AUTHOR_LENGTH","inputs":[],"outputs":[{"name":"","type":"uint256","internalType":"uint256"}],"stateMutability":"view"},{"type":"function","name":"MAX_TITLE_LENGTH","inputs":[],"outputs":[{"name":"","type":"uint256","internalType":"uint256"}],"stateMutability":"view"},{"type":"function","name":"PAUSER_ROLE","inputs":[],"outputs":[{"name":"","type":"bytes32","internalType":"bytes32"}],"stateMutability":"view"},{"type":"function","name":"SCORE_DISLIKE","inputs":[],"outputs":[{"name":"","type":"uint8","internalType":"uint8"}],"stateMutability":"view"},{"type":"function","name":"SCORE_LIKE","inputs":[],"outputs":[{"name":"","type":"uint8","internalType":"uint8"}],"stateMutability":"view"},{"type":"function","name":"SCORE_NEUTRAL","inputs":[],"outputs":[{"name":"","type":"uint8","internalType":"uint8"}],"stateMutability":"view"},{"type":"function","name":"UPGRADER_ROLE","inputs":[],"outputs":[{"name":"","type":"bytes32","internalType":"bytes32"}],"stateMutability":"view"},{"type":"function","name":"UPGRADE_INTERFACE_VERSION","inputs":[],"outputs":[{"name":"","type":"string","internalType":"string"}],"stateMutability":"view"},{"type":"function","name":"articles","inputs":[{"name":"","type":"uint256","internalType":"uint256"}],"outputs":[{"name":"author","type":"address","internalType":"address"},{"name":"timestamp","type":"uint64","internalType":"uint64"},{"name":"categoryId","type":"uint16","internalType":"uint16"},{"name":"originality","type":"uint8","internalType":"enum BlogHub.Originality"},{"name":"collectPrice","type":"uint96","internalType":"uint96"},{"name":"maxCollectSupply","type":"uint32","internalType":"uint32"},{"name":"collectCount","type":"uint32","internalType":"uint32"},{"name":"arweaveHash","type":"string","internalType":"string"}],"stateMutability":"view"},{"type":"function","name":"arweaveIdToArticleId","inputs":[{"name":"","type":"string","internalType":"string"}],"outputs":[{"name":"","type":"uint256","internalType":"uint256"}],"stateMutability":"view"},{"type":"function","name":"balanceOf","inputs":[{"name":"account","type":"address","internalType":"address"},{"name":"id","type":"uint256","internalType":"uint256"}],"outputs":[{"name":"","type":"uint256","internalType":"uint256"}],"stateMutability":"view"},{"type":"function","name":"balanceOfBatch","inputs":[{"name":"accounts","type":"address[]","internalType":"address[]"},{"name":"ids","type":"uint256[]","internalType":"uint256[]"}],"outputs":[{"name":"","type":"uint256[]","internalType":"uint256[]"}],"stateMutability":"view"},{"type":"function","name":"collect","inputs":[{"name":"_articleId","type":"uint256","internalType":"uint256"},{"name":"_referrer","type":"address","internalType":"address"}],"outputs":[],"stateMutability":"payable"},{"type":"function","name":"collectWithSessionKey","inputs":[{"name":"owner","type":"address","internalType":"address"},{"name":"sessionKey","type":"address","internalType":"address"},{"name":"_articleId","type":"uint256","internalType":"uint256"},{"name":"_referrer","type":"address","internalType":"address"},{"name":"deadline","type":"uint256","internalType":"uint256"},{"name":"signature","type":"bytes","internalType":"bytes"}],"outputs":[],"stateMutability":"payable"},{"type":"function","name":"evaluate","inputs":[{"name":"_articleId","type":"uint256","internalType":"uint256"},{"name":"_score","type":"uint8","internalType":"uint8"},{"name":"_content","type":"string","internalType":"string"},{"name":"_referrer","type":"address","internalType":"address"},{"name":"_parentCommentId","type":"uint256","internalType":"uint256"}],"outputs":[],"stateMutability":"payable"},{"type":"function","name":"evaluateWithSessionKey","inputs":[{"name":"owner","type":"address","internalType":"address"},{"name":"sessionKey","type":"address","internalType":"address"},{"name":"_articleId","type":"uint256","internalType":"uint256"},{"name":"_score","type":"uint8","internalType":"uint8"},{"name":"_content","type":"string","internalType":"string"},{"name":"_referrer","type":"address","internalType":"address"},{"name":"_parentCommentId","type":"uint256","internalType":"uint256"},{"name":"deadline","type":"uint256","internalType":"uint256"},{"name":"signature","type":"bytes","internalType":"bytes"}],"outputs":[],"stateMutability":"payable"},{"type":"function","name":"follow","inputs":[{"name":"_target","type":"address","internalType":"address"},{"name":"_status","type":"bool","internalType":"bool"}],"outputs":[],"stateMutability":"nonpayable"},{"type":"function","name":"followWithSessionKey","inputs":[{"name":"owner","type":"address","internalType":"address"},{"name":"sessionKey","type":"address","internalType":"address"},{"name":"_target","type":"address","internalType":"address"},{"name":"_status","type":"bool","internalType":"bool"},{"name":"deadline","type":"uint256","internalType":"uint256"},{"name":"signature","type":"bytes","internalType":"bytes"}],"outputs":[],"stateMutability":"nonpayable"},{"type":"function","name":"getArticleByArweaveId","inputs":[{"name":"_arweaveId","type":"string","internalType":"string"}],"outputs":[{"name":"","type":"tuple","internalType":"struct BlogHub.Article","components":[{"name":"author","type":"address","internalType":"address"},{"name":"timestamp","type":"uint64","internalType":"uint64"},{"name":"categoryId","type":"uint16","internalType":"uint16"},{"name":"originality","type":"uint8","internalType":"enum BlogHub.Originality"},{"name":"collectPrice","type":"uint96","internalType":"uint96"},{"name":"maxCollectSupply","type":"uint32","internalType":"uint32"},{"name":"collectCount","type":"uint32","internalType":"uint32"},{"name":"arweaveHash","type":"string","internalType":"string"}]}],"stateMutability":"view"},{"type":"function","name":"getArticleIdByArweaveId","inputs":[{"name":"_arweaveId","type":"string","internalType":"string"}],"outputs":[{"name":"","type":"uint256","internalType":"uint256"}],"stateMutability":"view"},{"type":"function","name":"getRoleAdmin","inputs":[{"name":"role","type":"bytes32","internalType":"bytes32"}],"outputs":[{"name":"","type":"bytes32","internalType":"bytes32"}],"stateMutability":"view"},{"type":"function","name":"grantRole","inputs":[{"name":"role","type":"bytes32","internalType":"bytes32"},{"name":"account","type":"address","internalType":"address"}],"outputs":[],"stateMutability":"nonpayable"},{"type":"function","name":"hasRole","inputs":[{"name":"role","type":"bytes32","internalType":"bytes32"},{"name":"account","type":"address","internalType":"address"}],"outputs":[{"name":"","type":"bool","internalType":"bool"}],"stateMutability":"view"},{"type":"function","name":"initialize","inputs":[{"name":"_initialOwner","type":"address","internalType":"address"},{"name":"_treasury","type":"address","internalType":"address"}],"outputs":[],"stateMutability":"nonpayable"},{"type":"function","name":"isApprovedForAll","inputs":[{"name":"account","type":"address","internalType":"address"},{"name":"operator","type":"address","internalType":"address"}],"outputs":[{"name":"","type":"bool","internalType":"bool"}],"stateMutability":"view"},{"type":"function","name":"likeComment","inputs":[{"name":"_articleId","type":"uint256","internalType":"uint256"},{"name":"_commentId","type":"uint256","internalType":"uint256"},{"name":"_commenter","type":"address","internalType":"address"},{"name":"_referrer","type":"address","internalType":"address"}],"outputs":[],"stateMutability":"payable"},{"type":"function","name":"likeCommentWithSessionKey","inputs":[{"name":"owner","type":"address","internalType":"address"},{"name":"sessionKey","type":"address","internalType":"address"},{"name":"_articleId","type":"uint256","internalType":"uint256"},{"name":"_commentId","type":"uint256","internalType":"uint256"},{"name":"_commenter","type":"address","internalType":"address"},{"name":"_referrer","type":"address","internalType":"address"},{"name":"deadline","type":"uint256","internalType":"uint256"},{"name":"signature","type":"bytes","internalType":"bytes"}],"outputs":[],"stateMutability":"payable"},{"type":"function","name":"minActionValue","inputs":[],"outputs":[{"name":"","type":"uint256","internalType":"uint256"}],"stateMutability":"view"},{"type":"function","name":"multicall","inputs":[{"name":"data","type":"bytes[]","internalType":"bytes[]"}],"outputs":[{"name":"results","type":"bytes[]","internalType":"bytes[]"}],"stateMutability":"nonpayable"},{"type":"function","name":"nextArticleId","inputs":[],"outputs":[{"name":"","type":"uint256","internalType":"uint256"}],"stateMutability":"view"},{"type":"function","name":"pause","inputs":[],"outputs":[],"stateMutability":"nonpayable"},{"type":"function","name":"paused","inputs":[],"outputs":[{"name":"","type":"bool","internalType":"bool"}],"stateMutability":"view"},{"type":"function","name":"platformFeeBps","inputs":[],"outputs":[{"name":"","type":"uint96","internalType":"uint96"}],"stateMutability":"view"},{"type":"function","name":"platformTreasury","inputs":[],"outputs":[{"name":"","type":"address","internalType":"address"}],"stateMutability":"view"},{"type":"function","name":"proxiableUUID","inputs":[],"outputs":[{"name":"","type":"bytes32","internalType":"bytes32"}],"stateMutability":"view"},{"type":"function","name":"publish","inputs":[{"name":"_arweaveId","type":"string","internalType":"string"},{"name":"_categoryId","type":"uint64","internalType":"uint64"},{"name":"_royaltyBps","type":"uint96","internalType":"uint96"},{"name":"_originalAuthor","type":"string","internalType":"string"},{"name":"_title","type":"string","internalType":"string"},{"name":"_trueAuthor","type":"address","internalType":"address"},{"name":"_collectPrice","type":"uint256","internalType":"uint256"},{"name":"_maxCollectSupply","type":"uint256","internalType":"uint256"},{"name":"_originality","type":"uint8","internalType":"enum BlogHub.Originality"}],"outputs":[{"name":"","type":"uint256","internalType":"uint256"}],"stateMutability":"nonpayable"},{"type":"function","name":"publishWithSessionKey","inputs":[{"name":"owner","type":"address","internalType":"address"},{"name":"sessionKey","type":"address","internalType":"address"},{"name":"params","type":"tuple","internalType":"struct BlogHub.PublishParams","components":[{"name":"arweaveId","type":"string","internalType":"string"},{"name":"categoryId","type":"uint64","internalType":"uint64"},{"name":"royaltyBps","type":"uint96","internalType":"uint96"},{"name":"originalAuthor","type":"string","internalType":"string"},{"name":"title","type":"string","internalType":"string"},{"name":"trueAuthor","type":"address","internalType":"address"},{"name":"collectPrice","type":"uint256","internalType":"uint256"},{"name":"maxCollectSupply","type":"uint256","internalType":"uint256"},{"name":"originality","type":"uint8","internalType":"enum BlogHub.Originality"}]},{"name":"deadline","type":"uint256","internalType":"uint256"},{"name":"signature","type":"bytes","internalType":"bytes"}],"outputs":[{"name":"","type":"uint256","internalType":"uint256"}],"stateMutability":"nonpayable"},{"type":"function","name":"renounceRole","inputs":[{"name":"role","type":"bytes32","internalType":"bytes32"},{"name":"callerConfirmation","type":"address","internalType":"address"}],"outputs":[],"stateMutability":"nonpayable"},{"type":"function","name":"revokeRole","inputs":[{"name":"role","type":"bytes32","internalType":"bytes32"},{"name":"account","type":"address","internalType":"address"}],"outputs":[],"stateMutability":"nonpayable"},{"type":"function","name":"royaltyInfo","inputs":[{"name":"tokenId","type":"uint256","internalType":"uint256"},{"name":"salePrice","type":"uint256","internalType":"uint256"}],"outputs":[{"name":"receiver","type":"address","internalType":"address"},{"name":"amount","type":"uint256","internalType":"uint256"}],"stateMutability":"view"},{"type":"function","name":"safeBatchTransferFrom","inputs":[{"name":"from","type":"address","internalType":"address"},{"name":"to","type":"address","internalType":"address"},{"name":"ids","type":"uint256[]","internalType":"uint256[]"},{"name":"values","type":"uint256[]","internalType":"uint256[]"},{"name":"data","type":"bytes","internalType":"bytes"}],"outputs":[],"stateMutability":"nonpayable"},{"type":"function","name":"safeTransferFrom","inputs":[{"name":"from","type":"address","internalType":"address"},{"name":"to","type":"address","internalType":"address"},{"name":"id","type":"uint256","internalType":"uint256"},{"name":"value","type":"uint256","internalType":"uint256"},{"name":"data","type":"bytes","internalType":"bytes"}],"outputs":[],"stateMutability":"nonpayable"},{"type":"function","name":"sessionKeyManager","inputs":[],"outputs":[{"name":"","type":"address","internalType":"contract ISessionKeyManager"}],"stateMutability":"view"},{"type":"function","name":"setApprovalForAll","inputs":[{"name":"operator","type":"address","internalType":"address"},{"name":"approved","type":"bool","internalType":"bool"}],"outputs":[],"stateMutability":"nonpayable"},{"type":"function","name":"setMinActionValue","inputs":[{"name":"_minActionValue","type":"uint256","internalType":"uint256"}],"outputs":[],"stateMutability":"nonpayable"},{"type":"function","name":"setPlatformFee","inputs":[{"name":"_feeBps","type":"uint96","internalType":"uint96"}],"outputs":[],"stateMutability":"nonpayable"},{"type":"function","name":"setPlatformTreasury","inputs":[{"name":"_treasury","type":"address","internalType":"address"}],"outputs":[],"stateMutability":"nonpayable"},{"type":"function","name":"setSessionKeyManager","inputs":[{"name":"_sessionKeyManager","type":"address","internalType":"address"}],"outputs":[],"stateMutability":"nonpayable"},{"type":"function","name":"supportsInterface","inputs":[{"name":"interfaceId","type":"bytes4","internalType":"bytes4"}],"outputs":[{"name":"","type":"bool","internalType":"bool"}],"stateMutability":"view"},{"type":"function","name":"unpause","inputs":[],"outputs":[],"stateMutability":"nonpayable"},{"type":"function","name":"updateProfile","inputs":[{"name":"_nickname","type":"string","internalType":"string"},{"name":"_avatar","type":"string","internalType":"string"},{"name":"_bio","type":"string","internalType":"string"}],"outputs":[],"stateMutability":"nonpayable"},{"type":"function","name":"upgradeToAndCall","inputs":[{"name":"newImplementation","type":"address","internalType":"address"},{"name":"data","type":"bytes","internalType":"bytes"}],"outputs":[],"stateMutability":"payable"},{"type":"function","name":"uri","inputs":[{"name":"_id","type":"uint256","internalType":"uint256"}],"outputs":[{"name":"","type":"string","internalType":"string"}],"stateMutability":"view"},{"type":"event","name":"ApprovalForAll","inputs":[{"name":"account","type":"address","indexed":true,"internalType":"address"},{"name":"operator","type":"address","indexed":true,"internalType":"address"},{"name":"approved","type":"bool","indexed":false,"internalType":"bool"}],"anonymous":false},{"type":"event","name":"ArticleCollected","inputs":[{"name":"articleId","type":"uint256","indexed":true,"internalType":"uint256"},{"name":"collector","type":"address","indexed":true,"internalType":"address"},{"name":"amount","type":"uint256","indexed":false,"internalType":"uint256"},{"name":"tokenId","type":"uint256","indexed":false,"internalType":"uint256"}],"anonymous":false},{"type":"event","name":"ArticleEvaluated","inputs":[{"name":"articleId","type":"uint256","indexed":true,"internalType":"uint256"},{"name":"user","type":"address","indexed":true,"internalType":"address"},{"name":"score","type":"uint8","indexed":false,"internalType":"uint8"},{"name":"amountPaid","type":"uint256","indexed":false,"internalType":"uint256"}],"anonymous":false},{"type":"event","name":"ArticlePublished","inputs":[{"name":"articleId","type":"uint256","indexed":true,"internalType":"uint256"},{"name":"author","type":"address","indexed":true,"internalType":"address"},{"name":"categoryId","type":"uint256","indexed":true,"internalType":"uint256"},{"name":"arweaveId","type":"string","indexed":false,"internalType":"string"},{"name":"originalAuthor","type":"string","indexed":false,"internalType":"string"},{"name":"title","type":"string","indexed":false,"internalType":"string"},{"name":"trueAuthor","type":"address","indexed":false,"internalType":"address"},{"name":"collectPrice","type":"uint256","indexed":false,"internalType":"uint256"},{"name":"maxCollectSupply","type":"uint256","indexed":false,"internalType":"uint256"},{"name":"originality","type":"uint8","indexed":false,"internalType":"enum BlogHub.Originality"}],"anonymous":false},{"type":"event","name":"CommentAdded","inputs":[{"name":"articleId","type":"uint256","indexed":true,"internalType":"uint256"},{"name":"commenter","type":"address","indexed":true,"internalType":"address"},{"name":"content","type":"string","indexed":false,"internalType":"string"},{"name":"parentCommentId","type":"uint256","indexed":false,"internalType":"uint256"},{"name":"score","type":"uint8","indexed":false,"internalType":"uint8"}],"anonymous":false},{"type":"event","name":"CommentLiked","inputs":[{"name":"articleId","type":"uint256","indexed":true,"internalType":"uint256"},{"name":"commentId","type":"uint256","indexed":true,"internalType":"uint256"},{"name":"liker","type":"address","indexed":true,"internalType":"address"},{"name":"commenter","type":"address","indexed":false,"internalType":"address"},{"name":"amountPaid","type":"uint256","indexed":false,"internalType":"uint256"}],"anonymous":false},{"type":"event","name":"FollowStatusChanged","inputs":[{"name":"follower","type":"address","indexed":true,"internalType":"address"},{"name":"target","type":"address","indexed":true,"internalType":"address"},{"name":"isFollowing","type":"bool","indexed":false,"internalType":"bool"}],"anonymous":false},{"type":"event","name":"Initialized","inputs":[{"name":"version","type":"uint64","indexed":false,"internalType":"uint64"}],"anonymous":false},{"type":"event","name":"MinActionValueUpdated","inputs":[{"name":"newValue","type":"uint256","indexed":false,"internalType":"uint256"}],"anonymous":false},{"type":"event","name":"Paused","inputs":[{"name":"account","type":"address","indexed":false,"internalType":"address"}],"anonymous":false},{"type":"event","name":"PlatformFeeUpdated","inputs":[{"name":"newFeeBps","type":"uint96","indexed":false,"internalType":"uint96"}],"anonymous":false},{"type":"event","name":"ReferralPaid","inputs":[{"name":"referrer","type":"address","indexed":true,"internalType":"address"},{"name":"amount","type":"uint256","indexed":false,"internalType":"uint256"}],"anonymous":false},{"type":"event","name":"RoleAdminChanged","inputs":[{"name":"role","type":"bytes32","indexed":true,"internalType":"bytes32"},{"name":"previousAdminRole","type":"bytes32","indexed":true,"internalType":"bytes32"},{"name":"newAdminRole","type":"bytes32","indexed":true,"internalType":"bytes32"}],"anonymous":false},{"type":"event","name":"RoleGranted","inputs":[{"name":"role","type":"bytes32","indexed":true,"internalType":"bytes32"},{"name":"account","type":"address","indexed":true,"internalType":"address"},{"name":"sender","type":"address","indexed":true,"internalType":"address"}],"anonymous":false},{"type":"event","name":"RoleRevoked","inputs":[{"name":"role","type":"bytes32","indexed":true,"internalType":"bytes32"},{"name":"account","type":"address","indexed":true,"internalType":"address"},{"name":"sender","type":"address","indexed":true,"internalType":"address"}],"anonymous":false},{"type":"event","name":"SessionKeyManagerUpdated","inputs":[{"name":"newManager","type":"address","indexed":true,"internalType":"address"}],"anonymous":false},{"type":"event","name":"SessionKeyOperationExecuted","inputs":[{"name":"owner","type":"address","indexed":true,"internalType":"address"},{"name":"sessionKey","type":"address","indexed":true,"internalType":"address"},{"name":"selector","type":"bytes4","indexed":false,"internalType":"bytes4"}],"anonymous":false},{"type":"event","name":"TransferBatch","inputs":[{"name":"operator","type":"address","indexed":true,"internalType":"address"},{"name":"from","type":"address","indexed":true,"internalType":"address"},{"name":"to","type":"address","indexed":true,"internalType":"address"},{"name":"ids","type":"uint256[]","indexed":false,"internalType":"uint256[]"},{"name":"values","type":"uint256[]","indexed":false,"internalType":"uint256[]"}],"anonymous":false},{"type":"event","name":"TransferSingle","inputs":[{"name":"operator","type":"address","indexed":true,"internalType":"address"},{"name":"from","type":"address","indexed":true,"internalType":"address"},{"name":"to","type":"address","indexed":true,"internalType":"address"},{"name":"id","type":"uint256","indexed":false,"internalType":"uint256"},{"name":"value","type":"uint256","indexed":false,"internalType":"uint256"}],"anonymous":false},{"type":"event","name":"TreasuryUpdated","inputs":[{"name":"newTreasury","type":"address","indexed":false,"internalType":"address"}],"anonymous":false},{"type":"event","name":"URI","inputs":[{"name":"value","type":"string","indexed":false,"internalType":"string"},{"name":"id","type":"uint256","indexed":true,"internalType":"uint256"}],"anonymous":false},{"type":"event","name":"Unpaused","inputs":[{"name":"account","type":"address","indexed":false,"internalType":"address"}],"anonymous":false},{"type":"event","name":"Upgraded","inputs":[{"name":"implementation","type":"address","indexed":true,"internalType":"address"}],"anonymous":false},{"type":"event","name":"UserProfileUpdated","inputs":[{"name":"user","type":"address","indexed":true,"internalType":"address"},{"name":"nickname","type":"string","indexed":false,"internalType":"string"},{"name":"avatar","type":"string","indexed":false,"internalType":"string"},{"name":"bio","type":"string","indexed":false,"internalType":"string"}],"anonymous":false},{"type":"error","name":"AccessControlBadConfirmation","inputs":[]},{"type":"error","name":"AccessControlUnauthorizedAccount","inputs":[{"name":"account","type":"address","internalType":"address"},{"name":"neededRole","type":"bytes32","internalType":"bytes32"}]},{"type":"error","name":"AddressEmptyCode","inputs":[{"name":"target","type":"address","internalType":"address"}]},{"type":"error","name":"ArticleNotFound","inputs":[]},{"type":"error","name":"CategoryIdTooHigh","inputs":[]},{"type":"error","name":"CollectNotEnabled","inputs":[]},{"type":"error","name":"CollectPriceTooHigh","inputs":[]},{"type":"error","name":"ContentRequiredForScore","inputs":[]},{"type":"error","name":"ERC1155InsufficientBalance","inputs":[{"name":"sender","type":"address","internalType":"address"},{"name":"balance","type":"uint256","internalType":"uint256"},{"name":"needed","type":"uint256","internalType":"uint256"},{"name":"tokenId","type":"uint256","internalType":"uint256"}]},{"type":"error","name":"ERC1155InvalidApprover","inputs":[{"name":"approver","type":"address","internalType":"address"}]},{"type":"error","name":"ERC1155InvalidArrayLength","inputs":[{"name":"idsLength","type":"uint256","internalType":"uint256"},{"name":"valuesLength","type":"uint256","internalType":"uint256"}]},{"type":"error","name":"ERC1155InvalidOperator","inputs":[{"name":"operator","type":"address","internalType":"address"}]},{"type":"error","name":"ERC1155InvalidReceiver","inputs":[{"name":"receiver","type":"address","internalType":"address"}]},{"type":"error","name":"ERC1155InvalidSender","inputs":[{"name":"sender","type":"address","internalType":"address"}]},{"type":"error","name":"ERC1155MissingApprovalForAll","inputs":[{"name":"operator","type":"address","internalType":"address"},{"name":"owner","type":"address","internalType":"address"}]},{"type":"error","name":"ERC1967InvalidImplementation","inputs":[{"name":"implementation","type":"address","internalType":"address"}]},{"type":"error","name":"ERC1967NonPayable","inputs":[]},{"type":"error","name":"ERC2981InvalidDefaultRoyalty","inputs":[{"name":"numerator","type":"uint256","internalType":"uint256"},{"name":"denominator","type":"uint256","internalType":"uint256"}]},{"type":"error","name":"ERC2981InvalidDefaultRoyaltyReceiver","inputs":[{"name":"receiver","type":"address","internalType":"address"}]},{"type":"error","name":"ERC2981InvalidTokenRoyalty","inputs":[{"name":"tokenId","type":"uint256","internalType":"uint256"},{"name":"numerator","type":"uint256","internalType":"uint256"},{"name":"denominator","type":"uint256","internalType":"uint256"}]},{"type":"error","name":"ERC2981InvalidTokenRoyaltyReceiver","inputs":[{"name":"tokenId","type":"uint256","internalType":"uint256"},{"name":"receiver","type":"address","internalType":"address"}]},{"type":"error","name":"EnforcedPause","inputs":[]},{"type":"error","name":"ExpectedPause","inputs":[]},{"type":"error","name":"FailedCall","inputs":[]},{"type":"error","name":"FeeTooHigh","inputs":[]},{"type":"error","name":"InsufficientPayment","inputs":[]},{"type":"error","name":"InvalidAddress","inputs":[]},{"type":"error","name":"InvalidCommenter","inputs":[]},{"type":"error","name":"InvalidInitialization","inputs":[]},{"type":"error","name":"InvalidLength","inputs":[]},{"type":"error","name":"InvalidScore","inputs":[]},{"type":"error","name":"MaxCollectSupplyTooHigh","inputs":[]},{"type":"error","name":"MaxSupplyReached","inputs":[]},{"type":"error","name":"NotInitializing","inputs":[]},{"type":"error","name":"OriginalAuthorTooLong","inputs":[]},{"type":"error","name":"ReentrancyGuardReentrantCall","inputs":[]},{"type":"error","name":"RoyaltyTooHigh","inputs":[]},{"type":"error","name":"SessionKeyManagerNotSet","inputs":[]},{"type":"error","name":"SessionKeyValidationFailed","inputs":[]},{"type":"error","name":"SpamProtection","inputs":[]},{"type":"error","name":"TitleTooLong","inputs":[]},{"type":"error","name":"TransferFailed","inputs":[]},{"type":"error","name":"UUPSUnauthorizedCallContext","inputs":[]},{"type":"error","name":"UUPSUnsupportedProxiableUUID","inputs":[{"name":"slot","type":"bytes32","internalType":"bytes32"}]}],"bytecode":{"object":"0x60a080604052346100e65760017f9b779b17422d0df92223018b32b4d1fa46e071723d6817e2486d003becc55f0055306080525f516020614afe5f395f51905f525460ff8160401c166100d7576002600160401b03196001600160401b03821601610084575b604051614a1390816100eb8239608051818181610f3501526110a90152f35b6001600160401b0319166001600160401b039081175f516020614afe5f395f51905f525581527fc7f505b2f371ae2175ee4913f4499e1f2633a7b5936321eed1cdaeb6115181d290602090a15f80610065565b63f92ee8a960e01b5f5260045ffd5b5f80fdfe60806040526004361015610011575f80fd5b5f3560e01c8062fdd58e146103a457806301ffc9a71461039f5780630b8261901461039a5780630e89341c146103955780631105a5eb1461039057806319e94a6e146102b95780631fe9d5781461037757806322dcd13e1461038b578063248a9ca3146103865780632a55205a146103815780632eb2c2d61461037c5780632ef9a160146103775780632f2ff15d1461037257806336568abe1461036d5780633f4ba83a14610368578063473106b2146102fa578063485cc955146103635780634b65f3441461035e5780634e1273f4146103595780634f1ef2861461035457806352cbd3be1461034f57806352d1902d1461034a5780635780400b146103455780635856e4fa146103405780635c975abb1461033b57806363c3cc161461033657806363c4ea4d14610331578063795146ef1461032c57806379c61f28146103275780637cd86d6014610322578063837fa3fd1461031d5780638456cb591461031857806385c3ab54146103135780638cbd215e1461030e5780638d3c100a1461030957806391d1485414610304578063989cfb57146102ff578063a217fddf146102fa578063a22cb465146102f5578063ac9650d8146102f0578063ad3cb1cc146102eb578063b055d7aa146102e6578063c477d7f7146102e1578063d547741f146102dc578063df7f942b146102d7578063dffd40f2146102d2578063e138818c146102cd578063e1d90b34146102c8578063e63ab1e9146102c3578063e7628e4d146102be578063e8f100bf146102b9578063e985e9c5146102b4578063edcfafe6146102af578063f242432a146102aa578063f72c0d8b146102a5578063f99e5dbb146102a0578063fde847191461029b5763ff1f090a14610296575f80fd5b61218b565b612170565b6120eb565b6120b1565b611fb5565b611f2c565b611dcd565b6107ac565b611d1e565b611c90565b611c75565b611c55565b611c0f565b611b7f565b611b32565b611b16565b611aa8565b611a4f565b6119cf565b6118de565b610c06565b611852565b611734565b6116eb565b6116ce565b6116b2565b611641565b6115d5565b611544565b61140c565b61130f565b61127d565b61125d565b61120a565b6111ee565b6110f8565b611097565b61104b565b610ef3565b610e32565b610dd5565b610c45565b610b88565b610b40565b610aee565b6107c7565b610a5a565b610847565b610808565b6107e2565b6106a4565b61053b565b6104db565b610438565b6103cd565b6001600160a01b038116036103ba57565b5f80fd5b60a435906103cb826103a9565b565b346103ba5760403660031901126103ba57602061041d6004356103ef816103a9565b6024355f525f51602061491e5f395f51905f52835260405f209060018060a01b03165f5260205260405f2090565b54604051908152f35b6001600160e01b03198116036103ba57565b346103ba5760203660031901126103ba5760043561045581610426565b63ffffffff60e01b16637965db0b60e01b811490811561047e575b506040519015158152602090f35b63152a902d60e11b811491508115610498575b505f610470565b636cdb3d1360e11b8114915081156104ca575b81156104b9575b505f610491565b6301ffc9a760e01b1490505f6104b2565b6303a24d0760e21b811491506104ab565b346103ba575f3660031901126103ba576004546040516001600160a01b039091168152602090f35b805180835260209291819084018484015e5f828201840152601f01601f1916010190565b906020610538928181520190610503565b90565b346103ba5760203660031901126103ba576004358015801561066c575b61065d575f526002602052600260405f20016040517f68747470733a2f2f676174657761792e697279732e78797a2f6d757461626c656020820152602f60f81b60408201525f918054906105ab82611dec565b916001811690811561063657506001146105fa575b680bda5b99195e0b9b5960ba1b84526105f6836105ea81600988015b03601f198101835282610949565b60405191829182610527565b0390f35b9092505f5260205f205f905b83821061061f575050908101604101906105ea816105c0565b600181602092546041858701015201910190610606565b60ff1916604180860191909152831515909302840190920193506105ea91508290506105c0565b63522e582d60e11b5f5260045ffd5b505f54811015610558565b9181601f840112156103ba578235916001600160401b0383116103ba57602083818601950101116103ba57565b346103ba5760603660031901126103ba576004356001600160401b0381116103ba576106d4903690600401610677565b906024356001600160401b0381116103ba576106f4903690600401610677565b9190926044356001600160401b0381116103ba57610716903690600401610677565b61072195919561304b565b6040831161079d576080851161079d57610100811161079d57610788610798927f198eb8de772c5a42c31d10ea779636d74f5a7cd2633012f88632697fae910db49661077a60405197889760608952606089019161225f565b91868303602088015261225f565b908382036040850152339661225f565b0390a2005b63251f56a160e21b5f5260045ffd5b346103ba575f3660031901126103ba57602060405160408152f35b346103ba575f3660031901126103ba57602060405160808152f35b346103ba575f3660031901126103ba5760206001600160601b0360015416604051908152f35b346103ba5760203660031901126103ba57602061083f6004355f525f51602061493e5f395f51905f52602052600160405f20015490565b604051908152f35b346103ba5760403660031901126103ba576004355f9081527fdaedc9ab023613a7caf35e703657e986ccfad7e3eb0af93a2853f8d65dd86b0160205260409020546001600160a01b038116906024359060a01c82156108dd575b6108c0916001600160601b036108b89216906122b0565b612710900490565b604080516001600160a01b03939093168352602083019190915290f35b507fdaedc9ab023613a7caf35e703657e986ccfad7e3eb0af93a2853f8d65dd86b00546001600160a01b038116925060a01c6108a1565b634e487b7160e01b5f52604160045260245ffd5b61010081019081106001600160401b0382111761094457604052565b610914565b90601f801991011681019081106001600160401b0382111761094457604052565b604051906103cb61010083610949565b6001600160401b0381116109445760051b60200190565b9080601f830112156103ba5781356109a88161097a565b926109b66040519485610949565b81845260208085019260051b8201019283116103ba57602001905b8282106109de5750505090565b81358152602091820191016109d1565b6001600160401b03811161094457601f01601f191660200190565b929192610a15826109ee565b91610a236040519384610949565b8294818452818301116103ba578281602093845f960137010152565b9080601f830112156103ba5781602061053893359101610a09565b346103ba5760a03660031901126103ba57600435610a77816103a9565b60243590610a84826103a9565b6044356001600160401b0381116103ba57610aa3903690600401610991565b6064356001600160401b0381116103ba57610ac2903690600401610991565b90608435936001600160401b0385116103ba57610ae6610aec953690600401610a3f565b936122c3565b005b346103ba5760403660031901126103ba57610aec602435600435610b11826103a9565b610b3b610b36825f525f51602061493e5f395f51905f52602052600160405f20015490565b61319f565b613403565b346103ba5760403660031901126103ba57600435602435610b60816103a9565b336001600160a01b03821603610b7957610aec91613498565b63334bd91960e11b5f5260045ffd5b346103ba575f3660031901126103ba57610ba0613072565b5f51602061495e5f395f51905f525460ff811615610bf75760ff19165f51602061495e5f395f51905f52557f5db9ee0a495bf2e6ff9c91a7834c1ba4fdd244a5e8aa4e537bd38aeae4b073aa6020604051338152a1005b638dfc202b60e01b5f5260045ffd5b346103ba575f3660031901126103ba5760206040515f8152f35b60409060031901126103ba57600435610c38816103a9565b90602435610538816103a9565b346103ba57610c5336610c20565b5f51602061499e5f395f51905f525491906001600160401b03610c8560ff604086901c1615946001600160401b031690565b1680159081610d9f575b6001149081610d95575b159081610d8c575b50610d7d57610ce49183610cdb60016001600160401b03195f51602061499e5f395f51905f525416175f51602061499e5f395f51905f5255565b610d4357612314565b610cea57005b610d1460ff60401b195f51602061499e5f395f51905f5254165f51602061499e5f395f51905f5255565b604051600181527fc7f505b2f371ae2175ee4913f4499e1f2633a7b5936321eed1cdaeb6115181d290602090a1005b610d786801000000000000000060ff60401b195f51602061499e5f395f51905f525416175f51602061499e5f395f51905f5255565b612314565b63f92ee8a960e01b5f5260045ffd5b9050155f610ca1565b303b159150610c99565b849150610c8f565b60206003198201126103ba57600435906001600160401b0382116103ba57610dd191600401610677565b9091565b346103ba57602061041d610de836610da7565b906124f2565b90602080835192838152019201905f5b818110610e0b5750505090565b8251845260209384019390920191600101610dfe565b906020610538928181520190610dee565b346103ba5760403660031901126103ba576004356001600160401b0381116103ba57366023820112156103ba57806004013590610e6e8261097a565b91610e7c6040519384610949565b8083526024602084019160051b830101913683116103ba57602401905b828210610ed957836024356001600160401b0381116103ba576105f691610ec7610ecd923690600401610991565b90612538565b60405191829182610e21565b602080918335610ee8816103a9565b815201910190610e99565b60403660031901126103ba57600435610f0b816103a9565b6024356001600160401b0381116103ba57610f2a903690600401610a3f565b906001600160a01b037f000000000000000000000000000000000000000000000000000000000000000016308114908115611029575b5061101a57610f6d6130e1565b6040516352d1902d60e01b8152916020836004816001600160a01b0386165afa5f9381610fe9575b50610fb657634c9c8ce360e01b5f526001600160a01b03821660045260245ffd5b905f5160206148de5f395f51905f528303610fd557610aec925061443a565b632a87526960e21b5f52600483905260245ffd5b61100c91945060203d602011611013575b6110048183610949565b8101906135ab565b925f610f95565b503d610ffa565b63703e46dd60e11b5f5260045ffd5b5f5160206148de5f395f51905f52546001600160a01b0316141590505f610f60565b346103ba5760203660031901126103ba577ffcae2461302da2a86e3604d10afc558dc160d49eb88bc010c4bca093793857ff602060043561108a613150565b80600555604051908152a1005b346103ba575f3660031901126103ba577f00000000000000000000000000000000000000000000000000000000000000006001600160a01b0316300361101a5760206040515f5160206148de5f395f51905f528152f35b801515036103ba57565b346103ba5760c03660031901126103ba57600435611115816103a9565b602435611121816103a9565b60443561112d816103a9565b606435611139816110ee565b6084359160a4356001600160401b0381116103ba576111bc936111636111b6923690600401610677565b9161116c61304b565b6111746135c5565b6040516331e1e60b60e11b60208201526001600160a01b038716602482015287151560448083019190915281529089908b906111b1606485610949565b6135fe565b84613899565b6040516331e1e60b60e11b81526001600160a01b0391821692909116905f5160206148fe5f395f51905f5290602090a3005b346103ba575f3660031901126103ba5760206040516104008152f35b346103ba575f3660031901126103ba57602060ff5f51602061495e5f395f51905f5254166040519015158152f35b60409060031901126103ba57600435611250816103a9565b90602435610538816110ee565b346103ba57610aec61126e36611238565b9061127761304b565b33613899565b6101203660031901126103ba57600435611296816103a9565b6024356112a2816103a9565b6044359160643560ff811681036103ba576084356001600160401b0381116103ba576112d2903690600401610677565b6112da6103be565b9060c4359260e4359461010435986001600160401b038a116103ba57611307610aec9a3690600401610677565b9990986125cd565b60c03660031901126103ba57600435611327816103a9565b602435611333816103a9565b606435604435611342826103a9565b6084359160a4356001600160401b0381116103ba576113c99361136c6113c1923690600401610677565b916113756138d8565b61137d61304b565b6113856135c5565b60405163469e080560e11b6020820152602481018890526001600160a01b03871660448201526113b881606481016105dc565b898b34936136e3565b349185613b4b565b60405163469e080560e11b81526001600160a01b0391821692909116905f5160206148fe5f395f51905f5290602090a360015f51602061497e5f395f51905f5255005b6101003660031901126103ba57600435611425816103a9565b602435611431816103a9565b606435604435608435611443816103a9565b60a43590611450826103a9565b60e43560c4356001600160401b0382116103ba576114756114dd923690600401610677565b9161147e6138d8565b61148661304b565b61148e6135c5565b604051636ffea07960e11b602082015260248101899052604481018a90526001600160a01b038781166064830152881660848083019190915281526114d460a482610949565b8a8c34936137d0565b3415611535576114ef93349387613cab565b604051636ffea07960e11b81526001600160a01b0391821692909116905f5160206148fe5f395f51905f5290602090a3610aec60015f51602061497e5f395f51905f5255565b633f7d56c960e11b5f5260045ffd5b346103ba5760203660031901126103ba57600435611561816103a9565b611569613150565b6001600160a01b0381169081156115c6577f7dae230f18360d76a040c81f050aa14eb9d6dc7901b20fc5d855e2a20fe814d1916115bd6020926001600160601b036001549181199060601b16911617600155565b604051908152a1005b63e6c4247b60e01b5f5260045ffd5b346103ba5760203660031901126103ba576004356115f2816103a9565b6115fa613150565b6001600160a01b031680156115c657600480546001600160a01b031916821790557f4d57218e59793e6845c36a961c3af7acfce8c54b13a697da231466fc265fdb615f80a2005b346103ba575f3660031901126103ba57611659613072565b61166161304b565b600160ff195f51602061495e5f395f51905f525416175f51602061495e5f395f51905f52557f62e78cea01bee320cd4e420270b5ea74000d11b0c9f74754ebdbfc544b05a2586020604051338152a1005b346103ba575f3660031901126103ba5760205f54604051908152f35b346103ba575f3660031901126103ba576020600554604051908152f35b60403660031901126103ba57611721600435602435611709816103a9565b6117116138d8565b61171961304b565b349133613b4b565b60015f51602061497e5f395f51905f5255005b346103ba5760403660031901126103ba57602060ff61178660243560043561175b826103a9565b5f525f51602061493e5f395f51905f52845260405f209060018060a01b03165f5260205260405f2090565b54166040519015158152f35b6003111561179c57565b634e487b7160e01b5f52602160045260245ffd5b90600382101561179c5752565b602080825282516001600160a01b0316828201528201516001600160401b031660408083019190915282015161ffff166060820152610538916101209060e09061180f606082015160808601906117b0565b60808101516001600160601b031660a085015260a081015163ffffffff1660c085015260c081015163ffffffff1684830152015191610100808201520190610503565b346103ba57602061186236610da7565b9190606060e060405161187481610928565b5f81525f858201525f60408201525f838201525f60808201525f60a08201525f60c082015201528260405193849283378101600381520301902054801561065d576118d26118cd6105f6925f52600260205260405f2090565b6126bc565b604051918291826117bd565b346103ba576118ec36611238565b6001600160a01b03821691821561195e5761191f9061190a336121f3565b9060018060a01b03165f5260205260405f2090565b9015159060ff1981541660ff83161790556040519081527f17307eab39ab6107e8899845ad3d59bd9653f200f220920489ca2b5937696c3160203392a3005b62ced3e160e81b5f525f60045260245ffd5b602081016020825282518091526040820191602060408360051b8301019401925f915b8383106119a257505050505090565b90919293946020806119c0600193603f198682030187528951610503565b97019301930191939290611993565b346103ba5760203660031901126103ba576004356001600160401b0381116103ba57366023820112156103ba578060040135906001600160401b0382116103ba573660248360051b830101116103ba576105f6916024611a2f9201612810565b60405191829182611970565b60405190611a4a602083610949565b5f8252565b346103ba575f3660031901126103ba576105f6604051611a70604082610949565b60058152640352e302e360dc1b6020820152604051918291602083526020830190610503565b805191908290602001825e015f815290565b346103ba5760203660031901126103ba576004356001600160401b0381116103ba57366023820112156103ba57611afd6020611af16105f6933690602481600401359101610a09565b60405192838092611a96565b6003815203019020546040519081529081906020820190565b346103ba575f3660031901126103ba5760206040516101008152f35b346103ba5760403660031901126103ba57610aec602435600435611b55826103a9565b611b7a610b36825f525f51602061493e5f395f51905f52602052600160405f20015490565b613498565b346103ba5760a03660031901126103ba57600435611b9c816103a9565b602435611ba8816103a9565b604435906001600160401b0382116103ba5761012060031983360301126103ba57608435916064356001600160401b0384116103ba576105f694611bf3611bff953690600401610677565b949093600401916128cc565b6040519081529081906020820190565b60803660031901126103ba57611721600435602435604435611c30816103a9565b60643591611c3d836103a9565b611c456138d8565b611c4d61304b565b349333613cab565b346103ba575f3660031901126103ba57602060015460601c604051908152f35b346103ba575f3660031901126103ba57602060405160018152f35b346103ba575f3660031901126103ba5760206040517f65d7a28e3265b37a6474929f336521b332c1681b933f6cb9f3376673440d862a8152f35b6001600160401b038116036103ba57565b602435906103cb82611cca565b6001600160601b038116036103ba57565b604435906103cb82611ce8565b600311156103ba57565b61010435906103cb82611d06565b346103ba576101203660031901126103ba576004356001600160401b0381116103ba57611d4f903690600401610677565b90611d58611cdb565b90611d61611cf9565b926064356001600160401b0381116103ba57611d81903690600401610677565b939094608435946001600160401b0386116103ba576105f696611dab611bff973690600401610677565b929091611db66103be565b9460c4359660e43598611dc7611d10565b9a612ed6565b346103ba57602060ff61178661190a611de536610c20565b91906121f3565b90600182811c92168015611e1a575b6020831014611e0657565b634e487b7160e01b5f52602260045260245ffd5b91607f1691611dfb565b9060405191825f825492611e3784611dec565b8084529360018116908115611ea05750600114611e5c575b506103cb92500383610949565b90505f9291925260205f20905f915b818310611e845750509060206103cb928201015f611e4f565b6020919350806001915483858901015201910190918492611e6b565b9050602092506103cb94915060ff191682840152151560051b8201015f611e4f565b946001600160601b0390611f0d63ffffffff9661ffff6105389c9b976001600160401b038a986101009d9860018060a01b03168d521660208c01521660408a015260608901906117b0565b1660808601521660a08401521660c08201528160e08201520190610503565b346103ba5760203660031901126103ba576004355f52600260205260405f208054906105f6611f62600260018401549301611e24565b604051938363ffffffff869560801c16916001600160601b0363ffffffff8360601c1692169060ff8160f01c169061ffff8160e01c16906001600160401b038160a01c169060018060a01b031689611ec2565b346103ba5760a03660031901126103ba57600435611fd2816103a9565b602435611fde816103a9565b60443590606435926084356001600160401b0381116103ba57612005903690600401610a3f565b926001600160a01b03821633811415806120a0575b61208a576001600160a01b03841615612077571561206557610aec9461205d60405192600184526020840152604083019160018352606084015260808301604052565b929091614212565b626a0d4560e21b5f525f60045260245ffd5b632bfa23e760e11b5f525f60045260245ffd5b63711bec9160e11b5f523360045260245260445ffd5b506120ab3384613037565b1561201a565b346103ba575f3660031901126103ba5760206040517f189ab7a9244df0848122154315af71fe140f3db0fe014031783b0946b8c9d2e38152f35b346103ba5760203660031901126103ba576001600160601b0360043561211081611ce8565b612118613150565b16610bb88111612161576020817f7cb8fa1ce2fc1ff6556e563c0dcba551db7cdeb3f3b0911243692639ac80e94d926001600160601b03196001541617600155604051908152a1005b63cd4e616760e01b5f5260045ffd5b346103ba575f3660031901126103ba57602060405160028152f35b60a03660031901126103ba5760243560043560ff821682036103ba57604435916001600160401b0383116103ba576121ca611721933690600401610677565b606435916121d7836103a9565b608435936121e36138d8565b6121eb61304b565b349533613965565b6001600160a01b03165f9081527f88be536d5240c274a3b1d3a1be54482fd9caa294f08c62a7cde569f49a3c45016020526040902090565b61225b915f525f51602061491e5f395f51905f5260205260405f209060018060a01b03165f5260205260405f2090565b5490565b908060209392818452848401375f828201840152601f01601f1916010190565b634e487b7160e01b5f52601160045260245ffd5b906103e88202918083046103e814901517156122ab57565b61227f565b818102929181159184041417156122ab57565b939291906001600160a01b03851633811415806122fc575b61208a576001600160a01b038216156120775715612065576103cb94614212565b5060ff61230c3361190a896121f3565b5416156122db565b604051929160206123258186610949565b5f855261233061440f565b61233861440f565b8451906001600160401b03821161094457612369826123645f5160206149be5f395f51905f5254611dec565b612bf1565b602090601f831160011461244b57508161240b93926123a29261242897985f92612440575b50508160011b915f199060031b1c19161790565b5f5160206149be5f395f51905f52555b6123ba61440f565b6123c261440f565b6123ca61440f565b6123d261440f565b6123db836131e5565b506123e583613281565b506123ef83613342565b506001600160601b036001549181199060601b16911617600155565b61242360fa6001600160601b03196001541617600155565b613538565b61243160015f55565b6103cb6512309ce54000600555565b015190505f8061238e565b5f5160206149be5f395f51905f525f52601f198316969091907ff429cb5e2ec84cbb765e76b31964a56ccde03e7a6122d6cc4afb19edc55edeed925f905b8982106124da57505091839160019361240b9695612428999a106124c2575b505050811b015f5160206149be5f395f51905f52556123b2565b01515f1960f88460031b161c191690555f80806124a8565b80600185968294968601518155019501930190612489565b6020908260405193849283378101600381520301902090565b634e487b7160e01b5f52603260045260245ffd5b80518210156125335760209160051b010190565b61250b565b919091805183518082036125b85750508051906125548261097a565b916125626040519384610949565b808352612571601f199161097a565b013660208401375f5b81518110156125b157806125a060019260051b602080828701015191890101519061222b565b6125aa828661251f565b520161257a565b5090925050565b635b05999160e01b5f5260045260245260445ffd5b99819961266799878661265f958f612658899e9d9c9b9a998d8f6126358e6125f36138d8565b6125fb61304b565b6126036135c5565b9960ff6040519a8b97637f8f848560e11b60208a0152602489015216604487015260a0606487015260c486019161225f565b6001600160a01b03909216608484015260a483015203601f198101855284610949565b3493613766565b349589613965565b604051600162707b7b60e11b031981526001600160a01b0391821692909116905f5160206148fe5f395f51905f5290602090a36103cb60015f51602061497e5f395f51905f5255565b600382101561179c5752565b906040516126c981610928565b60e06127856002839561272861271f825460018060a01b03811688526001600160401b03808260a01c1616602089015261271661270b8261ffff9060e01c1690565b61ffff1660408a0152565b60f01c60ff1690565b606087016126b0565b61277f6127726001830154612756612746826001600160601b031690565b6001600160601b031660808a0152565b63ffffffff606082901c1660a089015260801c63ffffffff1690565b63ffffffff1660c0870152565b01611e24565b910152565b919082039182116122ab57565b903590601e19813603018212156103ba57018035906001600160401b0382116103ba576020019181360383136103ba57565b9082101561253357610dd19160051b810190612797565b6128026103cb92949360208660405197889583870137840101905f8252611a96565b03601f198101845283610949565b6128195f6109ee565b6128266040519182610949565b5f8152601f196128355f6109ee565b013660208301376128458361097a565b926128536040519485610949565b808452601f196128628261097a565b015f5b8181106128bb5750505f5b81811061287e575050505090565b8061289f61289985612893600195878a6127c9565b906127e0565b30613db9565b6128a9828861251f565b526128b4818761251f565b5001612870565b806060602080938901015201612865565b9192909394612930906128dd61304b565b6128e56135c5565b9660408601936128f485612b97565b9861291f606089019a6129078c8b612797565b61291760808d949394018d612797565b939092613e2c565b888761292a8a613e7f565b92613837565b60c0830135906001600160601b038211612b885761ffff6001600160401b0361295b60208701612ba1565b1611612b795760e08401359263ffffffff8411612b6a5760a085016001600160a01b0361298782612bab565b1615612b635761299690612bab565b905b5f549788936129a685612bb5565b5f556129b28880612797565b906129bf60208b01612ba1565b61ffff169163ffffffff8a166001600160601b038a166129e26101008e01612bc3565b6129ea61096a565b6001600160a01b038b168152956001600160401b034216602088015261ffff166040870152612a1c90606087016126b0565b6001600160601b0316608085015263ffffffff1660a0840152600160c08401523690612a4792610a09565b60e0820152612a5e865f52600260205260405f2090565b90612a6891612d5b565b84612a738980612797565b612a7c916124f2565b55612a85611a3b565b612a90908685613f9f565b612a9990612b97565b612aa4908486614140565b612ab060208801612ba1565b91612abb8880612797565b979092612ac8908a612797565b979095612ad860808c018c612797565b909b61010001612ae790612bc3565b94600160a01b60019003169b8c9a604051996001600160401b038b9a169d612b0f998b612e71565b037f20f06ccd8e783fa38422d2d4d0de66669fed0f0b45f372d88ff723d8063eb4ab91a460405163e7628e4d60e01b81526001600160a01b0392909216915f5160206148fe5f395f51905f5290602090a390565b5080612998565b6309c1d04f60e01b5f5260045ffd5b630e13ec1760e31b5f5260045ffd5b634264fe7960e01b5f5260045ffd5b3561053881611ce8565b3561053881611cca565b35610538816103a9565b5f1981146122ab5760010190565b3561053881611d06565b90600381101561179c57815460ff60f01b191660f09190911b60ff60f01b16179055565b601f8111612bfd575050565b5f5160206149be5f395f51905f525f5260205f20906020601f840160051c83019310612c43575b601f0160051c01905b818110612c38575050565b5f8155600101612c2d565b9091508190612c24565b601f8211612c5a57505050565b5f5260205f20906020601f840160051c83019310612c92575b601f0160051c01905b818110612c87575050565b5f8155600101612c7c565b9091508190612c73565b91909182516001600160401b03811161094457612cc381612cbd8454611dec565b84612c4d565b6020601f8211600114612cf6578190612cf29394955f926124405750508160011b915f199060031b1c19161790565b9055565b601f19821690612d09845f5260205f2090565b915f5b818110612d4357509583600195969710612d2b575b505050811b019055565b01515f1960f88460031b161c191690555f8080612d21565b9192602060018192868b015181550194019201612d0c565b815181546020840151604085015161ffff60e01b60e091821b166001600160f01b03199093166001600160a01b039094169390931767ffffffffffffffff60a01b60a09290921b91909116171782556103cb9260029190612dc96060820151612dc381611792565b85612bcd565b612e6860018501612e08612de760808501516001600160601b031690565b82546bffffffffffffffffffffffff19166001600160601b03909116178255565b612e3c612e1c60a085015163ffffffff1690565b825463ffffffff60601b191660609190911b63ffffffff60601b16178255565b60c083015163ffffffff165b815463ffffffff60801b191660809190911b63ffffffff60801b16179055565b01519101612c9c565b9590612eb59360c0989c9b9995612e99612ea7936103cb9d999660e08c5260e08c019161225f565b9189830360208b015261225f565b91868303604088015261225f565b6001600160a01b039098166060840152608083015260a082015201906117b0565b9496612ef681888a879f98809b969e979d9f98612ef161304b565b613e2c565b6001600160601b038311612b88576001600160401b0389169a61ffff8c11612b795763ffffffff8511612b6a576001600160a01b0381161561302f57915b5f549c8d9a612f428c612bb5565b5f55612f4c61096a565b6001600160a01b0386168152906001600160401b034216602083015261ffff166040820152612f7e88606083016126b0565b6001600160601b038616608082015263ffffffff871660a0820152600160c0820152612fab368e8b610a09565b60e0820152612fc28c5f52600260205260405f2090565b90612fcc91612d5b565b8a612fd78d8a6124f2565b558a612fe1611a3b565b612feb9133613f9f565b612ff690848c614140565b604051988998339c613008998b612e71565b037f20f06ccd8e783fa38422d2d4d0de66669fed0f0b45f372d88ff723d8063eb4ab91a490565b503391612f34565b60ff9161190a613046926121f3565b541690565b60ff5f51602061495e5f395f51905f52541661306357565b63d93c066560e01b5f5260045ffd5b335f9081527f75442b0a96088b5456bc4ed01394c96a4feec0f883c9494257d76b96ab1c9b6b602052604090205460ff16156130aa57565b63e2517d3f60e01b5f52336004527f65d7a28e3265b37a6474929f336521b332c1681b933f6cb9f3376673440d862a60245260445ffd5b335f9081527fab71e3f32666744d246edff3f96e4bdafee2e9867098cdd118a979a7464786a8602052604090205460ff161561311957565b63e2517d3f60e01b5f52336004527f189ab7a9244df0848122154315af71fe140f3db0fe014031783b0946b8c9d2e360245260445ffd5b335f9081527fb7db2dd08fcb62d0c9e08c51941cae53c267786a0b75803fb7960902fc8ef97d602052604090205460ff161561318857565b63e2517d3f60e01b5f52336004525f60245260445ffd5b5f8181525f51602061493e5f395f51905f526020908152604080832033845290915290205460ff16156131cf5750565b63e2517d3f60e01b5f523360045260245260445ffd5b6001600160a01b0381165f9081527fb7db2dd08fcb62d0c9e08c51941cae53c267786a0b75803fb7960902fc8ef97d602052604090205460ff1661327c576001600160a01b03165f8181527fb7db2dd08fcb62d0c9e08c51941cae53c267786a0b75803fb7960902fc8ef97d60205260408120805460ff191660011790553391905f5160206148be5f395f51905f528180a4600190565b505f90565b6001600160a01b0381165f9081527fab71e3f32666744d246edff3f96e4bdafee2e9867098cdd118a979a7464786a8602052604090205460ff1661327c576001600160a01b0381165f9081527fab71e3f32666744d246edff3f96e4bdafee2e9867098cdd118a979a7464786a860205260409020805460ff1916600117905533906001600160a01b03167f189ab7a9244df0848122154315af71fe140f3db0fe014031783b0946b8c9d2e35f5160206148be5f395f51905f525f80a4600190565b6001600160a01b0381165f9081527f75442b0a96088b5456bc4ed01394c96a4feec0f883c9494257d76b96ab1c9b6b602052604090205460ff1661327c576001600160a01b0381165f9081527f75442b0a96088b5456bc4ed01394c96a4feec0f883c9494257d76b96ab1c9b6b60205260409020805460ff1916600117905533906001600160a01b03167f65d7a28e3265b37a6474929f336521b332c1681b933f6cb9f3376673440d862a5f5160206148be5f395f51905f525f80a4600190565b5f8181525f51602061493e5f395f51905f52602090815260408083206001600160a01b038616845290915290205460ff16613492575f8181525f51602061493e5f395f51905f52602090815260408083206001600160a01b03861684529091529020805460ff1916600117905533916001600160a01b0316905f5160206148be5f395f51905f525f80a4600190565b50505f90565b5f8181525f51602061493e5f395f51905f52602090815260408083206001600160a01b038616845290915290205460ff1615613492575f8181525f51602061493e5f395f51905f52602090815260408083206001600160a01b03861684529091529020805460ff1916905533916001600160a01b0316907ff6391f5c32d9c69d2a47ea670b442974b53935d1edc7fd64eb21e047a839171b5f80a4600190565b6001600160a01b031680156135985760405190613556604083610949565b8082526101f46020909201919091526001600160a01b0316607d60a21b177fdaedc9ab023613a7caf35e703657e986ccfad7e3eb0af93a2853f8d65dd86b0055565b635b6cc80560e11b5f525f60045260245ffd5b908160209103126103ba575190565b6040513d5f823e3d90fd5b6004546001600160a01b03169081156135da57565b63022fcd8560e61b5f5260045ffd5b908160209103126103ba5751610538816110ee565b60405163027f58e560e61b81526001600160a01b0392831660048201529190921660248201523060448201526331e1e60b60e11b60648201526101006084820152946020948694929385935f93859361367d9361366090610104870190610503565b928660a487015260c48601526003198584030160e486015261225f565b03926001600160a01b03165af19081156136de575f916136af575b50156136a057565b6309fb5d8760e21b5f5260045ffd5b6136d1915060203d6020116136d7575b6136c98183610949565b8101906135e9565b5f613698565b503d6136bf565b6135ba565b60405163027f58e560e61b81526001600160a01b03928316600482015291909216602482015230604482015263469e080560e11b60648201526101006084820152956020958795929486945f94869461367d94909290919061374a90610104880190610503565b9360a487015260c48601526003198584030160e486015261225f565b60405163027f58e560e61b81526001600160a01b039283166004820152919092166024820152306044820152600162707b7b60e11b031960648201526101006084820152956020958795929486945f94869461367d94909290919061374a90610104880190610503565b60405163027f58e560e61b81526001600160a01b039283166004820152919092166024820152306044820152636ffea07960e11b60648201526101006084820152956020958795929486945f94869461367d94909290919061374a90610104880190610503565b60405163027f58e560e61b81526001600160a01b03928316600482015291909216602482015230604482015263e7628e4d60e01b60648201526101006084820152946020948694929385935f93859361367d9361366090610104870190610503565b60405192151583526001600160a01b03918216929116907f75a1fc5e2239f53dc8407b3712c878c5893431bc3c349ea3561584869670f7f290602090a3565b60025f51602061497e5f395f51905f5254146139015760025f51602061497e5f395f51905f5255565b633ee5aeb560e01b5f5260045ffd5b3d1561393a573d90613921826109ee565b9161392f6040519384610949565b82523d5f602084013e565b606090565b92949361395960ff9260409460608752606087019161225f565b95602085015216910152565b929695919490955f5487101561065d5760ff861660028111613b3c57610400861161079d5785158080613b34575b80613b2c575b613b1d5715928380613b12575b61153557856139cd6139c08b5f52600260205260405f2090565b546001600160a01b031690565b9284613a2f575b50505050506139e6575b505050505050565b7f19a5aae49af5681d63d1a8c6ea9dc7b88af86e08d71ade984e2087fada0d4c4a93613a219160405194859460018060a01b0316988561393f565b0390a35f80808080806139de565b600203613ac8575050505f80808084613a5c613a50613a5060015460601c90565b6001600160a01b031690565b5af1613a66613910565b5015613ab9575b6040805160ff8816815260208101929092526001600160a01b0385169188917fc199635a11ffccf62419a83e03370cef9ba2a2c0a33d65c2fe60542bd560a0a991a35f808085816139d4565b6312171d8360e31b5f5260045ffd5b82613ad691613adc936144dc565b8361452b565b9081613aea575b5050613a6d565b5f918291829182916001600160a01b03165af1613b05613910565b5015613ab9575f80613ae3565b5060055483106139a6565b630eb90eff60e01b5f5260045ffd5b508215613999565b508115613993565b631556136560e01b5f5260045ffd5b90915f5483101561065d57613b68835f52600260205260405f2090565b80546001906001600160a01b03169101805492613b92606085901c63ffffffff1663ffffffff1690565b938415613c9c5763ffffffff608082901c1694851015613c8d57613bc6906001600160601b03165b6001600160601b031690565b8710613c7e578285613c0292613beb613c0895612e488b99600163ffffffff91011690565b613bfd613bf6611a3b565b8884613f9f565b6144dc565b8661452b565b9081613c53575b50506040805194855260208501919091526001600160a01b0391909116927ff6447f421186fdb05672b6b81ee863f6266ccf87f727fc67ed367774af8600659190a3565b5f9250829182918291906001600160a01b03165af1613c70613910565b5015613ab957815f80613c0f565b63cd1c886760e01b5f5260045ffd5b63d05cb60960e01b5f5260045ffd5b635874ec2360e01b5f5260045ffd5b9193949092945f5484101561065d576001600160a01b0386168015613daa57821561153557613cfc613cf6888694613cee6139c08a5f52600260205260405f2090565b9586916145fd565b8461452b565b613d10613d098260011c90565b809261278a565b9281613d82575b505081613d65575b5050604080516001600160a01b039687168152602081019290925291909416937f37d3451d72bbbc5dc39c5c55aacb3b768d87ef17ab36990c4c60e96e6a0cf1459190a4565b5f80809381935af1613d75613910565b5015613ab9575f80613d1f565b5f918291829182916001600160a01b03165af1613d9d613910565b5015613ab9575f80613d17565b633e510d3960e21b5f5260045ffd5b905f8091602081519101845af48080613e19575b15613ddc57505061053861463e565b15613e0157639996b31560e01b5f9081526001600160a01b0391909116600452602490fd5b3d15155f036135ba5763d6bda27560e01b5f5260045ffd5b503d151580613dcd5750813b1515613dcd565b6127109293506001600160601b0391501611613e7057604010613e6157608010613e5257565b6324a25c5760e01b5f5260045ffd5b631750ba0360e01b5f5260045ffd5b63c2b03beb60e01b5f5260045ffd5b613e898180612797565b9091602081013590613e9a82611cca565b604081013590613ea982611ce8565b613eb66060820182612797565b90613ec46080840184612797565b909160a085013596613ed5886103a9565b60c08601359460e087013596610100013597613ef089611d06565b60405163e7628e4d60e01b602082015261012060248201529b8c9b613f1b916101448e01919061225f565b926001600160401b031660448c01526001600160601b031660648b01526023198a83030160848b0152613f4d9261225f565b906023198883030160a4890152613f639261225f565b6001600160a01b0390941660c486015260e4850152610104840152613f8d906101248401906117b0565b03601f19810182526105389082610949565b9291906001600160a01b03841615612077576001613fda60405192600184526020840152604083019160018352606084015260808301604052565b90805182519081810361412b5750506001600160a01b03851693841515935f5b835181101561405f5780868960019360051b602080828a010151918a01015192614028575b50505001613ffa565b6140559161190a61404d925f525f51602061491e5f395f51905f5260205260405f2090565b918254614657565b90555f898161401f565b509390959460018351145f146140f0576020838101518582015160408051928352928201525f9133917fc3d58168c5ae7397731d063d5bbf3d657854427343f4c083240f7aacaa2d0f629190a45b6140b8575b50505050565b80516001036140e057906020806140d795930151910151915f3361481f565b5f8080806140b2565b6140eb935f336146f1565b6140d7565b5f6040517f4a39dc06d4c0dbc64b70af90fd698a233a518aa5d07e595d983b8c0526c8f7fb339180614123898983614664565b0390a46140ad565b635b05999160e01b5f5260045260245260445ffd5b92916001600160601b031661271081116141f6576001600160a01b038216156141df576103cb92936141b7916040519361417b604086610949565b60018060a01b0316845260208401525f527fdaedc9ab023613a7caf35e703657e986ccfad7e3eb0af93a2853f8d65dd86b0160205260405f2090565b815160209092015160a01b6001600160a01b0319166001600160a01b03909216919091179055565b83634b4f842960e11b5f526004525f60245260445ffd5b8363dfd1fc1b60e01b5f5260045260245261271060445260645ffd5b949392909193845182519081810361412b5750506001600160a01b038681169586151595918516801515939192905f5b8451811015614342578060051b90898988602080868b010151958c010151926142a7575b93600194614278575b50505001614242565b61429d9161190a61404d925f525f51602061491e5f395f51905f5260205260405f2090565b90555f898161426f565b505090916142cd8d61190a835f525f51602061491e5f395f51905f5260205260405f2090565b5482811061430b578291898f614302600197968f95039161190a855f525f51602061491e5f395f51905f5260205260405f2090565b55909450614266565b6040516303dee4c560e01b81526001600160a01b038f16600482015260248101919091526044810183905260648101829052608490fd5b5091989593929790965060018851145f146143d55760208881015186820151604080519283529282015233917fc3d58168c5ae7397731d063d5bbf3d657854427343f4c083240f7aacaa2d0f6291a45b61439e575b5050505050565b84516001036143c4576020806143ba960151920151923361481f565b5f80808080614397565b6143d0949192336146f1565b6143ba565b6040517f4a39dc06d4c0dbc64b70af90fd698a233a518aa5d07e595d983b8c0526c8f7fb339180614407898d83614664565b0390a4614392565b60ff5f51602061499e5f395f51905f525460401c161561442b57565b631afcd79f60e31b5f5260045ffd5b90813b156144bb575f5160206148de5f395f51905f5280546001600160a01b0319166001600160a01b0384169081179091557fbc7cd75a20ee27fd9adebab32041f755214dbc6bffa90cc0225b39da2e5c2d3b5f80a28051156144a3576144a091613db9565b50565b5050346144ac57565b63b398979f60e01b5f5260045ffd5b50634c9c8ce360e01b5f9081526001600160a01b0391909116600452602490fd5b916001600160a01b0383168015929091908315614518575b508215614505575b505061327c5790565b6001600160a01b03161490505f806144fc565b6001600160a01b0316821492505f6144f4565b600154919061454e6108b86145486001600160601b038616613bba565b836122b0565b916001600160a01b031680156145f5578261456b6108b884612293565b945b816145c9575b505083614581575b50030390565b5f80808087855af1614591613910565b5015613ab9576040518481527f6292f4f27d8047af4537a4bd86906de0e2c880c20086f7f58b81eacfeb63912690602090a25f61457b565b5f8080936145de613a50613a50849660601c90565b5af16145e8613910565b5015613ab957825f614573565b825f9461456d565b926001600160a01b0384168015939092841561462b575b5083156145185750821561450557505061327c5790565b6001600160a01b0316831493505f614614565b604051903d82523d5f602084013e60203d830101604052565b919082018092116122ab57565b909161467b61053893604084526040840190610dee565b916020818403910152610dee565b908160209103126103ba575161053881610426565b6001600160a01b0391821681529116602082015260a06040820181905261053894919391926146e392916146d59190860190610dee565b908482036060860152610dee565b916080818403910152610503565b9091949293853b61470457505050505050565b60209361472691604051968795869563bc197c8160e01b87526004870161469e565b03815f6001600160a01b0387165af15f91816147b5575b50614777575061474b613910565b805191908261477057632bfa23e760e11b5f526001600160a01b03821660045260245ffd5b6020915001fd5b6001600160e01b0319166343e6837f60e01b0161479a57505f80808080806139de565b632bfa23e760e11b5f526001600160a01b031660045260245ffd5b6147d891925060203d6020116147df575b6147d08183610949565b810190614689565b905f61473d565b503d6147c6565b6001600160a01b039182168152911660208201526040810191909152606081019190915260a06080820181905261053892910190610503565b9091949293853b61483257505050505050565b60209361485491604051968795869563f23a6e6160e01b8752600487016147e6565b03815f6001600160a01b0387165af15f918161489c575b50614879575061474b613910565b6001600160e01b031916630dc5919f60e01b0161479a57505f80808080806139de565b6148b691925060203d6020116147df576147d08183610949565b905f61486b56fe2f8788117e7eff1d82e926ec794901d17c78024a50270940304540a733656f0d360894a13ba1a3210667c828492db98dca3e2076cc3735a920a3ca505d382bbce915025b6f599b245c9c1c02d463228c896354d64dceb469760c99544153be6d88be536d5240c274a3b1d3a1be54482fd9caa294f08c62a7cde569f49a3c450002dd7bc7dec4dceedda775e58dd541e08a116c6c53815c0bd028192f7b626800cd5ed15c6e187e77e9aee88184c21f4f2182ab5827cb3b7e07fbedcd63f033009b779b17422d0df92223018b32b4d1fa46e071723d6817e2486d003becc55f00f0c57e16840df040f15088dc2f81fe391c3923bec73e23a9662efc9c229c6a0088be536d5240c274a3b1d3a1be54482fd9caa294f08c62a7cde569f49a3c4502a2646970667358221220f751e40d2e7a45ead53ea2119cab665321f80be234994d4b847949eff20ab62664736f6c634300081e0033f0c57e16840df040f15088dc2f81fe391c3923bec73e23a9662efc9c229c6a00","linkReferences":{}},"methodIdentifiers":{"DEFAULT_ADMIN_ROLE()":"a217fddf","MAX_AVATAR_LENGTH()":"1fe9d578","MAX_BIO_LENGTH()":"c477d7f7","MAX_COMMENT_LENGTH()":"5856e4fa","MAX_NICKNAME_LENGTH()":"e8f100bf","MAX_ORIGINAL_AUTHOR_LENGTH()":"19e94a6e","MAX_TITLE_LENGTH()":"2ef9a160","PAUSER_ROLE()":"e63ab1e9","SCORE_DISLIKE()":"fde84719","SCORE_LIKE()":"e1d90b34","SCORE_NEUTRAL()":"473106b2","UPGRADER_ROLE()":"f72c0d8b","UPGRADE_INTERFACE_VERSION()":"ad3cb1cc","articles(uint256)":"edcfafe6","arweaveIdToArticleId(string)":"b055d7aa","balanceOf(address,uint256)":"00fdd58e","balanceOfBatch(address[],uint256[])":"4e1273f4","collect(uint256,address)":"8d3c100a","collectWithSessionKey(address,address,uint256,address,uint256,bytes)":"795146ef","evaluate(uint256,uint8,string,address,uint256)":"ff1f090a","evaluateWithSessionKey(address,address,uint256,uint8,string,address,uint256,uint256,bytes)":"63c4ea4d","follow(address,bool)":"63c3cc16","followWithSessionKey(address,address,address,bool,uint256,bytes)":"5780400b","getArticleByArweaveId(string)":"989cfb57","getArticleIdByArweaveId(string)":"4b65f344","getRoleAdmin(bytes32)":"248a9ca3","grantRole(bytes32,address)":"2f2ff15d","hasRole(bytes32,address)":"91d14854","initialize(address,address)":"485cc955","isApprovedForAll(address,address)":"e985e9c5","likeComment(uint256,uint256,address,address)":"dffd40f2","likeCommentWithSessionKey(address,address,uint256,uint256,address,address,uint256,bytes)":"79c61f28","minActionValue()":"8cbd215e","multicall(bytes[])":"ac9650d8","nextArticleId()":"85c3ab54","pause()":"8456cb59","paused()":"5c975abb","platformFeeBps()":"22dcd13e","platformTreasury()":"e138818c","proxiableUUID()":"52d1902d","publish(string,uint64,uint96,string,string,address,uint256,uint256,uint8)":"e7628e4d","publishWithSessionKey(address,address,(string,uint64,uint96,string,string,address,uint256,uint256,uint8),uint256,bytes)":"df7f942b","renounceRole(bytes32,address)":"36568abe","revokeRole(bytes32,address)":"d547741f","royaltyInfo(uint256,uint256)":"2a55205a","safeBatchTransferFrom(address,address,uint256[],uint256[],bytes)":"2eb2c2d6","safeTransferFrom(address,address,uint256,uint256,bytes)":"f242432a","sessionKeyManager()":"0b826190","setApprovalForAll(address,bool)":"a22cb465","setMinActionValue(uint256)":"52cbd3be","setPlatformFee(uint96)":"f99e5dbb","setPlatformTreasury(address)":"7cd86d60","setSessionKeyManager(address)":"837fa3fd","supportsInterface(bytes4)":"01ffc9a7","unpause()":"3f4ba83a","updateProfile(string,string,string)":"1105a5eb","upgradeToAndCall(address,bytes)":"4f1ef286","uri(uint256)":"0e89341c"},"id":62}