{"abi":[{"type":"constructor","inputs":[],"stateMutability":"nonpayable"},{"type":"function","name":"DEFAULT_ADMIN_ROLE","inputs":[],"outputs":[{"name":"","type":"bytes32","internalType":"bytes32"}],"stateMutability":"view"},{"type":"function","name":"MAX_COMMENT_LENGTH","inputs":[],"outputs":[{"name":"","type":"uint256","internalType":"uint256"}],"stateMutability":"view"},{"type":"function","name":"MAX_COVER_IMAGE_LENGTH","inputs":[],"outputs":[{"name":"","type":"uint256","internalType":"uint256"}],"stateMutability":"view"},{"type":"function","name":"MAX_ORIGINAL_AUTHOR_LENGTH","inputs":[],"outputs":[{"name":"","type":"uint256","internalType":"uint256"}],"stateMutability":"view"},{"type":"function","name":"MAX_TITLE_LENGTH","inputs":[],"outputs":[{"name":"","type":"uint256","internalType":"uint256"}],"stateMutability":"view"},{"type":"function","name":"PAUSER_ROLE","inputs":[],"outputs":[{"name":"","type":"bytes32","internalType":"bytes32"}],"stateMutability":"view"},{"type":"function","name":"SCORE_DISLIKE","inputs":[],"outputs":[{"name":"","type":"uint8","internalType":"uint8"}],"stateMutability":"view"},{"type":"function","name":"SCORE_LIKE","inputs":[],"outputs":[{"name":"","type":"uint8","internalType":"uint8"}],"stateMutability":"view"},{"type":"function","name":"SCORE_NEUTRAL","inputs":[],"outputs":[{"name":"","type":"uint8","internalType":"uint8"}],"stateMutability":"view"},{"type":"function","name":"UPGRADER_ROLE","inputs":[],"outputs":[{"name":"","type":"bytes32","internalType":"bytes32"}],"stateMutability":"view"},{"type":"function","name":"UPGRADE_INTERFACE_VERSION","inputs":[],"outputs":[{"name":"","type":"string","internalType":"string"}],"stateMutability":"view"},{"type":"function","name":"articles","inputs":[{"name":"","type":"uint256","internalType":"uint256"}],"outputs":[{"name":"arweaveHash","type":"string","internalType":"string"},{"name":"author","type":"address","internalType":"address"},{"name":"originalAuthor","type":"string","internalType":"string"},{"name":"title","type":"string","internalType":"string"},{"name":"coverImage","type":"string","internalType":"string"},{"name":"categoryId","type":"uint64","internalType":"uint64"},{"name":"timestamp","type":"uint64","internalType":"uint64"}],"stateMutability":"view"},{"type":"function","name":"balanceOf","inputs":[{"name":"account","type":"address","internalType":"address"},{"name":"id","type":"uint256","internalType":"uint256"}],"outputs":[{"name":"","type":"uint256","internalType":"uint256"}],"stateMutability":"view"},{"type":"function","name":"balanceOfBatch","inputs":[{"name":"accounts","type":"address[]","internalType":"address[]"},{"name":"ids","type":"uint256[]","internalType":"uint256[]"}],"outputs":[{"name":"","type":"uint256[]","internalType":"uint256[]"}],"stateMutability":"view"},{"type":"function","name":"eip712Domain","inputs":[],"outputs":[{"name":"fields","type":"bytes1","internalType":"bytes1"},{"name":"name","type":"string","internalType":"string"},{"name":"version","type":"string","internalType":"string"},{"name":"chainId","type":"uint256","internalType":"uint256"},{"name":"verifyingContract","type":"address","internalType":"address"},{"name":"salt","type":"bytes32","internalType":"bytes32"},{"name":"extensions","type":"uint256[]","internalType":"uint256[]"}],"stateMutability":"view"},{"type":"function","name":"evaluate","inputs":[{"name":"_articleId","type":"uint256","internalType":"uint256"},{"name":"_score","type":"uint8","internalType":"uint8"},{"name":"_content","type":"string","internalType":"string"},{"name":"_referrer","type":"address","internalType":"address"},{"name":"_parentCommentId","type":"uint256","internalType":"uint256"}],"outputs":[],"stateMutability":"payable"},{"type":"function","name":"evaluateWithSessionKey","inputs":[{"name":"owner","type":"address","internalType":"address"},{"name":"sessionKey","type":"address","internalType":"address"},{"name":"_articleId","type":"uint256","internalType":"uint256"},{"name":"_score","type":"uint8","internalType":"uint8"},{"name":"_content","type":"string","internalType":"string"},{"name":"_referrer","type":"address","internalType":"address"},{"name":"_parentCommentId","type":"uint256","internalType":"uint256"},{"name":"deadline","type":"uint256","internalType":"uint256"},{"name":"signature","type":"bytes","internalType":"bytes"}],"outputs":[],"stateMutability":"payable"},{"type":"function","name":"follow","inputs":[{"name":"_target","type":"address","internalType":"address"},{"name":"_status","type":"bool","internalType":"bool"}],"outputs":[],"stateMutability":"nonpayable"},{"type":"function","name":"followWithSessionKey","inputs":[{"name":"owner","type":"address","internalType":"address"},{"name":"sessionKey","type":"address","internalType":"address"},{"name":"_target","type":"address","internalType":"address"},{"name":"_status","type":"bool","internalType":"bool"},{"name":"deadline","type":"uint256","internalType":"uint256"},{"name":"signature","type":"bytes","internalType":"bytes"}],"outputs":[],"stateMutability":"nonpayable"},{"type":"function","name":"getRoleAdmin","inputs":[{"name":"role","type":"bytes32","internalType":"bytes32"}],"outputs":[{"name":"","type":"bytes32","internalType":"bytes32"}],"stateMutability":"view"},{"type":"function","name":"grantRole","inputs":[{"name":"role","type":"bytes32","internalType":"bytes32"},{"name":"account","type":"address","internalType":"address"}],"outputs":[],"stateMutability":"nonpayable"},{"type":"function","name":"hasRole","inputs":[{"name":"role","type":"bytes32","internalType":"bytes32"},{"name":"account","type":"address","internalType":"address"}],"outputs":[{"name":"","type":"bool","internalType":"bool"}],"stateMutability":"view"},{"type":"function","name":"initialize","inputs":[{"name":"_initialOwner","type":"address","internalType":"address"},{"name":"_treasury","type":"address","internalType":"address"}],"outputs":[],"stateMutability":"nonpayable"},{"type":"function","name":"isApprovedForAll","inputs":[{"name":"account","type":"address","internalType":"address"},{"name":"operator","type":"address","internalType":"address"}],"outputs":[{"name":"","type":"bool","internalType":"bool"}],"stateMutability":"view"},{"type":"function","name":"likeComment","inputs":[{"name":"_articleId","type":"uint256","internalType":"uint256"},{"name":"_commentId","type":"uint256","internalType":"uint256"},{"name":"_commenter","type":"address","internalType":"address"},{"name":"_referrer","type":"address","internalType":"address"}],"outputs":[],"stateMutability":"payable"},{"type":"function","name":"likeCommentWithSessionKey","inputs":[{"name":"owner","type":"address","internalType":"address"},{"name":"sessionKey","type":"address","internalType":"address"},{"name":"_articleId","type":"uint256","internalType":"uint256"},{"name":"_commentId","type":"uint256","internalType":"uint256"},{"name":"_commenter","type":"address","internalType":"address"},{"name":"_referrer","type":"address","internalType":"address"},{"name":"deadline","type":"uint256","internalType":"uint256"},{"name":"signature","type":"bytes","internalType":"bytes"}],"outputs":[],"stateMutability":"payable"},{"type":"function","name":"minActionValue","inputs":[],"outputs":[{"name":"","type":"uint256","internalType":"uint256"}],"stateMutability":"view"},{"type":"function","name":"multicall","inputs":[{"name":"data","type":"bytes[]","internalType":"bytes[]"}],"outputs":[{"name":"results","type":"bytes[]","internalType":"bytes[]"}],"stateMutability":"nonpayable"},{"type":"function","name":"nextArticleId","inputs":[],"outputs":[{"name":"","type":"uint256","internalType":"uint256"}],"stateMutability":"view"},{"type":"function","name":"pause","inputs":[],"outputs":[],"stateMutability":"nonpayable"},{"type":"function","name":"paused","inputs":[],"outputs":[{"name":"","type":"bool","internalType":"bool"}],"stateMutability":"view"},{"type":"function","name":"platformFeeBps","inputs":[],"outputs":[{"name":"","type":"uint96","internalType":"uint96"}],"stateMutability":"view"},{"type":"function","name":"platformTreasury","inputs":[],"outputs":[{"name":"","type":"address","internalType":"address"}],"stateMutability":"view"},{"type":"function","name":"proxiableUUID","inputs":[],"outputs":[{"name":"","type":"bytes32","internalType":"bytes32"}],"stateMutability":"view"},{"type":"function","name":"publish","inputs":[{"name":"_arweaveId","type":"string","internalType":"string"},{"name":"_categoryId","type":"uint64","internalType":"uint64"},{"name":"_royaltyBps","type":"uint96","internalType":"uint96"},{"name":"_originalAuthor","type":"string","internalType":"string"},{"name":"_title","type":"string","internalType":"string"},{"name":"_coverImage","type":"string","internalType":"string"}],"outputs":[{"name":"","type":"uint256","internalType":"uint256"}],"stateMutability":"nonpayable"},{"type":"function","name":"renounceRole","inputs":[{"name":"role","type":"bytes32","internalType":"bytes32"},{"name":"callerConfirmation","type":"address","internalType":"address"}],"outputs":[],"stateMutability":"nonpayable"},{"type":"function","name":"revokeRole","inputs":[{"name":"role","type":"bytes32","internalType":"bytes32"},{"name":"account","type":"address","internalType":"address"}],"outputs":[],"stateMutability":"nonpayable"},{"type":"function","name":"royaltyInfo","inputs":[{"name":"tokenId","type":"uint256","internalType":"uint256"},{"name":"salePrice","type":"uint256","internalType":"uint256"}],"outputs":[{"name":"receiver","type":"address","internalType":"address"},{"name":"amount","type":"uint256","internalType":"uint256"}],"stateMutability":"view"},{"type":"function","name":"safeBatchTransferFrom","inputs":[{"name":"from","type":"address","internalType":"address"},{"name":"to","type":"address","internalType":"address"},{"name":"ids","type":"uint256[]","internalType":"uint256[]"},{"name":"values","type":"uint256[]","internalType":"uint256[]"},{"name":"data","type":"bytes","internalType":"bytes"}],"outputs":[],"stateMutability":"nonpayable"},{"type":"function","name":"safeTransferFrom","inputs":[{"name":"from","type":"address","internalType":"address"},{"name":"to","type":"address","internalType":"address"},{"name":"id","type":"uint256","internalType":"uint256"},{"name":"value","type":"uint256","internalType":"uint256"},{"name":"data","type":"bytes","internalType":"bytes"}],"outputs":[],"stateMutability":"nonpayable"},{"type":"function","name":"sessionKeyManager","inputs":[],"outputs":[{"name":"","type":"address","internalType":"contract ISessionKeyManager"}],"stateMutability":"view"},{"type":"function","name":"setApprovalForAll","inputs":[{"name":"operator","type":"address","internalType":"address"},{"name":"approved","type":"bool","internalType":"bool"}],"outputs":[],"stateMutability":"nonpayable"},{"type":"function","name":"setMinActionValue","inputs":[{"name":"_minActionValue","type":"uint256","internalType":"uint256"}],"outputs":[],"stateMutability":"nonpayable"},{"type":"function","name":"setPlatformFee","inputs":[{"name":"_feeBps","type":"uint96","internalType":"uint96"}],"outputs":[],"stateMutability":"nonpayable"},{"type":"function","name":"setPlatformTreasury","inputs":[{"name":"_treasury","type":"address","internalType":"address"}],"outputs":[],"stateMutability":"nonpayable"},{"type":"function","name":"setSessionKeyManager","inputs":[{"name":"_sessionKeyManager","type":"address","internalType":"address"}],"outputs":[],"stateMutability":"nonpayable"},{"type":"function","name":"supportsInterface","inputs":[{"name":"interfaceId","type":"bytes4","internalType":"bytes4"}],"outputs":[{"name":"","type":"bool","internalType":"bool"}],"stateMutability":"view"},{"type":"function","name":"unpause","inputs":[],"outputs":[],"stateMutability":"nonpayable"},{"type":"function","name":"upgradeToAndCall","inputs":[{"name":"newImplementation","type":"address","internalType":"address"},{"name":"data","type":"bytes","internalType":"bytes"}],"outputs":[],"stateMutability":"payable"},{"type":"function","name":"uri","inputs":[{"name":"_id","type":"uint256","internalType":"uint256"}],"outputs":[{"name":"","type":"string","internalType":"string"}],"stateMutability":"view"},{"type":"event","name":"ApprovalForAll","inputs":[{"name":"account","type":"address","indexed":true,"internalType":"address"},{"name":"operator","type":"address","indexed":true,"internalType":"address"},{"name":"approved","type":"bool","indexed":false,"internalType":"bool"}],"anonymous":false},{"type":"event","name":"ArticleEvaluated","inputs":[{"name":"articleId","type":"uint256","indexed":true,"internalType":"uint256"},{"name":"user","type":"address","indexed":true,"internalType":"address"},{"name":"score","type":"uint8","indexed":false,"internalType":"uint8"},{"name":"amountPaid","type":"uint256","indexed":false,"internalType":"uint256"},{"name":"timestamp","type":"uint256","indexed":false,"internalType":"uint256"}],"anonymous":false},{"type":"event","name":"ArticlePublished","inputs":[{"name":"articleId","type":"uint256","indexed":true,"internalType":"uint256"},{"name":"author","type":"address","indexed":true,"internalType":"address"},{"name":"categoryId","type":"uint256","indexed":true,"internalType":"uint256"},{"name":"arweaveId","type":"string","indexed":false,"internalType":"string"},{"name":"originalAuthor","type":"string","indexed":false,"internalType":"string"},{"name":"title","type":"string","indexed":false,"internalType":"string"},{"name":"coverImage","type":"string","indexed":false,"internalType":"string"},{"name":"timestamp","type":"uint256","indexed":false,"internalType":"uint256"}],"anonymous":false},{"type":"event","name":"CommentAdded","inputs":[{"name":"articleId","type":"uint256","indexed":true,"internalType":"uint256"},{"name":"commenter","type":"address","indexed":true,"internalType":"address"},{"name":"content","type":"string","indexed":false,"internalType":"string"},{"name":"parentCommentId","type":"uint256","indexed":false,"internalType":"uint256"},{"name":"score","type":"uint8","indexed":false,"internalType":"uint8"}],"anonymous":false},{"type":"event","name":"CommentLiked","inputs":[{"name":"articleId","type":"uint256","indexed":true,"internalType":"uint256"},{"name":"commentId","type":"uint256","indexed":true,"internalType":"uint256"},{"name":"liker","type":"address","indexed":true,"internalType":"address"},{"name":"commenter","type":"address","indexed":false,"internalType":"address"},{"name":"amountPaid","type":"uint256","indexed":false,"internalType":"uint256"},{"name":"timestamp","type":"uint256","indexed":false,"internalType":"uint256"}],"anonymous":false},{"type":"event","name":"EIP712DomainChanged","inputs":[],"anonymous":false},{"type":"event","name":"FollowStatusChanged","inputs":[{"name":"follower","type":"address","indexed":true,"internalType":"address"},{"name":"target","type":"address","indexed":true,"internalType":"address"},{"name":"isFollowing","type":"bool","indexed":false,"internalType":"bool"}],"anonymous":false},{"type":"event","name":"Initialized","inputs":[{"name":"version","type":"uint64","indexed":false,"internalType":"uint64"}],"anonymous":false},{"type":"event","name":"MinActionValueUpdated","inputs":[{"name":"newValue","type":"uint256","indexed":false,"internalType":"uint256"}],"anonymous":false},{"type":"event","name":"Paused","inputs":[{"name":"account","type":"address","indexed":false,"internalType":"address"}],"anonymous":false},{"type":"event","name":"PlatformFeeUpdated","inputs":[{"name":"newFeeBps","type":"uint96","indexed":false,"internalType":"uint96"}],"anonymous":false},{"type":"event","name":"ReferralPaid","inputs":[{"name":"referrer","type":"address","indexed":true,"internalType":"address"},{"name":"amount","type":"uint256","indexed":false,"internalType":"uint256"}],"anonymous":false},{"type":"event","name":"RoleAdminChanged","inputs":[{"name":"role","type":"bytes32","indexed":true,"internalType":"bytes32"},{"name":"previousAdminRole","type":"bytes32","indexed":true,"internalType":"bytes32"},{"name":"newAdminRole","type":"bytes32","indexed":true,"internalType":"bytes32"}],"anonymous":false},{"type":"event","name":"RoleGranted","inputs":[{"name":"role","type":"bytes32","indexed":true,"internalType":"bytes32"},{"name":"account","type":"address","indexed":true,"internalType":"address"},{"name":"sender","type":"address","indexed":true,"internalType":"address"}],"anonymous":false},{"type":"event","name":"RoleRevoked","inputs":[{"name":"role","type":"bytes32","indexed":true,"internalType":"bytes32"},{"name":"account","type":"address","indexed":true,"internalType":"address"},{"name":"sender","type":"address","indexed":true,"internalType":"address"}],"anonymous":false},{"type":"event","name":"SessionKeyManagerUpdated","inputs":[{"name":"newManager","type":"address","indexed":true,"internalType":"address"}],"anonymous":false},{"type":"event","name":"SessionKeyOperationExecuted","inputs":[{"name":"owner","type":"address","indexed":true,"internalType":"address"},{"name":"sessionKey","type":"address","indexed":true,"internalType":"address"},{"name":"selector","type":"bytes4","indexed":false,"internalType":"bytes4"}],"anonymous":false},{"type":"event","name":"TransferBatch","inputs":[{"name":"operator","type":"address","indexed":true,"internalType":"address"},{"name":"from","type":"address","indexed":true,"internalType":"address"},{"name":"to","type":"address","indexed":true,"internalType":"address"},{"name":"ids","type":"uint256[]","indexed":false,"internalType":"uint256[]"},{"name":"values","type":"uint256[]","indexed":false,"internalType":"uint256[]"}],"anonymous":false},{"type":"event","name":"TransferSingle","inputs":[{"name":"operator","type":"address","indexed":true,"internalType":"address"},{"name":"from","type":"address","indexed":true,"internalType":"address"},{"name":"to","type":"address","indexed":true,"internalType":"address"},{"name":"id","type":"uint256","indexed":false,"internalType":"uint256"},{"name":"value","type":"uint256","indexed":false,"internalType":"uint256"}],"anonymous":false},{"type":"event","name":"TreasuryUpdated","inputs":[{"name":"newTreasury","type":"address","indexed":false,"internalType":"address"}],"anonymous":false},{"type":"event","name":"URI","inputs":[{"name":"value","type":"string","indexed":false,"internalType":"string"},{"name":"id","type":"uint256","indexed":true,"internalType":"uint256"}],"anonymous":false},{"type":"event","name":"Unpaused","inputs":[{"name":"account","type":"address","indexed":false,"internalType":"address"}],"anonymous":false},{"type":"event","name":"Upgraded","inputs":[{"name":"implementation","type":"address","indexed":true,"internalType":"address"}],"anonymous":false},{"type":"error","name":"AccessControlBadConfirmation","inputs":[]},{"type":"error","name":"AccessControlUnauthorizedAccount","inputs":[{"name":"account","type":"address","internalType":"address"},{"name":"neededRole","type":"bytes32","internalType":"bytes32"}]},{"type":"error","name":"AddressEmptyCode","inputs":[{"name":"target","type":"address","internalType":"address"}]},{"type":"error","name":"ArticleNotFound","inputs":[]},{"type":"error","name":"ContentRequiredForScore","inputs":[]},{"type":"error","name":"CoverImageTooLong","inputs":[]},{"type":"error","name":"ERC1155InsufficientBalance","inputs":[{"name":"sender","type":"address","internalType":"address"},{"name":"balance","type":"uint256","internalType":"uint256"},{"name":"needed","type":"uint256","internalType":"uint256"},{"name":"tokenId","type":"uint256","internalType":"uint256"}]},{"type":"error","name":"ERC1155InvalidApprover","inputs":[{"name":"approver","type":"address","internalType":"address"}]},{"type":"error","name":"ERC1155InvalidArrayLength","inputs":[{"name":"idsLength","type":"uint256","internalType":"uint256"},{"name":"valuesLength","type":"uint256","internalType":"uint256"}]},{"type":"error","name":"ERC1155InvalidOperator","inputs":[{"name":"operator","type":"address","internalType":"address"}]},{"type":"error","name":"ERC1155InvalidReceiver","inputs":[{"name":"receiver","type":"address","internalType":"address"}]},{"type":"error","name":"ERC1155InvalidSender","inputs":[{"name":"sender","type":"address","internalType":"address"}]},{"type":"error","name":"ERC1155MissingApprovalForAll","inputs":[{"name":"operator","type":"address","internalType":"address"},{"name":"owner","type":"address","internalType":"address"}]},{"type":"error","name":"ERC1967InvalidImplementation","inputs":[{"name":"implementation","type":"address","internalType":"address"}]},{"type":"error","name":"ERC1967NonPayable","inputs":[]},{"type":"error","name":"ERC2981InvalidDefaultRoyalty","inputs":[{"name":"numerator","type":"uint256","internalType":"uint256"},{"name":"denominator","type":"uint256","internalType":"uint256"}]},{"type":"error","name":"ERC2981InvalidDefaultRoyaltyReceiver","inputs":[{"name":"receiver","type":"address","internalType":"address"}]},{"type":"error","name":"ERC2981InvalidTokenRoyalty","inputs":[{"name":"tokenId","type":"uint256","internalType":"uint256"},{"name":"numerator","type":"uint256","internalType":"uint256"},{"name":"denominator","type":"uint256","internalType":"uint256"}]},{"type":"error","name":"ERC2981InvalidTokenRoyaltyReceiver","inputs":[{"name":"tokenId","type":"uint256","internalType":"uint256"},{"name":"receiver","type":"address","internalType":"address"}]},{"type":"error","name":"EnforcedPause","inputs":[]},{"type":"error","name":"ExpectedPause","inputs":[]},{"type":"error","name":"FailedCall","inputs":[]},{"type":"error","name":"FeeTooHigh","inputs":[]},{"type":"error","name":"InvalidAddress","inputs":[]},{"type":"error","name":"InvalidCommenter","inputs":[]},{"type":"error","name":"InvalidInitialization","inputs":[]},{"type":"error","name":"InvalidLength","inputs":[]},{"type":"error","name":"InvalidScore","inputs":[]},{"type":"error","name":"NotInitializing","inputs":[]},{"type":"error","name":"OriginalAuthorTooLong","inputs":[]},{"type":"error","name":"ReentrancyGuardReentrantCall","inputs":[]},{"type":"error","name":"RoyaltyTooHigh","inputs":[]},{"type":"error","name":"SessionKeyManagerNotSet","inputs":[]},{"type":"error","name":"SessionKeyValidationFailed","inputs":[]},{"type":"error","name":"SpamProtection","inputs":[]},{"type":"error","name":"TitleTooLong","inputs":[]},{"type":"error","name":"TransferFailed","inputs":[]},{"type":"error","name":"UUPSUnauthorizedCallContext","inputs":[]},{"type":"error","name":"UUPSUnsupportedProxiableUUID","inputs":[{"name":"slot","type":"bytes32","internalType":"bytes32"}]},{"type":"error","name":"ZeroAmount","inputs":[]}],"bytecode":{"object":"0x60a080604052346100e65760017f9b779b17422d0df92223018b32b4d1fa46e071723d6817e2486d003becc55f0055306080525f51602061471c5f395f51905f525460ff8160401c166100d7576002600160401b03196001600160401b03821601610084575b60405161463190816100eb8239608051818181610d470152610ebb0152f35b6001600160401b0319166001600160401b039081175f51602061471c5f395f51905f525581527fc7f505b2f371ae2175ee4913f4499e1f2633a7b5936321eed1cdaeb6115181d290602090a15f80610065565b63f92ee8a960e01b5f5260045ffd5b5f80fdfe60806040526004361015610011575f80fd5b5f3560e01c8062fdd58e1461032957806301ffc9a7146103245780630b8261901461031f5780630e89341c1461031a57806319e94a6e1461025c57806322dcd13e14610315578063248a9ca3146103105780632a55205a1461030b5780632eb2c2d6146103065780632ef9a160146103015780632f2ff15d146102fc57806336568abe146102f75780633f4ba83a146102f2578063473106b214610293578063485cc955146102ed5780634e1273f4146102e85780634f1ef286146102e357806352cbd3be146102de57806352d1902d146102d95780635780400b146102d45780635856e4fa146102cf5780635c975abb146102ca57806363c3cc16146102c557806363c4ea4d146102c057806379c61f28146102bb5780637cd86d60146102b6578063837fa3fd146102b15780638456cb59146102ac57806384b0196e146102a757806385c3ab54146102a25780638cbd215e1461029d57806391d1485414610298578063a217fddf14610293578063a22cb4651461028e578063ac9650d814610289578063acb9420e14610284578063ad3cb1cc1461027f578063d547741f1461027a578063dffd40f214610275578063e138818c14610270578063e1d90b341461026b578063e63ab1e914610266578063e985e9c514610261578063ec176f2c1461025c578063edcfafe614610257578063f242432a14610252578063f72c0d8b1461024d578063f99e5dbb14610248578063fde84719146102435763ff1f090a1461023e575f80fd5b612053565b612038565b611fab565b611f71565b611e7d565b611dfa565b610647565b611b06565b611acc565b611ab1565b611a91565b611a40565b6119f6565b6119af565b6118d7565b61183f565b611737565b610a77565b6116dc565b6116bf565b6116a3565b6115d3565b611503565b61149b565b61140e565b611255565b6111cb565b611161565b611133565b611117565b610f37565b610ea9565b610e5d565b610d09565b610c4a565b610a91565b6109f9565b6109b5565b610966565b61094b565b6108bf565b6106c7565b610688565b610662565b610534565b6104d4565b610431565b6103ca565b600435906001600160a01b038216820361034457565b5f80fd5b602435906001600160a01b038216820361034457565b604435906001600160a01b038216820361034457565b60a435906001600160a01b038216820361034457565b608435906001600160a01b038216820361034457565b606435906001600160a01b038216820361034457565b35906001600160a01b038216820361034457565b346103445760403660031901126103445760206104166103e861032e565b6024355f525f51602061453c5f395f51905f52835260405f209060018060a01b03165f5260205260405f2090565b54604051908152f35b6001600160e01b031981160361034457565b346103445760203660031901126103445760043561044e8161041f565b63ffffffff60e01b16637965db0b60e01b8114908115610477575b506040519015158152602090f35b63152a902d60e11b811491508115610491575b505f610469565b636cdb3d1360e11b8114915081156104c3575b81156104b2575b505f61048a565b6301ffc9a760e01b1490505f6104ab565b6303a24d0760e21b811491506104a4565b34610344575f366003190112610344576003546040516001600160a01b039091168152602090f35b805180835260209291819084018484015e5f828201840152601f01601f1916010190565b9060206105319281815201906104fc565b90565b34610344576020366003190112610344576004358015801561063c575b61062d575f52600260205260405f206040517368747470733a2f2f617277656176652e6e65742f60601b60208201525f9180549061058e82611b37565b916001811690811561060657506001146105ca575b6105c6836105ba818703601f1981018352826107a8565b60405191829182610520565b0390f35b9092505f5260205f205f905b8382106105ef575050908101603401906105ba816105a3565b6001816020925460348587010152019101906105d6565b6105c6955084925060349150926105ba9360ff1916828401528015150282010193506105a3565b63522e582d60e11b5f5260045ffd5b505f54811015610551565b34610344575f36600319011261034457602060405160408152f35b34610344575f3660031901126103445760206001600160601b0360015416604051908152f35b346103445760203660031901126103445760206106bf6004355f525f51602061455c5f395f51905f52602052600160405f20015490565b604051908152f35b34610344576040366003190112610344576004355f9081527fdaedc9ab023613a7caf35e703657e986ccfad7e3eb0af93a2853f8d65dd86b0160205260409020546001600160a01b038116906024359060a01c821561075d575b610740916001600160601b03610738921690612120565b612710900490565b604080516001600160a01b03939093168352602083019190915290f35b507fdaedc9ab023613a7caf35e703657e986ccfad7e3eb0af93a2853f8d65dd86b00546001600160a01b038116925060a01c610721565b634e487b7160e01b5f52604160045260245ffd5b90601f801991011681019081106001600160401b038211176107c957604052565b610794565b604051906107dd60e0836107a8565b565b6001600160401b0381116107c95760051b60200190565b9080601f8301121561034457813561080d816107df565b9261081b60405194856107a8565b81845260208085019260051b82010192831161034457602001905b8282106108435750505090565b8135815260209182019101610836565b6001600160401b0381116107c957601f01601f191660200190565b92919261087a82610853565b9161088860405193846107a8565b829481845281830111610344578281602093845f960137010152565b9080601f83011215610344578160206105319335910161086e565b346103445760a0366003190112610344576108d861032e565b6108e0610348565b906044356001600160401b038111610344576109009036906004016107f6565b6064356001600160401b0381116103445761091f9036906004016107f6565b90608435936001600160401b038511610344576109436109499536906004016108a4565b93612133565b005b34610344575f36600319011261034457602060405160808152f35b3461034457604036600319011261034457610949600435610985610348565b906109b06109ab825f525f51602061455c5f395f51905f52602052600160405f20015490565b613077565b6132db565b34610344576040366003190112610344576004356109d1610348565b336001600160a01b038216036109ea5761094991613370565b63334bd91960e11b5f5260045ffd5b34610344575f36600319011261034457610a11612f4a565b5f51602061457c5f395f51905f525460ff811615610a685760ff19165f51602061457c5f395f51905f52557f5db9ee0a495bf2e6ff9c91a7834c1ba4fdd244a5e8aa4e537bd38aeae4b073aa6020604051338152a1005b638dfc202b60e01b5f5260045ffd5b34610344575f3660031901126103445760206040515f8152f35b3461034457604036600319011261034457610aaa61032e565b610ab2610348565b5f5160206145bc5f395f51905f525491906001600160401b03610ae460ff604086901c1615946001600160401b031690565b1680159081610bfe575b6001149081610bf4575b159081610beb575b50610bdc57610b439183610b3a60016001600160401b03195f5160206145bc5f395f51905f525416175f5160206145bc5f395f51905f5255565b610ba2576121c8565b610b4957005b610b7360ff60401b195f5160206145bc5f395f51905f5254165f5160206145bc5f395f51905f5255565b604051600181527fc7f505b2f371ae2175ee4913f4499e1f2633a7b5936321eed1cdaeb6115181d290602090a1005b610bd76801000000000000000060ff60401b195f5160206145bc5f395f51905f525416175f5160206145bc5f395f51905f5255565b6121c8565b63f92ee8a960e01b5f5260045ffd5b9050155f610b00565b303b159150610af8565b849150610aee565b90602080835192838152019201905f5b818110610c235750505090565b8251845260209384019390920191600101610c16565b906020610531928181520190610c06565b34610344576040366003190112610344576004356001600160401b038111610344573660238201121561034457806004013590610c86826107df565b91610c9460405193846107a8565b8083526024602084019160051b8301019136831161034457602401905b828210610cf157836024356001600160401b038111610344576105c691610cdf610ce59236906004016107f6565b90612456565b60405191829182610c39565b60208091610cfe846103b6565b815201910190610cb1565b604036600319011261034457610d1d61032e565b6024356001600160401b03811161034457610d3c9036906004016108a4565b906001600160a01b037f000000000000000000000000000000000000000000000000000000000000000016308114908115610e3b575b50610e2c57610d7f612fb9565b6040516352d1902d60e01b8152916020836004816001600160a01b0386165afa5f9381610dfb575b50610dc857634c9c8ce360e01b5f526001600160a01b03821660045260245ffd5b905f51602061451c5f395f51905f528303610de7576109499250614057565b632a87526960e21b5f52600483905260245ffd5b610e1e91945060203d602011610e25575b610e1681836107a8565b8101906135fa565b925f610da7565b503d610e0c565b63703e46dd60e11b5f5260045ffd5b5f51602061451c5f395f51905f52546001600160a01b0316141590505f610d72565b34610344576020366003190112610344577ffcae2461302da2a86e3604d10afc558dc160d49eb88bc010c4bca093793857ff6020600435610e9c613028565b80600455604051908152a1005b34610344575f366003190112610344577f00000000000000000000000000000000000000000000000000000000000000006001600160a01b03163003610e2c5760206040515f51602061451c5f395f51905f528152f35b8015150361034457565b9181601f84011215610344578235916001600160401b038311610344576020838186019501011161034457565b346103445760c036600319011261034457610f5061032e565b610f58610348565b90610f6161035e565b60643590610f6e82610f00565b60843560a4356001600160401b03811161034457610f90903690600401610f0a565b90610f99613609565b600354610fb6906001600160a01b03165b6001600160a01b031690565b6001600160a01b03811615611108576040516331e1e60b60e11b6020808301919091526001600160a01b0387166024830152871515604480840191909152825293909288915f918b9161102d9161100e6064896107a8565b60405163027f58e560e61b8152998a9889978896309160048901612522565b03925af1908115611103575f916110d4575b50156110c55760405191151582526001600160a01b0392831692169082907f75a1fc5e2239f53dc8407b3712c878c5893431bc3c349ea3561584869670f7f290602090a36040516331e1e60b60e11b81526001600160a01b0392909216917fe915025b6f599b245c9c1c02d463228c896354d64dceb469760c99544153be6d90602090a3005b6309fb5d8760e21b5f5260045ffd5b6110f6915060203d6020116110fc575b6110ee81836107a8565b8101906124ed565b5f61103f565b503d6110e4565b612582565b63022fcd8560e61b5f5260045ffd5b34610344575f3660031901126103445760206040516104008152f35b34610344575f36600319011261034457602060ff5f51602061457c5f395f51905f5254166040519015158152f35b346103445760403660031901126103445761117a61032e565b6024359061118782610f00565b61118f613609565b60405191151582526001600160a01b03169033907f75a1fc5e2239f53dc8407b3712c878c5893431bc3c349ea3561584869670f7f290602090a3005b610120366003190112610344576111e061032e565b6111e8610348565b6044359160643560ff81168103610344576084356001600160401b03811161034457611218903690600401610f0a565b611220610374565b9060c4359260e4359461010435986001600160401b038a116103445761124d6109499a3690600401610f0a565b99909861258d565b6101003660031901126103445761126a61032e565b611272610348565b60643560443561128061038a565b611288610374565b9060c43560e4356001600160401b038111610344576112ab903690600401610f0a565b906112b4613630565b6112bc613609565b6003546112d1906001600160a01b0316610faa565b6001600160a01b0381161561110857604051636ffea07960e11b60208281019190915260248201899052604482018a90526001600160a01b03808816606484015288166084830152938a935f918d9161135d919061133c8660a481015b03601f1981018852876107a8565b60405163027f58e560e61b8152998a98899788963492309160048a016126ff565b03925af1908115611103575f916113ef575b50156110c55734156113e057611387933493876139f4565b604051636ffea07960e11b81526001600160a01b0391821692909116907fe915025b6f599b245c9c1c02d463228c896354d64dceb469760c99544153be6d90602090a361094960015f51602061459c5f395f51905f5255565b631f2a200560e01b5f5260045ffd5b611408915060203d6020116110fc576110ee81836107a8565b5f61136f565b346103445760203660031901126103445761142761032e565b61142f613028565b6001600160a01b03811690811561148c577f7dae230f18360d76a040c81f050aa14eb9d6dc7901b20fc5d855e2a20fe814d1916114836020926001600160601b036001549181199060601b16911617600155565b604051908152a1005b63e6c4247b60e01b5f5260045ffd5b34610344576020366003190112610344576114b461032e565b6114bc613028565b6001600160a01b0316801561148c57600380546001600160a01b031916821790557f4d57218e59793e6845c36a961c3af7acfce8c54b13a697da231466fc265fdb615f80a2005b34610344575f3660031901126103445761151b612f4a565b611523613609565b600160ff195f51602061457c5f395f51905f525416175f51602061457c5f395f51905f52557f62e78cea01bee320cd4e420270b5ea74000d11b0c9f74754ebdbfc544b05a2586020604051338152a1005b916115a99061159b61053197959693600f60f81b865260e0602087015260e08601906104fc565b9084820360408601526104fc565b60608301949094526001600160a01b031660808201525f60a082015280830360c090910152610c06565b34610344575f366003190112610344577fa16a46d94261c7517cc8ff89f61c0ce93598e3c849801011dee649a6a557d10054158061167a575b1561163d57611619611b6f565b611621611c3c565b906105c661162d6123bf565b6040519384933091469186611574565b60405162461bcd60e51b81526020600482015260156024820152741152540dcc4c8e88155b9a5b9a5d1a585b1a5e9959605a1b6044820152606490fd5b507fa16a46d94261c7517cc8ff89f61c0ce93598e3c849801011dee649a6a557d101541561160c565b34610344575f3660031901126103445760205f54604051908152f35b34610344575f366003190112610344576020600454604051908152f35b3461034457604036600319011261034457602060ff61172b6004356116ff610348565b905f525f51602061455c5f395f51905f52845260405f209060018060a01b03165f5260205260405f2090565b54166040519015158152f35b346103445760403660031901126103445761175061032e565b60243561175c81610f00565b6001600160a01b0382169182156117ce5761178f9061177a336120b7565b9060018060a01b03165f5260205260405f2090565b60ff1981541660ff8315151617905560405190151581527f17307eab39ab6107e8899845ad3d59bd9653f200f220920489ca2b5937696c3160203392a3005b62ced3e160e81b5f525f60045260245ffd5b602081016020825282518091526040820191602060408360051b8301019401925f915b83831061181257505050505090565b9091929394602080611830600193603f1986820301875289516104fc565b97019301930191939290611803565b34610344576020366003190112610344576004356001600160401b0381116103445736602382011215610344578060040135906001600160401b038211610344573660248360051b83010111610344576105c691602461189f9201612834565b604051918291826117e0565b602435906001600160401b038216820361034457565b604435906001600160601b038216820361034457565b346103445760c0366003190112610344576004356001600160401b03811161034457611907903690600401610f0a565b906119106118ab565b916119196118c1565b916064356001600160401b03811161034457611939903690600401610f0a565b906084356001600160401b03811161034457611959903690600401610f0a565b92909160a435966001600160401b038811610344576105c69861198361198b993690600401610f0a565b9890976128f0565b6040519081529081906020820190565b604051906119aa6020836107a8565b5f8252565b34610344575f366003190112610344576105c66040516119d06040826107a8565b60058152640352e302e360dc1b60208201526040519182916020835260208301906104fc565b3461034457604036600319011261034457610949600435611a15610348565b90611a3b6109ab825f525f51602061455c5f395f51905f52602052600160405f20015490565b613370565b608036600319011261034457611a7e600435602435611a5d61035e565b611a656103a0565b91611a6e613630565b611a76613609565b3493336139f4565b60015f51602061459c5f395f51905f5255005b34610344575f36600319011261034457602060015460601c604051908152f35b34610344575f36600319011261034457602060405160018152f35b34610344575f3660031901126103445760206040517f65d7a28e3265b37a6474929f336521b332c1681b933f6cb9f3376673440d862a8152f35b3461034457604036600319011261034457602060ff61172b611b2661032e565b61177a611b31610348565b916120b7565b90600182811c92168015611b65575b6020831014611b5157565b634e487b7160e01b5f52602260045260245ffd5b91607f1691611b46565b604051905f825f5160206144dc5f395f51905f525491611b8e83611b37565b8083529260018116908115611c1d5750600114611bb2575b6107dd925003836107a8565b505f5160206144dc5f395f51905f525f90815290917f42ad5d3e1f2e6e70edcf6d991b8a3023d3fca8047a131592f9edb9fd9b89d57d5b818310611c015750509060206107dd92820101611ba6565b6020919350806001915483858901015201910190918492611be9565b602092506107dd94915060ff191682840152151560051b820101611ba6565b604051905f825f5160206144fc5f395f51905f525491611c5b83611b37565b8083529260018116908115611c1d5750600114611c7e576107dd925003836107a8565b505f5160206144fc5f395f51905f525f90815290917f5f9ce34815f8e11431c7bb75a8e6886a91478f7ffc1dbb0a98dc240fddd76b755b818310611ccd5750509060206107dd92820101611ba6565b6020919350806001915483858901015201910190918492611cb5565b9060405191825f825492611cfc84611b37565b8084529360018116908115611d655750600114611d21575b506107dd925003836107a8565b90505f9291925260205f20905f915b818310611d495750509060206107dd928201015f611d14565b6020919350806001915483858901015201910190918492611d30565b9050602092506107dd94915060ff191682840152151560051b8201015f611d14565b9597969294611ddf6001600160401b0395611dd1879560c099611db4611ded9760e08e81815201906104fc565b6001600160a01b0390921660208d01528b820360408d01526104fc565b9089820360608b01526104fc565b9087820360808901526104fc565b961660a085015216910152565b34610344576020366003190112610344576004355f52600260205260405f20611e2281611ce9565b906105c660018060a01b0360018301541691611e4060028201611ce9565b93611e4d60038301611ce9565b916005611e5c60048301611ce9565b910154926040519687966001600160401b03808760401c1696169488611d87565b346103445760a036600319011261034457611e9661032e565b611e9e610348565b60443590606435926084356001600160401b03811161034457611ec59036906004016108a4565b926001600160a01b0382163381141580611f60575b611f4a576001600160a01b03841615611f375715611f255761094994611f1d60405192600184526020840152604083019160018352606084015260808301604052565b929091613e2f565b626a0d4560e21b5f525f60045260245ffd5b632bfa23e760e11b5f525f60045260245ffd5b63711bec9160e11b5f523360045260245260445ffd5b50611f6b3384612f36565b15611eda565b34610344575f3660031901126103445760206040517f189ab7a9244df0848122154315af71fe140f3db0fe014031783b0946b8c9d2e38152f35b34610344576020366003190112610344576004356001600160601b0381168103610344576001600160601b0390611fe0613028565b16610bb88111612029576020817f7cb8fa1ce2fc1ff6556e563c0dcba551db7cdeb3f3b0911243692639ac80e94d926001600160601b03196001541617600155604051908152a1005b63cd4e616760e01b5f5260045ffd5b34610344575f36600319011261034457602060405160028152f35b60a03660031901126103445760243560043560ff8216820361034457604435916001600160401b03831161034457612092611a7e933690600401610f0a565b61209a6103a0565b91608435936120a7613630565b6120af613609565b3495336137ab565b6001600160a01b03165f9081527f88be536d5240c274a3b1d3a1be54482fd9caa294f08c62a7cde569f49a3c45016020526040902090565b634e487b7160e01b5f52601160045260245ffd5b906103e88202918083046103e8149015171561211b57565b6120ef565b8181029291811591840414171561211b57565b939291906001600160a01b038516338114158061216c575b611f4a576001600160a01b03821615611f375715611f25576107dd94613e2f565b5060ff61217c3361177a896120b7565b54161561214b565b604051906121936040836107a8565b6007825266213637b3a43ab160c91b6020830152565b604051906121b86040836107a8565b60018252601960f91b6020830152565b604051929160206121d981866107a8565b5f85526121e461402c565b6121ec61402c565b8451906001600160401b0382116107c95761221d826122185f5160206145dc5f395f51905f5254611b37565b612a6e565b602090601f83116001146123185750816122d89392612256926122f597985f9261230d575b50508160011b915f199060031b1c19161790565b5f5160206145dc5f395f51905f52555b61226e61402c565b61227661402c565b61227e61402c565b61228661402c565b61229f612291612184565b6122996121a9565b90613410565b6122a8836130bd565b506122b283613159565b506122bc8361321a565b506001600160601b036001549181199060601b16911617600155565b6122f060fa6001600160601b03196001541617600155565b613587565b6122fe60015f55565b6107dd6512309ce54000600455565b015190505f80612242565b5f5160206145dc5f395f51905f525f52601f198316969091907ff429cb5e2ec84cbb765e76b31964a56ccde03e7a6122d6cc4afb19edc55edeed925f905b8982106123a75750509183916001936122d896956122f5999a1061238f575b505050811b015f5160206145dc5f395f51905f5255612266565b01515f1960f88460031b161c191690555f8080612375565b80600185968294968601518155019501930190612356565b604051906123ce6020836107a8565b5f808352366020840137565b906123e4826107df565b6123f160405191826107a8565b8281528092612402601f19916107df565b0190602036910137565b634e487b7160e01b5f52603260045260245ffd5b80511561242d5760200190565b61240c565b80516001101561242d5760400190565b805182101561242d5760209160051b010190565b919091805183518082036124d857505061247081516123da565b905f5b81518110156124d157806124bf60019260051b602080828701015191890101515f525f51602061453c5f395f51905f5260205260405f209060018060a01b03165f5260205260405f2090565b546124ca8286612442565b5201612473565b5090925050565b635b05999160e01b5f5260045260245260445ffd5b90816020910312610344575161053181610f00565b908060209392818452848401375f828201840152601f01601f1916010190565b6001600160a01b039182168152918116602083015290911660408201526331e1e60b60e11b60608201526101006080820181905261053195939492612569918301906104fc565b935f60a083015260c082015260e0818503910152612502565b6040513d5f823e3d90fd5b99909897919695949392976125a0613630565b6125a8613609565b6003546125bd906001600160a01b0316610faa565b6001600160a01b0381161561110857895f8d6126236020968f966126028f8f8f908f918f9261132e936040519c8d96637f8f848560e11b6020890152602488016126c2565b60405163027f58e560e61b8152998a98899788963492309160048a01612761565b03925af1908115611103575f916126a3575b50156110c557612647953495896137ab565b604051600162707b7b60e11b031981526001600160a01b0391821692909116907fe915025b6f599b245c9c1c02d463228c896354d64dceb469760c99544153be6d90602090a36107dd60015f51602061459c5f395f51905f5255565b6126bc915060203d6020116110fc576110ee81836107a8565b5f612635565b92909360ff6126eb9360809699989799865216602085015260a0604085015260a0840191612502565b6001600160a01b0390951660608201520152565b6001600160a01b03918216815291811660208301529091166040820152636ffea07960e11b60608201526101006080820181905261053196939593949192612749918401906104fc565b9460a083015260c082015260e0818503910152612502565b6001600160a01b03918216815291811660208301529091166040820152600162707b7b60e11b031960608201526101006080820181905261053196939593949192612749918401906104fc565b9190820391821161211b57565b919081101561242d5760051b81013590601e19813603018212156103445701908135916001600160401b038311610344576020018236038113610344579190565b6020806107dd93959486604051978895848701378401908282015f8152815193849201905e01015f815203601f1981018452836107a8565b61283d5f610853565b61284a60405191826107a8565b5f8152601f196128595f610853565b01366020830137612869836107df565b9261287760405194856107a8565b808452601f19612886826107df565b015f5b8181106128df5750505f5b8181106128a2575050505090565b806128c36128bd856128b7600195878a6127bb565b906127fc565b30613b49565b6128cd8288612442565b526128d88187612442565b5001612894565b806060602080938901015201612889565b92959497989091939698612902613609565b6127106001600160601b03881611612a515760408911612a425760808a11612a335760408211612a24575f54998a9761293a89612a60565b5f556129446107ce565b61294f36878961086e565b8152336020820152612962368d8d61086e565b604082015261297236848b61086e565b606082015261298236868661086e565b60808201526001600160401b03881660a08201526001600160401b03421660c08201526129b78a5f52600260205260405f2090565b906129c191612d47565b886129ca61199b565b6129d49133613bbc565b6129df90338a613d5d565b604051966001600160401b038897169a339a42966129fd988a612ee0565b037fe1f019067723227459da3288a64e57be1e0fd18c77031e2ad16b5d6c8f74084e91a490565b635e95d47960e11b5f5260045ffd5b6324a25c5760e01b5f5260045ffd5b631750ba0360e01b5f5260045ffd5b63c2b03beb60e01b5f5260045ffd5b5f19811461211b5760010190565b601f8111612a7a575050565b5f5160206145dc5f395f51905f525f5260205f20906020601f840160051c83019310612ac0575b601f0160051c01905b818110612ab5575050565b5f8155600101612aaa565b9091508190612aa1565b601f8111612ad6575050565b5f5160206144dc5f395f51905f525f5260205f20906020601f840160051c83019310612b1c575b601f0160051c01905b818110612b11575050565b5f8155600101612b06565b9091508190612afd565b601f8211612b3357505050565b5f5260205f20906020601f840160051c83019310612b6b575b601f0160051c01905b818110612b60575050565b5f8155600101612b55565b9091508190612b4c565b9081516001600160401b0381116107c957612bb481612ba15f5160206144fc5f395f51905f5254611b37565b5f5160206144fc5f395f51905f52612b26565b602092601f8211600114612bf457612be3929382915f9261230d5750508160011b915f199060031b1c19161790565b5f5160206144fc5f395f51905f5255565b5f5160206144fc5f395f51905f525f52601f198216937f5f9ce34815f8e11431c7bb75a8e6886a91478f7ffc1dbb0a98dc240fddd76b75915f5b868110612c705750836001959610612c58575b505050811b015f5160206144fc5f395f51905f5255565b01515f1960f88460031b161c191690555f8080612c41565b91926020600181928685015181550194019201612c2e565b91909182516001600160401b0381116107c957612caf81612ca98454611b37565b84612b26565b6020601f8211600114612ce2578190612cde9394955f9261230d5750508160011b915f199060031b1c19161790565b9055565b601f19821690612cf5845f5260205f2090565b915f5b818110612d2f57509583600195969710612d17575b505050811b019055565b01515f1960f88460031b161c191690555f8080612d0d565b9192602060018192868b015181550194019201612cf8565b919080519283516001600160401b0381116107c957612d6a81612ca98454611b37565b6020601f8211600114612e6b57612e4492612da48360c0946005946107dd999a5f9261230d5750508160011b915f199060031b1c19161790565b81555b60208501516001820180546001600160a01b0319166001600160a01b03909216919091179055612dde604086015160028301612c88565b612def606086015160038301612c88565b612e00608086015160048301612c88565b0192612e36612e1960a08301516001600160401b031690565b855467ffffffffffffffff19166001600160401b03909116178555565b01516001600160401b031690565b67ffffffffffffffff60401b82549160401b169067ffffffffffffffff60401b1916179055565b601f19821695612e7e845f5260205f2090565b965f5b818110612ec85750836107dd9798600594612e44979460c09760019510612eb0575b505050811b018155612da7565b01515f1960f88460031b161c191690555f8080612ea3565b83830151895560019098019760209384019301612e81565b99989793612f2393612f1591612f07612f31999460809b99968f60a0908181520191612502565b8d810360208f015291612502565b918a830360408c0152612502565b918783036060890152612502565b930152565b60ff9161177a612f45926120b7565b541690565b335f9081527f75442b0a96088b5456bc4ed01394c96a4feec0f883c9494257d76b96ab1c9b6b602052604090205460ff1615612f8257565b63e2517d3f60e01b5f52336004527f65d7a28e3265b37a6474929f336521b332c1681b933f6cb9f3376673440d862a60245260445ffd5b335f9081527fab71e3f32666744d246edff3f96e4bdafee2e9867098cdd118a979a7464786a8602052604090205460ff1615612ff157565b63e2517d3f60e01b5f52336004527f189ab7a9244df0848122154315af71fe140f3db0fe014031783b0946b8c9d2e360245260445ffd5b335f9081527fb7db2dd08fcb62d0c9e08c51941cae53c267786a0b75803fb7960902fc8ef97d602052604090205460ff161561306057565b63e2517d3f60e01b5f52336004525f60245260445ffd5b5f8181525f51602061455c5f395f51905f526020908152604080832033845290915290205460ff16156130a75750565b63e2517d3f60e01b5f523360045260245260445ffd5b6001600160a01b0381165f9081527fb7db2dd08fcb62d0c9e08c51941cae53c267786a0b75803fb7960902fc8ef97d602052604090205460ff16613154576001600160a01b03165f8181527fb7db2dd08fcb62d0c9e08c51941cae53c267786a0b75803fb7960902fc8ef97d60205260408120805460ff191660011790553391905f5160206144bc5f395f51905f528180a4600190565b505f90565b6001600160a01b0381165f9081527fab71e3f32666744d246edff3f96e4bdafee2e9867098cdd118a979a7464786a8602052604090205460ff16613154576001600160a01b0381165f9081527fab71e3f32666744d246edff3f96e4bdafee2e9867098cdd118a979a7464786a860205260409020805460ff1916600117905533906001600160a01b03167f189ab7a9244df0848122154315af71fe140f3db0fe014031783b0946b8c9d2e35f5160206144bc5f395f51905f525f80a4600190565b6001600160a01b0381165f9081527f75442b0a96088b5456bc4ed01394c96a4feec0f883c9494257d76b96ab1c9b6b602052604090205460ff16613154576001600160a01b0381165f9081527f75442b0a96088b5456bc4ed01394c96a4feec0f883c9494257d76b96ab1c9b6b60205260409020805460ff1916600117905533906001600160a01b03167f65d7a28e3265b37a6474929f336521b332c1681b933f6cb9f3376673440d862a5f5160206144bc5f395f51905f525f80a4600190565b5f8181525f51602061455c5f395f51905f52602090815260408083206001600160a01b038616845290915290205460ff1661336a575f8181525f51602061455c5f395f51905f52602090815260408083206001600160a01b03861684529091529020805460ff1916600117905533916001600160a01b0316905f5160206144bc5f395f51905f525f80a4600190565b50505f90565b5f8181525f51602061455c5f395f51905f52602090815260408083206001600160a01b038616845290915290205460ff161561336a575f8181525f51602061455c5f395f51905f52602090815260408083206001600160a01b03861684529091529020805460ff1916905533916001600160a01b0316907ff6391f5c32d9c69d2a47ea670b442974b53935d1edc7fd64eb21e047a839171b5f80a4600190565b61341861402c565b61342061402c565b8051906001600160401b0382116107c9576134518261344c5f5160206144dc5f395f51905f5254611b37565b612aca565b602090601f83116001146134e85791806134849261349895945f9261230d5750508160011b915f199060031b1c19161790565b5f5160206144dc5f395f51905f5255612b75565b6134c05f7fa16a46d94261c7517cc8ff89f61c0ce93598e3c849801011dee649a6a557d10055565b6107dd5f7fa16a46d94261c7517cc8ff89f61c0ce93598e3c849801011dee649a6a557d10155565b5f5160206144dc5f395f51905f525f52601f19831691907f42ad5d3e1f2e6e70edcf6d991b8a3023d3fca8047a131592f9edb9fd9b89d57d925f5b81811061356f575091600193918561349897969410613557575b505050811b015f5160206144dc5f395f51905f5255612b75565b01515f1960f88460031b161c191690555f808061353d565b92936020600181928786015181550195019301613523565b6001600160a01b031680156135e757604051906135a56040836107a8565b8082526101f46020909201919091526001600160a01b0316607d60a21b177fdaedc9ab023613a7caf35e703657e986ccfad7e3eb0af93a2853f8d65dd86b0055565b635b6cc80560e11b5f525f60045260245ffd5b90816020910312610344575190565b60ff5f51602061457c5f395f51905f52541661362157565b63d93c066560e01b5f5260045ffd5b60025f51602061459c5f395f51905f5254146136595760025f51602061459c5f395f51905f5255565b633ee5aeb560e01b5f5260045ffd5b9060405160e08101908082106001600160401b038311176107c9576107dd9160405260c06137046005839661369c81611ce9565b855260018101546001600160a01b031660208601526136bd60028201611ce9565b60408601526136ce60038201611ce9565b60608601526136df60048201611ce9565b608086015201546001600160401b03811660a085015260401c6001600160401b031690565b6001600160401b0316910152565b6040805190919061372383826107a8565b6001815291601f1901366020840137565b6040516060919061374583826107a8565b6002815291601f1901366020840137565b3d15613780573d9061376782610853565b9161377560405193846107a8565b82523d5f602084013e565b606090565b92949361379f60ff92604094606087526060870191612502565b95602085015216910152565b929695919490955f5487101561062d5760ff861691600283116139e55761040086116139d657851580806139ce575b806139c6575b6139b757159283806139ac575b61399d5761380b6138068a5f52600260205260405f2090565b613668565b908361386c575b50505050613823575b505050505050565b7f19a5aae49af5681d63d1a8c6ea9dc7b88af86e08d71ade984e2087fada0d4c4a9361385e9160405194859460018060a01b03169885613785565b0390a35f808080808061381b565b6002036138ff5750505f8080808461388c610faa610faa60015460601c90565b5af1613896613756565b50156138f0575b6040805160ff88168152602081019290925242908201526001600160a01b0384169087907fa47847c5419013bc5fa344eaa882ed5b33f76d87a7ce6a1a760d5af198afd9e590606090a35f808080613812565b6312171d8360e31b5f5260045ffd5b61395561395b9161391861391161199b565b8c8a613bbc565b876020613923613712565b92018051909590613950906001600160a01b03165b61394185612420565b6001600160a01b039091169052565b6140f9565b8361414f565b9081613969575b505061389d565b515f9182918291829161398690610faa906001600160a01b031681565b5af1613990613756565b50156138f0575f80613962565b633f7d56c960e11b5f5260045ffd5b5060045483106137ed565b630eb90eff60e01b5f5260045ffd5b5082156137e0565b5083156137da565b63251f56a160e21b5f5260045ffd5b631556136560e01b5f5260045ffd5b91939290925f5484101561062d576001600160a01b0382168015613b3a57861561399d57613a7c613a76613a33613806885f52600260205260405f2090565b613a45613a3e61199b565b8989613bbc565b866020613a50613734565b92018051909690613a69906001600160a01b0316613938565b6139508861394185612432565b8861414f565b613a90613a898260011c90565b80926127ae565b9281613b06575b505081613ae9575b5050604080516001600160a01b0392831681526020810196909652429086015216927f3e2236223f9ef11dd92492a8d35ef88d2ef5bea632e11697c2565e8a55d2b40190606090a4565b5f80809381935af1613af9613756565b50156138f0575f80613a9f565b515f91829182918291613b2390610faa906001600160a01b031681565b5af1613b2d613756565b50156138f0575f80613a97565b633e510d3960e21b5f5260045ffd5b905f8091602081519101845af48080613ba9575b15613b6c57505061053161423c565b15613b9157639996b31560e01b5f9081526001600160a01b0391909116600452602490fd5b3d15155f036125825763d6bda27560e01b5f5260045ffd5b503d151580613b5d5750813b1515613b5d565b9291906001600160a01b03841615611f37576001613bf760405192600184526020840152604083019160018352606084015260808301604052565b908051825190818103613d485750506001600160a01b03851693841515935f5b8351811015613c7c5780868960019360051b602080828a010151918a01015192613c45575b50505001613c17565b613c729161177a613c6a925f525f51602061453c5f395f51905f5260205260405f2090565b918254614255565b90555f8981613c3c565b509390959460018351145f14613d0d576020838101518582015160408051928352928201525f9133917fc3d58168c5ae7397731d063d5bbf3d657854427343f4c083240f7aacaa2d0f629190a45b613cd5575b50505050565b8051600103613cfd5790602080613cf495930151910151915f3361441d565b5f808080613ccf565b613d08935f336142ef565b613cf4565b5f6040517f4a39dc06d4c0dbc64b70af90fd698a233a518aa5d07e595d983b8c0526c8f7fb339180613d40898983614262565b0390a4613cca565b635b05999160e01b5f5260045260245260445ffd5b92916001600160601b03166127108111613e13576001600160a01b03821615613dfc576107dd9293613dd49160405193613d986040866107a8565b60018060a01b0316845260208401525f527fdaedc9ab023613a7caf35e703657e986ccfad7e3eb0af93a2853f8d65dd86b0160205260405f2090565b815160209092015160a01b6001600160a01b0319166001600160a01b03909216919091179055565b83634b4f842960e11b5f526004525f60245260445ffd5b8363dfd1fc1b60e01b5f5260045260245261271060445260645ffd5b9493929091938451825190818103613d485750506001600160a01b038681169586151595918516801515939192905f5b8451811015613f5f578060051b90898988602080868b010151958c01015192613ec4575b93600194613e95575b50505001613e5f565b613eba9161177a613c6a925f525f51602061453c5f395f51905f5260205260405f2090565b90555f8981613e8c565b50509091613eea8d61177a835f525f51602061453c5f395f51905f5260205260405f2090565b54828110613f28578291898f613f1f600197968f95039161177a855f525f51602061453c5f395f51905f5260205260405f2090565b55909450613e83565b6040516303dee4c560e01b81526001600160a01b038f16600482015260248101919091526044810183905260648101829052608490fd5b5091989593929790965060018851145f14613ff25760208881015186820151604080519283529282015233917fc3d58168c5ae7397731d063d5bbf3d657854427343f4c083240f7aacaa2d0f6291a45b613fbb575b5050505050565b8451600103613fe157602080613fd7960151920151923361441d565b5f80808080613fb4565b613fed949192336142ef565b613fd7565b6040517f4a39dc06d4c0dbc64b70af90fd698a233a518aa5d07e595d983b8c0526c8f7fb339180614024898d83614262565b0390a4613faf565b60ff5f5160206145bc5f395f51905f525460401c161561404857565b631afcd79f60e31b5f5260045ffd5b90813b156140d8575f51602061451c5f395f51905f5280546001600160a01b0319166001600160a01b0384169081179091557fbc7cd75a20ee27fd9adebab32041f755214dbc6bffa90cc0225b39da2e5c2d3b5f80a28051156140c0576140bd91613b49565b50565b5050346140c957565b63b398979f60e01b5f5260045ffd5b50634c9c8ce360e01b5f9081526001600160a01b0391909116600452602490fd5b916001600160a01b0380841692168214614148575f5b8151811015614142576001600160a01b0361412a8284612442565b5116831461413a5760010161410f565b505050505f90565b50505090565b5050505f90565b600154909161416a6107386001600160601b03841685612120565b906001600160a01b03168015614234578161418761073886612103565b935b81614208575b5050826141aa575b506141a590610531936127ae565b6127ae565b905f80808086865af16141bb613756565b50156138f057610531936141a5927f6292f4f27d8047af4537a4bd86906de0e2c880c20086f7f58b81eacfeb639126604051806141fd88829190602083019252565b0390a2935090614197565b5f80809361421d610faa610faa849660601c90565b5af1614227613756565b50156138f057815f61418f565b815f93614189565b604051903d82523d5f602084013e60203d830101604052565b9190820180921161211b57565b909161427961053193604084526040840190610c06565b916020818403910152610c06565b9081602091031261034457516105318161041f565b6001600160a01b0391821681529116602082015260a06040820181905261053194919391926142e192916142d39190860190610c06565b908482036060860152610c06565b9160808184039101526104fc565b9091949293853b61430257505050505050565b60209361432491604051968795869563bc197c8160e01b87526004870161429c565b03815f6001600160a01b0387165af15f91816143b3575b506143755750614349613756565b805191908261436e57632bfa23e760e11b5f526001600160a01b03821660045260245ffd5b6020915001fd5b6001600160e01b0319166343e6837f60e01b0161439857505f808080808061381b565b632bfa23e760e11b5f526001600160a01b031660045260245ffd5b6143d691925060203d6020116143dd575b6143ce81836107a8565b810190614287565b905f61433b565b503d6143c4565b6001600160a01b039182168152911660208201526040810191909152606081019190915260a060808201819052610531929101906104fc565b9091949293853b61443057505050505050565b60209361445291604051968795869563f23a6e6160e01b8752600487016143e4565b03815f6001600160a01b0387165af15f918161449a575b506144775750614349613756565b6001600160e01b031916630dc5919f60e01b0161439857505f808080808061381b565b6144b491925060203d6020116143dd576143ce81836107a8565b905f61446956fe2f8788117e7eff1d82e926ec794901d17c78024a50270940304540a733656f0da16a46d94261c7517cc8ff89f61c0ce93598e3c849801011dee649a6a557d102a16a46d94261c7517cc8ff89f61c0ce93598e3c849801011dee649a6a557d103360894a13ba1a3210667c828492db98dca3e2076cc3735a920a3ca505d382bbc88be536d5240c274a3b1d3a1be54482fd9caa294f08c62a7cde569f49a3c450002dd7bc7dec4dceedda775e58dd541e08a116c6c53815c0bd028192f7b626800cd5ed15c6e187e77e9aee88184c21f4f2182ab5827cb3b7e07fbedcd63f033009b779b17422d0df92223018b32b4d1fa46e071723d6817e2486d003becc55f00f0c57e16840df040f15088dc2f81fe391c3923bec73e23a9662efc9c229c6a0088be536d5240c274a3b1d3a1be54482fd9caa294f08c62a7cde569f49a3c4502a264697066735822122042c70b2edc2e7369217b3b420f107b2271183fd3cef5546fe824aea20cf64cf164736f6c634300081e0033f0c57e16840df040f15088dc2f81fe391c3923bec73e23a9662efc9c229c6a00","linkReferences":{}},"methodIdentifiers":{"DEFAULT_ADMIN_ROLE()":"a217fddf","MAX_COMMENT_LENGTH()":"5856e4fa","MAX_COVER_IMAGE_LENGTH()":"ec176f2c","MAX_ORIGINAL_AUTHOR_LENGTH()":"19e94a6e","MAX_TITLE_LENGTH()":"2ef9a160","PAUSER_ROLE()":"e63ab1e9","SCORE_DISLIKE()":"fde84719","SCORE_LIKE()":"e1d90b34","SCORE_NEUTRAL()":"473106b2","UPGRADER_ROLE()":"f72c0d8b","UPGRADE_INTERFACE_VERSION()":"ad3cb1cc","articles(uint256)":"edcfafe6","balanceOf(address,uint256)":"00fdd58e","balanceOfBatch(address[],uint256[])":"4e1273f4","eip712Domain()":"84b0196e","evaluate(uint256,uint8,string,address,uint256)":"ff1f090a","evaluateWithSessionKey(address,address,uint256,uint8,string,address,uint256,uint256,bytes)":"63c4ea4d","follow(address,bool)":"63c3cc16","followWithSessionKey(address,address,address,bool,uint256,bytes)":"5780400b","getRoleAdmin(bytes32)":"248a9ca3","grantRole(bytes32,address)":"2f2ff15d","hasRole(bytes32,address)":"91d14854","initialize(address,address)":"485cc955","isApprovedForAll(address,address)":"e985e9c5","likeComment(uint256,uint256,address,address)":"dffd40f2","likeCommentWithSessionKey(address,address,uint256,uint256,address,address,uint256,bytes)":"79c61f28","minActionValue()":"8cbd215e","multicall(bytes[])":"ac9650d8","nextArticleId()":"85c3ab54","pause()":"8456cb59","paused()":"5c975abb","platformFeeBps()":"22dcd13e","platformTreasury()":"e138818c","proxiableUUID()":"52d1902d","publish(string,uint64,uint96,string,string,string)":"acb9420e","renounceRole(bytes32,address)":"36568abe","revokeRole(bytes32,address)":"d547741f","royaltyInfo(uint256,uint256)":"2a55205a","safeBatchTransferFrom(address,address,uint256[],uint256[],bytes)":"2eb2c2d6","safeTransferFrom(address,address,uint256,uint256,bytes)":"f242432a","sessionKeyManager()":"0b826190","setApprovalForAll(address,bool)":"a22cb465","setMinActionValue(uint256)":"52cbd3be","setPlatformFee(uint96)":"f99e5dbb","setPlatformTreasury(address)":"7cd86d60","setSessionKeyManager(address)":"837fa3fd","supportsInterface(bytes4)":"01ffc9a7","unpause()":"3f4ba83a","upgradeToAndCall(address,bytes)":"4f1ef286","uri(uint256)":"0e89341c"},"id":68}