{"abi":[{"type":"constructor","inputs":[],"stateMutability":"nonpayable"},{"type":"function","name":"COLLECTOR_TOKEN_OFFSET","inputs":[],"outputs":[{"name":"","type":"uint256","internalType":"uint256"}],"stateMutability":"view"},{"type":"function","name":"DEFAULT_ADMIN_ROLE","inputs":[],"outputs":[{"name":"","type":"bytes32","internalType":"bytes32"}],"stateMutability":"view"},{"type":"function","name":"MAX_AVATAR_LENGTH","inputs":[],"outputs":[{"name":"","type":"uint256","internalType":"uint256"}],"stateMutability":"view"},{"type":"function","name":"MAX_BIO_LENGTH","inputs":[],"outputs":[{"name":"","type":"uint256","internalType":"uint256"}],"stateMutability":"view"},{"type":"function","name":"MAX_COMMENT_LENGTH","inputs":[],"outputs":[{"name":"","type":"uint256","internalType":"uint256"}],"stateMutability":"view"},{"type":"function","name":"MAX_NICKNAME_LENGTH","inputs":[],"outputs":[{"name":"","type":"uint256","internalType":"uint256"}],"stateMutability":"view"},{"type":"function","name":"MAX_ORIGINAL_AUTHOR_LENGTH","inputs":[],"outputs":[{"name":"","type":"uint256","internalType":"uint256"}],"stateMutability":"view"},{"type":"function","name":"MAX_SUMMARY_LENGTH","inputs":[],"outputs":[{"name":"","type":"uint256","internalType":"uint256"}],"stateMutability":"view"},{"type":"function","name":"MAX_TITLE_LENGTH","inputs":[],"outputs":[{"name":"","type":"uint256","internalType":"uint256"}],"stateMutability":"view"},{"type":"function","name":"PAUSER_ROLE","inputs":[],"outputs":[{"name":"","type":"bytes32","internalType":"bytes32"}],"stateMutability":"view"},{"type":"function","name":"SCORE_DISLIKE","inputs":[],"outputs":[{"name":"","type":"uint8","internalType":"uint8"}],"stateMutability":"view"},{"type":"function","name":"SCORE_LIKE","inputs":[],"outputs":[{"name":"","type":"uint8","internalType":"uint8"}],"stateMutability":"view"},{"type":"function","name":"SCORE_NEUTRAL","inputs":[],"outputs":[{"name":"","type":"uint8","internalType":"uint8"}],"stateMutability":"view"},{"type":"function","name":"UPGRADER_ROLE","inputs":[],"outputs":[{"name":"","type":"bytes32","internalType":"bytes32"}],"stateMutability":"view"},{"type":"function","name":"UPGRADE_INTERFACE_VERSION","inputs":[],"outputs":[{"name":"","type":"string","internalType":"string"}],"stateMutability":"view"},{"type":"function","name":"articles","inputs":[{"name":"","type":"uint256","internalType":"uint256"}],"outputs":[{"name":"author","type":"address","internalType":"address"},{"name":"timestamp","type":"uint64","internalType":"uint64"},{"name":"categoryId","type":"uint16","internalType":"uint16"},{"name":"originality","type":"uint8","internalType":"enum BlogHub.Originality"},{"name":"collectPrice","type":"uint96","internalType":"uint96"},{"name":"maxCollectSupply","type":"uint32","internalType":"uint32"},{"name":"collectCount","type":"uint32","internalType":"uint32"},{"name":"arweaveHash","type":"string","internalType":"string"}],"stateMutability":"view"},{"type":"function","name":"arweaveIdToArticleId","inputs":[{"name":"","type":"string","internalType":"string"}],"outputs":[{"name":"","type":"uint256","internalType":"uint256"}],"stateMutability":"view"},{"type":"function","name":"balanceOf","inputs":[{"name":"account","type":"address","internalType":"address"},{"name":"id","type":"uint256","internalType":"uint256"}],"outputs":[{"name":"","type":"uint256","internalType":"uint256"}],"stateMutability":"view"},{"type":"function","name":"balanceOfBatch","inputs":[{"name":"accounts","type":"address[]","internalType":"address[]"},{"name":"ids","type":"uint256[]","internalType":"uint256[]"}],"outputs":[{"name":"","type":"uint256[]","internalType":"uint256[]"}],"stateMutability":"view"},{"type":"function","name":"collect","inputs":[{"name":"_articleId","type":"uint256","internalType":"uint256"},{"name":"_referrer","type":"address","internalType":"address"}],"outputs":[],"stateMutability":"payable"},{"type":"function","name":"collectWithSessionKey","inputs":[{"name":"owner","type":"address","internalType":"address"},{"name":"sessionKey","type":"address","internalType":"address"},{"name":"_articleId","type":"uint256","internalType":"uint256"},{"name":"_referrer","type":"address","internalType":"address"},{"name":"deadline","type":"uint256","internalType":"uint256"},{"name":"signature","type":"bytes","internalType":"bytes"}],"outputs":[],"stateMutability":"payable"},{"type":"function","name":"editArticle","inputs":[{"name":"params","type":"tuple","internalType":"struct BlogHub.EditArticleParams","components":[{"name":"articleId","type":"uint256","internalType":"uint256"},{"name":"originalAuthor","type":"string","internalType":"string"},{"name":"title","type":"string","internalType":"string"},{"name":"summary","type":"string","internalType":"string"},{"name":"categoryId","type":"uint16","internalType":"uint16"}]}],"outputs":[],"stateMutability":"nonpayable"},{"type":"function","name":"editArticleWithSessionKey","inputs":[{"name":"owner","type":"address","internalType":"address"},{"name":"sessionKey","type":"address","internalType":"address"},{"name":"params","type":"tuple","internalType":"struct BlogHub.EditArticleParams","components":[{"name":"articleId","type":"uint256","internalType":"uint256"},{"name":"originalAuthor","type":"string","internalType":"string"},{"name":"title","type":"string","internalType":"string"},{"name":"summary","type":"string","internalType":"string"},{"name":"categoryId","type":"uint16","internalType":"uint16"}]},{"name":"deadline","type":"uint256","internalType":"uint256"},{"name":"signature","type":"bytes","internalType":"bytes"}],"outputs":[],"stateMutability":"nonpayable"},{"type":"function","name":"evaluate","inputs":[{"name":"_articleId","type":"uint256","internalType":"uint256"},{"name":"_score","type":"uint8","internalType":"uint8"},{"name":"_content","type":"string","internalType":"string"},{"name":"_referrer","type":"address","internalType":"address"},{"name":"_parentCommentId","type":"uint256","internalType":"uint256"}],"outputs":[],"stateMutability":"payable"},{"type":"function","name":"evaluateWithSessionKey","inputs":[{"name":"owner","type":"address","internalType":"address"},{"name":"sessionKey","type":"address","internalType":"address"},{"name":"_articleId","type":"uint256","internalType":"uint256"},{"name":"_score","type":"uint8","internalType":"uint8"},{"name":"_content","type":"string","internalType":"string"},{"name":"_referrer","type":"address","internalType":"address"},{"name":"_parentCommentId","type":"uint256","internalType":"uint256"},{"name":"deadline","type":"uint256","internalType":"uint256"},{"name":"signature","type":"bytes","internalType":"bytes"}],"outputs":[],"stateMutability":"payable"},{"type":"function","name":"follow","inputs":[{"name":"_target","type":"address","internalType":"address"},{"name":"_status","type":"bool","internalType":"bool"}],"outputs":[],"stateMutability":"nonpayable"},{"type":"function","name":"followWithSessionKey","inputs":[{"name":"owner","type":"address","internalType":"address"},{"name":"sessionKey","type":"address","internalType":"address"},{"name":"_target","type":"address","internalType":"address"},{"name":"_status","type":"bool","internalType":"bool"},{"name":"deadline","type":"uint256","internalType":"uint256"},{"name":"signature","type":"bytes","internalType":"bytes"}],"outputs":[],"stateMutability":"nonpayable"},{"type":"function","name":"getArticleByArweaveId","inputs":[{"name":"_arweaveId","type":"string","internalType":"string"}],"outputs":[{"name":"","type":"tuple","internalType":"struct BlogHub.Article","components":[{"name":"author","type":"address","internalType":"address"},{"name":"timestamp","type":"uint64","internalType":"uint64"},{"name":"categoryId","type":"uint16","internalType":"uint16"},{"name":"originality","type":"uint8","internalType":"enum BlogHub.Originality"},{"name":"collectPrice","type":"uint96","internalType":"uint96"},{"name":"maxCollectSupply","type":"uint32","internalType":"uint32"},{"name":"collectCount","type":"uint32","internalType":"uint32"},{"name":"arweaveHash","type":"string","internalType":"string"}]}],"stateMutability":"view"},{"type":"function","name":"getArticleIdByArweaveId","inputs":[{"name":"_arweaveId","type":"string","internalType":"string"}],"outputs":[{"name":"","type":"uint256","internalType":"uint256"}],"stateMutability":"view"},{"type":"function","name":"getArticleIdFromTokenId","inputs":[{"name":"tokenId","type":"uint256","internalType":"uint256"}],"outputs":[{"name":"","type":"uint256","internalType":"uint256"}],"stateMutability":"pure"},{"type":"function","name":"getRoleAdmin","inputs":[{"name":"role","type":"bytes32","internalType":"bytes32"}],"outputs":[{"name":"","type":"bytes32","internalType":"bytes32"}],"stateMutability":"view"},{"type":"function","name":"grantRole","inputs":[{"name":"role","type":"bytes32","internalType":"bytes32"},{"name":"account","type":"address","internalType":"address"}],"outputs":[],"stateMutability":"nonpayable"},{"type":"function","name":"hasRole","inputs":[{"name":"role","type":"bytes32","internalType":"bytes32"},{"name":"account","type":"address","internalType":"address"}],"outputs":[{"name":"","type":"bool","internalType":"bool"}],"stateMutability":"view"},{"type":"function","name":"initialize","inputs":[{"name":"_initialOwner","type":"address","internalType":"address"},{"name":"_treasury","type":"address","internalType":"address"}],"outputs":[],"stateMutability":"nonpayable"},{"type":"function","name":"isApprovedForAll","inputs":[{"name":"account","type":"address","internalType":"address"},{"name":"operator","type":"address","internalType":"address"}],"outputs":[{"name":"","type":"bool","internalType":"bool"}],"stateMutability":"view"},{"type":"function","name":"likeComment","inputs":[{"name":"_articleId","type":"uint256","internalType":"uint256"},{"name":"_commentId","type":"uint256","internalType":"uint256"},{"name":"_commenter","type":"address","internalType":"address"},{"name":"_referrer","type":"address","internalType":"address"}],"outputs":[],"stateMutability":"payable"},{"type":"function","name":"likeCommentWithSessionKey","inputs":[{"name":"owner","type":"address","internalType":"address"},{"name":"sessionKey","type":"address","internalType":"address"},{"name":"_articleId","type":"uint256","internalType":"uint256"},{"name":"_commentId","type":"uint256","internalType":"uint256"},{"name":"_commenter","type":"address","internalType":"address"},{"name":"_referrer","type":"address","internalType":"address"},{"name":"deadline","type":"uint256","internalType":"uint256"},{"name":"signature","type":"bytes","internalType":"bytes"}],"outputs":[],"stateMutability":"payable"},{"type":"function","name":"minActionValue","inputs":[],"outputs":[{"name":"","type":"uint256","internalType":"uint256"}],"stateMutability":"view"},{"type":"function","name":"multicall","inputs":[{"name":"data","type":"bytes[]","internalType":"bytes[]"}],"outputs":[{"name":"results","type":"bytes[]","internalType":"bytes[]"}],"stateMutability":"nonpayable"},{"type":"function","name":"nextArticleId","inputs":[],"outputs":[{"name":"","type":"uint256","internalType":"uint256"}],"stateMutability":"view"},{"type":"function","name":"pause","inputs":[],"outputs":[],"stateMutability":"nonpayable"},{"type":"function","name":"paused","inputs":[],"outputs":[{"name":"","type":"bool","internalType":"bool"}],"stateMutability":"view"},{"type":"function","name":"platformFeeBps","inputs":[],"outputs":[{"name":"","type":"uint96","internalType":"uint96"}],"stateMutability":"view"},{"type":"function","name":"platformTreasury","inputs":[],"outputs":[{"name":"","type":"address","internalType":"address"}],"stateMutability":"view"},{"type":"function","name":"proxiableUUID","inputs":[],"outputs":[{"name":"","type":"bytes32","internalType":"bytes32"}],"stateMutability":"view"},{"type":"function","name":"publish","inputs":[{"name":"params","type":"tuple","internalType":"struct BlogHub.PublishParams","components":[{"name":"arweaveId","type":"string","internalType":"string"},{"name":"categoryId","type":"uint16","internalType":"uint16"},{"name":"royaltyBps","type":"uint96","internalType":"uint96"},{"name":"originalAuthor","type":"string","internalType":"string"},{"name":"title","type":"string","internalType":"string"},{"name":"summary","type":"string","internalType":"string"},{"name":"trueAuthor","type":"address","internalType":"address"},{"name":"collectPrice","type":"uint96","internalType":"uint96"},{"name":"maxCollectSupply","type":"uint32","internalType":"uint32"},{"name":"originality","type":"uint8","internalType":"enum BlogHub.Originality"}]}],"outputs":[{"name":"","type":"uint256","internalType":"uint256"}],"stateMutability":"nonpayable"},{"type":"function","name":"publishWithSessionKey","inputs":[{"name":"owner","type":"address","internalType":"address"},{"name":"sessionKey","type":"address","internalType":"address"},{"name":"params","type":"tuple","internalType":"struct BlogHub.PublishParams","components":[{"name":"arweaveId","type":"string","internalType":"string"},{"name":"categoryId","type":"uint16","internalType":"uint16"},{"name":"royaltyBps","type":"uint96","internalType":"uint96"},{"name":"originalAuthor","type":"string","internalType":"string"},{"name":"title","type":"string","internalType":"string"},{"name":"summary","type":"string","internalType":"string"},{"name":"trueAuthor","type":"address","internalType":"address"},{"name":"collectPrice","type":"uint96","internalType":"uint96"},{"name":"maxCollectSupply","type":"uint32","internalType":"uint32"},{"name":"originality","type":"uint8","internalType":"enum BlogHub.Originality"}]},{"name":"deadline","type":"uint256","internalType":"uint256"},{"name":"signature","type":"bytes","internalType":"bytes"}],"outputs":[{"name":"","type":"uint256","internalType":"uint256"}],"stateMutability":"nonpayable"},{"type":"function","name":"renounceRole","inputs":[{"name":"role","type":"bytes32","internalType":"bytes32"},{"name":"callerConfirmation","type":"address","internalType":"address"}],"outputs":[],"stateMutability":"nonpayable"},{"type":"function","name":"revokeRole","inputs":[{"name":"role","type":"bytes32","internalType":"bytes32"},{"name":"account","type":"address","internalType":"address"}],"outputs":[],"stateMutability":"nonpayable"},{"type":"function","name":"royaltyInfo","inputs":[{"name":"tokenId","type":"uint256","internalType":"uint256"},{"name":"salePrice","type":"uint256","internalType":"uint256"}],"outputs":[{"name":"receiver","type":"address","internalType":"address"},{"name":"amount","type":"uint256","internalType":"uint256"}],"stateMutability":"view"},{"type":"function","name":"safeBatchTransferFrom","inputs":[{"name":"from","type":"address","internalType":"address"},{"name":"to","type":"address","internalType":"address"},{"name":"ids","type":"uint256[]","internalType":"uint256[]"},{"name":"values","type":"uint256[]","internalType":"uint256[]"},{"name":"data","type":"bytes","internalType":"bytes"}],"outputs":[],"stateMutability":"nonpayable"},{"type":"function","name":"safeTransferFrom","inputs":[{"name":"from","type":"address","internalType":"address"},{"name":"to","type":"address","internalType":"address"},{"name":"id","type":"uint256","internalType":"uint256"},{"name":"value","type":"uint256","internalType":"uint256"},{"name":"data","type":"bytes","internalType":"bytes"}],"outputs":[],"stateMutability":"nonpayable"},{"type":"function","name":"sessionKeyManager","inputs":[],"outputs":[{"name":"","type":"address","internalType":"contract ISessionKeyManager"}],"stateMutability":"view"},{"type":"function","name":"setApprovalForAll","inputs":[{"name":"operator","type":"address","internalType":"address"},{"name":"approved","type":"bool","internalType":"bool"}],"outputs":[],"stateMutability":"nonpayable"},{"type":"function","name":"setMinActionValue","inputs":[{"name":"_minActionValue","type":"uint256","internalType":"uint256"}],"outputs":[],"stateMutability":"nonpayable"},{"type":"function","name":"setPlatformFee","inputs":[{"name":"_feeBps","type":"uint96","internalType":"uint96"}],"outputs":[],"stateMutability":"nonpayable"},{"type":"function","name":"setPlatformTreasury","inputs":[{"name":"_treasury","type":"address","internalType":"address"}],"outputs":[],"stateMutability":"nonpayable"},{"type":"function","name":"setSessionKeyManager","inputs":[{"name":"_sessionKeyManager","type":"address","internalType":"address"}],"outputs":[],"stateMutability":"nonpayable"},{"type":"function","name":"supportsInterface","inputs":[{"name":"interfaceId","type":"bytes4","internalType":"bytes4"}],"outputs":[{"name":"","type":"bool","internalType":"bool"}],"stateMutability":"view"},{"type":"function","name":"unpause","inputs":[],"outputs":[],"stateMutability":"nonpayable"},{"type":"function","name":"updateProfile","inputs":[{"name":"_nickname","type":"string","internalType":"string"},{"name":"_avatar","type":"string","internalType":"string"},{"name":"_bio","type":"string","internalType":"string"}],"outputs":[],"stateMutability":"nonpayable"},{"type":"function","name":"upgradeToAndCall","inputs":[{"name":"newImplementation","type":"address","internalType":"address"},{"name":"data","type":"bytes","internalType":"bytes"}],"outputs":[],"stateMutability":"payable"},{"type":"function","name":"uri","inputs":[{"name":"_id","type":"uint256","internalType":"uint256"}],"outputs":[{"name":"","type":"string","internalType":"string"}],"stateMutability":"view"},{"type":"event","name":"ApprovalForAll","inputs":[{"name":"account","type":"address","indexed":true,"internalType":"address"},{"name":"operator","type":"address","indexed":true,"internalType":"address"},{"name":"approved","type":"bool","indexed":false,"internalType":"bool"}],"anonymous":false},{"type":"event","name":"ArticleCollected","inputs":[{"name":"articleId","type":"uint256","indexed":true,"internalType":"uint256"},{"name":"collector","type":"address","indexed":true,"internalType":"address"},{"name":"amount","type":"uint256","indexed":false,"internalType":"uint256"},{"name":"tokenId","type":"uint256","indexed":false,"internalType":"uint256"}],"anonymous":false},{"type":"event","name":"ArticleEdited","inputs":[{"name":"articleId","type":"uint256","indexed":true,"internalType":"uint256"},{"name":"originalAuthor","type":"string","indexed":false,"internalType":"string"},{"name":"title","type":"string","indexed":false,"internalType":"string"},{"name":"summary","type":"string","indexed":false,"internalType":"string"},{"name":"categoryId","type":"uint16","indexed":false,"internalType":"uint16"}],"anonymous":false},{"type":"event","name":"ArticleEvaluated","inputs":[{"name":"articleId","type":"uint256","indexed":true,"internalType":"uint256"},{"name":"user","type":"address","indexed":true,"internalType":"address"},{"name":"score","type":"uint8","indexed":false,"internalType":"uint8"},{"name":"amountPaid","type":"uint256","indexed":false,"internalType":"uint256"}],"anonymous":false},{"type":"event","name":"ArticlePublished","inputs":[{"name":"articleId","type":"uint256","indexed":true,"internalType":"uint256"},{"name":"author","type":"address","indexed":true,"internalType":"address"},{"name":"categoryId","type":"uint16","indexed":true,"internalType":"uint16"},{"name":"arweaveId","type":"string","indexed":false,"internalType":"string"},{"name":"originalAuthor","type":"string","indexed":false,"internalType":"string"},{"name":"title","type":"string","indexed":false,"internalType":"string"},{"name":"summary","type":"string","indexed":false,"internalType":"string"},{"name":"collectPrice","type":"uint96","indexed":false,"internalType":"uint96"},{"name":"maxCollectSupply","type":"uint32","indexed":false,"internalType":"uint32"},{"name":"originality","type":"uint8","indexed":false,"internalType":"enum BlogHub.Originality"}],"anonymous":false},{"type":"event","name":"CommentAdded","inputs":[{"name":"articleId","type":"uint256","indexed":true,"internalType":"uint256"},{"name":"commenter","type":"address","indexed":true,"internalType":"address"},{"name":"content","type":"string","indexed":false,"internalType":"string"},{"name":"parentCommentId","type":"uint256","indexed":false,"internalType":"uint256"},{"name":"score","type":"uint8","indexed":false,"internalType":"uint8"}],"anonymous":false},{"type":"event","name":"CommentLiked","inputs":[{"name":"articleId","type":"uint256","indexed":true,"internalType":"uint256"},{"name":"commentId","type":"uint256","indexed":true,"internalType":"uint256"},{"name":"liker","type":"address","indexed":true,"internalType":"address"},{"name":"commenter","type":"address","indexed":false,"internalType":"address"},{"name":"amountPaid","type":"uint256","indexed":false,"internalType":"uint256"}],"anonymous":false},{"type":"event","name":"FollowStatusChanged","inputs":[{"name":"follower","type":"address","indexed":true,"internalType":"address"},{"name":"target","type":"address","indexed":true,"internalType":"address"},{"name":"isFollowing","type":"bool","indexed":false,"internalType":"bool"}],"anonymous":false},{"type":"event","name":"Initialized","inputs":[{"name":"version","type":"uint64","indexed":false,"internalType":"uint64"}],"anonymous":false},{"type":"event","name":"MinActionValueUpdated","inputs":[{"name":"newValue","type":"uint256","indexed":false,"internalType":"uint256"}],"anonymous":false},{"type":"event","name":"Paused","inputs":[{"name":"account","type":"address","indexed":false,"internalType":"address"}],"anonymous":false},{"type":"event","name":"PlatformFeeUpdated","inputs":[{"name":"newFeeBps","type":"uint96","indexed":false,"internalType":"uint96"}],"anonymous":false},{"type":"event","name":"ReferralPaid","inputs":[{"name":"referrer","type":"address","indexed":true,"internalType":"address"},{"name":"amount","type":"uint256","indexed":false,"internalType":"uint256"}],"anonymous":false},{"type":"event","name":"RoleAdminChanged","inputs":[{"name":"role","type":"bytes32","indexed":true,"internalType":"bytes32"},{"name":"previousAdminRole","type":"bytes32","indexed":true,"internalType":"bytes32"},{"name":"newAdminRole","type":"bytes32","indexed":true,"internalType":"bytes32"}],"anonymous":false},{"type":"event","name":"RoleGranted","inputs":[{"name":"role","type":"bytes32","indexed":true,"internalType":"bytes32"},{"name":"account","type":"address","indexed":true,"internalType":"address"},{"name":"sender","type":"address","indexed":true,"internalType":"address"}],"anonymous":false},{"type":"event","name":"RoleRevoked","inputs":[{"name":"role","type":"bytes32","indexed":true,"internalType":"bytes32"},{"name":"account","type":"address","indexed":true,"internalType":"address"},{"name":"sender","type":"address","indexed":true,"internalType":"address"}],"anonymous":false},{"type":"event","name":"SessionKeyManagerUpdated","inputs":[{"name":"newManager","type":"address","indexed":true,"internalType":"address"}],"anonymous":false},{"type":"event","name":"SessionKeyOperationExecuted","inputs":[{"name":"owner","type":"address","indexed":true,"internalType":"address"},{"name":"sessionKey","type":"address","indexed":true,"internalType":"address"},{"name":"selector","type":"bytes4","indexed":false,"internalType":"bytes4"}],"anonymous":false},{"type":"event","name":"TransferBatch","inputs":[{"name":"operator","type":"address","indexed":true,"internalType":"address"},{"name":"from","type":"address","indexed":true,"internalType":"address"},{"name":"to","type":"address","indexed":true,"internalType":"address"},{"name":"ids","type":"uint256[]","indexed":false,"internalType":"uint256[]"},{"name":"values","type":"uint256[]","indexed":false,"internalType":"uint256[]"}],"anonymous":false},{"type":"event","name":"TransferSingle","inputs":[{"name":"operator","type":"address","indexed":true,"internalType":"address"},{"name":"from","type":"address","indexed":true,"internalType":"address"},{"name":"to","type":"address","indexed":true,"internalType":"address"},{"name":"id","type":"uint256","indexed":false,"internalType":"uint256"},{"name":"value","type":"uint256","indexed":false,"internalType":"uint256"}],"anonymous":false},{"type":"event","name":"TreasuryUpdated","inputs":[{"name":"newTreasury","type":"address","indexed":false,"internalType":"address"}],"anonymous":false},{"type":"event","name":"URI","inputs":[{"name":"value","type":"string","indexed":false,"internalType":"string"},{"name":"id","type":"uint256","indexed":true,"internalType":"uint256"}],"anonymous":false},{"type":"event","name":"Unpaused","inputs":[{"name":"account","type":"address","indexed":false,"internalType":"address"}],"anonymous":false},{"type":"event","name":"Upgraded","inputs":[{"name":"implementation","type":"address","indexed":true,"internalType":"address"}],"anonymous":false},{"type":"event","name":"UserProfileUpdated","inputs":[{"name":"user","type":"address","indexed":true,"internalType":"address"},{"name":"nickname","type":"string","indexed":false,"internalType":"string"},{"name":"avatar","type":"string","indexed":false,"internalType":"string"},{"name":"bio","type":"string","indexed":false,"internalType":"string"}],"anonymous":false},{"type":"error","name":"AccessControlBadConfirmation","inputs":[]},{"type":"error","name":"AccessControlUnauthorizedAccount","inputs":[{"name":"account","type":"address","internalType":"address"},{"name":"neededRole","type":"bytes32","internalType":"bytes32"}]},{"type":"error","name":"AddressEmptyCode","inputs":[{"name":"target","type":"address","internalType":"address"}]},{"type":"error","name":"ArticleNotFound","inputs":[]},{"type":"error","name":"CannotLikeOwnComment","inputs":[]},{"type":"error","name":"CannotSelfCollect","inputs":[]},{"type":"error","name":"CannotSelfEvaluate","inputs":[]},{"type":"error","name":"CannotSelfFollow","inputs":[]},{"type":"error","name":"CollectNotEnabled","inputs":[]},{"type":"error","name":"ContentRequiredForScore","inputs":[]},{"type":"error","name":"ERC1155InsufficientBalance","inputs":[{"name":"sender","type":"address","internalType":"address"},{"name":"balance","type":"uint256","internalType":"uint256"},{"name":"needed","type":"uint256","internalType":"uint256"},{"name":"tokenId","type":"uint256","internalType":"uint256"}]},{"type":"error","name":"ERC1155InvalidApprover","inputs":[{"name":"approver","type":"address","internalType":"address"}]},{"type":"error","name":"ERC1155InvalidArrayLength","inputs":[{"name":"idsLength","type":"uint256","internalType":"uint256"},{"name":"valuesLength","type":"uint256","internalType":"uint256"}]},{"type":"error","name":"ERC1155InvalidOperator","inputs":[{"name":"operator","type":"address","internalType":"address"}]},{"type":"error","name":"ERC1155InvalidReceiver","inputs":[{"name":"receiver","type":"address","internalType":"address"}]},{"type":"error","name":"ERC1155InvalidSender","inputs":[{"name":"sender","type":"address","internalType":"address"}]},{"type":"error","name":"ERC1155MissingApprovalForAll","inputs":[{"name":"operator","type":"address","internalType":"address"},{"name":"owner","type":"address","internalType":"address"}]},{"type":"error","name":"ERC1967InvalidImplementation","inputs":[{"name":"implementation","type":"address","internalType":"address"}]},{"type":"error","name":"ERC1967NonPayable","inputs":[]},{"type":"error","name":"ERC2981InvalidDefaultRoyalty","inputs":[{"name":"numerator","type":"uint256","internalType":"uint256"},{"name":"denominator","type":"uint256","internalType":"uint256"}]},{"type":"error","name":"ERC2981InvalidDefaultRoyaltyReceiver","inputs":[{"name":"receiver","type":"address","internalType":"address"}]},{"type":"error","name":"ERC2981InvalidTokenRoyalty","inputs":[{"name":"tokenId","type":"uint256","internalType":"uint256"},{"name":"numerator","type":"uint256","internalType":"uint256"},{"name":"denominator","type":"uint256","internalType":"uint256"}]},{"type":"error","name":"ERC2981InvalidTokenRoyaltyReceiver","inputs":[{"name":"tokenId","type":"uint256","internalType":"uint256"},{"name":"receiver","type":"address","internalType":"address"}]},{"type":"error","name":"EnforcedPause","inputs":[]},{"type":"error","name":"ExpectedPause","inputs":[]},{"type":"error","name":"FailedCall","inputs":[]},{"type":"error","name":"FeeTooHigh","inputs":[]},{"type":"error","name":"InsufficientPayment","inputs":[]},{"type":"error","name":"InvalidAddress","inputs":[]},{"type":"error","name":"InvalidCommenter","inputs":[]},{"type":"error","name":"InvalidInitialization","inputs":[]},{"type":"error","name":"InvalidLength","inputs":[]},{"type":"error","name":"InvalidScore","inputs":[]},{"type":"error","name":"MaxSupplyReached","inputs":[]},{"type":"error","name":"NotArticleAuthor","inputs":[]},{"type":"error","name":"NotInitializing","inputs":[]},{"type":"error","name":"OriginalAuthorTooLong","inputs":[]},{"type":"error","name":"ReentrancyGuardReentrantCall","inputs":[]},{"type":"error","name":"RoyaltyTooHigh","inputs":[]},{"type":"error","name":"SessionKeyManagerNotSet","inputs":[]},{"type":"error","name":"SessionKeyValidationFailed","inputs":[]},{"type":"error","name":"SpamProtection","inputs":[]},{"type":"error","name":"SummaryTooLong","inputs":[]},{"type":"error","name":"TitleTooLong","inputs":[]},{"type":"error","name":"TransferFailed","inputs":[]},{"type":"error","name":"UUPSUnauthorizedCallContext","inputs":[]},{"type":"error","name":"UUPSUnsupportedProxiableUUID","inputs":[{"name":"slot","type":"bytes32","internalType":"bytes32"}]}],"bytecode":{"object":"0x60a080604052346100e65760017f9b779b17422d0df92223018b32b4d1fa46e071723d6817e2486d003becc55f0055306080525f516020614ebe5f395f51905f525460ff8160401c166100d7576002600160401b03196001600160401b03821601610084575b604051614dd390816100eb823960805181818161107d01526111f10152f35b6001600160401b0319166001600160401b039081175f516020614ebe5f395f51905f525581527fc7f505b2f371ae2175ee4913f4499e1f2633a7b5936321eed1cdaeb6115181d290602090a15f80610065565b63f92ee8a960e01b5f5260045ffd5b5f80fdfe60806040526004361015610011575f80fd5b5f3560e01c8062fdd58e146103f457806301ffc9a7146103ef5780630b826190146103ea5780630e89341c146103e55780631105a5eb146103e057806319e94a6e146102f05780631fe9d578146103c257806321a25d60146103db57806322dcd13e146103d6578063248a9ca3146103d15780632a55205a146103cc5780632eb2c2d6146103c75780632ef9a160146103c25780632f2ff15d146103bd57806336568abe146103b85780633f4ba83a146103b3578063461e2378146103ae578063473106b21461032c578063485cc955146103a95780634b65f344146103a45780634e1273f41461039f5780634f1ef2861461039a57806352cbd3be1461039557806352d1902d14610390578063544b5e611461038b57806356f5f3bb146103865780635780400b146103815780635856e4fa1461037c5780635c975abb1461037757806363c3cc161461037257806363c4ea4d1461036d578063795146ef1461036857806379c61f28146103635780637cd86d601461035e578063837fa3fd146103595780638456cb591461035457806385c3ab541461034f5780638cbd215e1461034a5780638d3c100a146103455780638f8b1c901461034057806391d148541461033b57806394231a7814610336578063989cfb5714610331578063a217fddf1461032c578063a22cb46514610327578063a251918914610322578063ac9650d81461031d578063ad3cb1cc14610318578063b055d7aa14610313578063c477d7f71461030e578063d547741f14610309578063dffd40f214610304578063e138818c146102ff578063e1d90b34146102fa578063e63ab1e9146102f5578063e8f100bf146102f0578063e985e9c5146102eb578063edcfafe6146102e6578063f242432a146102e1578063f72c0d8b146102dc578063f99e5dbb146102d7578063fde84719146102d25763ff1f090a146102cd575f80fd5b612444565b612429565b6123a4565b61234e565b612252565b6121c9565b61206a565b61080f565b612030565b612015565b611ff5565b611faf565b611f62565b611f46565b611ed8565b611e7f565b611dff565b611d82565b611cf0565b610d4e565b611c64565b611b85565b611b27565b6119b2565b611969565b61194c565b611930565b6118bf565b611853565b6117c2565b611686565b611589565b6114f7565b61149f565b61144c565b611430565b6112e8565b611252565b611236565b6111df565b611193565b61103b565b610f7a565b610f1d565b610d8d565b610d0d565b610c81565b610c39565b610be7565b61082a565b610b53565b610940565b610909565b6108e3565b610854565b610707565b610596565b610536565b610493565b610428565b6001600160a01b0381160361040a57565b5f80fd5b60a4359061041b826103f9565b565b359061041b826103f9565b3461040a57604036600319011261040a57602061047860043561044a816103f9565b6024355f525f516020614cde5f395f51905f52835260405f209060018060a01b03165f5260205260405f2090565b54604051908152f35b6001600160e01b031981160361040a57565b3461040a57602036600319011261040a576004356104b081610481565b63ffffffff60e01b16637965db0b60e01b81149081156104d9575b506040519015158152602090f35b63152a902d60e11b8114915081156104f3575b505f6104cb565b636cdb3d1360e11b811491508115610525575b8115610514575b505f6104ec565b6301ffc9a760e01b1490505f61050d565b6303a24d0760e21b81149150610506565b3461040a575f36600319011261040a576004546040516001600160a01b039091168152602090f35b805180835260209291819084018484015e5f828201840152601f01601f1916010190565b90602061059392818152019061055e565b90565b3461040a57602036600319011261040a576105b2600435612ce0565b801580156106cf575b6106c0575f526002602052600260405f20016040517f68747470733a2f2f676174657761792e697279732e78797a2f6d757461626c656020820152602f60f81b60408201525f9180549061060e82612089565b9160018116908115610699575060011461065d575b680bda5b99195e0b9b5960ba1b84526106598361064d81600988015b03601f198101835282610a42565b60405191829182610582565b0390f35b9092505f5260205f205f905b8382106106825750509081016041019061064d81610623565b600181602092546041858701015201910190610669565b60ff19166041808601919091528315159093028401909201935061064d9150829050610623565b63522e582d60e11b5f5260045ffd5b505f548110156105bb565b9181601f8401121561040a578235916001600160401b03831161040a576020838186019501011161040a57565b3461040a57606036600319011261040a576004356001600160401b03811161040a576107379036906004016106da565b906024356001600160401b03811161040a576107579036906004016106da565b9190926044356001600160401b03811161040a576107799036906004016106da565b610784959195612e17565b604083116108005760808511610800576101008111610800576107eb6107fb927f198eb8de772c5a42c31d10ea779636d74f5a7cd2633012f88632697fae910db4966107dd604051978897606089526060890191612518565b918683036020880152612518565b9083820360408501523396612518565b0390a2005b63251f56a160e21b5f5260045ffd5b3461040a575f36600319011261040a57602060405160408152f35b3461040a575f36600319011261040a57602060405160808152f35b908161014091031261040a5790565b3461040a57602036600319011261040a576004356001600160401b03811161040a576108db6108896020923690600401610845565b610891612e17565b6108d560408201356108a281612388565b6108af6060840184612542565b6108bf6080869493940186612542565b916108cd60a0880188612542565b959094612e3e565b336131c1565b604051908152f35b3461040a575f36600319011261040a5760206001600160601b0360015416604051908152f35b3461040a57602036600319011261040a5760206108db6004355f525f516020614cfe5f395f51905f52602052600160405f20015490565b3461040a57604036600319011261040a576004355f9081527fdaedc9ab023613a7caf35e703657e986ccfad7e3eb0af93a2853f8d65dd86b0160205260409020546001600160a01b038116906024359060a01c82156109d6575b6109b9916001600160601b036109b1921690612588565b612710900490565b604080516001600160a01b03939093168352602083019190915290f35b507fdaedc9ab023613a7caf35e703657e986ccfad7e3eb0af93a2853f8d65dd86b00546001600160a01b038116925060a01c61099a565b634e487b7160e01b5f52604160045260245ffd5b61010081019081106001600160401b03821117610a3d57604052565b610a0d565b90601f801991011681019081106001600160401b03821117610a3d57604052565b6040519061041b61010083610a42565b6001600160401b038111610a3d5760051b60200190565b9080601f8301121561040a578135610aa181610a73565b92610aaf6040519485610a42565b81845260208085019260051b82010192831161040a57602001905b828210610ad75750505090565b8135815260209182019101610aca565b6001600160401b038111610a3d57601f01601f191660200190565b929192610b0e82610ae7565b91610b1c6040519384610a42565b82948184528183011161040a578281602093845f960137010152565b9080601f8301121561040a5781602061059393359101610b02565b3461040a5760a036600319011261040a57600435610b70816103f9565b60243590610b7d826103f9565b6044356001600160401b03811161040a57610b9c903690600401610a8a565b6064356001600160401b03811161040a57610bbb903690600401610a8a565b90608435936001600160401b03851161040a57610bdf610be5953690600401610b38565b936125a0565b005b3461040a57604036600319011261040a57610be5602435600435610c0a826103f9565b610c34610c2f825f525f516020614cfe5f395f51905f52602052600160405f20015490565b6134e5565b613749565b3461040a57604036600319011261040a57600435602435610c59816103f9565b336001600160a01b03821603610c7257610be5916137de565b63334bd91960e11b5f5260045ffd5b3461040a575f36600319011261040a57610c996133b8565b5f516020614d1e5f395f51905f525460ff811615610cf05760ff19165f516020614d1e5f395f51905f52557f5db9ee0a495bf2e6ff9c91a7834c1ba4fdd244a5e8aa4e537bd38aeae4b073aa6020604051338152a1005b638dfc202b60e01b5f5260045ffd5b908160a091031261040a5790565b3461040a57602036600319011261040a576004356001600160401b03811161040a57610d40610be5913690600401610cff565b610d48612e17565b336138c7565b3461040a575f36600319011261040a5760206040515f8152f35b604090600319011261040a57600435610d80816103f9565b90602435610593816103f9565b3461040a57610d9b36610d68565b5f516020614d5e5f395f51905f525491906001600160401b03610dcd60ff604086901c1615946001600160401b031690565b1680159081610ee7575b6001149081610edd575b159081610ed4575b50610ec557610e2c9183610e2360016001600160401b03195f516020614d5e5f395f51905f525416175f516020614d5e5f395f51905f5255565b610e8b576125f1565b610e3257005b610e5c60ff60401b195f516020614d5e5f395f51905f5254165f516020614d5e5f395f51905f5255565b604051600181527fc7f505b2f371ae2175ee4913f4499e1f2633a7b5936321eed1cdaeb6115181d290602090a1005b610ec06801000000000000000060ff60401b195f516020614d5e5f395f51905f525416175f516020614d5e5f395f51905f5255565b6125f1565b63f92ee8a960e01b5f5260045ffd5b9050155f610de9565b303b159150610de1565b849150610dd7565b602060031982011261040a57600435906001600160401b03821161040a57610f19916004016106da565b9091565b3461040a576020610478610f3036610eef565b906127d0565b90602080835192838152019201905f5b818110610f535750505090565b8251845260209384019390920191600101610f46565b906020610593928181520190610f36565b3461040a57604036600319011261040a576004356001600160401b03811161040a573660238201121561040a57806004013590610fb682610a73565b91610fc46040519384610a42565b8083526024602084019160051b8301019136831161040a57602401905b82821061102157836024356001600160401b03811161040a576106599161100f611015923690600401610a8a565b90612816565b60405191829182610f69565b602080918335611030816103f9565b815201910190610fe1565b604036600319011261040a57600435611053816103f9565b6024356001600160401b03811161040a57611072903690600401610b38565b906001600160a01b037f000000000000000000000000000000000000000000000000000000000000000016308114908115611171575b50611162576110b5613427565b6040516352d1902d60e01b8152916020836004816001600160a01b0386165afa5f9381611131575b506110fe57634c9c8ce360e01b5f526001600160a01b03821660045260245ffd5b905f516020614c9e5f395f51905f52830361111d57610be59250614788565b632a87526960e21b5f52600483905260245ffd5b61115491945060203d60201161115b575b61114c8183610a42565b810190613a58565b925f6110dd565b503d611142565b63703e46dd60e11b5f5260045ffd5b5f516020614c9e5f395f51905f52546001600160a01b0316141590505f6110a8565b3461040a57602036600319011261040a577ffcae2461302da2a86e3604d10afc558dc160d49eb88bc010c4bca093793857ff60206004356111d2613496565b80600555604051908152a1005b3461040a575f36600319011261040a577f00000000000000000000000000000000000000000000000000000000000000006001600160a01b031630036111625760206040515f516020614c9e5f395f51905f528152f35b3461040a575f36600319011261040a5760206040516102008152f35b3461040a5760a036600319011261040a5760043561126f816103f9565b6024359061127c826103f9565b6044356001600160401b03811161040a5761129b903690600401610845565b91608435916064356001600160401b03841161040a57610659946112c66112ce9536906004016106da565b9490936128ab565b6040519081529081906020820190565b8015150361040a57565b3461040a5760c036600319011261040a57600435611305816103f9565b60243590611312826103f9565b60443561131e816103f9565b6064359061132b826112de565b6084359060a4356001600160401b03811161040a5761134e9036906004016106da565b929091611359612e17565b6001600160a01b0386811696911694908686146114215786947f75a1fc5e2239f53dc8407b3712c878c5893431bc3c349ea3561584869670f7f2946113eb946113d9938b6113a5613a72565b91604051926331e1e60b60e11b60208501528c60248501528815156044850152604484526113d4606485610a42565b613aab565b60405190151581529081906020820190565b0390a36040516331e1e60b60e11b81526001600160a01b03909216915f516020614cbe5f395f51905f529080602081015b0390a3005b632d73354d60e11b5f5260045ffd5b3461040a575f36600319011261040a5760206040516104008152f35b3461040a575f36600319011261040a57602060ff5f516020614d1e5f395f51905f5254166040519015158152f35b604090600319011261040a57600435611492816103f9565b90602435610593816112de565b3461040a576114ad3661147a565b906114b6612e17565b6001600160a01b0316903382146114215760405190151581527f75a1fc5e2239f53dc8407b3712c878c5893431bc3c349ea3561584869670f7f260203392a3005b61012036600319011261040a57600435611510816103f9565b60243561151c816103f9565b6044359160643560ff8116810361040a576084356001600160401b03811161040a5761154c9036906004016106da565b61155461040e565b9060c4359260e4359461010435986001600160401b038a1161040a57611581610be59a36906004016106da565b999098612b16565b60c036600319011261040a576004356115a1816103f9565b6024356115ad816103f9565b6064356044356115bc826103f9565b6084359160a4356001600160401b03811161040a57611643936115e661163b9236906004016106da565b916115ef613da8565b6115f7612e17565b6115ff613a72565b60405163469e080560e11b6020820152602481018890526001600160a01b0387166044820152611632816064810161063f565b898b3493613b90565b349185613fe7565b60405163469e080560e11b81526001600160a01b0391821692909116905f516020614cbe5f395f51905f5290602090a360015f516020614d3e5f395f51905f5255005b61010036600319011261040a5760043561169f816103f9565b6024356116ab816103f9565b6064356044356084356116bd816103f9565b60a435906116ca826103f9565b60c4359360e4356001600160401b03811161040a576116ed9036906004016106da565b6116f8969196613da8565b611700612e17565b34156117b35761176d9661176592611716613a72565b604051636ffea07960e11b6020820152602481018a9052604481018790526001600160a01b0388811660648301528916608480830191909152815261175c60a482610a42565b8b8d3493613cdf565b34938761412e565b604051636ffea07960e11b81526001600160a01b0391821692909116905f516020614cbe5f395f51905f5290602090a3610be560015f516020614d3e5f395f51905f5255565b633f7d56c960e11b5f5260045ffd5b3461040a57602036600319011261040a576004356117df816103f9565b6117e7613496565b6001600160a01b038116908115611844577f7dae230f18360d76a040c81f050aa14eb9d6dc7901b20fc5d855e2a20fe814d19161183b6020926001600160601b036001549181199060601b16911617600155565b604051908152a1005b63e6c4247b60e01b5f5260045ffd5b3461040a57602036600319011261040a57600435611870816103f9565b611878613496565b6001600160a01b0316801561184457600480546001600160a01b031916821790557f4d57218e59793e6845c36a961c3af7acfce8c54b13a697da231466fc265fdb615f80a2005b3461040a575f36600319011261040a576118d76133b8565b6118df612e17565b600160ff195f516020614d1e5f395f51905f525416175f516020614d1e5f395f51905f52557f62e78cea01bee320cd4e420270b5ea74000d11b0c9f74754ebdbfc544b05a2586020604051338152a1005b3461040a575f36600319011261040a5760205f54604051908152f35b3461040a575f36600319011261040a576020600554604051908152f35b604036600319011261040a5761199f600435602435611987816103f9565b61198f613da8565b611997612e17565b349133613fe7565b60015f516020614d3e5f395f51905f5255005b3461040a5760a036600319011261040a576004356119cf816103f9565b6024356119db816103f9565b6044356001600160401b03811161040a576119fa903690600401610cff565b606435906084356001600160401b03811161040a57611af192611a24611aeb9236906004016106da565b91611a2d612e17565b611a35613a72565b8789604051926308c3c46f60e31b60208501526020602485015288356044850152611ae684611ac1611aa28c611a90611a85611a746020840184612aa0565b60a0606489015260e4880191612518565b916040810190612aa0565b85830360431901608487015290612518565b611aaf60608e018e612aa0565b8483036043190160a486015290612518565b61ffff60808d0135611ad281612ad1565b1660c483015203601f198101865285610a42565b613d46565b836138c7565b6040516308c3c46f60e31b81526001600160a01b0391821692909116905f516020614cbe5f395f51905f5290806020810161141c565b3461040a57604036600319011261040a57602060ff611b79602435600435611b4e826103f9565b5f525f516020614cfe5f395f51905f52845260405f209060018060a01b03165f5260205260405f2090565b54166040519015158152f35b3461040a575f36600319011261040a57604051600160fa1b8152602090f35b60031115611bae57565b634e487b7160e01b5f52602160045260245ffd5b906003821015611bae5752565b602080825282516001600160a01b0316828201528201516001600160401b031660408083019190915282015161ffff166060820152610593916101209060e090611c2160608201516080860190611bc2565b60808101516001600160601b031660a085015260a081015163ffffffff1660c085015260c081015163ffffffff168483015201519161010080820152019061055e565b3461040a576020611c7436610eef565b9190606060e0604051611c8681610a21565b5f81525f858201525f60408201525f838201525f60808201525f60a08201525f60c08201520152826040519384928337810160038152030190205480156106c057611ce4611cdf610659925f52600260205260405f2090565b612c05565b60405191829182611bcf565b3461040a57611cfe3661147a565b6001600160a01b038216918215611d7057611d3190611d1c336124ac565b9060018060a01b03165f5260205260405f2090565b9015159060ff1981541660ff83161790556040519081527f17307eab39ab6107e8899845ad3d59bd9653f200f220920489ca2b5937696c3160203392a3005b62ced3e160e81b5f525f60045260245ffd5b3461040a57602036600319011261040a5760206108db600435612ce0565b602081016020825282518091526040820191602060408360051b8301019401925f915b838310611dd257505050505090565b9091929394602080611df0600193603f19868203018752895161055e565b97019301930191939290611dc3565b3461040a57602036600319011261040a576004356001600160401b03811161040a573660238201121561040a578060040135906001600160401b03821161040a573660248360051b8301011161040a57610659916024611e5f9201612d47565b60405191829182611da0565b60405190611e7a602083610a42565b5f8252565b3461040a575f36600319011261040a57610659604051611ea0604082610a42565b60058152640352e302e360dc1b602082015260405191829160208352602083019061055e565b805191908290602001825e015f815290565b3461040a57602036600319011261040a576004356001600160401b03811161040a573660238201121561040a57611f2d6020611f21610659933690602481600401359101610b02565b60405192838092611ec6565b6003815203019020546040519081529081906020820190565b3461040a575f36600319011261040a5760206040516101008152f35b3461040a57604036600319011261040a57610be5602435600435611f85826103f9565b611faa610c2f825f525f516020614cfe5f395f51905f52602052600160405f20015490565b6137de565b608036600319011261040a5761199f600435602435604435611fd0816103f9565b60643591611fdd836103f9565b611fe5613da8565b611fed612e17565b34933361412e565b3461040a575f36600319011261040a57602060015460601c604051908152f35b3461040a575f36600319011261040a57602060405160018152f35b3461040a575f36600319011261040a5760206040517f65d7a28e3265b37a6474929f336521b332c1681b933f6cb9f3376673440d862a8152f35b3461040a57602060ff611b79611d1c61208236610d68565b91906124ac565b90600182811c921680156120b7575b60208310146120a357565b634e487b7160e01b5f52602260045260245ffd5b91607f1691612098565b9060405191825f8254926120d484612089565b808452936001811690811561213d57506001146120f9575b5061041b92500383610a42565b90505f9291925260205f20905f915b81831061212157505090602061041b928201015f6120ec565b6020919350806001915483858901015201910190918492612108565b90506020925061041b94915060ff191682840152151560051b8201015f6120ec565b946001600160601b03906121aa63ffffffff9661ffff6105939c9b976001600160401b038a986101009d9860018060a01b03168d521660208c01521660408a01526060890190611bc2565b1660808601521660a08401521660c08201528160e0820152019061055e565b3461040a57602036600319011261040a576004355f52600260205260405f208054906106596121ff6002600184015493016120c1565b604051938363ffffffff869560801c16916001600160601b0363ffffffff8360601c1692169060ff8160f01c169061ffff8160e01c16906001600160401b038160a01c169060018060a01b03168961215f565b3461040a5760a036600319011261040a5760043561226f816103f9565b60243561227b816103f9565b60443590606435926084356001600160401b03811161040a576122a2903690600401610b38565b926001600160a01b038216338114158061233d575b612327576001600160a01b03841615612314571561230257610be5946122fa60405192600184526020840152604083019160018352606084015260808301604052565b929091614560565b626a0d4560e21b5f525f60045260245ffd5b632bfa23e760e11b5f525f60045260245ffd5b63711bec9160e11b5f523360045260245260445ffd5b506123483384612e03565b156122b7565b3461040a575f36600319011261040a5760206040517f189ab7a9244df0848122154315af71fe140f3db0fe014031783b0946b8c9d2e38152f35b6001600160601b0381160361040a57565b359061041b82612388565b3461040a57602036600319011261040a576001600160601b036004356123c981612388565b6123d1613496565b16610bb8811161241a576020817f7cb8fa1ce2fc1ff6556e563c0dcba551db7cdeb3f3b0911243692639ac80e94d926001600160601b03196001541617600155604051908152a1005b63cd4e616760e01b5f5260045ffd5b3461040a575f36600319011261040a57602060405160028152f35b60a036600319011261040a5760243560043560ff8216820361040a57604435916001600160401b03831161040a5761248361199f9336906004016106da565b60643591612490836103f9565b6084359361249c613da8565b6124a4612e17565b349533613e06565b6001600160a01b03165f9081527f88be536d5240c274a3b1d3a1be54482fd9caa294f08c62a7cde569f49a3c45016020526040902090565b612514915f525f516020614cde5f395f51905f5260205260405f209060018060a01b03165f5260205260405f2090565b5490565b908060209392818452848401375f828201840152601f01601f1916010190565b3561059381612388565b903590601e198136030182121561040a57018035906001600160401b03821161040a5760200191813603831361040a57565b634e487b7160e01b5f52601160045260245ffd5b8181029291811591840414171561259b57565b612574565b939291906001600160a01b03851633811415806125d9575b612327576001600160a01b0382161561231457156123025761041b94614560565b5060ff6125e933611d1c896124ac565b5416156125b8565b604051929160206126028186610a42565b5f855261260d61475d565b61261561475d565b8451906001600160401b038211610a3d57612646826126415f516020614d7e5f395f51905f5254612089565b612ec9565b602090601f83116001146127295750816126e8939261267f9261270697985f9261271e575b50508160011b915f199060031b1c19161790565b5f516020614d7e5f395f51905f52555b61269761475d565b61269f61475d565b6126a761475d565b6126af61475d565b6126b88361352b565b506126c2836135c7565b506126cc83613688565b506001600160601b036001549181199060601b16911617600155565b6127016103e86001600160601b03196001541617600155565b6139e5565b61270f60015f55565b61041b6512309ce54000600555565b015190505f8061266b565b5f516020614d7e5f395f51905f525f52601f198316969091907ff429cb5e2ec84cbb765e76b31964a56ccde03e7a6122d6cc4afb19edc55edeed925f905b8982106127b85750509183916001936126e89695612706999a106127a0575b505050811b015f516020614d7e5f395f51905f525561268f565b01515f1960f88460031b161c191690555f8080612786565b80600185968294968601518155019501930190612767565b6020908260405193849283378101600381520301902090565b634e487b7160e01b5f52603260045260245ffd5b80518210156128115760209160051b010190565b6127e9565b9190918051835180820361289657505080519061283282610a73565b916128406040519384610a42565b80835261284f601f1991610a73565b013660208401375f5b815181101561288f578061287e60019260051b60208082870101519189010151906124e4565b61288882866127fd565b5201612858565b5090925050565b635b05999160e01b5f5260045260245260445ffd5b939490949291926128ba612e17565b6128c2613a72565b926040850187878235926128d584612388565b8860608101946128e58683612542565b9060808401926128f58486612542565b9060a08701968761290591612542565b94612911969194612e3e565b8a60405196879463010d12eb60e51b602087015260248601602090526129378380612aa0565b60448801610140905261018488019061294f92612518565b9260200161295c90612add565b61ffff16606487015261296e90612399565b6001600160601b03166084860152612986908d612aa0565b8583036043190160a487015261299c9291612518565b906129a7908c612aa0565b8483036043190160c48601526129bd9291612518565b906129c8908b612aa0565b8383036043190160e48501526129de9291612518565b6129ea60c08b0161041d565b6001600160a01b0316610104830152612a0560e08b01612399565b6001600160601b0316610124830152612a216101008b01612af6565b63ffffffff16610144830152612a3a6101208b01612b0b565b6101648301612a4891611bc2565b03601f1981018452612a5a9084610a42565b612a6396613c13565b612a6d90826131c1565b60405163010d12eb60e51b815290926001600160a01b039081169216905f516020614cbe5f395f51905f5290602090a390565b9035601e198236030181121561040a5701602081359101916001600160401b03821161040a57813603831361040a57565b61ffff81160361040a57565b359061041b82612ad1565b63ffffffff81160361040a57565b359061041b82612ae8565b6003111561040a57565b359061041b82612b01565b998199612bb0998786612ba8958f612ba1899e9d9c9b9a998d8f612b7e8e612b3c613da8565b612b44612e17565b612b4c613a72565b9960ff6040519a8b97637f8f848560e11b60208a0152602489015216604487015260a0606487015260c4860191612518565b6001600160a01b03909216608484015260a483015203601f198101855284610a42565b3493613c75565b349589613e06565b604051600162707b7b60e11b031981526001600160a01b0391821692909116905f516020614cbe5f395f51905f5290602090a361041b60015f516020614d3e5f395f51905f5255565b6003821015611bae5752565b90604051612c1281610a21565b60e0612cce60028395612c71612c68825460018060a01b03811688526001600160401b03808260a01c16166020890152612c5f612c548261ffff9060e01c1690565b61ffff1660408a0152565b60f01c60ff1690565b60608701612bf9565b612cc8612cbb6001830154612c9f612c8f826001600160601b031690565b6001600160601b031660808a0152565b63ffffffff606082901c1660a089015260801c63ffffffff1690565b63ffffffff1660c0870152565b016120c1565b910152565b9190820391821161259b57565b600160fa1b811015612cef5790565b603f60fa1b810190811161259b5790565b9082101561281157610f199160051b810190612542565b612d3961041b92949360208660405197889583870137840101905f8252611ec6565b03601f198101845283610a42565b612d505f610ae7565b612d5d6040519182610a42565b5f8152601f19612d6c5f610ae7565b01366020830137612d7c83610a73565b92612d8a6040519485610a42565b808452601f19612d9982610a73565b015f5b818110612df25750505f5b818110612db5575050505090565b80612dd6612dd085612dca600195878a612d00565b90612d17565b3061422f565b612de082886127fd565b52612deb81876127fd565b5001612da7565b806060602080938901015201612d9c565b60ff91611d1c612e12926124ac565b541690565b60ff5f516020614d1e5f395f51905f525416612e2f57565b63d93c066560e01b5f5260045ffd5b6001600160601b0361271091979695949392971611612e605761041b956142a2565b63c2b03beb60e01b5f5260045ffd5b35610593816103f9565b5f19811461259b5760010190565b3561059381612ad1565b3561059381612ae8565b3561059381612b01565b906003811015611bae57815460ff60f01b191660f09190911b60ff60f01b16179055565b601f8111612ed5575050565b5f516020614d7e5f395f51905f525f5260205f20906020601f840160051c83019310612f1b575b601f0160051c01905b818110612f10575050565b5f8155600101612f05565b9091508190612efc565b601f8211612f3257505050565b5f5260205f20906020601f840160051c83019310612f6a575b601f0160051c01905b818110612f5f575050565b5f8155600101612f54565b9091508190612f4b565b91909182516001600160401b038111610a3d57612f9b81612f958454612089565b84612f25565b6020601f8211600114612fce578190612fca9394955f9261271e5750508160011b915f199060031b1c19161790565b9055565b601f19821690612fe1845f5260205f2090565b915f5b81811061301b57509583600195969710613003575b505050811b019055565b01515f1960f88460031b161c191690555f8080612ff9565b9192602060018192868b015181550194019201612fe4565b815181546020840151604085015161ffff60e01b60e091821b166001600160f01b03199093166001600160a01b039094169390931767ffffffffffffffff60a01b60a09290921b919091161717825561041b92600291906130a1606082015161309b81611ba4565b85612ea5565b613140600185016130e06130bf60808501516001600160601b031690565b82546bffffffffffffffffffffffff19166001600160601b03909116178255565b6131146130f460a085015163ffffffff1690565b825463ffffffff60601b191660609190911b63ffffffff60601b16178255565b60c083015163ffffffff165b815463ffffffff60801b191660809190911b63ffffffff60801b16179055565b01519101612f74565b969161041b9a9563ffffffff976131919b9e9d9b6131ad966001600160601b039861318360c09e9761319f978f60e0908181520191612518565b8d810360208f015291612518565b918a830360408c0152612518565b918783036060890152612518565b981660808401521660a08201520190611bc2565b90919060c083016001600160a01b036131d982612e6f565b16156133b2576131e99150612e6f565b5f54926131f584612e79565b5f55836132028280612542565b92602081019361321185612e87565b948660e084019461322186612538565b9361010086019461323186612e91565b9061012088019a6132418c612e9b565b9061324a610a63565b6001600160a01b0390971687526001600160401b034216602088015261ffff16604087015261327c9060608701612bf9565b6001600160601b0316608085015263ffffffff1660a084015260c083015f905236906132a792610b02565b60e08201526132be865f52600260205260405f2090565b906132c891613033565b846132d38480612542565b6132dc916127d0565b556132e5611e6b565b6132f09086896142ed565b6132fc60408401612538565b61330790888761448e565b61331090612e87565b9161331b8180612542565b96909261332b6060840184612542565b9390966080820161333c9083612542565b909260a0810161334b91612542565b93909261335790612538565b9461336190612e91565b9561336b90612e9b565b966040519a61ffff8c9b169e600160a01b60019003169d61338c9a8c613149565b037fad9b3f8408a38f480db7cd1d62a3b1e9e137acff8fcab5b2e5d5bcc9a74b525a91a4565b506131e9565b335f9081527f75442b0a96088b5456bc4ed01394c96a4feec0f883c9494257d76b96ab1c9b6b602052604090205460ff16156133f057565b63e2517d3f60e01b5f52336004527f65d7a28e3265b37a6474929f336521b332c1681b933f6cb9f3376673440d862a60245260445ffd5b335f9081527fab71e3f32666744d246edff3f96e4bdafee2e9867098cdd118a979a7464786a8602052604090205460ff161561345f57565b63e2517d3f60e01b5f52336004527f189ab7a9244df0848122154315af71fe140f3db0fe014031783b0946b8c9d2e360245260445ffd5b335f9081527fb7db2dd08fcb62d0c9e08c51941cae53c267786a0b75803fb7960902fc8ef97d602052604090205460ff16156134ce57565b63e2517d3f60e01b5f52336004525f60245260445ffd5b5f8181525f516020614cfe5f395f51905f526020908152604080832033845290915290205460ff16156135155750565b63e2517d3f60e01b5f523360045260245260445ffd5b6001600160a01b0381165f9081527fb7db2dd08fcb62d0c9e08c51941cae53c267786a0b75803fb7960902fc8ef97d602052604090205460ff166135c2576001600160a01b03165f8181527fb7db2dd08fcb62d0c9e08c51941cae53c267786a0b75803fb7960902fc8ef97d60205260408120805460ff191660011790553391905f516020614c7e5f395f51905f528180a4600190565b505f90565b6001600160a01b0381165f9081527fab71e3f32666744d246edff3f96e4bdafee2e9867098cdd118a979a7464786a8602052604090205460ff166135c2576001600160a01b0381165f9081527fab71e3f32666744d246edff3f96e4bdafee2e9867098cdd118a979a7464786a860205260409020805460ff1916600117905533906001600160a01b03167f189ab7a9244df0848122154315af71fe140f3db0fe014031783b0946b8c9d2e35f516020614c7e5f395f51905f525f80a4600190565b6001600160a01b0381165f9081527f75442b0a96088b5456bc4ed01394c96a4feec0f883c9494257d76b96ab1c9b6b602052604090205460ff166135c2576001600160a01b0381165f9081527f75442b0a96088b5456bc4ed01394c96a4feec0f883c9494257d76b96ab1c9b6b60205260409020805460ff1916600117905533906001600160a01b03167f65d7a28e3265b37a6474929f336521b332c1681b933f6cb9f3376673440d862a5f516020614c7e5f395f51905f525f80a4600190565b5f8181525f516020614cfe5f395f51905f52602090815260408083206001600160a01b038616845290915290205460ff166137d8575f8181525f516020614cfe5f395f51905f52602090815260408083206001600160a01b03861684529091529020805460ff1916600117905533916001600160a01b0316905f516020614c7e5f395f51905f525f80a4600190565b50505f90565b5f8181525f516020614cfe5f395f51905f52602090815260408083206001600160a01b038616845290915290205460ff16156137d8575f8181525f516020614cfe5f395f51905f52602090815260408083206001600160a01b03861684529091529020805460ff1916905533916001600160a01b0316907ff6391f5c32d9c69d2a47ea670b442974b53935d1edc7fd64eb21e047a839171b5f80a4600190565b95906138c09361ffff956138a46138b293606099969c9b9c60808c5260808c0191612518565b9189830360208b0152612518565b918683036040880152612518565b9416910152565b90803591821580156139da575b6106c0576138ea835f52600260205260405f2090565b805490916001600160a01b039081169116036139cb576139a06139c6836139b96139a99460207f931e1567c74eca75f0fed96fbc1766b61e7da5e645e35ca6d0a564a728c29b0a97016139b16139408286612542565b97909261396d60408801996139558b8a612542565b60608b019791613965898d612542565b9490936142a2565b61399a608088019561397e87612e87565b815461ffff60e01b191660e09190911b61ffff60e01b16179055565b86612542565b98909786612542565b929095612542565b939092612e87565b936040519788978861387e565b0390a2565b635e7e205b60e11b5f5260045ffd5b505f548310156138d4565b6001600160a01b03168015613a455760405190613a03604083610a42565b8082526101f46020909201919091526001600160a01b0316607d60a21b177fdaedc9ab023613a7caf35e703657e986ccfad7e3eb0af93a2853f8d65dd86b0055565b635b6cc80560e11b5f525f60045260245ffd5b9081602091031261040a575190565b6040513d5f823e3d90fd5b6004546001600160a01b0316908115613a8757565b63022fcd8560e61b5f5260045ffd5b9081602091031261040a5751610593816112de565b60405163027f58e560e61b81526001600160a01b0392831660048201529190921660248201523060448201526331e1e60b60e11b60648201526101006084820152946020948694929385935f938593613b2a93613b0d9061010487019061055e565b928660a487015260c48601526003198584030160e4860152612518565b03926001600160a01b03165af1908115613b8b575f91613b5c575b5015613b4d57565b6309fb5d8760e21b5f5260045ffd5b613b7e915060203d602011613b84575b613b768183610a42565b810190613a96565b5f613b45565b503d613b6c565b613a67565b60405163027f58e560e61b81526001600160a01b03928316600482015291909216602482015230604482015263469e080560e11b60648201526101006084820152956020958795929486945f948694613b2a949092909190613bf79061010488019061055e565b9360a487015260c48601526003198584030160e4860152612518565b60405163027f58e560e61b81526001600160a01b03928316600482015291909216602482015230604482015263010d12eb60e51b60648201526101006084820152946020948694929385935f938593613b2a93613b0d9061010487019061055e565b60405163027f58e560e61b81526001600160a01b039283166004820152919092166024820152306044820152600162707b7b60e11b031960648201526101006084820152956020958795929486945f948694613b2a949092909190613bf79061010488019061055e565b60405163027f58e560e61b81526001600160a01b039283166004820152919092166024820152306044820152636ffea07960e11b60648201526101006084820152956020958795929486945f948694613b2a949092909190613bf79061010488019061055e565b60405163027f58e560e61b81526001600160a01b0392831660048201529190921660248201523060448201526308c3c46f60e31b60648201526101006084820152946020948694929385935f938593613b2a93613b0d9061010487019061055e565b60025f516020614d3e5f395f51905f525414613dd15760025f516020614d3e5f395f51905f5255565b633ee5aeb560e01b5f5260045ffd5b929493613dfa60ff92604094606087526060870191612518565b95602085015216910152565b909591945f548710156106c05760ff86169060028211613fba5761040086116108005785158080613fb2575b80613faa575b613f9b5715928380613f90575b6117b357613e6b613e5e8a5f52600260205260405f2090565b546001600160a01b031690565b6001600160a01b038281169b9194919085168c14613f81578b948b9482613ee1575b50505050505050613ea1575b505050505050565b7f19a5aae49af5681d63d1a8c6ea9dc7b88af86e08d71ade984e2087fada0d4c4a93613ed39160405194859485613de0565b0390a35f8080808080613e99565b7fc199635a11ffccf62419a83e03370cef9ba2a2c0a33d65c2fe60542bd560a0a994613f4194600203613f5057505050613f2681613f2160015460601c90565b6149d9565b6040805160ff8c168152602081019290925290918291820190565b0390a386865f80808080613e8d565b82613f5e91613f649361482a565b836148f2565b80613f71575b5050613f26565b613f7a916149d9565b5f80613f6a565b6301a2d51760e21b5f5260045ffd5b506005548a10613e45565b630eb90eff60e01b5f5260045ffd5b508915613e38565b508215613e32565b631556136560e01b5f5260045ffd5b600160fa1b81019190821061259b57565b9190820180921161259b57565b90915f548310156106c057614004835f52600260205260405f2090565b80546001600160a01b03848116969291169086821461411f576001019384546140406140378263ffffffff9060601c1690565b63ffffffff1690565b9081156141105763ffffffff608082901c1691821015614101576001600160601b031684106140f257826140c8926140a77ff6447f421186fdb05672b6b81ee863f6266ccf87f727fc67ed367774af86006598613120613f5e95600163ffffffff91011690565b6140b089613fc9565b966140c36140bc611e6b565b89846142ed565b61482a565b806140e2575b5050604080519182526020820192909252a3565b6140eb916149d9565b5f806140ce565b63cd1c886760e01b5f5260045ffd5b63d05cb60960e01b5f5260045ffd5b635874ec2360e01b5f5260045ffd5b631eac740760e01b5f5260045ffd5b91939490925f548410156106c0576001600160a01b0381169586156142205782156117b3576001600160a01b038416968714614211577f37d3451d72bbbc5dc39c5c55aacb3b768d87ef17ab36990c4c60e96e6a0cf145936141b46141ae846141cd946141a6613e5e8b5f52600260205260405f2090565b948591614889565b856148f2565b6141be8160011c90565b918280614201575b5050612cd3565b806141f1575b50604080516001600160a01b039290921682526020820192909252a4565b6141fb90826149d9565b5f6141d3565b61420a916149d9565b5f826141c6565b6315a3ed3160e01b5f5260045ffd5b633e510d3960e21b5f5260045ffd5b905f8091602081519101845af4808061428f575b15614252575050610593614a0b565b1561427757639996b31560e01b5f9081526001600160a01b0391909116600452602490fd5b3d15155f03613a675763d6bda27560e01b5f5260045ffd5b503d1515806142435750813b1515614243565b5090506040919250116142de576080106142cf57610200106142c057565b631f5482d760e21b5f5260045ffd5b6324a25c5760e01b5f5260045ffd5b631750ba0360e01b5f5260045ffd5b9291906001600160a01b0384161561231457600161432860405192600184526020840152604083019160018352606084015260808301604052565b9080518251908181036144795750506001600160a01b03851693841515935f5b83518110156143ad5780868960019360051b602080828a010151918a01015192614376575b50505001614348565b6143a391611d1c61439b925f525f516020614cde5f395f51905f5260205260405f2090565b918254613fda565b90555f898161436d565b509390959460018351145f1461443e576020838101518582015160408051928352928201525f9133917fc3d58168c5ae7397731d063d5bbf3d657854427343f4c083240f7aacaa2d0f629190a45b614406575b50505050565b805160010361442e579060208061442595930151910151915f33614bdf565b5f808080614400565b614439935f33614ab1565b614425565b5f6040517f4a39dc06d4c0dbc64b70af90fd698a233a518aa5d07e595d983b8c0526c8f7fb339180614471898983614a24565b0390a46143fb565b635b05999160e01b5f5260045260245260445ffd5b92916001600160601b03166127108111614544576001600160a01b0382161561452d5761041b929361450591604051936144c9604086610a42565b60018060a01b0316845260208401525f527fdaedc9ab023613a7caf35e703657e986ccfad7e3eb0af93a2853f8d65dd86b0160205260405f2090565b815160209092015160a01b6001600160a01b0319166001600160a01b03909216919091179055565b83634b4f842960e11b5f526004525f60245260445ffd5b8363dfd1fc1b60e01b5f5260045260245261271060445260645ffd5b94939290919384518251908181036144795750506001600160a01b038681169586151595918516801515939192905f5b8451811015614690578060051b90898988602080868b010151958c010151926145f5575b936001946145c6575b50505001614590565b6145eb91611d1c61439b925f525f516020614cde5f395f51905f5260205260405f2090565b90555f89816145bd565b5050909161461b8d611d1c835f525f516020614cde5f395f51905f5260205260405f2090565b54828110614659578291898f614650600197968f950391611d1c855f525f516020614cde5f395f51905f5260205260405f2090565b559094506145b4565b6040516303dee4c560e01b81526001600160a01b038f16600482015260248101919091526044810183905260648101829052608490fd5b5091989593929790965060018851145f146147235760208881015186820151604080519283529282015233917fc3d58168c5ae7397731d063d5bbf3d657854427343f4c083240f7aacaa2d0f6291a45b6146ec575b5050505050565b8451600103614712576020806147089601519201519233614bdf565b5f808080806146e5565b61471e94919233614ab1565b614708565b6040517f4a39dc06d4c0dbc64b70af90fd698a233a518aa5d07e595d983b8c0526c8f7fb339180614755898d83614a24565b0390a46146e0565b60ff5f516020614d5e5f395f51905f525460401c161561477957565b631afcd79f60e31b5f5260045ffd5b90813b15614809575f516020614c9e5f395f51905f5280546001600160a01b0319166001600160a01b0384169081179091557fbc7cd75a20ee27fd9adebab32041f755214dbc6bffa90cc0225b39da2e5c2d3b5f80a28051156147f1576147ee9161422f565b50565b5050346147fa57565b63b398979f60e01b5f5260045ffd5b50634c9c8ce360e01b5f9081526001600160a01b0391909116600452602490fd5b916001600160a01b0383168015928392908315614876575b508315614863575b5050811561485b575b506135c25790565b90505f614853565b6001600160a01b03161491505f8061484a565b6001600160a01b0316821493505f614842565b926001600160a01b038416801593909284156148df575b5083156148cc575b5082156148b9575b50506135c25790565b6001600160a01b03161490505f806148b0565b6001600160a01b0316821492505f6148a8565b6001600160a01b0316831493505f6148a0565b906001549161271061490d6001600160601b03851683612588565b04916001600160a01b0381169081156149a3576103e883028381046103e8148415171561259b576127109004945b8480614990575b50508480614953575b505050030390565b61495c916149d9565b6040518481527f6292f4f27d8047af4537a4bd86906de0e2c880c20086f7f58b81eacfeb63912690602090a25f808461494b565b61499c9160601c6149d9565b5f84614942565b5f9461493b565b3d156149d4573d906149bb82610ae7565b916149c96040519384610a42565b82523d5f602084013e565b606090565b5f918291829182916001600160a01b03165af16149f46149aa565b50156149fc57565b6312171d8360e31b5f5260045ffd5b604051903d82523d5f602084013e60203d830101604052565b9091614a3b61059393604084526040840190610f36565b916020818403910152610f36565b9081602091031261040a575161059381610481565b6001600160a01b0391821681529116602082015260a0604082018190526105939491939192614aa39291614a959190860190610f36565b908482036060860152610f36565b91608081840391015261055e565b9091949293853b614ac457505050505050565b602093614ae691604051968795869563bc197c8160e01b875260048701614a5e565b03815f6001600160a01b0387165af15f9181614b75575b50614b375750614b0b6149aa565b8051919082614b3057632bfa23e760e11b5f526001600160a01b03821660045260245ffd5b6020915001fd5b6001600160e01b0319166343e6837f60e01b01614b5a57505f8080808080613e99565b632bfa23e760e11b5f526001600160a01b031660045260245ffd5b614b9891925060203d602011614b9f575b614b908183610a42565b810190614a49565b905f614afd565b503d614b86565b6001600160a01b039182168152911660208201526040810191909152606081019190915260a0608082018190526105939291019061055e565b9091949293853b614bf257505050505050565b602093614c1491604051968795869563f23a6e6160e01b875260048701614ba6565b03815f6001600160a01b0387165af15f9181614c5c575b50614c395750614b0b6149aa565b6001600160e01b031916630dc5919f60e01b01614b5a57505f8080808080613e99565b614c7691925060203d602011614b9f57614b908183610a42565b905f614c2b56fe2f8788117e7eff1d82e926ec794901d17c78024a50270940304540a733656f0d360894a13ba1a3210667c828492db98dca3e2076cc3735a920a3ca505d382bbce915025b6f599b245c9c1c02d463228c896354d64dceb469760c99544153be6d88be536d5240c274a3b1d3a1be54482fd9caa294f08c62a7cde569f49a3c450002dd7bc7dec4dceedda775e58dd541e08a116c6c53815c0bd028192f7b626800cd5ed15c6e187e77e9aee88184c21f4f2182ab5827cb3b7e07fbedcd63f033009b779b17422d0df92223018b32b4d1fa46e071723d6817e2486d003becc55f00f0c57e16840df040f15088dc2f81fe391c3923bec73e23a9662efc9c229c6a0088be536d5240c274a3b1d3a1be54482fd9caa294f08c62a7cde569f49a3c4502a2646970667358221220add9660a7b5bac9ff01f10b1f3eafae1556942fb360d34703147262094e79d4a64736f6c634300081e0033f0c57e16840df040f15088dc2f81fe391c3923bec73e23a9662efc9c229c6a00","linkReferences":{}},"methodIdentifiers":{"COLLECTOR_TOKEN_OFFSET()":"94231a78","DEFAULT_ADMIN_ROLE()":"a217fddf","MAX_AVATAR_LENGTH()":"1fe9d578","MAX_BIO_LENGTH()":"c477d7f7","MAX_COMMENT_LENGTH()":"5856e4fa","MAX_NICKNAME_LENGTH()":"e8f100bf","MAX_ORIGINAL_AUTHOR_LENGTH()":"19e94a6e","MAX_SUMMARY_LENGTH()":"544b5e61","MAX_TITLE_LENGTH()":"2ef9a160","PAUSER_ROLE()":"e63ab1e9","SCORE_DISLIKE()":"fde84719","SCORE_LIKE()":"e1d90b34","SCORE_NEUTRAL()":"473106b2","UPGRADER_ROLE()":"f72c0d8b","UPGRADE_INTERFACE_VERSION()":"ad3cb1cc","articles(uint256)":"edcfafe6","arweaveIdToArticleId(string)":"b055d7aa","balanceOf(address,uint256)":"00fdd58e","balanceOfBatch(address[],uint256[])":"4e1273f4","collect(uint256,address)":"8d3c100a","collectWithSessionKey(address,address,uint256,address,uint256,bytes)":"795146ef","editArticle((uint256,string,string,string,uint16))":"461e2378","editArticleWithSessionKey(address,address,(uint256,string,string,string,uint16),uint256,bytes)":"8f8b1c90","evaluate(uint256,uint8,string,address,uint256)":"ff1f090a","evaluateWithSessionKey(address,address,uint256,uint8,string,address,uint256,uint256,bytes)":"63c4ea4d","follow(address,bool)":"63c3cc16","followWithSessionKey(address,address,address,bool,uint256,bytes)":"5780400b","getArticleByArweaveId(string)":"989cfb57","getArticleIdByArweaveId(string)":"4b65f344","getArticleIdFromTokenId(uint256)":"a2519189","getRoleAdmin(bytes32)":"248a9ca3","grantRole(bytes32,address)":"2f2ff15d","hasRole(bytes32,address)":"91d14854","initialize(address,address)":"485cc955","isApprovedForAll(address,address)":"e985e9c5","likeComment(uint256,uint256,address,address)":"dffd40f2","likeCommentWithSessionKey(address,address,uint256,uint256,address,address,uint256,bytes)":"79c61f28","minActionValue()":"8cbd215e","multicall(bytes[])":"ac9650d8","nextArticleId()":"85c3ab54","pause()":"8456cb59","paused()":"5c975abb","platformFeeBps()":"22dcd13e","platformTreasury()":"e138818c","proxiableUUID()":"52d1902d","publish((string,uint16,uint96,string,string,string,address,uint96,uint32,uint8))":"21a25d60","publishWithSessionKey(address,address,(string,uint16,uint96,string,string,string,address,uint96,uint32,uint8),uint256,bytes)":"56f5f3bb","renounceRole(bytes32,address)":"36568abe","revokeRole(bytes32,address)":"d547741f","royaltyInfo(uint256,uint256)":"2a55205a","safeBatchTransferFrom(address,address,uint256[],uint256[],bytes)":"2eb2c2d6","safeTransferFrom(address,address,uint256,uint256,bytes)":"f242432a","sessionKeyManager()":"0b826190","setApprovalForAll(address,bool)":"a22cb465","setMinActionValue(uint256)":"52cbd3be","setPlatformFee(uint96)":"f99e5dbb","setPlatformTreasury(address)":"7cd86d60","setSessionKeyManager(address)":"837fa3fd","supportsInterface(bytes4)":"01ffc9a7","unpause()":"3f4ba83a","updateProfile(string,string,string)":"1105a5eb","upgradeToAndCall(address,bytes)":"4f1ef286","uri(uint256)":"0e89341c"},"id":67}