{"abi":[{"type":"constructor","inputs":[],"stateMutability":"nonpayable"},{"type":"function","name":"DEFAULT_ADMIN_ROLE","inputs":[],"outputs":[{"name":"","type":"bytes32","internalType":"bytes32"}],"stateMutability":"view"},{"type":"function","name":"MAX_AVATAR_LENGTH","inputs":[],"outputs":[{"name":"","type":"uint256","internalType":"uint256"}],"stateMutability":"view"},{"type":"function","name":"MAX_BIO_LENGTH","inputs":[],"outputs":[{"name":"","type":"uint256","internalType":"uint256"}],"stateMutability":"view"},{"type":"function","name":"MAX_COMMENT_LENGTH","inputs":[],"outputs":[{"name":"","type":"uint256","internalType":"uint256"}],"stateMutability":"view"},{"type":"function","name":"MAX_NICKNAME_LENGTH","inputs":[],"outputs":[{"name":"","type":"uint256","internalType":"uint256"}],"stateMutability":"view"},{"type":"function","name":"MAX_ORIGINAL_AUTHOR_LENGTH","inputs":[],"outputs":[{"name":"","type":"uint256","internalType":"uint256"}],"stateMutability":"view"},{"type":"function","name":"MAX_TITLE_LENGTH","inputs":[],"outputs":[{"name":"","type":"uint256","internalType":"uint256"}],"stateMutability":"view"},{"type":"function","name":"PAUSER_ROLE","inputs":[],"outputs":[{"name":"","type":"bytes32","internalType":"bytes32"}],"stateMutability":"view"},{"type":"function","name":"SCORE_DISLIKE","inputs":[],"outputs":[{"name":"","type":"uint8","internalType":"uint8"}],"stateMutability":"view"},{"type":"function","name":"SCORE_LIKE","inputs":[],"outputs":[{"name":"","type":"uint8","internalType":"uint8"}],"stateMutability":"view"},{"type":"function","name":"SCORE_NEUTRAL","inputs":[],"outputs":[{"name":"","type":"uint8","internalType":"uint8"}],"stateMutability":"view"},{"type":"function","name":"UPGRADER_ROLE","inputs":[],"outputs":[{"name":"","type":"bytes32","internalType":"bytes32"}],"stateMutability":"view"},{"type":"function","name":"UPGRADE_INTERFACE_VERSION","inputs":[],"outputs":[{"name":"","type":"string","internalType":"string"}],"stateMutability":"view"},{"type":"function","name":"articles","inputs":[{"name":"","type":"uint256","internalType":"uint256"}],"outputs":[{"name":"author","type":"address","internalType":"address"},{"name":"timestamp","type":"uint64","internalType":"uint64"},{"name":"categoryId","type":"uint16","internalType":"uint16"},{"name":"originality","type":"uint8","internalType":"enum BlogHub.Originality"},{"name":"collectPrice","type":"uint96","internalType":"uint96"},{"name":"maxCollectSupply","type":"uint32","internalType":"uint32"},{"name":"collectCount","type":"uint32","internalType":"uint32"},{"name":"arweaveHash","type":"string","internalType":"string"}],"stateMutability":"view"},{"type":"function","name":"arweaveIdToArticleId","inputs":[{"name":"","type":"string","internalType":"string"}],"outputs":[{"name":"","type":"uint256","internalType":"uint256"}],"stateMutability":"view"},{"type":"function","name":"balanceOf","inputs":[{"name":"account","type":"address","internalType":"address"},{"name":"id","type":"uint256","internalType":"uint256"}],"outputs":[{"name":"","type":"uint256","internalType":"uint256"}],"stateMutability":"view"},{"type":"function","name":"balanceOfBatch","inputs":[{"name":"accounts","type":"address[]","internalType":"address[]"},{"name":"ids","type":"uint256[]","internalType":"uint256[]"}],"outputs":[{"name":"","type":"uint256[]","internalType":"uint256[]"}],"stateMutability":"view"},{"type":"function","name":"collect","inputs":[{"name":"_articleId","type":"uint256","internalType":"uint256"},{"name":"_referrer","type":"address","internalType":"address"}],"outputs":[],"stateMutability":"payable"},{"type":"function","name":"collectWithSessionKey","inputs":[{"name":"owner","type":"address","internalType":"address"},{"name":"sessionKey","type":"address","internalType":"address"},{"name":"_articleId","type":"uint256","internalType":"uint256"},{"name":"_referrer","type":"address","internalType":"address"},{"name":"deadline","type":"uint256","internalType":"uint256"},{"name":"signature","type":"bytes","internalType":"bytes"}],"outputs":[],"stateMutability":"payable"},{"type":"function","name":"editArticle","inputs":[{"name":"_articleId","type":"uint256","internalType":"uint256"},{"name":"_originalAuthor","type":"string","internalType":"string"},{"name":"_title","type":"string","internalType":"string"},{"name":"_categoryId","type":"uint64","internalType":"uint64"},{"name":"_originality","type":"uint8","internalType":"enum BlogHub.Originality"}],"outputs":[],"stateMutability":"nonpayable"},{"type":"function","name":"editArticleWithSessionKey","inputs":[{"name":"owner","type":"address","internalType":"address"},{"name":"sessionKey","type":"address","internalType":"address"},{"name":"_articleId","type":"uint256","internalType":"uint256"},{"name":"_originalAuthor","type":"string","internalType":"string"},{"name":"_title","type":"string","internalType":"string"},{"name":"_categoryId","type":"uint64","internalType":"uint64"},{"name":"_originality","type":"uint8","internalType":"enum BlogHub.Originality"},{"name":"deadline","type":"uint256","internalType":"uint256"},{"name":"signature","type":"bytes","internalType":"bytes"}],"outputs":[],"stateMutability":"nonpayable"},{"type":"function","name":"evaluate","inputs":[{"name":"_articleId","type":"uint256","internalType":"uint256"},{"name":"_score","type":"uint8","internalType":"uint8"},{"name":"_content","type":"string","internalType":"string"},{"name":"_referrer","type":"address","internalType":"address"},{"name":"_parentCommentId","type":"uint256","internalType":"uint256"}],"outputs":[],"stateMutability":"payable"},{"type":"function","name":"evaluateWithSessionKey","inputs":[{"name":"owner","type":"address","internalType":"address"},{"name":"sessionKey","type":"address","internalType":"address"},{"name":"_articleId","type":"uint256","internalType":"uint256"},{"name":"_score","type":"uint8","internalType":"uint8"},{"name":"_content","type":"string","internalType":"string"},{"name":"_referrer","type":"address","internalType":"address"},{"name":"_parentCommentId","type":"uint256","internalType":"uint256"},{"name":"deadline","type":"uint256","internalType":"uint256"},{"name":"signature","type":"bytes","internalType":"bytes"}],"outputs":[],"stateMutability":"payable"},{"type":"function","name":"follow","inputs":[{"name":"_target","type":"address","internalType":"address"},{"name":"_status","type":"bool","internalType":"bool"}],"outputs":[],"stateMutability":"nonpayable"},{"type":"function","name":"followWithSessionKey","inputs":[{"name":"owner","type":"address","internalType":"address"},{"name":"sessionKey","type":"address","internalType":"address"},{"name":"_target","type":"address","internalType":"address"},{"name":"_status","type":"bool","internalType":"bool"},{"name":"deadline","type":"uint256","internalType":"uint256"},{"name":"signature","type":"bytes","internalType":"bytes"}],"outputs":[],"stateMutability":"nonpayable"},{"type":"function","name":"getArticleByArweaveId","inputs":[{"name":"_arweaveId","type":"string","internalType":"string"}],"outputs":[{"name":"","type":"tuple","internalType":"struct BlogHub.Article","components":[{"name":"author","type":"address","internalType":"address"},{"name":"timestamp","type":"uint64","internalType":"uint64"},{"name":"categoryId","type":"uint16","internalType":"uint16"},{"name":"originality","type":"uint8","internalType":"enum BlogHub.Originality"},{"name":"collectPrice","type":"uint96","internalType":"uint96"},{"name":"maxCollectSupply","type":"uint32","internalType":"uint32"},{"name":"collectCount","type":"uint32","internalType":"uint32"},{"name":"arweaveHash","type":"string","internalType":"string"}]}],"stateMutability":"view"},{"type":"function","name":"getArticleIdByArweaveId","inputs":[{"name":"_arweaveId","type":"string","internalType":"string"}],"outputs":[{"name":"","type":"uint256","internalType":"uint256"}],"stateMutability":"view"},{"type":"function","name":"getRoleAdmin","inputs":[{"name":"role","type":"bytes32","internalType":"bytes32"}],"outputs":[{"name":"","type":"bytes32","internalType":"bytes32"}],"stateMutability":"view"},{"type":"function","name":"grantRole","inputs":[{"name":"role","type":"bytes32","internalType":"bytes32"},{"name":"account","type":"address","internalType":"address"}],"outputs":[],"stateMutability":"nonpayable"},{"type":"function","name":"hasRole","inputs":[{"name":"role","type":"bytes32","internalType":"bytes32"},{"name":"account","type":"address","internalType":"address"}],"outputs":[{"name":"","type":"bool","internalType":"bool"}],"stateMutability":"view"},{"type":"function","name":"initialize","inputs":[{"name":"_initialOwner","type":"address","internalType":"address"},{"name":"_treasury","type":"address","internalType":"address"}],"outputs":[],"stateMutability":"nonpayable"},{"type":"function","name":"isApprovedForAll","inputs":[{"name":"account","type":"address","internalType":"address"},{"name":"operator","type":"address","internalType":"address"}],"outputs":[{"name":"","type":"bool","internalType":"bool"}],"stateMutability":"view"},{"type":"function","name":"likeComment","inputs":[{"name":"_articleId","type":"uint256","internalType":"uint256"},{"name":"_commentId","type":"uint256","internalType":"uint256"},{"name":"_commenter","type":"address","internalType":"address"},{"name":"_referrer","type":"address","internalType":"address"}],"outputs":[],"stateMutability":"payable"},{"type":"function","name":"likeCommentWithSessionKey","inputs":[{"name":"owner","type":"address","internalType":"address"},{"name":"sessionKey","type":"address","internalType":"address"},{"name":"_articleId","type":"uint256","internalType":"uint256"},{"name":"_commentId","type":"uint256","internalType":"uint256"},{"name":"_commenter","type":"address","internalType":"address"},{"name":"_referrer","type":"address","internalType":"address"},{"name":"deadline","type":"uint256","internalType":"uint256"},{"name":"signature","type":"bytes","internalType":"bytes"}],"outputs":[],"stateMutability":"payable"},{"type":"function","name":"minActionValue","inputs":[],"outputs":[{"name":"","type":"uint256","internalType":"uint256"}],"stateMutability":"view"},{"type":"function","name":"multicall","inputs":[{"name":"data","type":"bytes[]","internalType":"bytes[]"}],"outputs":[{"name":"results","type":"bytes[]","internalType":"bytes[]"}],"stateMutability":"nonpayable"},{"type":"function","name":"nextArticleId","inputs":[],"outputs":[{"name":"","type":"uint256","internalType":"uint256"}],"stateMutability":"view"},{"type":"function","name":"pause","inputs":[],"outputs":[],"stateMutability":"nonpayable"},{"type":"function","name":"paused","inputs":[],"outputs":[{"name":"","type":"bool","internalType":"bool"}],"stateMutability":"view"},{"type":"function","name":"platformFeeBps","inputs":[],"outputs":[{"name":"","type":"uint96","internalType":"uint96"}],"stateMutability":"view"},{"type":"function","name":"platformTreasury","inputs":[],"outputs":[{"name":"","type":"address","internalType":"address"}],"stateMutability":"view"},{"type":"function","name":"proxiableUUID","inputs":[],"outputs":[{"name":"","type":"bytes32","internalType":"bytes32"}],"stateMutability":"view"},{"type":"function","name":"publish","inputs":[{"name":"_arweaveId","type":"string","internalType":"string"},{"name":"_categoryId","type":"uint64","internalType":"uint64"},{"name":"_royaltyBps","type":"uint96","internalType":"uint96"},{"name":"_originalAuthor","type":"string","internalType":"string"},{"name":"_title","type":"string","internalType":"string"},{"name":"_trueAuthor","type":"address","internalType":"address"},{"name":"_collectPrice","type":"uint256","internalType":"uint256"},{"name":"_maxCollectSupply","type":"uint256","internalType":"uint256"},{"name":"_originality","type":"uint8","internalType":"enum BlogHub.Originality"}],"outputs":[{"name":"","type":"uint256","internalType":"uint256"}],"stateMutability":"nonpayable"},{"type":"function","name":"publishWithSessionKey","inputs":[{"name":"owner","type":"address","internalType":"address"},{"name":"sessionKey","type":"address","internalType":"address"},{"name":"params","type":"tuple","internalType":"struct BlogHub.PublishParams","components":[{"name":"arweaveId","type":"string","internalType":"string"},{"name":"categoryId","type":"uint64","internalType":"uint64"},{"name":"royaltyBps","type":"uint96","internalType":"uint96"},{"name":"originalAuthor","type":"string","internalType":"string"},{"name":"title","type":"string","internalType":"string"},{"name":"trueAuthor","type":"address","internalType":"address"},{"name":"collectPrice","type":"uint256","internalType":"uint256"},{"name":"maxCollectSupply","type":"uint256","internalType":"uint256"},{"name":"originality","type":"uint8","internalType":"enum BlogHub.Originality"}]},{"name":"deadline","type":"uint256","internalType":"uint256"},{"name":"signature","type":"bytes","internalType":"bytes"}],"outputs":[{"name":"","type":"uint256","internalType":"uint256"}],"stateMutability":"nonpayable"},{"type":"function","name":"renounceRole","inputs":[{"name":"role","type":"bytes32","internalType":"bytes32"},{"name":"callerConfirmation","type":"address","internalType":"address"}],"outputs":[],"stateMutability":"nonpayable"},{"type":"function","name":"revokeRole","inputs":[{"name":"role","type":"bytes32","internalType":"bytes32"},{"name":"account","type":"address","internalType":"address"}],"outputs":[],"stateMutability":"nonpayable"},{"type":"function","name":"royaltyInfo","inputs":[{"name":"tokenId","type":"uint256","internalType":"uint256"},{"name":"salePrice","type":"uint256","internalType":"uint256"}],"outputs":[{"name":"receiver","type":"address","internalType":"address"},{"name":"amount","type":"uint256","internalType":"uint256"}],"stateMutability":"view"},{"type":"function","name":"safeBatchTransferFrom","inputs":[{"name":"from","type":"address","internalType":"address"},{"name":"to","type":"address","internalType":"address"},{"name":"ids","type":"uint256[]","internalType":"uint256[]"},{"name":"values","type":"uint256[]","internalType":"uint256[]"},{"name":"data","type":"bytes","internalType":"bytes"}],"outputs":[],"stateMutability":"nonpayable"},{"type":"function","name":"safeTransferFrom","inputs":[{"name":"from","type":"address","internalType":"address"},{"name":"to","type":"address","internalType":"address"},{"name":"id","type":"uint256","internalType":"uint256"},{"name":"value","type":"uint256","internalType":"uint256"},{"name":"data","type":"bytes","internalType":"bytes"}],"outputs":[],"stateMutability":"nonpayable"},{"type":"function","name":"sessionKeyManager","inputs":[],"outputs":[{"name":"","type":"address","internalType":"contract ISessionKeyManager"}],"stateMutability":"view"},{"type":"function","name":"setApprovalForAll","inputs":[{"name":"operator","type":"address","internalType":"address"},{"name":"approved","type":"bool","internalType":"bool"}],"outputs":[],"stateMutability":"nonpayable"},{"type":"function","name":"setMinActionValue","inputs":[{"name":"_minActionValue","type":"uint256","internalType":"uint256"}],"outputs":[],"stateMutability":"nonpayable"},{"type":"function","name":"setPlatformFee","inputs":[{"name":"_feeBps","type":"uint96","internalType":"uint96"}],"outputs":[],"stateMutability":"nonpayable"},{"type":"function","name":"setPlatformTreasury","inputs":[{"name":"_treasury","type":"address","internalType":"address"}],"outputs":[],"stateMutability":"nonpayable"},{"type":"function","name":"setSessionKeyManager","inputs":[{"name":"_sessionKeyManager","type":"address","internalType":"address"}],"outputs":[],"stateMutability":"nonpayable"},{"type":"function","name":"supportsInterface","inputs":[{"name":"interfaceId","type":"bytes4","internalType":"bytes4"}],"outputs":[{"name":"","type":"bool","internalType":"bool"}],"stateMutability":"view"},{"type":"function","name":"unpause","inputs":[],"outputs":[],"stateMutability":"nonpayable"},{"type":"function","name":"updateProfile","inputs":[{"name":"_nickname","type":"string","internalType":"string"},{"name":"_avatar","type":"string","internalType":"string"},{"name":"_bio","type":"string","internalType":"string"}],"outputs":[],"stateMutability":"nonpayable"},{"type":"function","name":"upgradeToAndCall","inputs":[{"name":"newImplementation","type":"address","internalType":"address"},{"name":"data","type":"bytes","internalType":"bytes"}],"outputs":[],"stateMutability":"payable"},{"type":"function","name":"uri","inputs":[{"name":"_id","type":"uint256","internalType":"uint256"}],"outputs":[{"name":"","type":"string","internalType":"string"}],"stateMutability":"view"},{"type":"event","name":"ApprovalForAll","inputs":[{"name":"account","type":"address","indexed":true,"internalType":"address"},{"name":"operator","type":"address","indexed":true,"internalType":"address"},{"name":"approved","type":"bool","indexed":false,"internalType":"bool"}],"anonymous":false},{"type":"event","name":"ArticleCollected","inputs":[{"name":"articleId","type":"uint256","indexed":true,"internalType":"uint256"},{"name":"collector","type":"address","indexed":true,"internalType":"address"},{"name":"amount","type":"uint256","indexed":false,"internalType":"uint256"},{"name":"tokenId","type":"uint256","indexed":false,"internalType":"uint256"}],"anonymous":false},{"type":"event","name":"ArticleEdited","inputs":[{"name":"articleId","type":"uint256","indexed":true,"internalType":"uint256"},{"name":"author","type":"address","indexed":true,"internalType":"address"},{"name":"arweaveId","type":"string","indexed":false,"internalType":"string"},{"name":"originalAuthor","type":"string","indexed":false,"internalType":"string"},{"name":"title","type":"string","indexed":false,"internalType":"string"},{"name":"categoryId","type":"uint64","indexed":false,"internalType":"uint64"},{"name":"originality","type":"uint8","indexed":false,"internalType":"enum BlogHub.Originality"}],"anonymous":false},{"type":"event","name":"ArticleEvaluated","inputs":[{"name":"articleId","type":"uint256","indexed":true,"internalType":"uint256"},{"name":"user","type":"address","indexed":true,"internalType":"address"},{"name":"score","type":"uint8","indexed":false,"internalType":"uint8"},{"name":"amountPaid","type":"uint256","indexed":false,"internalType":"uint256"}],"anonymous":false},{"type":"event","name":"ArticlePublished","inputs":[{"name":"articleId","type":"uint256","indexed":true,"internalType":"uint256"},{"name":"author","type":"address","indexed":true,"internalType":"address"},{"name":"categoryId","type":"uint256","indexed":true,"internalType":"uint256"},{"name":"arweaveId","type":"string","indexed":false,"internalType":"string"},{"name":"originalAuthor","type":"string","indexed":false,"internalType":"string"},{"name":"title","type":"string","indexed":false,"internalType":"string"},{"name":"trueAuthor","type":"address","indexed":false,"internalType":"address"},{"name":"collectPrice","type":"uint256","indexed":false,"internalType":"uint256"},{"name":"maxCollectSupply","type":"uint256","indexed":false,"internalType":"uint256"},{"name":"originality","type":"uint8","indexed":false,"internalType":"enum BlogHub.Originality"}],"anonymous":false},{"type":"event","name":"CommentAdded","inputs":[{"name":"articleId","type":"uint256","indexed":true,"internalType":"uint256"},{"name":"commenter","type":"address","indexed":true,"internalType":"address"},{"name":"content","type":"string","indexed":false,"internalType":"string"},{"name":"parentCommentId","type":"uint256","indexed":false,"internalType":"uint256"},{"name":"score","type":"uint8","indexed":false,"internalType":"uint8"}],"anonymous":false},{"type":"event","name":"CommentLiked","inputs":[{"name":"articleId","type":"uint256","indexed":true,"internalType":"uint256"},{"name":"commentId","type":"uint256","indexed":true,"internalType":"uint256"},{"name":"liker","type":"address","indexed":true,"internalType":"address"},{"name":"commenter","type":"address","indexed":false,"internalType":"address"},{"name":"amountPaid","type":"uint256","indexed":false,"internalType":"uint256"}],"anonymous":false},{"type":"event","name":"FollowStatusChanged","inputs":[{"name":"follower","type":"address","indexed":true,"internalType":"address"},{"name":"target","type":"address","indexed":true,"internalType":"address"},{"name":"isFollowing","type":"bool","indexed":false,"internalType":"bool"}],"anonymous":false},{"type":"event","name":"Initialized","inputs":[{"name":"version","type":"uint64","indexed":false,"internalType":"uint64"}],"anonymous":false},{"type":"event","name":"MinActionValueUpdated","inputs":[{"name":"newValue","type":"uint256","indexed":false,"internalType":"uint256"}],"anonymous":false},{"type":"event","name":"Paused","inputs":[{"name":"account","type":"address","indexed":false,"internalType":"address"}],"anonymous":false},{"type":"event","name":"PlatformFeeUpdated","inputs":[{"name":"newFeeBps","type":"uint96","indexed":false,"internalType":"uint96"}],"anonymous":false},{"type":"event","name":"ReferralPaid","inputs":[{"name":"referrer","type":"address","indexed":true,"internalType":"address"},{"name":"amount","type":"uint256","indexed":false,"internalType":"uint256"}],"anonymous":false},{"type":"event","name":"RoleAdminChanged","inputs":[{"name":"role","type":"bytes32","indexed":true,"internalType":"bytes32"},{"name":"previousAdminRole","type":"bytes32","indexed":true,"internalType":"bytes32"},{"name":"newAdminRole","type":"bytes32","indexed":true,"internalType":"bytes32"}],"anonymous":false},{"type":"event","name":"RoleGranted","inputs":[{"name":"role","type":"bytes32","indexed":true,"internalType":"bytes32"},{"name":"account","type":"address","indexed":true,"internalType":"address"},{"name":"sender","type":"address","indexed":true,"internalType":"address"}],"anonymous":false},{"type":"event","name":"RoleRevoked","inputs":[{"name":"role","type":"bytes32","indexed":true,"internalType":"bytes32"},{"name":"account","type":"address","indexed":true,"internalType":"address"},{"name":"sender","type":"address","indexed":true,"internalType":"address"}],"anonymous":false},{"type":"event","name":"SessionKeyManagerUpdated","inputs":[{"name":"newManager","type":"address","indexed":true,"internalType":"address"}],"anonymous":false},{"type":"event","name":"SessionKeyOperationExecuted","inputs":[{"name":"owner","type":"address","indexed":true,"internalType":"address"},{"name":"sessionKey","type":"address","indexed":true,"internalType":"address"},{"name":"selector","type":"bytes4","indexed":false,"internalType":"bytes4"}],"anonymous":false},{"type":"event","name":"TransferBatch","inputs":[{"name":"operator","type":"address","indexed":true,"internalType":"address"},{"name":"from","type":"address","indexed":true,"internalType":"address"},{"name":"to","type":"address","indexed":true,"internalType":"address"},{"name":"ids","type":"uint256[]","indexed":false,"internalType":"uint256[]"},{"name":"values","type":"uint256[]","indexed":false,"internalType":"uint256[]"}],"anonymous":false},{"type":"event","name":"TransferSingle","inputs":[{"name":"operator","type":"address","indexed":true,"internalType":"address"},{"name":"from","type":"address","indexed":true,"internalType":"address"},{"name":"to","type":"address","indexed":true,"internalType":"address"},{"name":"id","type":"uint256","indexed":false,"internalType":"uint256"},{"name":"value","type":"uint256","indexed":false,"internalType":"uint256"}],"anonymous":false},{"type":"event","name":"TreasuryUpdated","inputs":[{"name":"newTreasury","type":"address","indexed":false,"internalType":"address"}],"anonymous":false},{"type":"event","name":"URI","inputs":[{"name":"value","type":"string","indexed":false,"internalType":"string"},{"name":"id","type":"uint256","indexed":true,"internalType":"uint256"}],"anonymous":false},{"type":"event","name":"Unpaused","inputs":[{"name":"account","type":"address","indexed":false,"internalType":"address"}],"anonymous":false},{"type":"event","name":"Upgraded","inputs":[{"name":"implementation","type":"address","indexed":true,"internalType":"address"}],"anonymous":false},{"type":"event","name":"UserProfileUpdated","inputs":[{"name":"user","type":"address","indexed":true,"internalType":"address"},{"name":"nickname","type":"string","indexed":false,"internalType":"string"},{"name":"avatar","type":"string","indexed":false,"internalType":"string"},{"name":"bio","type":"string","indexed":false,"internalType":"string"}],"anonymous":false},{"type":"error","name":"AccessControlBadConfirmation","inputs":[]},{"type":"error","name":"AccessControlUnauthorizedAccount","inputs":[{"name":"account","type":"address","internalType":"address"},{"name":"neededRole","type":"bytes32","internalType":"bytes32"}]},{"type":"error","name":"AddressEmptyCode","inputs":[{"name":"target","type":"address","internalType":"address"}]},{"type":"error","name":"ArticleNotFound","inputs":[]},{"type":"error","name":"CategoryIdTooHigh","inputs":[]},{"type":"error","name":"CollectNotEnabled","inputs":[]},{"type":"error","name":"CollectPriceTooHigh","inputs":[]},{"type":"error","name":"ContentRequiredForScore","inputs":[]},{"type":"error","name":"ERC1155InsufficientBalance","inputs":[{"name":"sender","type":"address","internalType":"address"},{"name":"balance","type":"uint256","internalType":"uint256"},{"name":"needed","type":"uint256","internalType":"uint256"},{"name":"tokenId","type":"uint256","internalType":"uint256"}]},{"type":"error","name":"ERC1155InvalidApprover","inputs":[{"name":"approver","type":"address","internalType":"address"}]},{"type":"error","name":"ERC1155InvalidArrayLength","inputs":[{"name":"idsLength","type":"uint256","internalType":"uint256"},{"name":"valuesLength","type":"uint256","internalType":"uint256"}]},{"type":"error","name":"ERC1155InvalidOperator","inputs":[{"name":"operator","type":"address","internalType":"address"}]},{"type":"error","name":"ERC1155InvalidReceiver","inputs":[{"name":"receiver","type":"address","internalType":"address"}]},{"type":"error","name":"ERC1155InvalidSender","inputs":[{"name":"sender","type":"address","internalType":"address"}]},{"type":"error","name":"ERC1155MissingApprovalForAll","inputs":[{"name":"operator","type":"address","internalType":"address"},{"name":"owner","type":"address","internalType":"address"}]},{"type":"error","name":"ERC1967InvalidImplementation","inputs":[{"name":"implementation","type":"address","internalType":"address"}]},{"type":"error","name":"ERC1967NonPayable","inputs":[]},{"type":"error","name":"ERC2981InvalidDefaultRoyalty","inputs":[{"name":"numerator","type":"uint256","internalType":"uint256"},{"name":"denominator","type":"uint256","internalType":"uint256"}]},{"type":"error","name":"ERC2981InvalidDefaultRoyaltyReceiver","inputs":[{"name":"receiver","type":"address","internalType":"address"}]},{"type":"error","name":"ERC2981InvalidTokenRoyalty","inputs":[{"name":"tokenId","type":"uint256","internalType":"uint256"},{"name":"numerator","type":"uint256","internalType":"uint256"},{"name":"denominator","type":"uint256","internalType":"uint256"}]},{"type":"error","name":"ERC2981InvalidTokenRoyaltyReceiver","inputs":[{"name":"tokenId","type":"uint256","internalType":"uint256"},{"name":"receiver","type":"address","internalType":"address"}]},{"type":"error","name":"EnforcedPause","inputs":[]},{"type":"error","name":"ExpectedPause","inputs":[]},{"type":"error","name":"FailedCall","inputs":[]},{"type":"error","name":"FeeTooHigh","inputs":[]},{"type":"error","name":"InsufficientPayment","inputs":[]},{"type":"error","name":"InvalidAddress","inputs":[]},{"type":"error","name":"InvalidCommenter","inputs":[]},{"type":"error","name":"InvalidInitialization","inputs":[]},{"type":"error","name":"InvalidLength","inputs":[]},{"type":"error","name":"InvalidScore","inputs":[]},{"type":"error","name":"MaxCollectSupplyTooHigh","inputs":[]},{"type":"error","name":"MaxSupplyReached","inputs":[]},{"type":"error","name":"NotArticleAuthor","inputs":[]},{"type":"error","name":"NotInitializing","inputs":[]},{"type":"error","name":"OriginalAuthorTooLong","inputs":[]},{"type":"error","name":"ReentrancyGuardReentrantCall","inputs":[]},{"type":"error","name":"RoyaltyTooHigh","inputs":[]},{"type":"error","name":"SessionKeyManagerNotSet","inputs":[]},{"type":"error","name":"SessionKeyValidationFailed","inputs":[]},{"type":"error","name":"SpamProtection","inputs":[]},{"type":"error","name":"TitleTooLong","inputs":[]},{"type":"error","name":"TransferFailed","inputs":[]},{"type":"error","name":"UUPSUnauthorizedCallContext","inputs":[]},{"type":"error","name":"UUPSUnsupportedProxiableUUID","inputs":[{"name":"slot","type":"bytes32","internalType":"bytes32"}]}],"bytecode":{"object":"0x60a080604052346100e65760017f9b779b17422d0df92223018b32b4d1fa46e071723d6817e2486d003becc55f0055306080525f516020614ef05f395f51905f525460ff8160401c166100d7576002600160401b03196001600160401b03821601610084575b604051614e0590816100eb823960805181818161106501526111d90152f35b6001600160401b0319166001600160401b039081175f516020614ef05f395f51905f525581527fc7f505b2f371ae2175ee4913f4499e1f2633a7b5936321eed1cdaeb6115181d290602090a15f80610065565b63f92ee8a960e01b5f5260045ffd5b5f80fdfe60806040526004361015610011575f80fd5b5f3560e01c8062fdd58e146103c457806301ffc9a7146103bf5780630b826190146103ba5780630e89341c146103b55780631105a5eb146103b057806319e94a6e146102cf5780631fe9d5781461039757806322dcd13e146103ab578063248a9ca3146103a65780632a55205a146103a15780632eb2c2d61461039c5780632ef9a160146103975780632f2ff15d1461039257806336568abe1461038d5780633f4ba83a14610388578063473106b214610315578063484b5eb814610383578063485cc9551461037e5780634b65f344146103795780634e1273f4146103745780634f1ef2861461036f57806352cbd3be1461036a57806352d1902d146103655780635780400b146103605780635856e4fa1461035b5780635c975abb1461035657806363c3cc161461035157806363c4ea4d1461034c578063795146ef1461034757806379c61f28146103425780637cd86d601461033d578063837fa3fd146103385780638456cb591461033357806385c3ab541461032e5780638cbd215e146103295780638d3c100a1461032457806391d148541461031f578063989cfb571461031a578063a217fddf14610315578063a22cb46514610310578063aacf0da41461030b578063ac9650d814610306578063ad3cb1cc14610301578063b055d7aa146102fc578063c477d7f7146102f7578063d547741f146102f2578063df7f942b146102ed578063dffd40f2146102e8578063e138818c146102e3578063e1d90b34146102de578063e63ab1e9146102d9578063e7628e4d146102d4578063e8f100bf146102cf578063e985e9c5146102ca578063edcfafe6146102c5578063f242432a146102c0578063f72c0d8b146102bb578063f99e5dbb146102b6578063fde84719146102b15763ff1f090a146102ac575f80fd5b612315565b6122fa565b612275565b61223b565b61213f565b6120a5565b611f48565b6107e6565b611e99565b611e41565b611e26565b611e06565b611dc0565b611d30565b611ce3565b611cc7565b611c59565b611c00565b611b80565b611aa0565b611a0e565b610c40565b611982565b611864565b61181b565b6117fe565b6117e2565b611771565b611705565b611674565b61153c565b61143f565b6113ad565b61138d565b61133a565b61131e565b611228565b6111c7565b61117b565b611023565b610f62565b610f05565b610d75565b610caa565b610bc2565b610b7a565b610b28565b610801565b610a94565b610881565b610842565b61081c565b6106de565b610575565b610515565b610472565b610407565b6001600160a01b038116036103da57565b5f80fd5b600435906103eb826103c9565b565b602435906103eb826103c9565b60a435906103eb826103c9565b346103da5760403660031901126103da576020610457600435610429816103c9565b6024355f525f516020614d105f395f51905f52835260405f209060018060a01b03165f5260205260405f2090565b54604051908152f35b6001600160e01b03198116036103da57565b346103da5760203660031901126103da5760043561048f81610460565b63ffffffff60e01b16637965db0b60e01b81149081156104b8575b506040519015158152602090f35b63152a902d60e11b8114915081156104d2575b505f6104aa565b636cdb3d1360e11b811491508115610504575b81156104f3575b505f6104cb565b6301ffc9a760e01b1490505f6104ec565b6303a24d0760e21b811491506104e5565b346103da575f3660031901126103da576004546040516001600160a01b039091168152602090f35b805180835260209291819084018484015e5f828201840152601f01601f1916010190565b90602061057292818152019061053d565b90565b346103da5760203660031901126103da57600435801580156106a6575b610697575f526002602052600260405f20016040517f68747470733a2f2f676174657761792e697279732e78797a2f6d757461626c656020820152602f60f81b60408201525f918054906105e582611f67565b91600181169081156106705750600114610634575b680bda5b99195e0b9b5960ba1b84526106308361062481600988015b03601f198101835282610983565b60405191829182610561565b0390f35b9092505f5260205f205f905b83821061065957505090810160410190610624816105fa565b600181602092546041858701015201910190610640565b60ff19166041808601919091528315159093028401909201935061062491508290506105fa565b63522e582d60e11b5f5260045ffd5b505f54811015610592565b9181601f840112156103da578235916001600160401b0383116103da57602083818601950101116103da57565b346103da5760603660031901126103da576004356001600160401b0381116103da5761070e9036906004016106b1565b906024356001600160401b0381116103da5761072e9036906004016106b1565b9190926044356001600160401b0381116103da576107509036906004016106b1565b61075b9591956132ac565b604083116107d757608085116107d75761010081116107d7576107c26107d2927f198eb8de772c5a42c31d10ea779636d74f5a7cd2633012f88632697fae910db4966107b46040519788976060895260608901916123e9565b9186830360208801526123e9565b90838203604085015233966123e9565b0390a2005b63251f56a160e21b5f5260045ffd5b346103da575f3660031901126103da57602060405160408152f35b346103da575f3660031901126103da57602060405160808152f35b346103da575f3660031901126103da5760206001600160601b0360015416604051908152f35b346103da5760203660031901126103da5760206108796004355f525f516020614d305f395f51905f52602052600160405f20015490565b604051908152f35b346103da5760403660031901126103da576004355f9081527fdaedc9ab023613a7caf35e703657e986ccfad7e3eb0af93a2853f8d65dd86b0160205260409020546001600160a01b038116906024359060a01c8215610917575b6108fa916001600160601b036108f292169061243a565b612710900490565b604080516001600160a01b03939093168352602083019190915290f35b507fdaedc9ab023613a7caf35e703657e986ccfad7e3eb0af93a2853f8d65dd86b00546001600160a01b038116925060a01c6108db565b634e487b7160e01b5f52604160045260245ffd5b61010081019081106001600160401b0382111761097e57604052565b61094e565b90601f801991011681019081106001600160401b0382111761097e57604052565b604051906103eb61010083610983565b6001600160401b03811161097e5760051b60200190565b9080601f830112156103da5781356109e2816109b4565b926109f06040519485610983565b81845260208085019260051b8201019283116103da57602001905b828210610a185750505090565b8135815260209182019101610a0b565b6001600160401b03811161097e57601f01601f191660200190565b929192610a4f82610a28565b91610a5d6040519384610983565b8294818452818301116103da578281602093845f960137010152565b9080601f830112156103da5781602061057293359101610a43565b346103da5760a03660031901126103da57600435610ab1816103c9565b60243590610abe826103c9565b6044356001600160401b0381116103da57610add9036906004016109cb565b6064356001600160401b0381116103da57610afc9036906004016109cb565b90608435936001600160401b0385116103da57610b20610b26953690600401610a79565b9361244d565b005b346103da5760403660031901126103da57610b26602435600435610b4b826103c9565b610b75610b70825f525f516020614d305f395f51905f52602052600160405f20015490565b613400565b613664565b346103da5760403660031901126103da57600435602435610b9a816103c9565b336001600160a01b03821603610bb357610b26916136f9565b63334bd91960e11b5f5260045ffd5b346103da575f3660031901126103da57610bda6132d3565b5f516020614d505f395f51905f525460ff811615610c315760ff19165f516020614d505f395f51905f52557f5db9ee0a495bf2e6ff9c91a7834c1ba4fdd244a5e8aa4e537bd38aeae4b073aa6020604051338152a1005b638dfc202b60e01b5f5260045ffd5b346103da575f3660031901126103da5760206040515f8152f35b6001600160401b038116036103da57565b60a435906103eb82610c5a565b602435906103eb82610c5a565b600311156103da57565b60c435906103eb82610c85565b61010435906103eb82610c85565b346103da576101203660031901126103da57610cc46103de565b610ccc6103ed565b604435916064356001600160401b0381116103da57610cef9036906004016106b1565b6084356001600160401b0381116103da57610d0e9036906004016106b1565b610d16610c6b565b91610d1f610c8f565b9360e4359561010435996001600160401b038b116103da57610d48610b269b36906004016106b1565b9a909961249e565b60409060031901126103da57600435610d68816103c9565b90602435610572816103c9565b346103da57610d8336610d50565b5f516020614d905f395f51905f525491906001600160401b03610db560ff604086901c1615946001600160401b031690565b1680159081610ecf575b6001149081610ec5575b159081610ebc575b50610ead57610e149183610e0b60016001600160401b03195f516020614d905f395f51905f525416175f516020614d905f395f51905f5255565b610e7357612575565b610e1a57005b610e4460ff60401b195f516020614d905f395f51905f5254165f516020614d905f395f51905f5255565b604051600181527fc7f505b2f371ae2175ee4913f4499e1f2633a7b5936321eed1cdaeb6115181d290602090a1005b610ea86801000000000000000060ff60401b195f516020614d905f395f51905f525416175f516020614d905f395f51905f5255565b612575565b63f92ee8a960e01b5f5260045ffd5b9050155f610dd1565b303b159150610dc9565b849150610dbf565b60206003198201126103da57600435906001600160401b0382116103da57610f01916004016106b1565b9091565b346103da576020610457610f1836610ed7565b90612753565b90602080835192838152019201905f5b818110610f3b5750505090565b8251845260209384019390920191600101610f2e565b906020610572928181520190610f1e565b346103da5760403660031901126103da576004356001600160401b0381116103da57366023820112156103da57806004013590610f9e826109b4565b91610fac6040519384610983565b8083526024602084019160051b830101913683116103da57602401905b82821061100957836024356001600160401b0381116103da5761063091610ff7610ffd9236906004016109cb565b90612799565b60405191829182610f51565b602080918335611018816103c9565b815201910190610fc9565b60403660031901126103da5760043561103b816103c9565b6024356001600160401b0381116103da5761105a903690600401610a79565b906001600160a01b037f000000000000000000000000000000000000000000000000000000000000000016308114908115611159575b5061114a5761109d613342565b6040516352d1902d60e01b8152916020836004816001600160a01b0386165afa5f9381611119575b506110e657634c9c8ce360e01b5f526001600160a01b03821660045260245ffd5b905f516020614cd05f395f51905f52830361110557610b26925061482c565b632a87526960e21b5f52600483905260245ffd5b61113c91945060203d602011611143575b6111348183610983565b810190613c96565b925f6110c5565b503d61112a565b63703e46dd60e11b5f5260045ffd5b5f516020614cd05f395f51905f52546001600160a01b0316141590505f611090565b346103da5760203660031901126103da577ffcae2461302da2a86e3604d10afc558dc160d49eb88bc010c4bca093793857ff60206004356111ba6133b1565b80600555604051908152a1005b346103da575f3660031901126103da577f00000000000000000000000000000000000000000000000000000000000000006001600160a01b0316300361114a5760206040515f516020614cd05f395f51905f528152f35b801515036103da57565b346103da5760c03660031901126103da57600435611245816103c9565b602435611251816103c9565b60443561125d816103c9565b6064356112698161121e565b6084359160a4356001600160401b0381116103da576112ec936112936112e69236906004016106b1565b9161129c6132ac565b6112a4613799565b6040516331e1e60b60e11b60208201526001600160a01b038716602482015287151560448083019190915281529089908b906112e1606485610983565b6137dd565b84613ca5565b6040516331e1e60b60e11b81526001600160a01b0391821692909116905f516020614cf05f395f51905f5290602090a3005b346103da575f3660031901126103da5760206040516104008152f35b346103da575f3660031901126103da57602060ff5f516020614d505f395f51905f5254166040519015158152f35b60409060031901126103da57600435611380816103c9565b906024356105728161121e565b346103da57610b2661139e36611368565b906113a76132ac565b33613ca5565b6101203660031901126103da576004356113c6816103c9565b6024356113d2816103c9565b6044359160643560ff811681036103da576084356001600160401b0381116103da576114029036906004016106b1565b61140a6103fa565b9060c4359260e4359461010435986001600160401b038a116103da57611437610b269a36906004016106b1565b99909861282e565b60c03660031901126103da57600435611457816103c9565b602435611463816103c9565b606435604435611472826103c9565b6084359160a4356001600160401b0381116103da576114f99361149c6114f19236906004016106b1565b916114a5613ce4565b6114ad6132ac565b6114b5613799565b60405163469e080560e11b6020820152602481018890526001600160a01b03871660448201526114e88160648101610616565b898b34936138c2565b349185613f57565b60405163469e080560e11b81526001600160a01b0391821692909116905f516020614cf05f395f51905f5290602090a360015f516020614d705f395f51905f5255005b6101003660031901126103da57600435611555816103c9565b602435611561816103c9565b606435604435608435611573816103c9565b60a43590611580826103c9565b60e43560c4356001600160401b0382116103da576115a561160d9236906004016106b1565b916115ae613ce4565b6115b66132ac565b6115be613799565b604051636ffea07960e11b602082015260248101899052604481018a90526001600160a01b0387811660648301528816608480830191909152815261160460a482610983565b8a8c3493613a11565b34156116655761161f933493876140bb565b604051636ffea07960e11b81526001600160a01b0391821692909116905f516020614cf05f395f51905f5290602090a3610b2660015f516020614d705f395f51905f5255565b633f7d56c960e11b5f5260045ffd5b346103da5760203660031901126103da57600435611691816103c9565b6116996133b1565b6001600160a01b0381169081156116f6577f7dae230f18360d76a040c81f050aa14eb9d6dc7901b20fc5d855e2a20fe814d1916116ed6020926001600160601b036001549181199060601b16911617600155565b604051908152a1005b63e6c4247b60e01b5f5260045ffd5b346103da5760203660031901126103da57600435611722816103c9565b61172a6133b1565b6001600160a01b031680156116f657600480546001600160a01b031916821790557f4d57218e59793e6845c36a961c3af7acfce8c54b13a697da231466fc265fdb615f80a2005b346103da575f3660031901126103da576117896132d3565b6117916132ac565b600160ff195f516020614d505f395f51905f525416175f516020614d505f395f51905f52557f62e78cea01bee320cd4e420270b5ea74000d11b0c9f74754ebdbfc544b05a2586020604051338152a1005b346103da575f3660031901126103da5760205f54604051908152f35b346103da575f3660031901126103da576020600554604051908152f35b60403660031901126103da57611851600435602435611839816103c9565b611841613ce4565b6118496132ac565b349133613f57565b60015f516020614d705f395f51905f5255005b346103da5760403660031901126103da57602060ff6118b660243560043561188b826103c9565b5f525f516020614d305f395f51905f52845260405f209060018060a01b03165f5260205260405f2090565b54166040519015158152f35b600311156118cc57565b634e487b7160e01b5f52602160045260245ffd5b9060038210156118cc5752565b602080825282516001600160a01b0316828201528201516001600160401b031660408083019190915282015161ffff166060820152610572916101209060e09061193f606082015160808601906118e0565b60808101516001600160601b031660a085015260a081015163ffffffff1660c085015260c081015163ffffffff168483015201519161010080820152019061053d565b346103da57602061199236610ed7565b9190606060e06040516119a481610962565b5f81525f858201525f60408201525f838201525f60808201525f60a08201525f60c082015201528260405193849283378101600381520301902054801561069757611a026119fd610630925f52600260205260405f2090565b61291d565b604051918291826118ed565b346103da57611a1c36611368565b6001600160a01b038216918215611a8e57611a4f90611a3a3361237d565b9060018060a01b03165f5260205260405f2090565b9015159060ff1981541660ff83161790556040519081527f17307eab39ab6107e8899845ad3d59bd9653f200f220920489ca2b5937696c3160203392a3005b62ced3e160e81b5f525f60045260245ffd5b346103da5760a03660031901126103da576004356024356001600160401b0381116103da57611ad39036906004016106b1565b9190604435926001600160401b0384116103da57611af8610b269436906004016106b1565b9160643593611b0685610c5a565b60843595611b1387610c85565b611b1b6132ac565b33613b31565b602081016020825282518091526040820191602060408360051b8301019401925f915b838310611b5357505050505090565b9091929394602080611b71600193603f19868203018752895161053d565b97019301930191939290611b44565b346103da5760203660031901126103da576004356001600160401b0381116103da57366023820112156103da578060040135906001600160401b0382116103da573660248360051b830101116103da57610630916024611be09201612a71565b60405191829182611b21565b60405190611bfb602083610983565b5f8252565b346103da575f3660031901126103da57610630604051611c21604082610983565b60058152640352e302e360dc1b602082015260405191829160208352602083019061053d565b805191908290602001825e015f815290565b346103da5760203660031901126103da576004356001600160401b0381116103da57366023820112156103da57611cae6020611ca2610630933690602481600401359101610a43565b60405192838092611c47565b6003815203019020546040519081529081906020820190565b346103da575f3660031901126103da5760206040516101008152f35b346103da5760403660031901126103da57610b26602435600435611d06826103c9565b611d2b610b70825f525f516020614d305f395f51905f52602052600160405f20015490565b6136f9565b346103da5760a03660031901126103da57600435611d4d816103c9565b602435611d59816103c9565b604435906001600160401b0382116103da5761012060031983360301126103da57608435916064356001600160401b0384116103da5761063094611da4611db09536906004016106b1565b94909360040191612b2d565b6040519081529081906020820190565b60803660031901126103da57611851600435602435604435611de1816103c9565b60643591611dee836103c9565b611df6613ce4565b611dfe6132ac565b3493336140bb565b346103da575f3660031901126103da57602060015460601c604051908152f35b346103da575f3660031901126103da57602060405160018152f35b346103da575f3660031901126103da5760206040517f65d7a28e3265b37a6474929f336521b332c1681b933f6cb9f3376673440d862a8152f35b6001600160601b038116036103da57565b604435906103eb82611e7b565b346103da576101203660031901126103da576004356001600160401b0381116103da57611eca9036906004016106b1565b90611ed3610c78565b90611edc611e8c565b926064356001600160401b0381116103da57611efc9036906004016106b1565b939094608435946001600160401b0386116103da5761063096611f26611db09736906004016106b1565b929091611f316103fa565b9460c4359660e43598611f42610c9c565b9a613137565b346103da57602060ff6118b6611a3a611f6036610d50565b919061237d565b90600182811c92168015611f95575b6020831014611f8157565b634e487b7160e01b5f52602260045260245ffd5b91607f1691611f76565b5f9291815491611fae83611f67565b80835292600181169081156120035750600114611fca57505050565b5f9081526020812093945091925b838310611fe9575060209250010190565b600181602092949394548385870101520191019190611fd8565b915050602093945060ff929192191683830152151560051b010190565b906103eb6120349260405193848092611f9f565b0383610983565b946001600160601b039061208663ffffffff9661ffff6105729c9b976001600160401b038a986101009d9860018060a01b03168d521660208c01521660408a015260608901906118e0565b1660808601521660a08401521660c08201528160e0820152019061053d565b346103da5760203660031901126103da576004355f52600260205260405f2080549061063060026120ec6001840154936120e56040518094819301611f9f565b0382610983565b604051938363ffffffff869560801c16916001600160601b0363ffffffff8360601c1692169060ff8160f01c169061ffff8160e01c16906001600160401b038160a01c169060018060a01b03168961203b565b346103da5760a03660031901126103da5760043561215c816103c9565b602435612168816103c9565b60443590606435926084356001600160401b0381116103da5761218f903690600401610a79565b926001600160a01b038216338114158061222a575b612214576001600160a01b0384161561220157156121ef57610b26946121e760405192600184526020840152604083019160018352606084015260808301604052565b929091614604565b626a0d4560e21b5f525f60045260245ffd5b632bfa23e760e11b5f525f60045260245ffd5b63711bec9160e11b5f523360045260245260445ffd5b506122353384613298565b156121a4565b346103da575f3660031901126103da5760206040517f189ab7a9244df0848122154315af71fe140f3db0fe014031783b0946b8c9d2e38152f35b346103da5760203660031901126103da576001600160601b0360043561229a81611e7b565b6122a26133b1565b16610bb881116122eb576020817f7cb8fa1ce2fc1ff6556e563c0dcba551db7cdeb3f3b0911243692639ac80e94d926001600160601b03196001541617600155604051908152a1005b63cd4e616760e01b5f5260045ffd5b346103da575f3660031901126103da57602060405160028152f35b60a03660031901126103da5760243560043560ff821682036103da57604435916001600160401b0383116103da576123546118519336906004016106b1565b60643591612361836103c9565b6084359361236d613ce4565b6123756132ac565b349533613d71565b6001600160a01b03165f9081527f88be536d5240c274a3b1d3a1be54482fd9caa294f08c62a7cde569f49a3c45016020526040902090565b6123e5915f525f516020614d105f395f51905f5260205260405f209060018060a01b03165f5260205260405f2090565b5490565b908060209392818452848401375f828201840152601f01601f1916010190565b634e487b7160e01b5f52601160045260245ffd5b906103e88202918083046103e8149015171561243557565b612409565b8181029291811591840414171561243557565b939291906001600160a01b0385163381141580612486575b612214576001600160a01b0382161561220157156121ef576103eb94614604565b5060ff61249633611a3a8961237d565b541615612465565b9a819a61253e9a86612538948f886125338f8f8f8f926001600160401b036125148f95612525946124cd6132ac565b6125026124d8613799565b9a6040519e8f9a632ab3c36960e21b60208d015260248c015260a060448c015260c48b01916123e9565b8881036023190160648a0152916123e9565b9316608485015260a48401906118e0565b03601f198101865285610983565b613945565b89613b31565b604051632ab3c36960e21b81526001600160a01b0391821692909116905f516020614cf05f395f51905f529080602081015b0390a3565b604051929160206125868186610983565b5f8552612591614801565b612599614801565b8451906001600160401b03821161097e576125ca826125c55f516020614db05f395f51905f5254611f67565b612e52565b602090601f83116001146126ac57508161266c93926126039261268997985f926126a1575b50508160011b915f199060031b1c19161790565b5f516020614db05f395f51905f52555b61261b614801565b612623614801565b61262b614801565b612633614801565b61263c83613446565b50612646836134e2565b50612650836135a3565b506001600160601b036001549181199060601b16911617600155565b61268460fa6001600160601b03196001541617600155565b613c23565b61269260015f55565b6103eb6512309ce54000600555565b015190505f806125ef565b5f516020614db05f395f51905f525f52601f198316969091907ff429cb5e2ec84cbb765e76b31964a56ccde03e7a6122d6cc4afb19edc55edeed925f905b89821061273b57505091839160019361266c9695612689999a10612723575b505050811b015f516020614db05f395f51905f5255612613565b01515f1960f88460031b161c191690555f8080612709565b806001859682949686015181550195019301906126ea565b6020908260405193849283378101600381520301902090565b634e487b7160e01b5f52603260045260245ffd5b80518210156127945760209160051b010190565b61276c565b919091805183518082036128195750508051906127b5826109b4565b916127c36040519384610983565b8083526127d2601f19916109b4565b013660208401375f5b8151811015612812578061280160019260051b60208082870101519189010151906123b5565b61280b8286612780565b52016127db565b5090925050565b635b05999160e01b5f5260045260245260445ffd5b9981996128c89987866128c0958f6128b9899e9d9c9b9a998d8f6128968e612854613ce4565b61285c6132ac565b612864613799565b9960ff6040519a8b97637f8f848560e11b60208a0152602489015216604487015260a0606487015260c48601916123e9565b6001600160a01b03909216608484015260a483015203601f198101855284610983565b34936139a7565b349589613d71565b604051600162707b7b60e11b031981526001600160a01b0391821692909116905f516020614cf05f395f51905f5290602090a36103eb60015f516020614d705f395f51905f5255565b60038210156118cc5752565b9060405161292a81610962565b60e06129e660028395612989612980825460018060a01b03811688526001600160401b03808260a01c1616602089015261297761296c8261ffff9060e01c1690565b61ffff1660408a0152565b60f01c60ff1690565b60608701612911565b6129e06129d360018301546129b76129a7826001600160601b031690565b6001600160601b031660808a0152565b63ffffffff606082901c1660a089015260801c63ffffffff1690565b63ffffffff1660c0870152565b01612020565b910152565b9190820391821161243557565b903590601e19813603018212156103da57018035906001600160401b0382116103da576020019181360383136103da57565b9082101561279457610f019160051b8101906129f8565b612a636103eb92949360208660405197889583870137840101905f8252611c47565b03601f198101845283610983565b612a7a5f610a28565b612a876040519182610983565b5f8152601f19612a965f610a28565b01366020830137612aa6836109b4565b92612ab46040519485610983565b808452601f19612ac3826109b4565b015f5b818110612b1c5750505f5b818110612adf575050505090565b80612b00612afa85612af4600195878a612a2a565b90612a41565b306141c9565b612b0a8288612780565b52612b158187612780565b5001612ad1565b806060602080938901015201612ac6565b9192909394612b9190612b3e6132ac565b612b46613799565b966040860193612b5585612df8565b98612b80606089019a612b688c8b6129f8565b612b7860808d949394018d6129f8565b93909261423c565b8887612b8b8a614271565b92613a78565b60c0830135906001600160601b038211612de95761ffff6001600160401b03612bbc60208701612e02565b1611612dda5760e08401359263ffffffff8411612dcb5760a085016001600160a01b03612be882612e0c565b1615612dc457612bf790612e0c565b905b5f54978893612c0785612e16565b5f55612c1388806129f8565b90612c2060208b01612e02565b61ffff169163ffffffff8a166001600160601b038a16612c436101008e01612e24565b612c4b6109a4565b6001600160a01b038b168152956001600160401b034216602088015261ffff166040870152612c7d9060608701612911565b6001600160601b0316608085015263ffffffff1660a0840152600160c08401523690612ca892610a43565b60e0820152612cbf865f52600260205260405f2090565b90612cc991612fbc565b84612cd489806129f8565b612cdd91612753565b55612ce6611bec565b612cf1908685614391565b612cfa90612df8565b612d05908486614532565b612d1160208801612e02565b91612d1c88806129f8565b979092612d29908a6129f8565b979095612d3960808c018c6129f8565b909b61010001612d4890612e24565b94600160a01b60019003169b8c9a604051996001600160401b038b9a169d612d70998b6130d2565b037f20f06ccd8e783fa38422d2d4d0de66669fed0f0b45f372d88ff723d8063eb4ab91a460405163e7628e4d60e01b81526001600160a01b0392909216915f516020614cf05f395f51905f5290602090a390565b5080612bf9565b6309c1d04f60e01b5f5260045ffd5b630e13ec1760e31b5f5260045ffd5b634264fe7960e01b5f5260045ffd5b3561057281611e7b565b3561057281610c5a565b35610572816103c9565b5f1981146124355760010190565b3561057281610c85565b9060038110156118cc57815460ff60f01b191660f09190911b60ff60f01b16179055565b601f8111612e5e575050565b5f516020614db05f395f51905f525f5260205f20906020601f840160051c83019310612ea4575b601f0160051c01905b818110612e99575050565b5f8155600101612e8e565b9091508190612e85565b601f8211612ebb57505050565b5f5260205f20906020601f840160051c83019310612ef3575b601f0160051c01905b818110612ee8575050565b5f8155600101612edd565b9091508190612ed4565b91909182516001600160401b03811161097e57612f2481612f1e8454611f67565b84612eae565b6020601f8211600114612f57578190612f539394955f926126a15750508160011b915f199060031b1c19161790565b9055565b601f19821690612f6a845f5260205f2090565b915f5b818110612fa457509583600195969710612f8c575b505050811b019055565b01515f1960f88460031b161c191690555f8080612f82565b9192602060018192868b015181550194019201612f6d565b815181546020840151604085015161ffff60e01b60e091821b166001600160f01b03199093166001600160a01b039094169390931767ffffffffffffffff60a01b60a09290921b91909116171782556103eb926002919061302a6060820151613024816118c2565b85612e2e565b6130c96001850161306961304860808501516001600160601b031690565b82546bffffffffffffffffffffffff19166001600160601b03909116178255565b61309d61307d60a085015163ffffffff1690565b825463ffffffff60601b191660609190911b63ffffffff60601b16178255565b60c083015163ffffffff165b815463ffffffff60801b191660809190911b63ffffffff60801b16179055565b01519101612efd565b95906131169360c0989c9b99956130fa613108936103eb9d999660e08c5260e08c01916123e9565b9189830360208b01526123e9565b9186830360408801526123e9565b6001600160a01b039098166060840152608083015260a082015201906118e0565b949661315781888a879f98809b969e979d9f986131526132ac565b61423c565b6001600160601b038311612de9576001600160401b0389169a61ffff8c11612dda5763ffffffff8511612dcb576001600160a01b0381161561329057915b5f549c8d9a6131a38c612e16565b5f556131ad6109a4565b6001600160a01b0386168152906001600160401b034216602083015261ffff1660408201526131df8860608301612911565b6001600160601b038616608082015263ffffffff871660a0820152600160c082015261320c368e8b610a43565b60e08201526132238c5f52600260205260405f2090565b9061322d91612fbc565b8a6132388d8a612753565b558a613242611bec565b61324c9133614391565b61325790848c614532565b604051988998339c613269998b6130d2565b037f20f06ccd8e783fa38422d2d4d0de66669fed0f0b45f372d88ff723d8063eb4ab91a490565b503391613195565b60ff91611a3a6132a79261237d565b541690565b60ff5f516020614d505f395f51905f5254166132c457565b63d93c066560e01b5f5260045ffd5b335f9081527f75442b0a96088b5456bc4ed01394c96a4feec0f883c9494257d76b96ab1c9b6b602052604090205460ff161561330b57565b63e2517d3f60e01b5f52336004527f65d7a28e3265b37a6474929f336521b332c1681b933f6cb9f3376673440d862a60245260445ffd5b335f9081527fab71e3f32666744d246edff3f96e4bdafee2e9867098cdd118a979a7464786a8602052604090205460ff161561337a57565b63e2517d3f60e01b5f52336004527f189ab7a9244df0848122154315af71fe140f3db0fe014031783b0946b8c9d2e360245260445ffd5b335f9081527fb7db2dd08fcb62d0c9e08c51941cae53c267786a0b75803fb7960902fc8ef97d602052604090205460ff16156133e957565b63e2517d3f60e01b5f52336004525f60245260445ffd5b5f8181525f516020614d305f395f51905f526020908152604080832033845290915290205460ff16156134305750565b63e2517d3f60e01b5f523360045260245260445ffd5b6001600160a01b0381165f9081527fb7db2dd08fcb62d0c9e08c51941cae53c267786a0b75803fb7960902fc8ef97d602052604090205460ff166134dd576001600160a01b03165f8181527fb7db2dd08fcb62d0c9e08c51941cae53c267786a0b75803fb7960902fc8ef97d60205260408120805460ff191660011790553391905f516020614cb05f395f51905f528180a4600190565b505f90565b6001600160a01b0381165f9081527fab71e3f32666744d246edff3f96e4bdafee2e9867098cdd118a979a7464786a8602052604090205460ff166134dd576001600160a01b0381165f9081527fab71e3f32666744d246edff3f96e4bdafee2e9867098cdd118a979a7464786a860205260409020805460ff1916600117905533906001600160a01b03167f189ab7a9244df0848122154315af71fe140f3db0fe014031783b0946b8c9d2e35f516020614cb05f395f51905f525f80a4600190565b6001600160a01b0381165f9081527f75442b0a96088b5456bc4ed01394c96a4feec0f883c9494257d76b96ab1c9b6b602052604090205460ff166134dd576001600160a01b0381165f9081527f75442b0a96088b5456bc4ed01394c96a4feec0f883c9494257d76b96ab1c9b6b60205260409020805460ff1916600117905533906001600160a01b03167f65d7a28e3265b37a6474929f336521b332c1681b933f6cb9f3376673440d862a5f516020614cb05f395f51905f525f80a4600190565b5f8181525f516020614d305f395f51905f52602090815260408083206001600160a01b038616845290915290205460ff166136f3575f8181525f516020614d305f395f51905f52602090815260408083206001600160a01b03861684529091529020805460ff1916600117905533916001600160a01b0316905f516020614cb05f395f51905f525f80a4600190565b50505f90565b5f8181525f516020614d305f395f51905f52602090815260408083206001600160a01b038616845290915290205460ff16156136f3575f8181525f516020614d305f395f51905f52602090815260408083206001600160a01b03861684529091529020805460ff1916905533916001600160a01b0316907ff6391f5c32d9c69d2a47ea670b442974b53935d1edc7fd64eb21e047a839171b5f80a4600190565b6004546001600160a01b03169081156137ae57565b63022fcd8560e61b5f5260045ffd5b908160209103126103da57516105728161121e565b6040513d5f823e3d90fd5b60405163027f58e560e61b81526001600160a01b0392831660048201529190921660248201523060448201526331e1e60b60e11b60648201526101006084820152946020948694929385935f93859361385c9361383f9061010487019061053d565b928660a487015260c48601526003198584030160e48601526123e9565b03926001600160a01b03165af19081156138bd575f9161388e575b501561387f57565b6309fb5d8760e21b5f5260045ffd5b6138b0915060203d6020116138b6575b6138a88183610983565b8101906137bd565b5f613877565b503d61389e565b6137d2565b60405163027f58e560e61b81526001600160a01b03928316600482015291909216602482015230604482015263469e080560e11b60648201526101006084820152956020958795929486945f94869461385c9490929091906139299061010488019061053d565b9360a487015260c48601526003198584030160e48601526123e9565b60405163027f58e560e61b81526001600160a01b039283166004820152919092166024820152306044820152632ab3c36960e21b60648201526101006084820152946020948694929385935f93859361385c9361383f9061010487019061053d565b60405163027f58e560e61b81526001600160a01b039283166004820152919092166024820152306044820152600162707b7b60e11b031960648201526101006084820152956020958795929486945f94869461385c9490929091906139299061010488019061053d565b60405163027f58e560e61b81526001600160a01b039283166004820152919092166024820152306044820152636ffea07960e11b60648201526101006084820152956020958795929486945f94869461385c9490929091906139299061010488019061053d565b60405163027f58e560e61b81526001600160a01b03928316600482015291909216602482015230604482015263e7628e4d60e01b60648201526101006084820152946020948694929385935f93859361385c9361383f9061010487019061053d565b92936103eb96989795613b156001600160401b0394608097613b07613b239660a08a5260a08a0190611f9f565b9188830360208a01526123e9565b9185830360408701526123e9565b9616606082015201906118e0565b9690959492939486158015613c18575b61069757613b57875f52600260205260405f2090565b80546001600160a01b03998a169991959116899003613c095760408611613bfa5760808111613beb5761ffff6001600160401b03831611612dda57845461ffff60e01b191660e083901b61ffff60e01b161785557feb1aa45ea98dbf62fbb532271317e02cab1f758ad822b70d1c29faad55336b5d9660029661257095613bde8689612e2e565b6040519889980188613ada565b6324a25c5760e01b5f5260045ffd5b631750ba0360e01b5f5260045ffd5b635e7e205b60e11b5f5260045ffd5b505f54871015613b41565b6001600160a01b03168015613c835760405190613c41604083610983565b8082526101f46020909201919091526001600160a01b0316607d60a21b177fdaedc9ab023613a7caf35e703657e986ccfad7e3eb0af93a2853f8d65dd86b0055565b635b6cc80560e11b5f525f60045260245ffd5b908160209103126103da575190565b60405192151583526001600160a01b03918216929116907f75a1fc5e2239f53dc8407b3712c878c5893431bc3c349ea3561584869670f7f290602090a3565b60025f516020614d705f395f51905f525414613d0d5760025f516020614d705f395f51905f5255565b633ee5aeb560e01b5f5260045ffd5b3d15613d46573d90613d2d82610a28565b91613d3b6040519384610983565b82523d5f602084013e565b606090565b929493613d6560ff926040946060875260608701916123e9565b95602085015216910152565b929695919490955f548710156106975760ff861660028111613f485761040086116107d75785158080613f40575b80613f38575b613f295715928380613f1e575b6116655785613dd9613dcc8b5f52600260205260405f2090565b546001600160a01b031690565b9284613e3b575b5050505050613df2575b505050505050565b7f19a5aae49af5681d63d1a8c6ea9dc7b88af86e08d71ade984e2087fada0d4c4a93613e2d9160405194859460018060a01b03169885613d4b565b0390a35f8080808080613dea565b600203613ed4575050505f80808084613e68613e5c613e5c60015460601c90565b6001600160a01b031690565b5af1613e72613d1c565b5015613ec5575b6040805160ff8816815260208101929092526001600160a01b0385169188917fc199635a11ffccf62419a83e03370cef9ba2a2c0a33d65c2fe60542bd560a0a991a35f80808581613de0565b6312171d8360e31b5f5260045ffd5b82613ee291613ee8936148ce565b8361491d565b9081613ef6575b5050613e79565b5f918291829182916001600160a01b03165af1613f11613d1c565b5015613ec5575f80613eef565b506005548310613db2565b630eb90eff60e01b5f5260045ffd5b508215613da5565b508115613d9f565b631556136560e01b5f5260045ffd5b90915f5483101561069757613f74835f52600260205260405f2090565b80546001906001600160a01b03169101805492613f9e606085901c63ffffffff1663ffffffff1690565b9384156140ac5763ffffffff608082901c169485101561409d57613fd2906001600160601b03165b6001600160601b031690565b871061408e57828561400e92613ff7614014956130a98b99600163ffffffff91011690565b614009614002611bec565b8884614391565b6148ce565b8661491d565b9081614063575b50506040805194855260208501919091526001600160a01b03909116927ff6447f421186fdb05672b6b81ee863f6266ccf87f727fc67ed367774af8600659181908101612570565b5f9250829182918291906001600160a01b03165af1614080613d1c565b5015613ec557815f8061401b565b63cd1c886760e01b5f5260045ffd5b63d05cb60960e01b5f5260045ffd5b635874ec2360e01b5f5260045ffd5b9193949092945f54841015610697576001600160a01b03861680156141ba5782156116655761410c6141068886946140fe613dcc8a5f52600260205260405f2090565b9586916149ef565b8461491d565b6141206141198260011c90565b80926129eb565b9281614192575b505081614175575b5050604080516001600160a01b039687168152602081019290925291909416937f37d3451d72bbbc5dc39c5c55aacb3b768d87ef17ab36990c4c60e96e6a0cf1459190a4565b5f80809381935af1614185613d1c565b5015613ec5575f8061412f565b5f918291829182916001600160a01b03165af16141ad613d1c565b5015613ec5575f80614127565b633e510d3960e21b5f5260045ffd5b905f8091602081519101845af48080614229575b156141ec575050610572614a30565b1561421157639996b31560e01b5f9081526001600160a01b0391909116600452602490fd5b3d15155f036137d25763d6bda27560e01b5f5260045ffd5b503d1515806141dd5750813b15156141dd565b6127109293506001600160601b039150161161426257604010613bfa57608010613beb57565b63c2b03beb60e01b5f5260045ffd5b61427b81806129f8565b909160208101359061428c82610c5a565b60408101359061429b82611e7b565b6142a860608201826129f8565b906142b660808401846129f8565b909160a0850135966142c7886103c9565b60c08601359460e0870135966101000135976142e289610c85565b60405163e7628e4d60e01b602082015261012060248201529b8c9b61430d916101448e0191906123e9565b926001600160401b031660448c01526001600160601b031660648b01526023198a83030160848b015261433f926123e9565b906023198883030160a4890152614355926123e9565b6001600160a01b0390941660c486015260e485015261010484015261437f906101248401906118e0565b03601f19810182526105729082610983565b9291906001600160a01b038416156122015760016143cc60405192600184526020840152604083019160018352606084015260808301604052565b90805182519081810361451d5750506001600160a01b03851693841515935f5b83518110156144515780868960019360051b602080828a010151918a0101519261441a575b505050016143ec565b61444791611a3a61443f925f525f516020614d105f395f51905f5260205260405f2090565b918254614a49565b90555f8981614411565b509390959460018351145f146144e2576020838101518582015160408051928352928201525f9133917fc3d58168c5ae7397731d063d5bbf3d657854427343f4c083240f7aacaa2d0f629190a45b6144aa575b50505050565b80516001036144d257906020806144c995930151910151915f33614c11565b5f8080806144a4565b6144dd935f33614ae3565b6144c9565b5f6040517f4a39dc06d4c0dbc64b70af90fd698a233a518aa5d07e595d983b8c0526c8f7fb339180614515898983614a56565b0390a461449f565b635b05999160e01b5f5260045260245260445ffd5b92916001600160601b031661271081116145e8576001600160a01b038216156145d1576103eb92936145a9916040519361456d604086610983565b60018060a01b0316845260208401525f527fdaedc9ab023613a7caf35e703657e986ccfad7e3eb0af93a2853f8d65dd86b0160205260405f2090565b815160209092015160a01b6001600160a01b0319166001600160a01b03909216919091179055565b83634b4f842960e11b5f526004525f60245260445ffd5b8363dfd1fc1b60e01b5f5260045260245261271060445260645ffd5b949392909193845182519081810361451d5750506001600160a01b038681169586151595918516801515939192905f5b8451811015614734578060051b90898988602080868b010151958c01015192614699575b9360019461466a575b50505001614634565b61468f91611a3a61443f925f525f516020614d105f395f51905f5260205260405f2090565b90555f8981614661565b505090916146bf8d611a3a835f525f516020614d105f395f51905f5260205260405f2090565b548281106146fd578291898f6146f4600197968f950391611a3a855f525f516020614d105f395f51905f5260205260405f2090565b55909450614658565b6040516303dee4c560e01b81526001600160a01b038f16600482015260248101919091526044810183905260648101829052608490fd5b5091989593929790965060018851145f146147c75760208881015186820151604080519283529282015233917fc3d58168c5ae7397731d063d5bbf3d657854427343f4c083240f7aacaa2d0f6291a45b614790575b5050505050565b84516001036147b6576020806147ac9601519201519233614c11565b5f80808080614789565b6147c294919233614ae3565b6147ac565b6040517f4a39dc06d4c0dbc64b70af90fd698a233a518aa5d07e595d983b8c0526c8f7fb3391806147f9898d83614a56565b0390a4614784565b60ff5f516020614d905f395f51905f525460401c161561481d57565b631afcd79f60e31b5f5260045ffd5b90813b156148ad575f516020614cd05f395f51905f5280546001600160a01b0319166001600160a01b0384169081179091557fbc7cd75a20ee27fd9adebab32041f755214dbc6bffa90cc0225b39da2e5c2d3b5f80a280511561489557614892916141c9565b50565b50503461489e57565b63b398979f60e01b5f5260045ffd5b50634c9c8ce360e01b5f9081526001600160a01b0391909116600452602490fd5b916001600160a01b038316801592909190831561490a575b5082156148f7575b50506134dd5790565b6001600160a01b03161490505f806148ee565b6001600160a01b0316821492505f6148e6565b60015491906149406108f261493a6001600160601b038616613fc6565b8361243a565b916001600160a01b031680156149e7578261495d6108f28461241d565b945b816149bb575b505083614973575b50030390565b5f80808087855af1614983613d1c565b5015613ec5576040518481527f6292f4f27d8047af4537a4bd86906de0e2c880c20086f7f58b81eacfeb63912690602090a25f61496d565b5f8080936149d0613e5c613e5c849660601c90565b5af16149da613d1c565b5015613ec557825f614965565b825f9461495f565b926001600160a01b03841680159390928415614a1d575b50831561490a575082156148f75750506134dd5790565b6001600160a01b0316831493505f614a06565b604051903d82523d5f602084013e60203d830101604052565b9190820180921161243557565b9091614a6d61057293604084526040840190610f1e565b916020818403910152610f1e565b908160209103126103da575161057281610460565b6001600160a01b0391821681529116602082015260a0604082018190526105729491939192614ad59291614ac79190860190610f1e565b908482036060860152610f1e565b91608081840391015261053d565b9091949293853b614af657505050505050565b602093614b1891604051968795869563bc197c8160e01b875260048701614a90565b03815f6001600160a01b0387165af15f9181614ba7575b50614b695750614b3d613d1c565b8051919082614b6257632bfa23e760e11b5f526001600160a01b03821660045260245ffd5b6020915001fd5b6001600160e01b0319166343e6837f60e01b01614b8c57505f8080808080613dea565b632bfa23e760e11b5f526001600160a01b031660045260245ffd5b614bca91925060203d602011614bd1575b614bc28183610983565b810190614a7b565b905f614b2f565b503d614bb8565b6001600160a01b039182168152911660208201526040810191909152606081019190915260a0608082018190526105729291019061053d565b9091949293853b614c2457505050505050565b602093614c4691604051968795869563f23a6e6160e01b875260048701614bd8565b03815f6001600160a01b0387165af15f9181614c8e575b50614c6b5750614b3d613d1c565b6001600160e01b031916630dc5919f60e01b01614b8c57505f8080808080613dea565b614ca891925060203d602011614bd157614bc28183610983565b905f614c5d56fe2f8788117e7eff1d82e926ec794901d17c78024a50270940304540a733656f0d360894a13ba1a3210667c828492db98dca3e2076cc3735a920a3ca505d382bbce915025b6f599b245c9c1c02d463228c896354d64dceb469760c99544153be6d88be536d5240c274a3b1d3a1be54482fd9caa294f08c62a7cde569f49a3c450002dd7bc7dec4dceedda775e58dd541e08a116c6c53815c0bd028192f7b626800cd5ed15c6e187e77e9aee88184c21f4f2182ab5827cb3b7e07fbedcd63f033009b779b17422d0df92223018b32b4d1fa46e071723d6817e2486d003becc55f00f0c57e16840df040f15088dc2f81fe391c3923bec73e23a9662efc9c229c6a0088be536d5240c274a3b1d3a1be54482fd9caa294f08c62a7cde569f49a3c4502a26469706673582212209cf5144d6b1f32dda2f9a7c40960acc4a46e6c5d23894b47be36510c93457d4764736f6c634300081e0033f0c57e16840df040f15088dc2f81fe391c3923bec73e23a9662efc9c229c6a00","linkReferences":{}},"methodIdentifiers":{"DEFAULT_ADMIN_ROLE()":"a217fddf","MAX_AVATAR_LENGTH()":"1fe9d578","MAX_BIO_LENGTH()":"c477d7f7","MAX_COMMENT_LENGTH()":"5856e4fa","MAX_NICKNAME_LENGTH()":"e8f100bf","MAX_ORIGINAL_AUTHOR_LENGTH()":"19e94a6e","MAX_TITLE_LENGTH()":"2ef9a160","PAUSER_ROLE()":"e63ab1e9","SCORE_DISLIKE()":"fde84719","SCORE_LIKE()":"e1d90b34","SCORE_NEUTRAL()":"473106b2","UPGRADER_ROLE()":"f72c0d8b","UPGRADE_INTERFACE_VERSION()":"ad3cb1cc","articles(uint256)":"edcfafe6","arweaveIdToArticleId(string)":"b055d7aa","balanceOf(address,uint256)":"00fdd58e","balanceOfBatch(address[],uint256[])":"4e1273f4","collect(uint256,address)":"8d3c100a","collectWithSessionKey(address,address,uint256,address,uint256,bytes)":"795146ef","editArticle(uint256,string,string,uint64,uint8)":"aacf0da4","editArticleWithSessionKey(address,address,uint256,string,string,uint64,uint8,uint256,bytes)":"484b5eb8","evaluate(uint256,uint8,string,address,uint256)":"ff1f090a","evaluateWithSessionKey(address,address,uint256,uint8,string,address,uint256,uint256,bytes)":"63c4ea4d","follow(address,bool)":"63c3cc16","followWithSessionKey(address,address,address,bool,uint256,bytes)":"5780400b","getArticleByArweaveId(string)":"989cfb57","getArticleIdByArweaveId(string)":"4b65f344","getRoleAdmin(bytes32)":"248a9ca3","grantRole(bytes32,address)":"2f2ff15d","hasRole(bytes32,address)":"91d14854","initialize(address,address)":"485cc955","isApprovedForAll(address,address)":"e985e9c5","likeComment(uint256,uint256,address,address)":"dffd40f2","likeCommentWithSessionKey(address,address,uint256,uint256,address,address,uint256,bytes)":"79c61f28","minActionValue()":"8cbd215e","multicall(bytes[])":"ac9650d8","nextArticleId()":"85c3ab54","pause()":"8456cb59","paused()":"5c975abb","platformFeeBps()":"22dcd13e","platformTreasury()":"e138818c","proxiableUUID()":"52d1902d","publish(string,uint64,uint96,string,string,address,uint256,uint256,uint8)":"e7628e4d","publishWithSessionKey(address,address,(string,uint64,uint96,string,string,address,uint256,uint256,uint8),uint256,bytes)":"df7f942b","renounceRole(bytes32,address)":"36568abe","revokeRole(bytes32,address)":"d547741f","royaltyInfo(uint256,uint256)":"2a55205a","safeBatchTransferFrom(address,address,uint256[],uint256[],bytes)":"2eb2c2d6","safeTransferFrom(address,address,uint256,uint256,bytes)":"f242432a","sessionKeyManager()":"0b826190","setApprovalForAll(address,bool)":"a22cb465","setMinActionValue(uint256)":"52cbd3be","setPlatformFee(uint96)":"f99e5dbb","setPlatformTreasury(address)":"7cd86d60","setSessionKeyManager(address)":"837fa3fd","supportsInterface(bytes4)":"01ffc9a7","unpause()":"3f4ba83a","updateProfile(string,string,string)":"1105a5eb","upgradeToAndCall(address,bytes)":"4f1ef286","uri(uint256)":"0e89341c"},"id":67}