{"abi":[{"type":"constructor","inputs":[],"stateMutability":"nonpayable"},{"type":"function","name":"DEFAULT_ADMIN_ROLE","inputs":[],"outputs":[{"name":"","type":"bytes32","internalType":"bytes32"}],"stateMutability":"view"},{"type":"function","name":"MAX_AVATAR_LENGTH","inputs":[],"outputs":[{"name":"","type":"uint256","internalType":"uint256"}],"stateMutability":"view"},{"type":"function","name":"MAX_BIO_LENGTH","inputs":[],"outputs":[{"name":"","type":"uint256","internalType":"uint256"}],"stateMutability":"view"},{"type":"function","name":"MAX_COMMENT_LENGTH","inputs":[],"outputs":[{"name":"","type":"uint256","internalType":"uint256"}],"stateMutability":"view"},{"type":"function","name":"MAX_NICKNAME_LENGTH","inputs":[],"outputs":[{"name":"","type":"uint256","internalType":"uint256"}],"stateMutability":"view"},{"type":"function","name":"MAX_ORIGINAL_AUTHOR_LENGTH","inputs":[],"outputs":[{"name":"","type":"uint256","internalType":"uint256"}],"stateMutability":"view"},{"type":"function","name":"MAX_SUMMARY_LENGTH","inputs":[],"outputs":[{"name":"","type":"uint256","internalType":"uint256"}],"stateMutability":"view"},{"type":"function","name":"MAX_TITLE_LENGTH","inputs":[],"outputs":[{"name":"","type":"uint256","internalType":"uint256"}],"stateMutability":"view"},{"type":"function","name":"PAUSER_ROLE","inputs":[],"outputs":[{"name":"","type":"bytes32","internalType":"bytes32"}],"stateMutability":"view"},{"type":"function","name":"SCORE_DISLIKE","inputs":[],"outputs":[{"name":"","type":"uint8","internalType":"uint8"}],"stateMutability":"view"},{"type":"function","name":"SCORE_LIKE","inputs":[],"outputs":[{"name":"","type":"uint8","internalType":"uint8"}],"stateMutability":"view"},{"type":"function","name":"SCORE_NEUTRAL","inputs":[],"outputs":[{"name":"","type":"uint8","internalType":"uint8"}],"stateMutability":"view"},{"type":"function","name":"UPGRADER_ROLE","inputs":[],"outputs":[{"name":"","type":"bytes32","internalType":"bytes32"}],"stateMutability":"view"},{"type":"function","name":"UPGRADE_INTERFACE_VERSION","inputs":[],"outputs":[{"name":"","type":"string","internalType":"string"}],"stateMutability":"view"},{"type":"function","name":"articles","inputs":[{"name":"","type":"uint256","internalType":"uint256"}],"outputs":[{"name":"author","type":"address","internalType":"address"},{"name":"timestamp","type":"uint64","internalType":"uint64"},{"name":"categoryId","type":"uint16","internalType":"uint16"},{"name":"originality","type":"uint8","internalType":"enum BlogHub.Originality"},{"name":"collectPrice","type":"uint96","internalType":"uint96"},{"name":"maxCollectSupply","type":"uint32","internalType":"uint32"},{"name":"collectCount","type":"uint32","internalType":"uint32"},{"name":"arweaveHash","type":"string","internalType":"string"}],"stateMutability":"view"},{"type":"function","name":"arweaveIdToArticleId","inputs":[{"name":"","type":"string","internalType":"string"}],"outputs":[{"name":"","type":"uint256","internalType":"uint256"}],"stateMutability":"view"},{"type":"function","name":"balanceOf","inputs":[{"name":"account","type":"address","internalType":"address"},{"name":"id","type":"uint256","internalType":"uint256"}],"outputs":[{"name":"","type":"uint256","internalType":"uint256"}],"stateMutability":"view"},{"type":"function","name":"balanceOfBatch","inputs":[{"name":"accounts","type":"address[]","internalType":"address[]"},{"name":"ids","type":"uint256[]","internalType":"uint256[]"}],"outputs":[{"name":"","type":"uint256[]","internalType":"uint256[]"}],"stateMutability":"view"},{"type":"function","name":"collect","inputs":[{"name":"_articleId","type":"uint256","internalType":"uint256"},{"name":"_referrer","type":"address","internalType":"address"}],"outputs":[],"stateMutability":"payable"},{"type":"function","name":"collectWithSessionKey","inputs":[{"name":"owner","type":"address","internalType":"address"},{"name":"sessionKey","type":"address","internalType":"address"},{"name":"_articleId","type":"uint256","internalType":"uint256"},{"name":"_referrer","type":"address","internalType":"address"},{"name":"deadline","type":"uint256","internalType":"uint256"},{"name":"signature","type":"bytes","internalType":"bytes"}],"outputs":[],"stateMutability":"payable"},{"type":"function","name":"editArticle","inputs":[{"name":"params","type":"tuple","internalType":"struct BlogHub.EditArticleParams","components":[{"name":"articleId","type":"uint256","internalType":"uint256"},{"name":"originalAuthor","type":"string","internalType":"string"},{"name":"title","type":"string","internalType":"string"},{"name":"summary","type":"string","internalType":"string"},{"name":"categoryId","type":"uint16","internalType":"uint16"}]}],"outputs":[],"stateMutability":"nonpayable"},{"type":"function","name":"editArticleWithSessionKey","inputs":[{"name":"owner","type":"address","internalType":"address"},{"name":"sessionKey","type":"address","internalType":"address"},{"name":"params","type":"tuple","internalType":"struct BlogHub.EditArticleParams","components":[{"name":"articleId","type":"uint256","internalType":"uint256"},{"name":"originalAuthor","type":"string","internalType":"string"},{"name":"title","type":"string","internalType":"string"},{"name":"summary","type":"string","internalType":"string"},{"name":"categoryId","type":"uint16","internalType":"uint16"}]},{"name":"deadline","type":"uint256","internalType":"uint256"},{"name":"signature","type":"bytes","internalType":"bytes"}],"outputs":[],"stateMutability":"nonpayable"},{"type":"function","name":"evaluate","inputs":[{"name":"_articleId","type":"uint256","internalType":"uint256"},{"name":"_score","type":"uint8","internalType":"uint8"},{"name":"_content","type":"string","internalType":"string"},{"name":"_referrer","type":"address","internalType":"address"},{"name":"_parentCommentId","type":"uint256","internalType":"uint256"}],"outputs":[],"stateMutability":"payable"},{"type":"function","name":"evaluateWithSessionKey","inputs":[{"name":"owner","type":"address","internalType":"address"},{"name":"sessionKey","type":"address","internalType":"address"},{"name":"_articleId","type":"uint256","internalType":"uint256"},{"name":"_score","type":"uint8","internalType":"uint8"},{"name":"_content","type":"string","internalType":"string"},{"name":"_referrer","type":"address","internalType":"address"},{"name":"_parentCommentId","type":"uint256","internalType":"uint256"},{"name":"deadline","type":"uint256","internalType":"uint256"},{"name":"signature","type":"bytes","internalType":"bytes"}],"outputs":[],"stateMutability":"payable"},{"type":"function","name":"follow","inputs":[{"name":"_target","type":"address","internalType":"address"},{"name":"_status","type":"bool","internalType":"bool"}],"outputs":[],"stateMutability":"nonpayable"},{"type":"function","name":"followWithSessionKey","inputs":[{"name":"owner","type":"address","internalType":"address"},{"name":"sessionKey","type":"address","internalType":"address"},{"name":"_target","type":"address","internalType":"address"},{"name":"_status","type":"bool","internalType":"bool"},{"name":"deadline","type":"uint256","internalType":"uint256"},{"name":"signature","type":"bytes","internalType":"bytes"}],"outputs":[],"stateMutability":"nonpayable"},{"type":"function","name":"getArticleByArweaveId","inputs":[{"name":"_arweaveId","type":"string","internalType":"string"}],"outputs":[{"name":"","type":"tuple","internalType":"struct BlogHub.Article","components":[{"name":"author","type":"address","internalType":"address"},{"name":"timestamp","type":"uint64","internalType":"uint64"},{"name":"categoryId","type":"uint16","internalType":"uint16"},{"name":"originality","type":"uint8","internalType":"enum BlogHub.Originality"},{"name":"collectPrice","type":"uint96","internalType":"uint96"},{"name":"maxCollectSupply","type":"uint32","internalType":"uint32"},{"name":"collectCount","type":"uint32","internalType":"uint32"},{"name":"arweaveHash","type":"string","internalType":"string"}]}],"stateMutability":"view"},{"type":"function","name":"getArticleIdByArweaveId","inputs":[{"name":"_arweaveId","type":"string","internalType":"string"}],"outputs":[{"name":"","type":"uint256","internalType":"uint256"}],"stateMutability":"view"},{"type":"function","name":"getRoleAdmin","inputs":[{"name":"role","type":"bytes32","internalType":"bytes32"}],"outputs":[{"name":"","type":"bytes32","internalType":"bytes32"}],"stateMutability":"view"},{"type":"function","name":"grantRole","inputs":[{"name":"role","type":"bytes32","internalType":"bytes32"},{"name":"account","type":"address","internalType":"address"}],"outputs":[],"stateMutability":"nonpayable"},{"type":"function","name":"hasRole","inputs":[{"name":"role","type":"bytes32","internalType":"bytes32"},{"name":"account","type":"address","internalType":"address"}],"outputs":[{"name":"","type":"bool","internalType":"bool"}],"stateMutability":"view"},{"type":"function","name":"initialize","inputs":[{"name":"_initialOwner","type":"address","internalType":"address"},{"name":"_treasury","type":"address","internalType":"address"}],"outputs":[],"stateMutability":"nonpayable"},{"type":"function","name":"isApprovedForAll","inputs":[{"name":"account","type":"address","internalType":"address"},{"name":"operator","type":"address","internalType":"address"}],"outputs":[{"name":"","type":"bool","internalType":"bool"}],"stateMutability":"view"},{"type":"function","name":"likeComment","inputs":[{"name":"_articleId","type":"uint256","internalType":"uint256"},{"name":"_commentId","type":"uint256","internalType":"uint256"},{"name":"_commenter","type":"address","internalType":"address"},{"name":"_referrer","type":"address","internalType":"address"}],"outputs":[],"stateMutability":"payable"},{"type":"function","name":"likeCommentWithSessionKey","inputs":[{"name":"owner","type":"address","internalType":"address"},{"name":"sessionKey","type":"address","internalType":"address"},{"name":"_articleId","type":"uint256","internalType":"uint256"},{"name":"_commentId","type":"uint256","internalType":"uint256"},{"name":"_commenter","type":"address","internalType":"address"},{"name":"_referrer","type":"address","internalType":"address"},{"name":"deadline","type":"uint256","internalType":"uint256"},{"name":"signature","type":"bytes","internalType":"bytes"}],"outputs":[],"stateMutability":"payable"},{"type":"function","name":"minActionValue","inputs":[],"outputs":[{"name":"","type":"uint256","internalType":"uint256"}],"stateMutability":"view"},{"type":"function","name":"multicall","inputs":[{"name":"data","type":"bytes[]","internalType":"bytes[]"}],"outputs":[{"name":"results","type":"bytes[]","internalType":"bytes[]"}],"stateMutability":"nonpayable"},{"type":"function","name":"nextArticleId","inputs":[],"outputs":[{"name":"","type":"uint256","internalType":"uint256"}],"stateMutability":"view"},{"type":"function","name":"pause","inputs":[],"outputs":[],"stateMutability":"nonpayable"},{"type":"function","name":"paused","inputs":[],"outputs":[{"name":"","type":"bool","internalType":"bool"}],"stateMutability":"view"},{"type":"function","name":"platformFeeBps","inputs":[],"outputs":[{"name":"","type":"uint96","internalType":"uint96"}],"stateMutability":"view"},{"type":"function","name":"platformTreasury","inputs":[],"outputs":[{"name":"","type":"address","internalType":"address"}],"stateMutability":"view"},{"type":"function","name":"proxiableUUID","inputs":[],"outputs":[{"name":"","type":"bytes32","internalType":"bytes32"}],"stateMutability":"view"},{"type":"function","name":"publish","inputs":[{"name":"params","type":"tuple","internalType":"struct BlogHub.PublishParams","components":[{"name":"arweaveId","type":"string","internalType":"string"},{"name":"categoryId","type":"uint16","internalType":"uint16"},{"name":"royaltyBps","type":"uint96","internalType":"uint96"},{"name":"originalAuthor","type":"string","internalType":"string"},{"name":"title","type":"string","internalType":"string"},{"name":"summary","type":"string","internalType":"string"},{"name":"trueAuthor","type":"address","internalType":"address"},{"name":"collectPrice","type":"uint96","internalType":"uint96"},{"name":"maxCollectSupply","type":"uint32","internalType":"uint32"},{"name":"originality","type":"uint8","internalType":"enum BlogHub.Originality"}]}],"outputs":[{"name":"","type":"uint256","internalType":"uint256"}],"stateMutability":"nonpayable"},{"type":"function","name":"publishWithSessionKey","inputs":[{"name":"owner","type":"address","internalType":"address"},{"name":"sessionKey","type":"address","internalType":"address"},{"name":"params","type":"tuple","internalType":"struct BlogHub.PublishParams","components":[{"name":"arweaveId","type":"string","internalType":"string"},{"name":"categoryId","type":"uint16","internalType":"uint16"},{"name":"royaltyBps","type":"uint96","internalType":"uint96"},{"name":"originalAuthor","type":"string","internalType":"string"},{"name":"title","type":"string","internalType":"string"},{"name":"summary","type":"string","internalType":"string"},{"name":"trueAuthor","type":"address","internalType":"address"},{"name":"collectPrice","type":"uint96","internalType":"uint96"},{"name":"maxCollectSupply","type":"uint32","internalType":"uint32"},{"name":"originality","type":"uint8","internalType":"enum BlogHub.Originality"}]},{"name":"deadline","type":"uint256","internalType":"uint256"},{"name":"signature","type":"bytes","internalType":"bytes"}],"outputs":[{"name":"","type":"uint256","internalType":"uint256"}],"stateMutability":"nonpayable"},{"type":"function","name":"renounceRole","inputs":[{"name":"role","type":"bytes32","internalType":"bytes32"},{"name":"callerConfirmation","type":"address","internalType":"address"}],"outputs":[],"stateMutability":"nonpayable"},{"type":"function","name":"revokeRole","inputs":[{"name":"role","type":"bytes32","internalType":"bytes32"},{"name":"account","type":"address","internalType":"address"}],"outputs":[],"stateMutability":"nonpayable"},{"type":"function","name":"royaltyInfo","inputs":[{"name":"tokenId","type":"uint256","internalType":"uint256"},{"name":"salePrice","type":"uint256","internalType":"uint256"}],"outputs":[{"name":"receiver","type":"address","internalType":"address"},{"name":"amount","type":"uint256","internalType":"uint256"}],"stateMutability":"view"},{"type":"function","name":"safeBatchTransferFrom","inputs":[{"name":"from","type":"address","internalType":"address"},{"name":"to","type":"address","internalType":"address"},{"name":"ids","type":"uint256[]","internalType":"uint256[]"},{"name":"values","type":"uint256[]","internalType":"uint256[]"},{"name":"data","type":"bytes","internalType":"bytes"}],"outputs":[],"stateMutability":"nonpayable"},{"type":"function","name":"safeTransferFrom","inputs":[{"name":"from","type":"address","internalType":"address"},{"name":"to","type":"address","internalType":"address"},{"name":"id","type":"uint256","internalType":"uint256"},{"name":"value","type":"uint256","internalType":"uint256"},{"name":"data","type":"bytes","internalType":"bytes"}],"outputs":[],"stateMutability":"nonpayable"},{"type":"function","name":"sessionKeyManager","inputs":[],"outputs":[{"name":"","type":"address","internalType":"contract ISessionKeyManager"}],"stateMutability":"view"},{"type":"function","name":"setApprovalForAll","inputs":[{"name":"operator","type":"address","internalType":"address"},{"name":"approved","type":"bool","internalType":"bool"}],"outputs":[],"stateMutability":"nonpayable"},{"type":"function","name":"setMinActionValue","inputs":[{"name":"_minActionValue","type":"uint256","internalType":"uint256"}],"outputs":[],"stateMutability":"nonpayable"},{"type":"function","name":"setPlatformFee","inputs":[{"name":"_feeBps","type":"uint96","internalType":"uint96"}],"outputs":[],"stateMutability":"nonpayable"},{"type":"function","name":"setPlatformTreasury","inputs":[{"name":"_treasury","type":"address","internalType":"address"}],"outputs":[],"stateMutability":"nonpayable"},{"type":"function","name":"setSessionKeyManager","inputs":[{"name":"_sessionKeyManager","type":"address","internalType":"address"}],"outputs":[],"stateMutability":"nonpayable"},{"type":"function","name":"supportsInterface","inputs":[{"name":"interfaceId","type":"bytes4","internalType":"bytes4"}],"outputs":[{"name":"","type":"bool","internalType":"bool"}],"stateMutability":"view"},{"type":"function","name":"unpause","inputs":[],"outputs":[],"stateMutability":"nonpayable"},{"type":"function","name":"updateProfile","inputs":[{"name":"_nickname","type":"string","internalType":"string"},{"name":"_avatar","type":"string","internalType":"string"},{"name":"_bio","type":"string","internalType":"string"}],"outputs":[],"stateMutability":"nonpayable"},{"type":"function","name":"upgradeToAndCall","inputs":[{"name":"newImplementation","type":"address","internalType":"address"},{"name":"data","type":"bytes","internalType":"bytes"}],"outputs":[],"stateMutability":"payable"},{"type":"function","name":"uri","inputs":[{"name":"_id","type":"uint256","internalType":"uint256"}],"outputs":[{"name":"","type":"string","internalType":"string"}],"stateMutability":"view"},{"type":"event","name":"ApprovalForAll","inputs":[{"name":"account","type":"address","indexed":true,"internalType":"address"},{"name":"operator","type":"address","indexed":true,"internalType":"address"},{"name":"approved","type":"bool","indexed":false,"internalType":"bool"}],"anonymous":false},{"type":"event","name":"ArticleCollected","inputs":[{"name":"articleId","type":"uint256","indexed":true,"internalType":"uint256"},{"name":"collector","type":"address","indexed":true,"internalType":"address"},{"name":"amount","type":"uint256","indexed":false,"internalType":"uint256"},{"name":"tokenId","type":"uint256","indexed":false,"internalType":"uint256"}],"anonymous":false},{"type":"event","name":"ArticleEdited","inputs":[{"name":"articleId","type":"uint256","indexed":true,"internalType":"uint256"},{"name":"originalAuthor","type":"string","indexed":false,"internalType":"string"},{"name":"title","type":"string","indexed":false,"internalType":"string"},{"name":"summary","type":"string","indexed":false,"internalType":"string"},{"name":"categoryId","type":"uint16","indexed":false,"internalType":"uint16"}],"anonymous":false},{"type":"event","name":"ArticleEvaluated","inputs":[{"name":"articleId","type":"uint256","indexed":true,"internalType":"uint256"},{"name":"user","type":"address","indexed":true,"internalType":"address"},{"name":"score","type":"uint8","indexed":false,"internalType":"uint8"},{"name":"amountPaid","type":"uint256","indexed":false,"internalType":"uint256"}],"anonymous":false},{"type":"event","name":"ArticlePublished","inputs":[{"name":"articleId","type":"uint256","indexed":true,"internalType":"uint256"},{"name":"author","type":"address","indexed":true,"internalType":"address"},{"name":"categoryId","type":"uint16","indexed":true,"internalType":"uint16"},{"name":"arweaveId","type":"string","indexed":false,"internalType":"string"},{"name":"originalAuthor","type":"string","indexed":false,"internalType":"string"},{"name":"title","type":"string","indexed":false,"internalType":"string"},{"name":"summary","type":"string","indexed":false,"internalType":"string"},{"name":"collectPrice","type":"uint96","indexed":false,"internalType":"uint96"},{"name":"maxCollectSupply","type":"uint32","indexed":false,"internalType":"uint32"},{"name":"originality","type":"uint8","indexed":false,"internalType":"enum BlogHub.Originality"}],"anonymous":false},{"type":"event","name":"CommentAdded","inputs":[{"name":"articleId","type":"uint256","indexed":true,"internalType":"uint256"},{"name":"commenter","type":"address","indexed":true,"internalType":"address"},{"name":"content","type":"string","indexed":false,"internalType":"string"},{"name":"parentCommentId","type":"uint256","indexed":false,"internalType":"uint256"},{"name":"score","type":"uint8","indexed":false,"internalType":"uint8"}],"anonymous":false},{"type":"event","name":"CommentLiked","inputs":[{"name":"articleId","type":"uint256","indexed":true,"internalType":"uint256"},{"name":"commentId","type":"uint256","indexed":true,"internalType":"uint256"},{"name":"liker","type":"address","indexed":true,"internalType":"address"},{"name":"commenter","type":"address","indexed":false,"internalType":"address"},{"name":"amountPaid","type":"uint256","indexed":false,"internalType":"uint256"}],"anonymous":false},{"type":"event","name":"FollowStatusChanged","inputs":[{"name":"follower","type":"address","indexed":true,"internalType":"address"},{"name":"target","type":"address","indexed":true,"internalType":"address"},{"name":"isFollowing","type":"bool","indexed":false,"internalType":"bool"}],"anonymous":false},{"type":"event","name":"Initialized","inputs":[{"name":"version","type":"uint64","indexed":false,"internalType":"uint64"}],"anonymous":false},{"type":"event","name":"MinActionValueUpdated","inputs":[{"name":"newValue","type":"uint256","indexed":false,"internalType":"uint256"}],"anonymous":false},{"type":"event","name":"Paused","inputs":[{"name":"account","type":"address","indexed":false,"internalType":"address"}],"anonymous":false},{"type":"event","name":"PlatformFeeUpdated","inputs":[{"name":"newFeeBps","type":"uint96","indexed":false,"internalType":"uint96"}],"anonymous":false},{"type":"event","name":"ReferralPaid","inputs":[{"name":"referrer","type":"address","indexed":true,"internalType":"address"},{"name":"amount","type":"uint256","indexed":false,"internalType":"uint256"}],"anonymous":false},{"type":"event","name":"RoleAdminChanged","inputs":[{"name":"role","type":"bytes32","indexed":true,"internalType":"bytes32"},{"name":"previousAdminRole","type":"bytes32","indexed":true,"internalType":"bytes32"},{"name":"newAdminRole","type":"bytes32","indexed":true,"internalType":"bytes32"}],"anonymous":false},{"type":"event","name":"RoleGranted","inputs":[{"name":"role","type":"bytes32","indexed":true,"internalType":"bytes32"},{"name":"account","type":"address","indexed":true,"internalType":"address"},{"name":"sender","type":"address","indexed":true,"internalType":"address"}],"anonymous":false},{"type":"event","name":"RoleRevoked","inputs":[{"name":"role","type":"bytes32","indexed":true,"internalType":"bytes32"},{"name":"account","type":"address","indexed":true,"internalType":"address"},{"name":"sender","type":"address","indexed":true,"internalType":"address"}],"anonymous":false},{"type":"event","name":"SessionKeyManagerUpdated","inputs":[{"name":"newManager","type":"address","indexed":true,"internalType":"address"}],"anonymous":false},{"type":"event","name":"SessionKeyOperationExecuted","inputs":[{"name":"owner","type":"address","indexed":true,"internalType":"address"},{"name":"sessionKey","type":"address","indexed":true,"internalType":"address"},{"name":"selector","type":"bytes4","indexed":false,"internalType":"bytes4"}],"anonymous":false},{"type":"event","name":"TransferBatch","inputs":[{"name":"operator","type":"address","indexed":true,"internalType":"address"},{"name":"from","type":"address","indexed":true,"internalType":"address"},{"name":"to","type":"address","indexed":true,"internalType":"address"},{"name":"ids","type":"uint256[]","indexed":false,"internalType":"uint256[]"},{"name":"values","type":"uint256[]","indexed":false,"internalType":"uint256[]"}],"anonymous":false},{"type":"event","name":"TransferSingle","inputs":[{"name":"operator","type":"address","indexed":true,"internalType":"address"},{"name":"from","type":"address","indexed":true,"internalType":"address"},{"name":"to","type":"address","indexed":true,"internalType":"address"},{"name":"id","type":"uint256","indexed":false,"internalType":"uint256"},{"name":"value","type":"uint256","indexed":false,"internalType":"uint256"}],"anonymous":false},{"type":"event","name":"TreasuryUpdated","inputs":[{"name":"newTreasury","type":"address","indexed":false,"internalType":"address"}],"anonymous":false},{"type":"event","name":"URI","inputs":[{"name":"value","type":"string","indexed":false,"internalType":"string"},{"name":"id","type":"uint256","indexed":true,"internalType":"uint256"}],"anonymous":false},{"type":"event","name":"Unpaused","inputs":[{"name":"account","type":"address","indexed":false,"internalType":"address"}],"anonymous":false},{"type":"event","name":"Upgraded","inputs":[{"name":"implementation","type":"address","indexed":true,"internalType":"address"}],"anonymous":false},{"type":"event","name":"UserProfileUpdated","inputs":[{"name":"user","type":"address","indexed":true,"internalType":"address"},{"name":"nickname","type":"string","indexed":false,"internalType":"string"},{"name":"avatar","type":"string","indexed":false,"internalType":"string"},{"name":"bio","type":"string","indexed":false,"internalType":"string"}],"anonymous":false},{"type":"error","name":"AccessControlBadConfirmation","inputs":[]},{"type":"error","name":"AccessControlUnauthorizedAccount","inputs":[{"name":"account","type":"address","internalType":"address"},{"name":"neededRole","type":"bytes32","internalType":"bytes32"}]},{"type":"error","name":"AddressEmptyCode","inputs":[{"name":"target","type":"address","internalType":"address"}]},{"type":"error","name":"ArticleNotFound","inputs":[]},{"type":"error","name":"CollectNotEnabled","inputs":[]},{"type":"error","name":"ContentRequiredForScore","inputs":[]},{"type":"error","name":"ERC1155InsufficientBalance","inputs":[{"name":"sender","type":"address","internalType":"address"},{"name":"balance","type":"uint256","internalType":"uint256"},{"name":"needed","type":"uint256","internalType":"uint256"},{"name":"tokenId","type":"uint256","internalType":"uint256"}]},{"type":"error","name":"ERC1155InvalidApprover","inputs":[{"name":"approver","type":"address","internalType":"address"}]},{"type":"error","name":"ERC1155InvalidArrayLength","inputs":[{"name":"idsLength","type":"uint256","internalType":"uint256"},{"name":"valuesLength","type":"uint256","internalType":"uint256"}]},{"type":"error","name":"ERC1155InvalidOperator","inputs":[{"name":"operator","type":"address","internalType":"address"}]},{"type":"error","name":"ERC1155InvalidReceiver","inputs":[{"name":"receiver","type":"address","internalType":"address"}]},{"type":"error","name":"ERC1155InvalidSender","inputs":[{"name":"sender","type":"address","internalType":"address"}]},{"type":"error","name":"ERC1155MissingApprovalForAll","inputs":[{"name":"operator","type":"address","internalType":"address"},{"name":"owner","type":"address","internalType":"address"}]},{"type":"error","name":"ERC1967InvalidImplementation","inputs":[{"name":"implementation","type":"address","internalType":"address"}]},{"type":"error","name":"ERC1967NonPayable","inputs":[]},{"type":"error","name":"ERC2981InvalidDefaultRoyalty","inputs":[{"name":"numerator","type":"uint256","internalType":"uint256"},{"name":"denominator","type":"uint256","internalType":"uint256"}]},{"type":"error","name":"ERC2981InvalidDefaultRoyaltyReceiver","inputs":[{"name":"receiver","type":"address","internalType":"address"}]},{"type":"error","name":"ERC2981InvalidTokenRoyalty","inputs":[{"name":"tokenId","type":"uint256","internalType":"uint256"},{"name":"numerator","type":"uint256","internalType":"uint256"},{"name":"denominator","type":"uint256","internalType":"uint256"}]},{"type":"error","name":"ERC2981InvalidTokenRoyaltyReceiver","inputs":[{"name":"tokenId","type":"uint256","internalType":"uint256"},{"name":"receiver","type":"address","internalType":"address"}]},{"type":"error","name":"EnforcedPause","inputs":[]},{"type":"error","name":"ExpectedPause","inputs":[]},{"type":"error","name":"FailedCall","inputs":[]},{"type":"error","name":"FeeTooHigh","inputs":[]},{"type":"error","name":"InsufficientPayment","inputs":[]},{"type":"error","name":"InvalidAddress","inputs":[]},{"type":"error","name":"InvalidCommenter","inputs":[]},{"type":"error","name":"InvalidInitialization","inputs":[]},{"type":"error","name":"InvalidLength","inputs":[]},{"type":"error","name":"InvalidScore","inputs":[]},{"type":"error","name":"MaxSupplyReached","inputs":[]},{"type":"error","name":"NotArticleAuthor","inputs":[]},{"type":"error","name":"NotInitializing","inputs":[]},{"type":"error","name":"OriginalAuthorTooLong","inputs":[]},{"type":"error","name":"ReentrancyGuardReentrantCall","inputs":[]},{"type":"error","name":"RoyaltyTooHigh","inputs":[]},{"type":"error","name":"SessionKeyManagerNotSet","inputs":[]},{"type":"error","name":"SessionKeyValidationFailed","inputs":[]},{"type":"error","name":"SpamProtection","inputs":[]},{"type":"error","name":"SummaryTooLong","inputs":[]},{"type":"error","name":"TitleTooLong","inputs":[]},{"type":"error","name":"TransferFailed","inputs":[]},{"type":"error","name":"UUPSUnauthorizedCallContext","inputs":[]},{"type":"error","name":"UUPSUnsupportedProxiableUUID","inputs":[{"name":"slot","type":"bytes32","internalType":"bytes32"}]}],"bytecode":{"object":"0x60a080604052346100e65760017f9b779b17422d0df92223018b32b4d1fa46e071723d6817e2486d003becc55f0055306080525f516020614da05f395f51905f525460ff8160401c166100d7576002600160401b03196001600160401b03821601610084575b604051614cb590816100eb823960805181818161105501526111c90152f35b6001600160401b0319166001600160401b039081175f516020614da05f395f51905f525581527fc7f505b2f371ae2175ee4913f4499e1f2633a7b5936321eed1cdaeb6115181d290602090a15f80610065565b63f92ee8a960e01b5f5260045ffd5b5f80fdfe60806040526004361015610011575f80fd5b5f3560e01c8062fdd58e146103d457806301ffc9a7146103cf5780630b826190146103ca5780630e89341c146103c55780631105a5eb146103c057806319e94a6e146102da5780631fe9d578146103a257806321a25d60146103bb57806322dcd13e146103b6578063248a9ca3146103b15780632a55205a146103ac5780632eb2c2d6146103a75780632ef9a160146103a25780632f2ff15d1461039d57806336568abe146103985780633f4ba83a14610393578063461e23781461038e578063473106b214610311578063485cc955146103895780634b65f344146103845780634e1273f41461037f5780634f1ef2861461037a57806352cbd3be1461037557806352d1902d14610370578063544b5e611461036b57806356f5f3bb146103665780635780400b146103615780635856e4fa1461035c5780635c975abb1461035757806363c3cc161461035257806363c4ea4d1461034d578063795146ef1461034857806379c61f28146103435780637cd86d601461033e578063837fa3fd146103395780638456cb591461033457806385c3ab541461032f5780638cbd215e1461032a5780638d3c100a146103255780638f8b1c901461032057806391d148541461031b578063989cfb5714610316578063a217fddf14610311578063a22cb4651461030c578063ac9650d814610307578063ad3cb1cc14610302578063b055d7aa146102fd578063c477d7f7146102f8578063d547741f146102f3578063dffd40f2146102ee578063e138818c146102e9578063e1d90b34146102e4578063e63ab1e9146102df578063e8f100bf146102da578063e985e9c5146102d5578063edcfafe6146102d0578063f242432a146102cb578063f72c0d8b146102c6578063f99e5dbb146102c1578063fde84719146102bc5763ff1f090a146102b7575f80fd5b6123ba565b61239f565b61231a565b6122c4565b6121c8565b61213f565b611fe0565b6107e7565b611fa6565b611f8b565b611f6b565b611f25565b611ed8565b611ebc565b611e4e565b611df5565b611d75565b611c84565b610d26565b611bf8565b611ada565b611965565b61191c565b6118ff565b6118e3565b611872565b611806565b611775565b611639565b61153c565b6114aa565b611457565b611404565b6113e8565b6112c0565b61122a565b61120e565b6111b7565b61116b565b611013565b610f52565b610ef5565b610d65565b610ce5565b610c59565b610c11565b610bbf565b610802565b610b2b565b610918565b6108e1565b6108bb565b61082c565b6106df565b610576565b610516565b610473565b610408565b6001600160a01b038116036103ea57565b5f80fd5b60a435906103fb826103d9565b565b35906103fb826103d9565b346103ea5760403660031901126103ea57602061045860043561042a816103d9565b6024355f525f516020614bc05f395f51905f52835260405f209060018060a01b03165f5260205260405f2090565b54604051908152f35b6001600160e01b03198116036103ea57565b346103ea5760203660031901126103ea5760043561049081610461565b63ffffffff60e01b16637965db0b60e01b81149081156104b9575b506040519015158152602090f35b63152a902d60e11b8114915081156104d3575b505f6104ab565b636cdb3d1360e11b811491508115610505575b81156104f4575b505f6104cc565b6301ffc9a760e01b1490505f6104ed565b6303a24d0760e21b811491506104e6565b346103ea575f3660031901126103ea576004546040516001600160a01b039091168152602090f35b805180835260209291819084018484015e5f828201840152601f01601f1916010190565b90602061057392818152019061053e565b90565b346103ea5760203660031901126103ea57600435801580156106a7575b610698575f526002602052600260405f20016040517f68747470733a2f2f676174657761792e697279732e78797a2f6d757461626c656020820152602f60f81b60408201525f918054906105e682611fff565b91600181169081156106715750600114610635575b680bda5b99195e0b9b5960ba1b84526106318361062581600988015b03601f198101835282610a1a565b60405191829182610562565b0390f35b9092505f5260205f205f905b83821061065a57505090810160410190610625816105fb565b600181602092546041858701015201910190610641565b60ff19166041808601919091528315159093028401909201935061062591508290506105fb565b63522e582d60e11b5f5260045ffd5b505f54811015610593565b9181601f840112156103ea578235916001600160401b0383116103ea57602083818601950101116103ea57565b346103ea5760603660031901126103ea576004356001600160401b0381116103ea5761070f9036906004016106b2565b906024356001600160401b0381116103ea5761072f9036906004016106b2565b9190926044356001600160401b0381116103ea576107519036906004016106b2565b61075c959195612d6d565b604083116107d857608085116107d85761010081116107d8576107c36107d3927f198eb8de772c5a42c31d10ea779636d74f5a7cd2633012f88632697fae910db4966107b560405197889760608952606089019161248e565b91868303602088015261248e565b908382036040850152339661248e565b0390a2005b63251f56a160e21b5f5260045ffd5b346103ea575f3660031901126103ea57602060405160408152f35b346103ea575f3660031901126103ea57602060405160808152f35b90816101409103126103ea5790565b346103ea5760203660031901126103ea576004356001600160401b0381116103ea576108b3610861602092369060040161081d565b610869612d6d565b6108ad604082013561087a816122fe565b61088760608401846124b8565b61089760808694939401866124b8565b916108a560a08801886124b8565b959094612d94565b33613117565b604051908152f35b346103ea575f3660031901126103ea5760206001600160601b0360015416604051908152f35b346103ea5760203660031901126103ea5760206108b36004355f525f516020614be05f395f51905f52602052600160405f20015490565b346103ea5760403660031901126103ea576004355f9081527fdaedc9ab023613a7caf35e703657e986ccfad7e3eb0af93a2853f8d65dd86b0160205260409020546001600160a01b038116906024359060a01c82156109ae575b610991916001600160601b036109899216906124fe565b612710900490565b604080516001600160a01b03939093168352602083019190915290f35b507fdaedc9ab023613a7caf35e703657e986ccfad7e3eb0af93a2853f8d65dd86b00546001600160a01b038116925060a01c610972565b634e487b7160e01b5f52604160045260245ffd5b61010081019081106001600160401b03821117610a1557604052565b6109e5565b90601f801991011681019081106001600160401b03821117610a1557604052565b604051906103fb61010083610a1a565b6001600160401b038111610a155760051b60200190565b9080601f830112156103ea578135610a7981610a4b565b92610a876040519485610a1a565b81845260208085019260051b8201019283116103ea57602001905b828210610aaf5750505090565b8135815260209182019101610aa2565b6001600160401b038111610a1557601f01601f191660200190565b929192610ae682610abf565b91610af46040519384610a1a565b8294818452818301116103ea578281602093845f960137010152565b9080601f830112156103ea5781602061057393359101610ada565b346103ea5760a03660031901126103ea57600435610b48816103d9565b60243590610b55826103d9565b6044356001600160401b0381116103ea57610b74903690600401610a62565b6064356001600160401b0381116103ea57610b93903690600401610a62565b90608435936001600160401b0385116103ea57610bb7610bbd953690600401610b10565b93612516565b005b346103ea5760403660031901126103ea57610bbd602435600435610be2826103d9565b610c0c610c07825f525f516020614be05f395f51905f52602052600160405f20015490565b61343b565b61369f565b346103ea5760403660031901126103ea57600435602435610c31816103d9565b336001600160a01b03821603610c4a57610bbd91613734565b63334bd91960e11b5f5260045ffd5b346103ea575f3660031901126103ea57610c7161330e565b5f516020614c005f395f51905f525460ff811615610cc85760ff19165f516020614c005f395f51905f52557f5db9ee0a495bf2e6ff9c91a7834c1ba4fdd244a5e8aa4e537bd38aeae4b073aa6020604051338152a1005b638dfc202b60e01b5f5260045ffd5b908160a09103126103ea5790565b346103ea5760203660031901126103ea576004356001600160401b0381116103ea57610d18610bbd913690600401610cd7565b610d20612d6d565b3361381d565b346103ea575f3660031901126103ea5760206040515f8152f35b60409060031901126103ea57600435610d58816103d9565b90602435610573816103d9565b346103ea57610d7336610d40565b5f516020614c405f395f51905f525491906001600160401b03610da560ff604086901c1615946001600160401b031690565b1680159081610ebf575b6001149081610eb5575b159081610eac575b50610e9d57610e049183610dfb60016001600160401b03195f516020614c405f395f51905f525416175f516020614c405f395f51905f5255565b610e6357612567565b610e0a57005b610e3460ff60401b195f516020614c405f395f51905f5254165f516020614c405f395f51905f5255565b604051600181527fc7f505b2f371ae2175ee4913f4499e1f2633a7b5936321eed1cdaeb6115181d290602090a1005b610e986801000000000000000060ff60401b195f516020614c405f395f51905f525416175f516020614c405f395f51905f5255565b612567565b63f92ee8a960e01b5f5260045ffd5b9050155f610dc1565b303b159150610db9565b849150610daf565b60206003198201126103ea57600435906001600160401b0382116103ea57610ef1916004016106b2565b9091565b346103ea576020610458610f0836610ec7565b90612746565b90602080835192838152019201905f5b818110610f2b5750505090565b8251845260209384019390920191600101610f1e565b906020610573928181520190610f0e565b346103ea5760403660031901126103ea576004356001600160401b0381116103ea57366023820112156103ea57806004013590610f8e82610a4b565b91610f9c6040519384610a1a565b8083526024602084019160051b830101913683116103ea57602401905b828210610ff957836024356001600160401b0381116103ea5761063191610fe7610fed923690600401610a62565b9061278c565b60405191829182610f41565b602080918335611008816103d9565b815201910190610fb9565b60403660031901126103ea5760043561102b816103d9565b6024356001600160401b0381116103ea5761104a903690600401610b10565b906001600160a01b037f000000000000000000000000000000000000000000000000000000000000000016308114908115611149575b5061113a5761108d61337d565b6040516352d1902d60e01b8152916020836004816001600160a01b0386165afa5f9381611109575b506110d657634c9c8ce360e01b5f526001600160a01b03821660045260245ffd5b905f516020614b805f395f51905f5283036110f557610bbd925061465d565b632a87526960e21b5f52600483905260245ffd5b61112c91945060203d602011611133575b6111248183610a1a565b8101906139ae565b925f6110b5565b503d61111a565b63703e46dd60e11b5f5260045ffd5b5f516020614b805f395f51905f52546001600160a01b0316141590505f611080565b346103ea5760203660031901126103ea577ffcae2461302da2a86e3604d10afc558dc160d49eb88bc010c4bca093793857ff60206004356111aa6133ec565b80600555604051908152a1005b346103ea575f3660031901126103ea577f00000000000000000000000000000000000000000000000000000000000000006001600160a01b0316300361113a5760206040515f516020614b805f395f51905f528152f35b346103ea575f3660031901126103ea5760206040516102008152f35b346103ea5760a03660031901126103ea57600435611247816103d9565b60243590611254826103d9565b6044356001600160401b0381116103ea5761127390369060040161081d565b91608435916064356001600160401b0384116103ea576106319461129e6112a69536906004016106b2565b949093612821565b6040519081529081906020820190565b801515036103ea57565b346103ea5760c03660031901126103ea576004356112dd816103d9565b602435906112ea826103d9565b6044356112f6816103d9565b60643590611303826112b6565b60843560a435936001600160401b0385116103ea576113a27f75a1fc5e2239f53dc8407b3712c878c5893431bc3c349ea3561584869670f7f29261134d60209736906004016106b2565b91611356612d6d565b61135e6139c8565b6040516331e1e60b60e11b8b8201526001600160a01b03909816602489018190529815156044808a01829052895297908b90879061139d606485610a1a565b613a01565b6040519283526001600160a01b0316938492a36040516331e1e60b60e11b81526001600160a01b03909216915f516020614ba05f395f51905f529080602081015b0390a3005b346103ea575f3660031901126103ea5760206040516104008152f35b346103ea575f3660031901126103ea57602060ff5f516020614c005f395f51905f5254166040519015158152f35b60409060031901126103ea5760043561144a816103d9565b90602435610573816112b6565b346103ea5761146536611432565b9061146e612d6d565b60405191151582526001600160a01b03169033907f75a1fc5e2239f53dc8407b3712c878c5893431bc3c349ea3561584869670f7f290602090a3005b6101203660031901126103ea576004356114c3816103d9565b6024356114cf816103d9565b6044359160643560ff811681036103ea576084356001600160401b0381116103ea576114ff9036906004016106b2565b6115076103ee565b9060c4359260e4359461010435986001600160401b038a116103ea57611534610bbd9a36906004016106b2565b999098612a8c565b60c03660031901126103ea57600435611554816103d9565b602435611560816103d9565b60643560443561156f826103d9565b6084359160a4356001600160401b0381116103ea576115f6936115996115ee9236906004016106b2565b916115a2613cfe565b6115aa612d6d565b6115b26139c8565b60405163469e080560e11b6020820152602481018890526001600160a01b03871660448201526115e58160648101610617565b898b3493613ae6565b349185613efb565b60405163469e080560e11b81526001600160a01b0391821692909116905f516020614ba05f395f51905f5290602090a360015f516020614c205f395f51905f5255005b6101003660031901126103ea57600435611652816103d9565b60243561165e816103d9565b606435604435608435611670816103d9565b60a4359061167d826103d9565b60c4359360e4356001600160401b0381116103ea576116a09036906004016106b2565b6116ab969196613cfe565b6116b3612d6d565b34156117665761172096611718926116c96139c8565b604051636ffea07960e11b6020820152602481018a9052604481018790526001600160a01b0388811660648301528916608480830191909152815261170f60a482610a1a565b8b8d3493613c35565b349387614020565b604051636ffea07960e11b81526001600160a01b0391821692909116905f516020614ba05f395f51905f5290602090a3610bbd60015f516020614c205f395f51905f5255565b633f7d56c960e11b5f5260045ffd5b346103ea5760203660031901126103ea57600435611792816103d9565b61179a6133ec565b6001600160a01b0381169081156117f7577f7dae230f18360d76a040c81f050aa14eb9d6dc7901b20fc5d855e2a20fe814d1916117ee6020926001600160601b036001549181199060601b16911617600155565b604051908152a1005b63e6c4247b60e01b5f5260045ffd5b346103ea5760203660031901126103ea57600435611823816103d9565b61182b6133ec565b6001600160a01b031680156117f757600480546001600160a01b031916821790557f4d57218e59793e6845c36a961c3af7acfce8c54b13a697da231466fc265fdb615f80a2005b346103ea575f3660031901126103ea5761188a61330e565b611892612d6d565b600160ff195f516020614c005f395f51905f525416175f516020614c005f395f51905f52557f62e78cea01bee320cd4e420270b5ea74000d11b0c9f74754ebdbfc544b05a2586020604051338152a1005b346103ea575f3660031901126103ea5760205f54604051908152f35b346103ea575f3660031901126103ea576020600554604051908152f35b60403660031901126103ea5761195260043560243561193a816103d9565b611942613cfe565b61194a612d6d565b349133613efb565b60015f516020614c205f395f51905f5255005b346103ea5760a03660031901126103ea57600435611982816103d9565b60243561198e816103d9565b6044356001600160401b0381116103ea576119ad903690600401610cd7565b606435906084356001600160401b0381116103ea57611aa4926119d7611a9e9236906004016106b2565b916119e0612d6d565b6119e86139c8565b8789604051926308c3c46f60e31b60208501526020602485015288356044850152611a9984611a74611a558c611a43611a38611a276020840184612a16565b60a0606489015260e488019161248e565b916040810190612a16565b8583036043190160848701529061248e565b611a6260608e018e612a16565b8483036043190160a48601529061248e565b61ffff60808d0135611a8581612a47565b1660c483015203601f198101865285610a1a565b613c9c565b8361381d565b6040516308c3c46f60e31b81526001600160a01b0391821692909116905f516020614ba05f395f51905f529080602081016113e3565b346103ea5760403660031901126103ea57602060ff611b2c602435600435611b01826103d9565b5f525f516020614be05f395f51905f52845260405f209060018060a01b03165f5260205260405f2090565b54166040519015158152f35b60031115611b4257565b634e487b7160e01b5f52602160045260245ffd5b906003821015611b425752565b602080825282516001600160a01b0316828201528201516001600160401b031660408083019190915282015161ffff166060820152610573916101209060e090611bb560608201516080860190611b56565b60808101516001600160601b031660a085015260a081015163ffffffff1660c085015260c081015163ffffffff168483015201519161010080820152019061053e565b346103ea576020611c0836610ec7565b9190606060e0604051611c1a816109f9565b5f81525f858201525f60408201525f838201525f60808201525f60a08201525f60c082015201528260405193849283378101600381520301902054801561069857611c78611c73610631925f52600260205260405f2090565b612b7b565b60405191829182611b63565b346103ea57611c9236611432565b6001600160a01b038216918215611d0457611cc590611cb033612422565b9060018060a01b03165f5260205260405f2090565b9015159060ff1981541660ff83161790556040519081527f17307eab39ab6107e8899845ad3d59bd9653f200f220920489ca2b5937696c3160203392a3005b62ced3e160e81b5f525f60045260245ffd5b602081016020825282518091526040820191602060408360051b8301019401925f915b838310611d4857505050505090565b9091929394602080611d66600193603f19868203018752895161053e565b97019301930191939290611d39565b346103ea5760203660031901126103ea576004356001600160401b0381116103ea57366023820112156103ea578060040135906001600160401b0382116103ea573660248360051b830101116103ea57610631916024611dd59201612c9d565b60405191829182611d16565b60405190611df0602083610a1a565b5f8252565b346103ea575f3660031901126103ea57610631604051611e16604082610a1a565b60058152640352e302e360dc1b602082015260405191829160208352602083019061053e565b805191908290602001825e015f815290565b346103ea5760203660031901126103ea576004356001600160401b0381116103ea57366023820112156103ea57611ea36020611e97610631933690602481600401359101610ada565b60405192838092611e3c565b6003815203019020546040519081529081906020820190565b346103ea575f3660031901126103ea5760206040516101008152f35b346103ea5760403660031901126103ea57610bbd602435600435611efb826103d9565b611f20610c07825f525f516020614be05f395f51905f52602052600160405f20015490565b613734565b60803660031901126103ea57611952600435602435604435611f46816103d9565b60643591611f53836103d9565b611f5b613cfe565b611f63612d6d565b349333614020565b346103ea575f3660031901126103ea57602060015460601c604051908152f35b346103ea575f3660031901126103ea57602060405160018152f35b346103ea575f3660031901126103ea5760206040517f65d7a28e3265b37a6474929f336521b332c1681b933f6cb9f3376673440d862a8152f35b346103ea57602060ff611b2c611cb0611ff836610d40565b9190612422565b90600182811c9216801561202d575b602083101461201957565b634e487b7160e01b5f52602260045260245ffd5b91607f169161200e565b9060405191825f82549261204a84611fff565b80845293600181169081156120b3575060011461206f575b506103fb92500383610a1a565b90505f9291925260205f20905f915b8183106120975750509060206103fb928201015f612062565b602091935080600191548385890101520191019091849261207e565b9050602092506103fb94915060ff191682840152151560051b8201015f612062565b946001600160601b039061212063ffffffff9661ffff6105739c9b976001600160401b038a986101009d9860018060a01b03168d521660208c01521660408a01526060890190611b56565b1660808601521660a08401521660c08201528160e0820152019061053e565b346103ea5760203660031901126103ea576004355f52600260205260405f20805490610631612175600260018401549301612037565b604051938363ffffffff869560801c16916001600160601b0363ffffffff8360601c1692169060ff8160f01c169061ffff8160e01c16906001600160401b038160a01c169060018060a01b0316896120d5565b346103ea5760a03660031901126103ea576004356121e5816103d9565b6024356121f1816103d9565b60443590606435926084356001600160401b0381116103ea57612218903690600401610b10565b926001600160a01b03821633811415806122b3575b61229d576001600160a01b0384161561228a571561227857610bbd9461227060405192600184526020840152604083019160018352606084015260808301604052565b929091614435565b626a0d4560e21b5f525f60045260245ffd5b632bfa23e760e11b5f525f60045260245ffd5b63711bec9160e11b5f523360045260245260445ffd5b506122be3384612d59565b1561222d565b346103ea575f3660031901126103ea5760206040517f189ab7a9244df0848122154315af71fe140f3db0fe014031783b0946b8c9d2e38152f35b6001600160601b038116036103ea57565b35906103fb826122fe565b346103ea5760203660031901126103ea576001600160601b0360043561233f816122fe565b6123476133ec565b16610bb88111612390576020817f7cb8fa1ce2fc1ff6556e563c0dcba551db7cdeb3f3b0911243692639ac80e94d926001600160601b03196001541617600155604051908152a1005b63cd4e616760e01b5f5260045ffd5b346103ea575f3660031901126103ea57602060405160028152f35b60a03660031901126103ea5760243560043560ff821682036103ea57604435916001600160401b0383116103ea576123f96119529336906004016106b2565b60643591612406836103d9565b60843593612412613cfe565b61241a612d6d565b349533613d5c565b6001600160a01b03165f9081527f88be536d5240c274a3b1d3a1be54482fd9caa294f08c62a7cde569f49a3c45016020526040902090565b61248a915f525f516020614bc05f395f51905f5260205260405f209060018060a01b03165f5260205260405f2090565b5490565b908060209392818452848401375f828201840152601f01601f1916010190565b35610573816122fe565b903590601e19813603018212156103ea57018035906001600160401b0382116103ea576020019181360383136103ea57565b634e487b7160e01b5f52601160045260245ffd5b8181029291811591840414171561251157565b6124ea565b939291906001600160a01b038516338114158061254f575b61229d576001600160a01b0382161561228a5715612278576103fb94614435565b5060ff61255f33611cb089612422565b54161561252e565b604051929160206125788186610a1a565b5f8552612583614632565b61258b614632565b8451906001600160401b038211610a15576125bc826125b75f516020614c605f395f51905f5254611fff565b612e1f565b602090601f831160011461269f57508161265e93926125f59261267c97985f92612694575b50508160011b915f199060031b1c19161790565b5f516020614c605f395f51905f52555b61260d614632565b612615614632565b61261d614632565b612625614632565b61262e83613481565b506126388361351d565b50612642836135de565b506001600160601b036001549181199060601b16911617600155565b6126776103e86001600160601b03196001541617600155565b61393b565b61268560015f55565b6103fb6512309ce54000600555565b015190505f806125e1565b5f516020614c605f395f51905f525f52601f198316969091907ff429cb5e2ec84cbb765e76b31964a56ccde03e7a6122d6cc4afb19edc55edeed925f905b89821061272e57505091839160019361265e969561267c999a10612716575b505050811b015f516020614c605f395f51905f5255612605565b01515f1960f88460031b161c191690555f80806126fc565b806001859682949686015181550195019301906126dd565b6020908260405193849283378101600381520301902090565b634e487b7160e01b5f52603260045260245ffd5b80518210156127875760209160051b010190565b61275f565b9190918051835180820361280c5750508051906127a882610a4b565b916127b66040519384610a1a565b8083526127c5601f1991610a4b565b013660208401375f5b815181101561280557806127f460019260051b602080828701015191890101519061245a565b6127fe8286612773565b52016127ce565b5090925050565b635b05999160e01b5f5260045260245260445ffd5b93949094929192612830612d6d565b6128386139c8565b9260408501878782359261284b846122fe565b88606081019461285b86836124b8565b90608084019261286b84866124b8565b9060a08701968761287b916124b8565b94612887969194612d94565b8a60405196879463010d12eb60e51b602087015260248601602090526128ad8380612a16565b6044880161014090526101848801906128c59261248e565b926020016128d290612a53565b61ffff1660648701526128e49061230f565b6001600160601b031660848601526128fc908d612a16565b8583036043190160a4870152612912929161248e565b9061291d908c612a16565b8483036043190160c4860152612933929161248e565b9061293e908b612a16565b8383036043190160e4850152612954929161248e565b61296060c08b016103fd565b6001600160a01b031661010483015261297b60e08b0161230f565b6001600160601b03166101248301526129976101008b01612a6c565b63ffffffff166101448301526129b06101208b01612a81565b61016483016129be91611b56565b03601f19810184526129d09084610a1a565b6129d996613b69565b6129e39082613117565b60405163010d12eb60e51b815290926001600160a01b039081169216905f516020614ba05f395f51905f5290602090a390565b9035601e19823603018112156103ea5701602081359101916001600160401b0382116103ea5781360383136103ea57565b61ffff8116036103ea57565b35906103fb82612a47565b63ffffffff8116036103ea57565b35906103fb82612a5e565b600311156103ea57565b35906103fb82612a77565b998199612b26998786612b1e958f612b17899e9d9c9b9a998d8f612af48e612ab2613cfe565b612aba612d6d565b612ac26139c8565b9960ff6040519a8b97637f8f848560e11b60208a0152602489015216604487015260a0606487015260c486019161248e565b6001600160a01b03909216608484015260a483015203601f198101855284610a1a565b3493613bcb565b349589613d5c565b604051600162707b7b60e11b031981526001600160a01b0391821692909116905f516020614ba05f395f51905f5290602090a36103fb60015f516020614c205f395f51905f5255565b6003821015611b425752565b90604051612b88816109f9565b60e0612c4460028395612be7612bde825460018060a01b03811688526001600160401b03808260a01c16166020890152612bd5612bca8261ffff9060e01c1690565b61ffff1660408a0152565b60f01c60ff1690565b60608701612b6f565b612c3e612c316001830154612c15612c05826001600160601b031690565b6001600160601b031660808a0152565b63ffffffff606082901c1660a089015260801c63ffffffff1690565b63ffffffff1660c0870152565b01612037565b910152565b9190820391821161251157565b9082101561278757610ef19160051b8101906124b8565b612c8f6103fb92949360208660405197889583870137840101905f8252611e3c565b03601f198101845283610a1a565b612ca65f610abf565b612cb36040519182610a1a565b5f8152601f19612cc25f610abf565b01366020830137612cd283610a4b565b92612ce06040519485610a1a565b808452601f19612cef82610a4b565b015f5b818110612d485750505f5b818110612d0b575050505090565b80612d2c612d2685612d20600195878a612c56565b90612c6d565b30614104565b612d368288612773565b52612d418187612773565b5001612cfd565b806060602080938901015201612cf2565b60ff91611cb0612d6892612422565b541690565b60ff5f516020614c005f395f51905f525416612d8557565b63d93c066560e01b5f5260045ffd5b6001600160601b0361271091979695949392971611612db6576103fb95614177565b63c2b03beb60e01b5f5260045ffd5b35610573816103d9565b5f1981146125115760010190565b3561057381612a47565b3561057381612a5e565b3561057381612a77565b906003811015611b4257815460ff60f01b191660f09190911b60ff60f01b16179055565b601f8111612e2b575050565b5f516020614c605f395f51905f525f5260205f20906020601f840160051c83019310612e71575b601f0160051c01905b818110612e66575050565b5f8155600101612e5b565b9091508190612e52565b601f8211612e8857505050565b5f5260205f20906020601f840160051c83019310612ec0575b601f0160051c01905b818110612eb5575050565b5f8155600101612eaa565b9091508190612ea1565b91909182516001600160401b038111610a1557612ef181612eeb8454611fff565b84612e7b565b6020601f8211600114612f24578190612f209394955f926126945750508160011b915f199060031b1c19161790565b9055565b601f19821690612f37845f5260205f2090565b915f5b818110612f7157509583600195969710612f59575b505050811b019055565b01515f1960f88460031b161c191690555f8080612f4f565b9192602060018192868b015181550194019201612f3a565b815181546020840151604085015161ffff60e01b60e091821b166001600160f01b03199093166001600160a01b039094169390931767ffffffffffffffff60a01b60a09290921b91909116171782556103fb9260029190612ff76060820151612ff181611b38565b85612dfb565b6130966001850161303661301560808501516001600160601b031690565b82546bffffffffffffffffffffffff19166001600160601b03909116178255565b61306a61304a60a085015163ffffffff1690565b825463ffffffff60601b191660609190911b63ffffffff60601b16178255565b60c083015163ffffffff165b815463ffffffff60801b191660809190911b63ffffffff60801b16179055565b01519101612eca565b96916103fb9a9563ffffffff976130e79b9e9d9b613103966001600160601b03986130d960c09e976130f5978f60e090818152019161248e565b8d810360208f01529161248e565b918a830360408c015261248e565b91878303606089015261248e565b981660808401521660a08201520190611b56565b90919060c083016001600160a01b0361312f82612dc5565b16156133085761313f9150612dc5565b5f549261314b84612dcf565b5f558361315882806124b8565b92602081019361316785612ddd565b948660e0840194613177866124ae565b9361010086019461318786612de7565b9061012088019a6131978c612df1565b906131a0610a3b565b6001600160a01b0390971687526001600160401b034216602088015261ffff1660408701526131d29060608701612b6f565b6001600160601b0316608085015263ffffffff1660a0840152600160c084015236906131fd92610ada565b60e0820152613214865f52600260205260405f2090565b9061321e91612f89565b8461322984806124b8565b61323291612746565b5561323b611de1565b6132469086896141c2565b613252604084016124ae565b61325d908887614363565b61326690612ddd565b9161327181806124b8565b96909261328160608401846124b8565b9390966080820161329290836124b8565b909260a081016132a1916124b8565b9390926132ad906124ae565b946132b790612de7565b956132c190612df1565b966040519a61ffff8c9b169e600160a01b60019003169d6132e29a8c61309f565b037fad9b3f8408a38f480db7cd1d62a3b1e9e137acff8fcab5b2e5d5bcc9a74b525a91a4565b5061313f565b335f9081527f75442b0a96088b5456bc4ed01394c96a4feec0f883c9494257d76b96ab1c9b6b602052604090205460ff161561334657565b63e2517d3f60e01b5f52336004527f65d7a28e3265b37a6474929f336521b332c1681b933f6cb9f3376673440d862a60245260445ffd5b335f9081527fab71e3f32666744d246edff3f96e4bdafee2e9867098cdd118a979a7464786a8602052604090205460ff16156133b557565b63e2517d3f60e01b5f52336004527f189ab7a9244df0848122154315af71fe140f3db0fe014031783b0946b8c9d2e360245260445ffd5b335f9081527fb7db2dd08fcb62d0c9e08c51941cae53c267786a0b75803fb7960902fc8ef97d602052604090205460ff161561342457565b63e2517d3f60e01b5f52336004525f60245260445ffd5b5f8181525f516020614be05f395f51905f526020908152604080832033845290915290205460ff161561346b5750565b63e2517d3f60e01b5f523360045260245260445ffd5b6001600160a01b0381165f9081527fb7db2dd08fcb62d0c9e08c51941cae53c267786a0b75803fb7960902fc8ef97d602052604090205460ff16613518576001600160a01b03165f8181527fb7db2dd08fcb62d0c9e08c51941cae53c267786a0b75803fb7960902fc8ef97d60205260408120805460ff191660011790553391905f516020614b605f395f51905f528180a4600190565b505f90565b6001600160a01b0381165f9081527fab71e3f32666744d246edff3f96e4bdafee2e9867098cdd118a979a7464786a8602052604090205460ff16613518576001600160a01b0381165f9081527fab71e3f32666744d246edff3f96e4bdafee2e9867098cdd118a979a7464786a860205260409020805460ff1916600117905533906001600160a01b03167f189ab7a9244df0848122154315af71fe140f3db0fe014031783b0946b8c9d2e35f516020614b605f395f51905f525f80a4600190565b6001600160a01b0381165f9081527f75442b0a96088b5456bc4ed01394c96a4feec0f883c9494257d76b96ab1c9b6b602052604090205460ff16613518576001600160a01b0381165f9081527f75442b0a96088b5456bc4ed01394c96a4feec0f883c9494257d76b96ab1c9b6b60205260409020805460ff1916600117905533906001600160a01b03167f65d7a28e3265b37a6474929f336521b332c1681b933f6cb9f3376673440d862a5f516020614b605f395f51905f525f80a4600190565b5f8181525f516020614be05f395f51905f52602090815260408083206001600160a01b038616845290915290205460ff1661372e575f8181525f516020614be05f395f51905f52602090815260408083206001600160a01b03861684529091529020805460ff1916600117905533916001600160a01b0316905f516020614b605f395f51905f525f80a4600190565b50505f90565b5f8181525f516020614be05f395f51905f52602090815260408083206001600160a01b038616845290915290205460ff161561372e575f8181525f516020614be05f395f51905f52602090815260408083206001600160a01b03861684529091529020805460ff1916905533916001600160a01b0316907ff6391f5c32d9c69d2a47ea670b442974b53935d1edc7fd64eb21e047a839171b5f80a4600190565b95906138169361ffff956137fa61380893606099969c9b9c60808c5260808c019161248e565b9189830360208b015261248e565b91868303604088015261248e565b9416910152565b9080359182158015613930575b61069857613840835f52600260205260405f2090565b805490916001600160a01b03908116911603613921576138f661391c8361390f6138ff9460207f931e1567c74eca75f0fed96fbc1766b61e7da5e645e35ca6d0a564a728c29b0a970161390761389682866124b8565b9790926138c360408801996138ab8b8a6124b8565b60608b0197916138bb898d6124b8565b949093614177565b6138f060808801956138d487612ddd565b815461ffff60e01b191660e09190911b61ffff60e01b16179055565b866124b8565b989097866124b8565b9290956124b8565b939092612ddd565b93604051978897886137d4565b0390a2565b635e7e205b60e11b5f5260045ffd5b505f5483101561382a565b6001600160a01b0316801561399b5760405190613959604083610a1a565b8082526101f46020909201919091526001600160a01b0316607d60a21b177fdaedc9ab023613a7caf35e703657e986ccfad7e3eb0af93a2853f8d65dd86b0055565b635b6cc80560e11b5f525f60045260245ffd5b908160209103126103ea575190565b6040513d5f823e3d90fd5b6004546001600160a01b03169081156139dd57565b63022fcd8560e61b5f5260045ffd5b908160209103126103ea5751610573816112b6565b60405163027f58e560e61b81526001600160a01b0392831660048201529190921660248201523060448201526331e1e60b60e11b60648201526101006084820152946020948694929385935f938593613a8093613a639061010487019061053e565b928660a487015260c48601526003198584030160e486015261248e565b03926001600160a01b03165af1908115613ae1575f91613ab2575b5015613aa357565b6309fb5d8760e21b5f5260045ffd5b613ad4915060203d602011613ada575b613acc8183610a1a565b8101906139ec565b5f613a9b565b503d613ac2565b6139bd565b60405163027f58e560e61b81526001600160a01b03928316600482015291909216602482015230604482015263469e080560e11b60648201526101006084820152956020958795929486945f948694613a80949092909190613b4d9061010488019061053e565b9360a487015260c48601526003198584030160e486015261248e565b60405163027f58e560e61b81526001600160a01b03928316600482015291909216602482015230604482015263010d12eb60e51b60648201526101006084820152946020948694929385935f938593613a8093613a639061010487019061053e565b60405163027f58e560e61b81526001600160a01b039283166004820152919092166024820152306044820152600162707b7b60e11b031960648201526101006084820152956020958795929486945f948694613a80949092909190613b4d9061010488019061053e565b60405163027f58e560e61b81526001600160a01b039283166004820152919092166024820152306044820152636ffea07960e11b60648201526101006084820152956020958795929486945f948694613a80949092909190613b4d9061010488019061053e565b60405163027f58e560e61b81526001600160a01b0392831660048201529190921660248201523060448201526308c3c46f60e31b60648201526101006084820152946020948694929385935f938593613a8093613a639061010487019061053e565b60025f516020614c205f395f51905f525414613d275760025f516020614c205f395f51905f5255565b633ee5aeb560e01b5f5260045ffd5b929493613d5060ff9260409460608752606087019161248e565b95602085015216910152565b929695919490955f548710156106985760ff861660028111613eec5761040086116107d85785158080613ee4575b80613edc575b613ecd5715928380613ec2575b6117665785613dc4613db78b5f52600260205260405f2090565b546001600160a01b031690565b9284613e26575b5050505050613ddd575b505050505050565b7f19a5aae49af5681d63d1a8c6ea9dc7b88af86e08d71ade984e2087fada0d4c4a93613e189160405194859460018060a01b03169885613d36565b0390a35f8080808080613dd5565b600203613e9157505050613e4581613e4060015460601c90565b6148ae565b6040805160ff8816815260208101929092526001600160a01b0385169188917fc199635a11ffccf62419a83e03370cef9ba2a2c0a33d65c2fe60542bd560a0a991a35f80808581613dcb565b82613e9f91613ea5936146ff565b836147c7565b80613eb2575b5050613e45565b613ebb916148ae565b5f80613eab565b506005548310613d9d565b630eb90eff60e01b5f5260045ffd5b508215613d90565b508115613d8a565b631556136560e01b5f5260045ffd5b9190915f5483101561069857613f19835f52600260205260405f2090565b80546001909101805492916001600160a01b03169063ffffffff606085901c169384156140115763ffffffff608082901c1694851015614002576001600160601b03168710613ff357613fb982847ff6447f421186fdb05672b6b81ee863f6266ccf87f727fc67ed367774af86006597613fa2613fbf956130768c9a600163ffffffff91011690565b613fb4613fad611de1565b89846141c2565b6146ff565b876147c7565b80613fe3575b50506040805195865260208601929092526001600160a01b031693a3565b613fec916148ae565b5f80613fc5565b63cd1c886760e01b5f5260045ffd5b63d05cb60960e01b5f5260045ffd5b635874ec2360e01b5f5260045ffd5b949092949391935f54841015610698576001600160a01b038616156140f5578115611766576140ae8161409561408f897f37d3451d72bbbc5dc39c5c55aacb3b768d87ef17ab36990c4c60e96e6a0cf14597614087613db78b5f52600260205260405f2090565b94859161475e565b856147c7565b61409f8160011c90565b9182806140e5575b5050612c49565b806140d5575b50604080516001600160a01b039788168152602081019390935295169490a4565b6140df90876148ae565b5f6140b4565b6140ee916148ae565b5f826140a7565b633e510d3960e21b5f5260045ffd5b905f8091602081519101845af48080614164575b156141275750506105736148e0565b1561414c57639996b31560e01b5f9081526001600160a01b0391909116600452602490fd5b3d15155f036139bd5763d6bda27560e01b5f5260045ffd5b503d1515806141185750813b1515614118565b5090506040919250116141b3576080106141a4576102001061419557565b631f5482d760e21b5f5260045ffd5b6324a25c5760e01b5f5260045ffd5b631750ba0360e01b5f5260045ffd5b9291906001600160a01b0384161561228a5760016141fd60405192600184526020840152604083019160018352606084015260808301604052565b90805182519081810361434e5750506001600160a01b03851693841515935f5b83518110156142825780868960019360051b602080828a010151918a0101519261424b575b5050500161421d565b61427891611cb0614270925f525f516020614bc05f395f51905f5260205260405f2090565b9182546148f9565b90555f8981614242565b509390959460018351145f14614313576020838101518582015160408051928352928201525f9133917fc3d58168c5ae7397731d063d5bbf3d657854427343f4c083240f7aacaa2d0f629190a45b6142db575b50505050565b805160010361430357906020806142fa95930151910151915f33614ac1565b5f8080806142d5565b61430e935f33614993565b6142fa565b5f6040517f4a39dc06d4c0dbc64b70af90fd698a233a518aa5d07e595d983b8c0526c8f7fb339180614346898983614906565b0390a46142d0565b635b05999160e01b5f5260045260245260445ffd5b92916001600160601b03166127108111614419576001600160a01b03821615614402576103fb92936143da916040519361439e604086610a1a565b60018060a01b0316845260208401525f527fdaedc9ab023613a7caf35e703657e986ccfad7e3eb0af93a2853f8d65dd86b0160205260405f2090565b815160209092015160a01b6001600160a01b0319166001600160a01b03909216919091179055565b83634b4f842960e11b5f526004525f60245260445ffd5b8363dfd1fc1b60e01b5f5260045260245261271060445260645ffd5b949392909193845182519081810361434e5750506001600160a01b038681169586151595918516801515939192905f5b8451811015614565578060051b90898988602080868b010151958c010151926144ca575b9360019461449b575b50505001614465565b6144c091611cb0614270925f525f516020614bc05f395f51905f5260205260405f2090565b90555f8981614492565b505090916144f08d611cb0835f525f516020614bc05f395f51905f5260205260405f2090565b5482811061452e578291898f614525600197968f950391611cb0855f525f516020614bc05f395f51905f5260205260405f2090565b55909450614489565b6040516303dee4c560e01b81526001600160a01b038f16600482015260248101919091526044810183905260648101829052608490fd5b5091989593929790965060018851145f146145f85760208881015186820151604080519283529282015233917fc3d58168c5ae7397731d063d5bbf3d657854427343f4c083240f7aacaa2d0f6291a45b6145c1575b5050505050565b84516001036145e7576020806145dd9601519201519233614ac1565b5f808080806145ba565b6145f394919233614993565b6145dd565b6040517f4a39dc06d4c0dbc64b70af90fd698a233a518aa5d07e595d983b8c0526c8f7fb33918061462a898d83614906565b0390a46145b5565b60ff5f516020614c405f395f51905f525460401c161561464e57565b631afcd79f60e31b5f5260045ffd5b90813b156146de575f516020614b805f395f51905f5280546001600160a01b0319166001600160a01b0384169081179091557fbc7cd75a20ee27fd9adebab32041f755214dbc6bffa90cc0225b39da2e5c2d3b5f80a28051156146c6576146c391614104565b50565b5050346146cf57565b63b398979f60e01b5f5260045ffd5b50634c9c8ce360e01b5f9081526001600160a01b0391909116600452602490fd5b916001600160a01b038316801592839290831561474b575b508315614738575b50508115614730575b506135185790565b90505f614728565b6001600160a01b03161491505f8061471f565b6001600160a01b0316821493505f614717565b926001600160a01b038416801593909284156147b4575b5083156147a1575b50821561478e575b50506135185790565b6001600160a01b03161490505f80614785565b6001600160a01b0316821492505f61477d565b6001600160a01b0316831493505f614775565b90600154916127106147e26001600160601b038516836124fe565b04916001600160a01b038116908115614878576103e883028381046103e81484151715612511576127109004945b8480614865575b50508480614828575b505050030390565b614831916148ae565b6040518481527f6292f4f27d8047af4537a4bd86906de0e2c880c20086f7f58b81eacfeb63912690602090a25f8084614820565b6148719160601c6148ae565b5f84614817565b5f94614810565b3d156148a9573d9061489082610abf565b9161489e6040519384610a1a565b82523d5f602084013e565b606090565b5f918291829182916001600160a01b03165af16148c961487f565b50156148d157565b6312171d8360e31b5f5260045ffd5b604051903d82523d5f602084013e60203d830101604052565b9190820180921161251157565b909161491d61057393604084526040840190610f0e565b916020818403910152610f0e565b908160209103126103ea575161057381610461565b6001600160a01b0391821681529116602082015260a060408201819052610573949193919261498592916149779190860190610f0e565b908482036060860152610f0e565b91608081840391015261053e565b9091949293853b6149a657505050505050565b6020936149c891604051968795869563bc197c8160e01b875260048701614940565b03815f6001600160a01b0387165af15f9181614a57575b50614a1957506149ed61487f565b8051919082614a1257632bfa23e760e11b5f526001600160a01b03821660045260245ffd5b6020915001fd5b6001600160e01b0319166343e6837f60e01b01614a3c57505f8080808080613dd5565b632bfa23e760e11b5f526001600160a01b031660045260245ffd5b614a7a91925060203d602011614a81575b614a728183610a1a565b81019061492b565b905f6149df565b503d614a68565b6001600160a01b039182168152911660208201526040810191909152606081019190915260a0608082018190526105739291019061053e565b9091949293853b614ad457505050505050565b602093614af691604051968795869563f23a6e6160e01b875260048701614a88565b03815f6001600160a01b0387165af15f9181614b3e575b50614b1b57506149ed61487f565b6001600160e01b031916630dc5919f60e01b01614a3c57505f8080808080613dd5565b614b5891925060203d602011614a8157614a728183610a1a565b905f614b0d56fe2f8788117e7eff1d82e926ec794901d17c78024a50270940304540a733656f0d360894a13ba1a3210667c828492db98dca3e2076cc3735a920a3ca505d382bbce915025b6f599b245c9c1c02d463228c896354d64dceb469760c99544153be6d88be536d5240c274a3b1d3a1be54482fd9caa294f08c62a7cde569f49a3c450002dd7bc7dec4dceedda775e58dd541e08a116c6c53815c0bd028192f7b626800cd5ed15c6e187e77e9aee88184c21f4f2182ab5827cb3b7e07fbedcd63f033009b779b17422d0df92223018b32b4d1fa46e071723d6817e2486d003becc55f00f0c57e16840df040f15088dc2f81fe391c3923bec73e23a9662efc9c229c6a0088be536d5240c274a3b1d3a1be54482fd9caa294f08c62a7cde569f49a3c4502a264697066735822122051f96f96540783c948f63980acf0288a75cbc25efaa74db69fd5cf753950983c64736f6c634300081e0033f0c57e16840df040f15088dc2f81fe391c3923bec73e23a9662efc9c229c6a00","linkReferences":{}},"methodIdentifiers":{"DEFAULT_ADMIN_ROLE()":"a217fddf","MAX_AVATAR_LENGTH()":"1fe9d578","MAX_BIO_LENGTH()":"c477d7f7","MAX_COMMENT_LENGTH()":"5856e4fa","MAX_NICKNAME_LENGTH()":"e8f100bf","MAX_ORIGINAL_AUTHOR_LENGTH()":"19e94a6e","MAX_SUMMARY_LENGTH()":"544b5e61","MAX_TITLE_LENGTH()":"2ef9a160","PAUSER_ROLE()":"e63ab1e9","SCORE_DISLIKE()":"fde84719","SCORE_LIKE()":"e1d90b34","SCORE_NEUTRAL()":"473106b2","UPGRADER_ROLE()":"f72c0d8b","UPGRADE_INTERFACE_VERSION()":"ad3cb1cc","articles(uint256)":"edcfafe6","arweaveIdToArticleId(string)":"b055d7aa","balanceOf(address,uint256)":"00fdd58e","balanceOfBatch(address[],uint256[])":"4e1273f4","collect(uint256,address)":"8d3c100a","collectWithSessionKey(address,address,uint256,address,uint256,bytes)":"795146ef","editArticle((uint256,string,string,string,uint16))":"461e2378","editArticleWithSessionKey(address,address,(uint256,string,string,string,uint16),uint256,bytes)":"8f8b1c90","evaluate(uint256,uint8,string,address,uint256)":"ff1f090a","evaluateWithSessionKey(address,address,uint256,uint8,string,address,uint256,uint256,bytes)":"63c4ea4d","follow(address,bool)":"63c3cc16","followWithSessionKey(address,address,address,bool,uint256,bytes)":"5780400b","getArticleByArweaveId(string)":"989cfb57","getArticleIdByArweaveId(string)":"4b65f344","getRoleAdmin(bytes32)":"248a9ca3","grantRole(bytes32,address)":"2f2ff15d","hasRole(bytes32,address)":"91d14854","initialize(address,address)":"485cc955","isApprovedForAll(address,address)":"e985e9c5","likeComment(uint256,uint256,address,address)":"dffd40f2","likeCommentWithSessionKey(address,address,uint256,uint256,address,address,uint256,bytes)":"79c61f28","minActionValue()":"8cbd215e","multicall(bytes[])":"ac9650d8","nextArticleId()":"85c3ab54","pause()":"8456cb59","paused()":"5c975abb","platformFeeBps()":"22dcd13e","platformTreasury()":"e138818c","proxiableUUID()":"52d1902d","publish((string,uint16,uint96,string,string,string,address,uint96,uint32,uint8))":"21a25d60","publishWithSessionKey(address,address,(string,uint16,uint96,string,string,string,address,uint96,uint32,uint8),uint256,bytes)":"56f5f3bb","renounceRole(bytes32,address)":"36568abe","revokeRole(bytes32,address)":"d547741f","royaltyInfo(uint256,uint256)":"2a55205a","safeBatchTransferFrom(address,address,uint256[],uint256[],bytes)":"2eb2c2d6","safeTransferFrom(address,address,uint256,uint256,bytes)":"f242432a","sessionKeyManager()":"0b826190","setApprovalForAll(address,bool)":"a22cb465","setMinActionValue(uint256)":"52cbd3be","setPlatformFee(uint96)":"f99e5dbb","setPlatformTreasury(address)":"7cd86d60","setSessionKeyManager(address)":"837fa3fd","supportsInterface(bytes4)":"01ffc9a7","unpause()":"3f4ba83a","updateProfile(string,string,string)":"1105a5eb","upgradeToAndCall(address,bytes)":"4f1ef286","uri(uint256)":"0e89341c"},"id":67}