{"abi":[{"type":"constructor","inputs":[],"stateMutability":"nonpayable"},{"type":"function","name":"DEFAULT_ADMIN_ROLE","inputs":[],"outputs":[{"name":"","type":"bytes32","internalType":"bytes32"}],"stateMutability":"view"},{"type":"function","name":"MAX_COMMENT_LENGTH","inputs":[],"outputs":[{"name":"","type":"uint256","internalType":"uint256"}],"stateMutability":"view"},{"type":"function","name":"MAX_COVER_IMAGE_LENGTH","inputs":[],"outputs":[{"name":"","type":"uint256","internalType":"uint256"}],"stateMutability":"view"},{"type":"function","name":"MAX_ORIGINAL_AUTHOR_LENGTH","inputs":[],"outputs":[{"name":"","type":"uint256","internalType":"uint256"}],"stateMutability":"view"},{"type":"function","name":"MAX_TITLE_LENGTH","inputs":[],"outputs":[{"name":"","type":"uint256","internalType":"uint256"}],"stateMutability":"view"},{"type":"function","name":"PAUSER_ROLE","inputs":[],"outputs":[{"name":"","type":"bytes32","internalType":"bytes32"}],"stateMutability":"view"},{"type":"function","name":"SCORE_DISLIKE","inputs":[],"outputs":[{"name":"","type":"uint8","internalType":"uint8"}],"stateMutability":"view"},{"type":"function","name":"SCORE_LIKE","inputs":[],"outputs":[{"name":"","type":"uint8","internalType":"uint8"}],"stateMutability":"view"},{"type":"function","name":"SCORE_NEUTRAL","inputs":[],"outputs":[{"name":"","type":"uint8","internalType":"uint8"}],"stateMutability":"view"},{"type":"function","name":"UPGRADER_ROLE","inputs":[],"outputs":[{"name":"","type":"bytes32","internalType":"bytes32"}],"stateMutability":"view"},{"type":"function","name":"UPGRADE_INTERFACE_VERSION","inputs":[],"outputs":[{"name":"","type":"string","internalType":"string"}],"stateMutability":"view"},{"type":"function","name":"articles","inputs":[{"name":"","type":"uint256","internalType":"uint256"}],"outputs":[{"name":"arweaveHash","type":"string","internalType":"string"},{"name":"author","type":"address","internalType":"address"},{"name":"originalAuthor","type":"string","internalType":"string"},{"name":"title","type":"string","internalType":"string"},{"name":"coverImage","type":"string","internalType":"string"},{"name":"categoryId","type":"uint64","internalType":"uint64"},{"name":"timestamp","type":"uint64","internalType":"uint64"}],"stateMutability":"view"},{"type":"function","name":"balanceOf","inputs":[{"name":"account","type":"address","internalType":"address"},{"name":"id","type":"uint256","internalType":"uint256"}],"outputs":[{"name":"","type":"uint256","internalType":"uint256"}],"stateMutability":"view"},{"type":"function","name":"balanceOfBatch","inputs":[{"name":"accounts","type":"address[]","internalType":"address[]"},{"name":"ids","type":"uint256[]","internalType":"uint256[]"}],"outputs":[{"name":"","type":"uint256[]","internalType":"uint256[]"}],"stateMutability":"view"},{"type":"function","name":"eip712Domain","inputs":[],"outputs":[{"name":"fields","type":"bytes1","internalType":"bytes1"},{"name":"name","type":"string","internalType":"string"},{"name":"version","type":"string","internalType":"string"},{"name":"chainId","type":"uint256","internalType":"uint256"},{"name":"verifyingContract","type":"address","internalType":"address"},{"name":"salt","type":"bytes32","internalType":"bytes32"},{"name":"extensions","type":"uint256[]","internalType":"uint256[]"}],"stateMutability":"view"},{"type":"function","name":"evaluate","inputs":[{"name":"_articleId","type":"uint256","internalType":"uint256"},{"name":"_score","type":"uint8","internalType":"uint8"},{"name":"_content","type":"string","internalType":"string"},{"name":"_referrer","type":"address","internalType":"address"},{"name":"_parentCommentId","type":"uint256","internalType":"uint256"}],"outputs":[],"stateMutability":"payable"},{"type":"function","name":"evaluateWithSessionKey","inputs":[{"name":"owner","type":"address","internalType":"address"},{"name":"sessionKey","type":"address","internalType":"address"},{"name":"_articleId","type":"uint256","internalType":"uint256"},{"name":"_score","type":"uint8","internalType":"uint8"},{"name":"_content","type":"string","internalType":"string"},{"name":"_referrer","type":"address","internalType":"address"},{"name":"_parentCommentId","type":"uint256","internalType":"uint256"},{"name":"deadline","type":"uint256","internalType":"uint256"},{"name":"signature","type":"bytes","internalType":"bytes"}],"outputs":[],"stateMutability":"payable"},{"type":"function","name":"follow","inputs":[{"name":"_target","type":"address","internalType":"address"},{"name":"_status","type":"bool","internalType":"bool"}],"outputs":[],"stateMutability":"nonpayable"},{"type":"function","name":"followWithSessionKey","inputs":[{"name":"owner","type":"address","internalType":"address"},{"name":"sessionKey","type":"address","internalType":"address"},{"name":"_target","type":"address","internalType":"address"},{"name":"_status","type":"bool","internalType":"bool"},{"name":"deadline","type":"uint256","internalType":"uint256"},{"name":"signature","type":"bytes","internalType":"bytes"}],"outputs":[],"stateMutability":"nonpayable"},{"type":"function","name":"getRoleAdmin","inputs":[{"name":"role","type":"bytes32","internalType":"bytes32"}],"outputs":[{"name":"","type":"bytes32","internalType":"bytes32"}],"stateMutability":"view"},{"type":"function","name":"grantRole","inputs":[{"name":"role","type":"bytes32","internalType":"bytes32"},{"name":"account","type":"address","internalType":"address"}],"outputs":[],"stateMutability":"nonpayable"},{"type":"function","name":"hasRole","inputs":[{"name":"role","type":"bytes32","internalType":"bytes32"},{"name":"account","type":"address","internalType":"address"}],"outputs":[{"name":"","type":"bool","internalType":"bool"}],"stateMutability":"view"},{"type":"function","name":"initialize","inputs":[{"name":"_initialOwner","type":"address","internalType":"address"},{"name":"_treasury","type":"address","internalType":"address"}],"outputs":[],"stateMutability":"nonpayable"},{"type":"function","name":"isApprovedForAll","inputs":[{"name":"account","type":"address","internalType":"address"},{"name":"operator","type":"address","internalType":"address"}],"outputs":[{"name":"","type":"bool","internalType":"bool"}],"stateMutability":"view"},{"type":"function","name":"likeComment","inputs":[{"name":"_articleId","type":"uint256","internalType":"uint256"},{"name":"_commentId","type":"uint256","internalType":"uint256"},{"name":"_commenter","type":"address","internalType":"address"},{"name":"_referrer","type":"address","internalType":"address"}],"outputs":[],"stateMutability":"payable"},{"type":"function","name":"likeCommentWithSessionKey","inputs":[{"name":"owner","type":"address","internalType":"address"},{"name":"sessionKey","type":"address","internalType":"address"},{"name":"_articleId","type":"uint256","internalType":"uint256"},{"name":"_commentId","type":"uint256","internalType":"uint256"},{"name":"_commenter","type":"address","internalType":"address"},{"name":"_referrer","type":"address","internalType":"address"},{"name":"deadline","type":"uint256","internalType":"uint256"},{"name":"signature","type":"bytes","internalType":"bytes"}],"outputs":[],"stateMutability":"payable"},{"type":"function","name":"minActionValue","inputs":[],"outputs":[{"name":"","type":"uint256","internalType":"uint256"}],"stateMutability":"view"},{"type":"function","name":"multicall","inputs":[{"name":"data","type":"bytes[]","internalType":"bytes[]"}],"outputs":[{"name":"results","type":"bytes[]","internalType":"bytes[]"}],"stateMutability":"nonpayable"},{"type":"function","name":"nextArticleId","inputs":[],"outputs":[{"name":"","type":"uint256","internalType":"uint256"}],"stateMutability":"view"},{"type":"function","name":"pause","inputs":[],"outputs":[],"stateMutability":"nonpayable"},{"type":"function","name":"paused","inputs":[],"outputs":[{"name":"","type":"bool","internalType":"bool"}],"stateMutability":"view"},{"type":"function","name":"platformFeeBps","inputs":[],"outputs":[{"name":"","type":"uint96","internalType":"uint96"}],"stateMutability":"view"},{"type":"function","name":"platformTreasury","inputs":[],"outputs":[{"name":"","type":"address","internalType":"address"}],"stateMutability":"view"},{"type":"function","name":"proxiableUUID","inputs":[],"outputs":[{"name":"","type":"bytes32","internalType":"bytes32"}],"stateMutability":"view"},{"type":"function","name":"publish","inputs":[{"name":"_arweaveId","type":"string","internalType":"string"},{"name":"_categoryId","type":"uint64","internalType":"uint64"},{"name":"_royaltyBps","type":"uint96","internalType":"uint96"},{"name":"_originalAuthor","type":"string","internalType":"string"},{"name":"_title","type":"string","internalType":"string"},{"name":"_coverImage","type":"string","internalType":"string"}],"outputs":[{"name":"","type":"uint256","internalType":"uint256"}],"stateMutability":"nonpayable"},{"type":"function","name":"publishWithSessionKey","inputs":[{"name":"owner","type":"address","internalType":"address"},{"name":"sessionKey","type":"address","internalType":"address"},{"name":"_arweaveId","type":"string","internalType":"string"},{"name":"_categoryId","type":"uint64","internalType":"uint64"},{"name":"_royaltyBps","type":"uint96","internalType":"uint96"},{"name":"_originalAuthor","type":"string","internalType":"string"},{"name":"_title","type":"string","internalType":"string"},{"name":"_coverImage","type":"string","internalType":"string"},{"name":"deadline","type":"uint256","internalType":"uint256"},{"name":"signature","type":"bytes","internalType":"bytes"}],"outputs":[{"name":"","type":"uint256","internalType":"uint256"}],"stateMutability":"nonpayable"},{"type":"function","name":"renounceRole","inputs":[{"name":"role","type":"bytes32","internalType":"bytes32"},{"name":"callerConfirmation","type":"address","internalType":"address"}],"outputs":[],"stateMutability":"nonpayable"},{"type":"function","name":"revokeRole","inputs":[{"name":"role","type":"bytes32","internalType":"bytes32"},{"name":"account","type":"address","internalType":"address"}],"outputs":[],"stateMutability":"nonpayable"},{"type":"function","name":"royaltyInfo","inputs":[{"name":"tokenId","type":"uint256","internalType":"uint256"},{"name":"salePrice","type":"uint256","internalType":"uint256"}],"outputs":[{"name":"receiver","type":"address","internalType":"address"},{"name":"amount","type":"uint256","internalType":"uint256"}],"stateMutability":"view"},{"type":"function","name":"safeBatchTransferFrom","inputs":[{"name":"from","type":"address","internalType":"address"},{"name":"to","type":"address","internalType":"address"},{"name":"ids","type":"uint256[]","internalType":"uint256[]"},{"name":"values","type":"uint256[]","internalType":"uint256[]"},{"name":"data","type":"bytes","internalType":"bytes"}],"outputs":[],"stateMutability":"nonpayable"},{"type":"function","name":"safeTransferFrom","inputs":[{"name":"from","type":"address","internalType":"address"},{"name":"to","type":"address","internalType":"address"},{"name":"id","type":"uint256","internalType":"uint256"},{"name":"value","type":"uint256","internalType":"uint256"},{"name":"data","type":"bytes","internalType":"bytes"}],"outputs":[],"stateMutability":"nonpayable"},{"type":"function","name":"sessionKeyManager","inputs":[],"outputs":[{"name":"","type":"address","internalType":"contract ISessionKeyManager"}],"stateMutability":"view"},{"type":"function","name":"setApprovalForAll","inputs":[{"name":"operator","type":"address","internalType":"address"},{"name":"approved","type":"bool","internalType":"bool"}],"outputs":[],"stateMutability":"nonpayable"},{"type":"function","name":"setMinActionValue","inputs":[{"name":"_minActionValue","type":"uint256","internalType":"uint256"}],"outputs":[],"stateMutability":"nonpayable"},{"type":"function","name":"setPlatformFee","inputs":[{"name":"_feeBps","type":"uint96","internalType":"uint96"}],"outputs":[],"stateMutability":"nonpayable"},{"type":"function","name":"setPlatformTreasury","inputs":[{"name":"_treasury","type":"address","internalType":"address"}],"outputs":[],"stateMutability":"nonpayable"},{"type":"function","name":"setSessionKeyManager","inputs":[{"name":"_sessionKeyManager","type":"address","internalType":"address"}],"outputs":[],"stateMutability":"nonpayable"},{"type":"function","name":"supportsInterface","inputs":[{"name":"interfaceId","type":"bytes4","internalType":"bytes4"}],"outputs":[{"name":"","type":"bool","internalType":"bool"}],"stateMutability":"view"},{"type":"function","name":"unpause","inputs":[],"outputs":[],"stateMutability":"nonpayable"},{"type":"function","name":"upgradeToAndCall","inputs":[{"name":"newImplementation","type":"address","internalType":"address"},{"name":"data","type":"bytes","internalType":"bytes"}],"outputs":[],"stateMutability":"payable"},{"type":"function","name":"uri","inputs":[{"name":"_id","type":"uint256","internalType":"uint256"}],"outputs":[{"name":"","type":"string","internalType":"string"}],"stateMutability":"view"},{"type":"event","name":"ApprovalForAll","inputs":[{"name":"account","type":"address","indexed":true,"internalType":"address"},{"name":"operator","type":"address","indexed":true,"internalType":"address"},{"name":"approved","type":"bool","indexed":false,"internalType":"bool"}],"anonymous":false},{"type":"event","name":"ArticleEvaluated","inputs":[{"name":"articleId","type":"uint256","indexed":true,"internalType":"uint256"},{"name":"user","type":"address","indexed":true,"internalType":"address"},{"name":"score","type":"uint8","indexed":false,"internalType":"uint8"},{"name":"amountPaid","type":"uint256","indexed":false,"internalType":"uint256"},{"name":"timestamp","type":"uint256","indexed":false,"internalType":"uint256"}],"anonymous":false},{"type":"event","name":"ArticlePublished","inputs":[{"name":"articleId","type":"uint256","indexed":true,"internalType":"uint256"},{"name":"author","type":"address","indexed":true,"internalType":"address"},{"name":"categoryId","type":"uint256","indexed":true,"internalType":"uint256"},{"name":"arweaveId","type":"string","indexed":false,"internalType":"string"},{"name":"originalAuthor","type":"string","indexed":false,"internalType":"string"},{"name":"title","type":"string","indexed":false,"internalType":"string"},{"name":"coverImage","type":"string","indexed":false,"internalType":"string"},{"name":"timestamp","type":"uint256","indexed":false,"internalType":"uint256"}],"anonymous":false},{"type":"event","name":"CommentAdded","inputs":[{"name":"articleId","type":"uint256","indexed":true,"internalType":"uint256"},{"name":"commenter","type":"address","indexed":true,"internalType":"address"},{"name":"content","type":"string","indexed":false,"internalType":"string"},{"name":"parentCommentId","type":"uint256","indexed":false,"internalType":"uint256"},{"name":"score","type":"uint8","indexed":false,"internalType":"uint8"}],"anonymous":false},{"type":"event","name":"CommentLiked","inputs":[{"name":"articleId","type":"uint256","indexed":true,"internalType":"uint256"},{"name":"commentId","type":"uint256","indexed":true,"internalType":"uint256"},{"name":"liker","type":"address","indexed":true,"internalType":"address"},{"name":"commenter","type":"address","indexed":false,"internalType":"address"},{"name":"amountPaid","type":"uint256","indexed":false,"internalType":"uint256"},{"name":"timestamp","type":"uint256","indexed":false,"internalType":"uint256"}],"anonymous":false},{"type":"event","name":"EIP712DomainChanged","inputs":[],"anonymous":false},{"type":"event","name":"FollowStatusChanged","inputs":[{"name":"follower","type":"address","indexed":true,"internalType":"address"},{"name":"target","type":"address","indexed":true,"internalType":"address"},{"name":"isFollowing","type":"bool","indexed":false,"internalType":"bool"}],"anonymous":false},{"type":"event","name":"Initialized","inputs":[{"name":"version","type":"uint64","indexed":false,"internalType":"uint64"}],"anonymous":false},{"type":"event","name":"MinActionValueUpdated","inputs":[{"name":"newValue","type":"uint256","indexed":false,"internalType":"uint256"}],"anonymous":false},{"type":"event","name":"Paused","inputs":[{"name":"account","type":"address","indexed":false,"internalType":"address"}],"anonymous":false},{"type":"event","name":"PlatformFeeUpdated","inputs":[{"name":"newFeeBps","type":"uint96","indexed":false,"internalType":"uint96"}],"anonymous":false},{"type":"event","name":"ReferralPaid","inputs":[{"name":"referrer","type":"address","indexed":true,"internalType":"address"},{"name":"amount","type":"uint256","indexed":false,"internalType":"uint256"}],"anonymous":false},{"type":"event","name":"RoleAdminChanged","inputs":[{"name":"role","type":"bytes32","indexed":true,"internalType":"bytes32"},{"name":"previousAdminRole","type":"bytes32","indexed":true,"internalType":"bytes32"},{"name":"newAdminRole","type":"bytes32","indexed":true,"internalType":"bytes32"}],"anonymous":false},{"type":"event","name":"RoleGranted","inputs":[{"name":"role","type":"bytes32","indexed":true,"internalType":"bytes32"},{"name":"account","type":"address","indexed":true,"internalType":"address"},{"name":"sender","type":"address","indexed":true,"internalType":"address"}],"anonymous":false},{"type":"event","name":"RoleRevoked","inputs":[{"name":"role","type":"bytes32","indexed":true,"internalType":"bytes32"},{"name":"account","type":"address","indexed":true,"internalType":"address"},{"name":"sender","type":"address","indexed":true,"internalType":"address"}],"anonymous":false},{"type":"event","name":"SessionKeyManagerUpdated","inputs":[{"name":"newManager","type":"address","indexed":true,"internalType":"address"}],"anonymous":false},{"type":"event","name":"SessionKeyOperationExecuted","inputs":[{"name":"owner","type":"address","indexed":true,"internalType":"address"},{"name":"sessionKey","type":"address","indexed":true,"internalType":"address"},{"name":"selector","type":"bytes4","indexed":false,"internalType":"bytes4"}],"anonymous":false},{"type":"event","name":"TransferBatch","inputs":[{"name":"operator","type":"address","indexed":true,"internalType":"address"},{"name":"from","type":"address","indexed":true,"internalType":"address"},{"name":"to","type":"address","indexed":true,"internalType":"address"},{"name":"ids","type":"uint256[]","indexed":false,"internalType":"uint256[]"},{"name":"values","type":"uint256[]","indexed":false,"internalType":"uint256[]"}],"anonymous":false},{"type":"event","name":"TransferSingle","inputs":[{"name":"operator","type":"address","indexed":true,"internalType":"address"},{"name":"from","type":"address","indexed":true,"internalType":"address"},{"name":"to","type":"address","indexed":true,"internalType":"address"},{"name":"id","type":"uint256","indexed":false,"internalType":"uint256"},{"name":"value","type":"uint256","indexed":false,"internalType":"uint256"}],"anonymous":false},{"type":"event","name":"TreasuryUpdated","inputs":[{"name":"newTreasury","type":"address","indexed":false,"internalType":"address"}],"anonymous":false},{"type":"event","name":"URI","inputs":[{"name":"value","type":"string","indexed":false,"internalType":"string"},{"name":"id","type":"uint256","indexed":true,"internalType":"uint256"}],"anonymous":false},{"type":"event","name":"Unpaused","inputs":[{"name":"account","type":"address","indexed":false,"internalType":"address"}],"anonymous":false},{"type":"event","name":"Upgraded","inputs":[{"name":"implementation","type":"address","indexed":true,"internalType":"address"}],"anonymous":false},{"type":"error","name":"AccessControlBadConfirmation","inputs":[]},{"type":"error","name":"AccessControlUnauthorizedAccount","inputs":[{"name":"account","type":"address","internalType":"address"},{"name":"neededRole","type":"bytes32","internalType":"bytes32"}]},{"type":"error","name":"AddressEmptyCode","inputs":[{"name":"target","type":"address","internalType":"address"}]},{"type":"error","name":"ArticleNotFound","inputs":[]},{"type":"error","name":"ContentRequiredForScore","inputs":[]},{"type":"error","name":"CoverImageTooLong","inputs":[]},{"type":"error","name":"ERC1155InsufficientBalance","inputs":[{"name":"sender","type":"address","internalType":"address"},{"name":"balance","type":"uint256","internalType":"uint256"},{"name":"needed","type":"uint256","internalType":"uint256"},{"name":"tokenId","type":"uint256","internalType":"uint256"}]},{"type":"error","name":"ERC1155InvalidApprover","inputs":[{"name":"approver","type":"address","internalType":"address"}]},{"type":"error","name":"ERC1155InvalidArrayLength","inputs":[{"name":"idsLength","type":"uint256","internalType":"uint256"},{"name":"valuesLength","type":"uint256","internalType":"uint256"}]},{"type":"error","name":"ERC1155InvalidOperator","inputs":[{"name":"operator","type":"address","internalType":"address"}]},{"type":"error","name":"ERC1155InvalidReceiver","inputs":[{"name":"receiver","type":"address","internalType":"address"}]},{"type":"error","name":"ERC1155InvalidSender","inputs":[{"name":"sender","type":"address","internalType":"address"}]},{"type":"error","name":"ERC1155MissingApprovalForAll","inputs":[{"name":"operator","type":"address","internalType":"address"},{"name":"owner","type":"address","internalType":"address"}]},{"type":"error","name":"ERC1967InvalidImplementation","inputs":[{"name":"implementation","type":"address","internalType":"address"}]},{"type":"error","name":"ERC1967NonPayable","inputs":[]},{"type":"error","name":"ERC2981InvalidDefaultRoyalty","inputs":[{"name":"numerator","type":"uint256","internalType":"uint256"},{"name":"denominator","type":"uint256","internalType":"uint256"}]},{"type":"error","name":"ERC2981InvalidDefaultRoyaltyReceiver","inputs":[{"name":"receiver","type":"address","internalType":"address"}]},{"type":"error","name":"ERC2981InvalidTokenRoyalty","inputs":[{"name":"tokenId","type":"uint256","internalType":"uint256"},{"name":"numerator","type":"uint256","internalType":"uint256"},{"name":"denominator","type":"uint256","internalType":"uint256"}]},{"type":"error","name":"ERC2981InvalidTokenRoyaltyReceiver","inputs":[{"name":"tokenId","type":"uint256","internalType":"uint256"},{"name":"receiver","type":"address","internalType":"address"}]},{"type":"error","name":"EnforcedPause","inputs":[]},{"type":"error","name":"ExpectedPause","inputs":[]},{"type":"error","name":"FailedCall","inputs":[]},{"type":"error","name":"FeeTooHigh","inputs":[]},{"type":"error","name":"InvalidAddress","inputs":[]},{"type":"error","name":"InvalidCommenter","inputs":[]},{"type":"error","name":"InvalidInitialization","inputs":[]},{"type":"error","name":"InvalidLength","inputs":[]},{"type":"error","name":"InvalidScore","inputs":[]},{"type":"error","name":"NotInitializing","inputs":[]},{"type":"error","name":"OriginalAuthorTooLong","inputs":[]},{"type":"error","name":"ReentrancyGuardReentrantCall","inputs":[]},{"type":"error","name":"RoyaltyTooHigh","inputs":[]},{"type":"error","name":"SessionKeyManagerNotSet","inputs":[]},{"type":"error","name":"SessionKeyValidationFailed","inputs":[]},{"type":"error","name":"SpamProtection","inputs":[]},{"type":"error","name":"TitleTooLong","inputs":[]},{"type":"error","name":"TransferFailed","inputs":[]},{"type":"error","name":"UUPSUnauthorizedCallContext","inputs":[]},{"type":"error","name":"UUPSUnsupportedProxiableUUID","inputs":[{"name":"slot","type":"bytes32","internalType":"bytes32"}]},{"type":"error","name":"ZeroAmount","inputs":[]}],"bytecode":{"object":"0x60a080604052346100e65760017f9b779b17422d0df92223018b32b4d1fa46e071723d6817e2486d003becc55f0055306080525f516020614b245f395f51905f525460ff8160401c166100d7576002600160401b03196001600160401b03821601610084575b604051614a3990816100eb8239608051818181610d570152610ecb0152f35b6001600160401b0319166001600160401b039081175f516020614b245f395f51905f525581527fc7f505b2f371ae2175ee4913f4499e1f2633a7b5936321eed1cdaeb6115181d290602090a15f80610065565b63f92ee8a960e01b5f5260045ffd5b5f80fdfe60806040526004361015610011575f80fd5b5f3560e01c8062fdd58e1461033957806301ffc9a7146103345780630b8261901461032f5780630e89341c1461032a57806319e94a6e1461026757806322dcd13e14610325578063248a9ca3146103205780632a55205a1461031b5780632eb2c2d6146103165780632ef9a160146103115780632f2ff15d1461030c57806336568abe146103075780633f4ba83a14610302578063473106b2146102a3578063485cc955146102fd5780634e1273f4146102f85780634f1ef286146102f357806352cbd3be146102ee57806352d1902d146102e95780635780400b146102e45780635856e4fa146102df5780635c975abb146102da57806363c3cc16146102d557806363c4ea4d146102d057806379c61f28146102cb5780637cd86d60146102c6578063837fa3fd146102c15780638456cb59146102bc57806384b0196e146102b757806385c3ab54146102b25780638cbd215e146102ad57806391d14854146102a8578063a217fddf146102a3578063a22cb4651461029e578063ac9650d814610299578063acb9420e14610294578063ad3cb1cc1461028f578063bc802e551461028a578063d547741f14610285578063dffd40f214610280578063e138818c1461027b578063e1d90b3414610276578063e63ab1e914610271578063e985e9c51461026c578063ec176f2c14610267578063edcfafe614610262578063f242432a1461025d578063f72c0d8b14610258578063f99e5dbb14610253578063fde847191461024e5763ff1f090a14610249575f80fd5b612156565b61213b565b6120ae565b612074565b611f80565b611efd565b610657565b611c09565b611bcf565b611bb4565b611b94565b611b43565b611af9565b611a0c565b6119c5565b6118ed565b611829565b611721565b610a87565b6116c6565b6116a9565b61168d565b6115bd565b6114ed565b611485565b6113f8565b611252565b6111c8565b61115e565b611130565b611114565b610f47565b610eb9565b610e6d565b610d19565b610c5a565b610aa1565b610a09565b6109c5565b610976565b61095b565b6108cf565b6106d7565b610698565b610672565b610544565b6104e4565b610441565b6103da565b600435906001600160a01b038216820361035457565b5f80fd5b602435906001600160a01b038216820361035457565b604435906001600160a01b038216820361035457565b60a435906001600160a01b038216820361035457565b608435906001600160a01b038216820361035457565b606435906001600160a01b038216820361035457565b35906001600160a01b038216820361035457565b346103545760403660031901126103545760206104266103f861033e565b6024355f525f5160206149445f395f51905f52835260405f209060018060a01b03165f5260205260405f2090565b54604051908152f35b6001600160e01b031981160361035457565b346103545760203660031901126103545760043561045e8161042f565b63ffffffff60e01b16637965db0b60e01b8114908115610487575b506040519015158152602090f35b63152a902d60e11b8114915081156104a1575b505f610479565b636cdb3d1360e11b8114915081156104d3575b81156104c2575b505f61049a565b6301ffc9a760e01b1490505f6104bb565b6303a24d0760e21b811491506104b4565b34610354575f366003190112610354576003546040516001600160a01b039091168152602090f35b805180835260209291819084018484015e5f828201840152601f01601f1916010190565b90602061054192818152019061050c565b90565b34610354576020366003190112610354576004358015801561064c575b61063d575f52600260205260405f206040517368747470733a2f2f617277656176652e6e65742f60601b60208201525f9180549061059e82611c3a565b916001811690811561061657506001146105da575b6105d6836105ca818703601f1981018352826107b8565b60405191829182610530565b0390f35b9092505f5260205f205f905b8382106105ff575050908101603401906105ca816105b3565b6001816020925460348587010152019101906105e6565b6105d6955084925060349150926105ca9360ff1916828401528015150282010193506105b3565b63522e582d60e11b5f5260045ffd5b505f54811015610561565b34610354575f36600319011261035457602060405160408152f35b34610354575f3660031901126103545760206001600160601b0360015416604051908152f35b346103545760203660031901126103545760206106cf6004355f525f5160206149645f395f51905f52602052600160405f20015490565b604051908152f35b34610354576040366003190112610354576004355f9081527fdaedc9ab023613a7caf35e703657e986ccfad7e3eb0af93a2853f8d65dd86b0160205260409020546001600160a01b038116906024359060a01c821561076d575b610750916001600160601b03610748921690612223565b612710900490565b604080516001600160a01b03939093168352602083019190915290f35b507fdaedc9ab023613a7caf35e703657e986ccfad7e3eb0af93a2853f8d65dd86b00546001600160a01b038116925060a01c610731565b634e487b7160e01b5f52604160045260245ffd5b90601f801991011681019081106001600160401b038211176107d957604052565b6107a4565b604051906107ed60e0836107b8565b565b6001600160401b0381116107d95760051b60200190565b9080601f8301121561035457813561081d816107ef565b9261082b60405194856107b8565b81845260208085019260051b82010192831161035457602001905b8282106108535750505090565b8135815260209182019101610846565b6001600160401b0381116107d957601f01601f191660200190565b92919261088a82610863565b9161089860405193846107b8565b829481845281830111610354578281602093845f960137010152565b9080601f83011215610354578160206105419335910161087e565b346103545760a0366003190112610354576108e861033e565b6108f0610358565b906044356001600160401b03811161035457610910903690600401610806565b6064356001600160401b0381116103545761092f903690600401610806565b90608435936001600160401b038511610354576109536109599536906004016108b4565b93612236565b005b34610354575f36600319011261035457602060405160808152f35b3461035457604036600319011261035457610959600435610995610358565b906109c06109bb825f525f5160206149645f395f51905f52602052600160405f20015490565b61345f565b6136c3565b34610354576040366003190112610354576004356109e1610358565b336001600160a01b038216036109fa5761095991613758565b63334bd91960e11b5f5260045ffd5b34610354575f36600319011261035457610a21613332565b5f5160206149845f395f51905f525460ff811615610a785760ff19165f5160206149845f395f51905f52557f5db9ee0a495bf2e6ff9c91a7834c1ba4fdd244a5e8aa4e537bd38aeae4b073aa6020604051338152a1005b638dfc202b60e01b5f5260045ffd5b34610354575f3660031901126103545760206040515f8152f35b3461035457604036600319011261035457610aba61033e565b610ac2610358565b5f5160206149c45f395f51905f525491906001600160401b03610af460ff604086901c1615946001600160401b031690565b1680159081610c0e575b6001149081610c04575b159081610bfb575b50610bec57610b539183610b4a60016001600160401b03195f5160206149c45f395f51905f525416175f5160206149c45f395f51905f5255565b610bb2576122cb565b610b5957005b610b8360ff60401b195f5160206149c45f395f51905f5254165f5160206149c45f395f51905f5255565b604051600181527fc7f505b2f371ae2175ee4913f4499e1f2633a7b5936321eed1cdaeb6115181d290602090a1005b610be76801000000000000000060ff60401b195f5160206149c45f395f51905f525416175f5160206149c45f395f51905f5255565b6122cb565b63f92ee8a960e01b5f5260045ffd5b9050155f610b10565b303b159150610b08565b849150610afe565b90602080835192838152019201905f5b818110610c335750505090565b8251845260209384019390920191600101610c26565b906020610541928181520190610c16565b34610354576040366003190112610354576004356001600160401b038111610354573660238201121561035457806004013590610c96826107ef565b91610ca460405193846107b8565b8083526024602084019160051b8301019136831161035457602401905b828210610d0157836024356001600160401b038111610354576105d691610cef610cf5923690600401610806565b90612559565b60405191829182610c49565b60208091610d0e846103c6565b815201910190610cc1565b604036600319011261035457610d2d61033e565b6024356001600160401b03811161035457610d4c9036906004016108b4565b906001600160a01b037f000000000000000000000000000000000000000000000000000000000000000016308114908115610e4b575b50610e3c57610d8f6133a1565b6040516352d1902d60e01b8152916020836004816001600160a01b0386165afa5f9381610e0b575b50610dd857634c9c8ce360e01b5f526001600160a01b03821660045260245ffd5b905f5160206149045f395f51905f528303610df757610959925061443f565b632a87526960e21b5f52600483905260245ffd5b610e2e91945060203d602011610e35575b610e2681836107b8565b8101906139e2565b925f610db7565b503d610e1c565b63703e46dd60e11b5f5260045ffd5b5f5160206149045f395f51905f52546001600160a01b0316141590505f610d82565b34610354576020366003190112610354577ffcae2461302da2a86e3604d10afc558dc160d49eb88bc010c4bca093793857ff6020600435610eac613410565b80600455604051908152a1005b34610354575f366003190112610354577f00000000000000000000000000000000000000000000000000000000000000006001600160a01b03163003610e3c5760206040515f5160206149045f395f51905f528152f35b8015150361035457565b9181601f84011215610354578235916001600160401b038311610354576020838186019501011161035457565b346103545760c036600319011261035457610f6061033e565b610f68610358565b90610f7161036e565b60643590610f7e82610f10565b60843560a4356001600160401b03811161035457610fa0903690600401610f1a565b90610fa96139f1565b600354610fc6906001600160a01b03165b6001600160a01b031690565b6001600160a01b03811615611105576040516331e1e60b60e11b6020808301919091526001600160a01b0387166024830152871515604480840191909152825293909288915f918b9161103d9161101e6064896107b8565b60405163027f58e560e61b8152998a9889978896309160048901612625565b03925af1908115611100575f916110d1575b50156110c25760405191151582526001600160a01b0392831692169082907f75a1fc5e2239f53dc8407b3712c878c5893431bc3c349ea3561584869670f7f290602090a36040516331e1e60b60e11b81526001600160a01b0392909216915f5160206149245f395f51905f5290602090a3005b6309fb5d8760e21b5f5260045ffd5b6110f3915060203d6020116110f9575b6110eb81836107b8565b8101906125f0565b5f61104f565b503d6110e1565b6126cc565b63022fcd8560e61b5f5260045ffd5b34610354575f3660031901126103545760206040516104008152f35b34610354575f36600319011261035457602060ff5f5160206149845f395f51905f5254166040519015158152f35b346103545760403660031901126103545761117761033e565b6024359061118482610f10565b61118c6139f1565b60405191151582526001600160a01b03169033907f75a1fc5e2239f53dc8407b3712c878c5893431bc3c349ea3561584869670f7f290602090a3005b610120366003190112610354576111dd61033e565b6111e5610358565b6044359160643560ff81168103610354576084356001600160401b03811161035457611215903690600401610f1a565b61121d610384565b9060c4359260e4359461010435986001600160401b038a116103545761124a6109599a3690600401610f1a565b9990986126d7565b6101003660031901126103545761126761033e565b61126f610358565b60643560443561127d61039a565b611285610384565b9060c43560e4356001600160401b038111610354576112a8903690600401610f1a565b906112b1613a18565b6112b96139f1565b6003546112ce906001600160a01b0316610fba565b6001600160a01b0381161561110557604051636ffea07960e11b60208281019190915260248201899052604482018a90526001600160a01b03808816606484015288166084830152938a935f918d9161135a91906113398660a481015b03601f1981018852876107b8565b60405163027f58e560e61b8152998a98899788963492309160048a01612836565b03925af1908115611100575f916113d9575b50156110c25734156113ca5761138493349387613ddc565b604051636ffea07960e11b81526001600160a01b0391821692909116905f5160206149245f395f51905f5290602090a361095960015f5160206149a45f395f51905f5255565b631f2a200560e01b5f5260045ffd5b6113f2915060203d6020116110f9576110eb81836107b8565b5f61136c565b346103545760203660031901126103545761141161033e565b611419613410565b6001600160a01b038116908115611476577f7dae230f18360d76a040c81f050aa14eb9d6dc7901b20fc5d855e2a20fe814d19161146d6020926001600160601b036001549181199060601b16911617600155565b604051908152a1005b63e6c4247b60e01b5f5260045ffd5b346103545760203660031901126103545761149e61033e565b6114a6613410565b6001600160a01b0316801561147657600380546001600160a01b031916821790557f4d57218e59793e6845c36a961c3af7acfce8c54b13a697da231466fc265fdb615f80a2005b34610354575f36600319011261035457611505613332565b61150d6139f1565b600160ff195f5160206149845f395f51905f525416175f5160206149845f395f51905f52557f62e78cea01bee320cd4e420270b5ea74000d11b0c9f74754ebdbfc544b05a2586020604051338152a1005b916115939061158561054197959693600f60f81b865260e0602087015260e086019061050c565b90848203604086015261050c565b60608301949094526001600160a01b031660808201525f60a082015280830360c090910152610c16565b34610354575f366003190112610354577fa16a46d94261c7517cc8ff89f61c0ce93598e3c849801011dee649a6a557d100541580611664575b1561162757611603611c72565b61160b611d3f565b906105d66116176124c2565b604051938493309146918661155e565b60405162461bcd60e51b81526020600482015260156024820152741152540dcc4c8e88155b9a5b9a5d1a585b1a5e9959605a1b6044820152606490fd5b507fa16a46d94261c7517cc8ff89f61c0ce93598e3c849801011dee649a6a557d10154156115f6565b34610354575f3660031901126103545760205f54604051908152f35b34610354575f366003190112610354576020600454604051908152f35b3461035457604036600319011261035457602060ff6117156004356116e9610358565b905f525f5160206149645f395f51905f52845260405f209060018060a01b03165f5260205260405f2090565b54166040519015158152f35b346103545760403660031901126103545761173a61033e565b60243561174681610f10565b6001600160a01b0382169182156117b85761177990611764336121ba565b9060018060a01b03165f5260205260405f2090565b60ff1981541660ff8315151617905560405190151581527f17307eab39ab6107e8899845ad3d59bd9653f200f220920489ca2b5937696c3160203392a3005b62ced3e160e81b5f525f60045260245ffd5b602081016020825282518091526040820191602060408360051b8301019401925f915b8383106117fc57505050505090565b909192939460208061181a600193603f19868203018752895161050c565b970193019301919392906117ed565b34610354576020366003190112610354576004356001600160401b0381116103545736602382011215610354578060040135906001600160401b038211610354573660248360051b83010111610354576105d6916024611889920161296b565b604051918291826117ca565b602435906001600160401b038216820361035457565b606435906001600160401b038216820361035457565b604435906001600160601b038216820361035457565b608435906001600160601b038216820361035457565b346103545760c0366003190112610354576004356001600160401b0381116103545761191d903690600401610f1a565b90611926611895565b9161192f6118c1565b916064356001600160401b0381116103545761194f903690600401610f1a565b906084356001600160401b0381116103545761196f903690600401610f1a565b92909160a435966001600160401b038811610354576105d6986119996119a1993690600401610f1a565b989097612a27565b6040519081529081906020820190565b604051906119c06020836107b8565b5f8252565b34610354575f366003190112610354576105d66040516119e66040826107b8565b60058152640352e302e360dc1b602082015260405191829160208352602083019061050c565b346103545761014036600319011261035457611a2661033e565b611a2e610358565b6044356001600160401b03811161035457611a4d903690600401610f1a565b919092611a586118ab565b611a606118d7565b60a4356001600160401b03811161035457611a7f903690600401610f1a565b60c4929192356001600160401b03811161035457611aa1903690600401610f1a565b9160e4356001600160401b03811161035457611ac1903690600401610f1a565b9590946101043597610124359b6001600160401b038d11610354576105d69d611af16119a19e3690600401610f1a565b9d909c61306d565b3461035457604036600319011261035457610959600435611b18610358565b90611b3e6109bb825f525f5160206149645f395f51905f52602052600160405f20015490565b613758565b608036600319011261035457611b81600435602435611b6061036e565b611b686103b0565b91611b71613a18565b611b796139f1565b349333613ddc565b60015f5160206149a45f395f51905f5255005b34610354575f36600319011261035457602060015460601c604051908152f35b34610354575f36600319011261035457602060405160018152f35b34610354575f3660031901126103545760206040517f65d7a28e3265b37a6474929f336521b332c1681b933f6cb9f3376673440d862a8152f35b3461035457604036600319011261035457602060ff611715611c2961033e565b611764611c34610358565b916121ba565b90600182811c92168015611c68575b6020831014611c5457565b634e487b7160e01b5f52602260045260245ffd5b91607f1691611c49565b604051905f825f5160206148c45f395f51905f525491611c9183611c3a565b8083529260018116908115611d205750600114611cb5575b6107ed925003836107b8565b505f5160206148c45f395f51905f525f90815290917f42ad5d3e1f2e6e70edcf6d991b8a3023d3fca8047a131592f9edb9fd9b89d57d5b818310611d045750509060206107ed92820101611ca9565b6020919350806001915483858901015201910190918492611cec565b602092506107ed94915060ff191682840152151560051b820101611ca9565b604051905f825f5160206148e45f395f51905f525491611d5e83611c3a565b8083529260018116908115611d205750600114611d81576107ed925003836107b8565b505f5160206148e45f395f51905f525f90815290917f5f9ce34815f8e11431c7bb75a8e6886a91478f7ffc1dbb0a98dc240fddd76b755b818310611dd05750509060206107ed92820101611ca9565b6020919350806001915483858901015201910190918492611db8565b9060405191825f825492611dff84611c3a565b8084529360018116908115611e685750600114611e24575b506107ed925003836107b8565b90505f9291925260205f20905f915b818310611e4c5750509060206107ed928201015f611e17565b6020919350806001915483858901015201910190918492611e33565b9050602092506107ed94915060ff191682840152151560051b8201015f611e17565b9597969294611ee26001600160401b0395611ed4879560c099611eb7611ef09760e08e818152019061050c565b6001600160a01b0390921660208d01528b820360408d015261050c565b9089820360608b015261050c565b90878203608089015261050c565b961660a085015216910152565b34610354576020366003190112610354576004355f52600260205260405f20611f2581611dec565b906105d660018060a01b0360018301541691611f4360028201611dec565b93611f5060038301611dec565b916005611f5f60048301611dec565b910154926040519687966001600160401b03808760401c1696169488611e8a565b346103545760a036600319011261035457611f9961033e565b611fa1610358565b60443590606435926084356001600160401b03811161035457611fc89036906004016108b4565b926001600160a01b0382163381141580612063575b61204d576001600160a01b0384161561203a5715612028576109599461202060405192600184526020840152604083019160018352606084015260808301604052565b929091614217565b626a0d4560e21b5f525f60045260245ffd5b632bfa23e760e11b5f525f60045260245ffd5b63711bec9160e11b5f523360045260245260445ffd5b5061206e338461331e565b15611fdd565b34610354575f3660031901126103545760206040517f189ab7a9244df0848122154315af71fe140f3db0fe014031783b0946b8c9d2e38152f35b34610354576020366003190112610354576004356001600160601b0381168103610354576001600160601b03906120e3613410565b16610bb8811161212c576020817f7cb8fa1ce2fc1ff6556e563c0dcba551db7cdeb3f3b0911243692639ac80e94d926001600160601b03196001541617600155604051908152a1005b63cd4e616760e01b5f5260045ffd5b34610354575f36600319011261035457602060405160028152f35b60a03660031901126103545760243560043560ff8216820361035457604435916001600160401b03831161035457612195611b81933690600401610f1a565b61219d6103b0565b91608435936121aa613a18565b6121b26139f1565b349533613b93565b6001600160a01b03165f9081527f88be536d5240c274a3b1d3a1be54482fd9caa294f08c62a7cde569f49a3c45016020526040902090565b634e487b7160e01b5f52601160045260245ffd5b906103e88202918083046103e8149015171561221e57565b6121f2565b8181029291811591840414171561221e57565b939291906001600160a01b038516338114158061226f575b61204d576001600160a01b0382161561203a5715612028576107ed94614217565b5060ff61227f33611764896121ba565b54161561224e565b604051906122966040836107b8565b6007825266213637b3a43ab160c91b6020830152565b604051906122bb6040836107b8565b60018252601960f91b6020830152565b604051929160206122dc81866107b8565b5f85526122e7614414565b6122ef614414565b8451906001600160401b0382116107d9576123208261231b5f5160206149e45f395f51905f5254611c3a565b612ba5565b602090601f831160011461241b5750816123db9392612359926123f897985f92612410575b50508160011b915f199060031b1c19161790565b5f5160206149e45f395f51905f52555b612371614414565b612379614414565b612381614414565b612389614414565b6123a2612394612287565b61239c6122ac565b906137f8565b6123ab836134a5565b506123b583613541565b506123bf83613602565b506001600160601b036001549181199060601b16911617600155565b6123f360fa6001600160601b03196001541617600155565b61396f565b61240160015f55565b6107ed6512309ce54000600455565b015190505f80612345565b5f5160206149e45f395f51905f525f52601f198316969091907ff429cb5e2ec84cbb765e76b31964a56ccde03e7a6122d6cc4afb19edc55edeed925f905b8982106124aa5750509183916001936123db96956123f8999a10612492575b505050811b015f5160206149e45f395f51905f5255612369565b01515f1960f88460031b161c191690555f8080612478565b80600185968294968601518155019501930190612459565b604051906124d16020836107b8565b5f808352366020840137565b906124e7826107ef565b6124f460405191826107b8565b8281528092612505601f19916107ef565b0190602036910137565b634e487b7160e01b5f52603260045260245ffd5b8051156125305760200190565b61250f565b8051600110156125305760400190565b80518210156125305760209160051b010190565b919091805183518082036125db57505061257381516124dd565b905f5b81518110156125d457806125c260019260051b602080828701015191890101515f525f5160206149445f395f51905f5260205260405f209060018060a01b03165f5260205260405f2090565b546125cd8286612545565b5201612576565b5090925050565b635b05999160e01b5f5260045260245260445ffd5b90816020910312610354575161054181610f10565b908060209392818452848401375f828201840152601f01601f1916010190565b6001600160a01b039182168152918116602083015290911660408201526331e1e60b60e11b6060820152610100608082018190526105419593949261266c9183019061050c565b935f60a083015260c082015260e0818503910152612605565b6001600160a01b0391821681529181166020830152909116604082015263565ca10760e11b6060820152610100608082018190526105419593949261266c9183019061050c565b6040513d5f823e3d90fd5b99909897919695949392976126ea613a18565b6126f26139f1565b600354612707906001600160a01b0316610fba565b6001600160a01b0381161561110557895f8d61276d6020968f9661274c8f8f8f908f918f9261132b936040519c8d96637f8f848560e11b6020890152602488016127f9565b60405163027f58e560e61b8152998a98899788963492309160048a01612898565b03925af1908115611100575f916127da575b50156110c25761279195349589613b93565b604051600162707b7b60e11b031981526001600160a01b0391821692909116905f5160206149245f395f51905f5290602090a36107ed60015f5160206149a45f395f51905f5255565b6127f3915060203d6020116110f9576110eb81836107b8565b5f61277f565b92909360ff6128229360809699989799865216602085015260a0604085015260a0840191612605565b6001600160a01b0390951660608201520152565b6001600160a01b03918216815291811660208301529091166040820152636ffea07960e11b606082015261010060808201819052610541969395939491926128809184019061050c565b9460a083015260c082015260e0818503910152612605565b6001600160a01b03918216815291811660208301529091166040820152600162707b7b60e11b0319606082015261010060808201819052610541969395939491926128809184019061050c565b9190820391821161221e57565b91908110156125305760051b81013590601e19813603018212156103545701908135916001600160401b038311610354576020018236038113610354579190565b6020806107ed93959486604051978895848701378401908282015f8152815193849201905e01015f815203601f1981018452836107b8565b6129745f610863565b61298160405191826107b8565b5f8152601f196129905f610863565b013660208301376129a0836107ef565b926129ae60405194856107b8565b808452601f196129bd826107ef565b015f5b818110612a165750505f5b8181106129d9575050505090565b806129fa6129f4856129ee600195878a6128f2565b90612933565b30613f31565b612a048288612545565b52612a0f8187612545565b50016129cb565b8060606020809389010152016129c0565b92959497989091939698612a396139f1565b6127106001600160601b03881611612b885760408911612b795760808a11612b6a5760408211612b5b575f54998a97612a7189612b97565b5f55612a7b6107de565b612a8636878961087e565b8152336020820152612a99368d8d61087e565b6040820152612aa936848b61087e565b6060820152612ab936868661087e565b60808201526001600160401b03881660a08201526001600160401b03421660c0820152612aee8a5f52600260205260405f2090565b90612af891612e7e565b88612b016119b1565b612b0b9133613fa4565b612b1690338a614145565b604051966001600160401b038897169a339a4296612b34988a613017565b037fe1f019067723227459da3288a64e57be1e0fd18c77031e2ad16b5d6c8f74084e91a490565b635e95d47960e11b5f5260045ffd5b6324a25c5760e01b5f5260045ffd5b631750ba0360e01b5f5260045ffd5b63c2b03beb60e01b5f5260045ffd5b5f19811461221e5760010190565b601f8111612bb1575050565b5f5160206149e45f395f51905f525f5260205f20906020601f840160051c83019310612bf7575b601f0160051c01905b818110612bec575050565b5f8155600101612be1565b9091508190612bd8565b601f8111612c0d575050565b5f5160206148c45f395f51905f525f5260205f20906020601f840160051c83019310612c53575b601f0160051c01905b818110612c48575050565b5f8155600101612c3d565b9091508190612c34565b601f8211612c6a57505050565b5f5260205f20906020601f840160051c83019310612ca2575b601f0160051c01905b818110612c97575050565b5f8155600101612c8c565b9091508190612c83565b9081516001600160401b0381116107d957612ceb81612cd85f5160206148e45f395f51905f5254611c3a565b5f5160206148e45f395f51905f52612c5d565b602092601f8211600114612d2b57612d1a929382915f926124105750508160011b915f199060031b1c19161790565b5f5160206148e45f395f51905f5255565b5f5160206148e45f395f51905f525f52601f198216937f5f9ce34815f8e11431c7bb75a8e6886a91478f7ffc1dbb0a98dc240fddd76b75915f5b868110612da75750836001959610612d8f575b505050811b015f5160206148e45f395f51905f5255565b01515f1960f88460031b161c191690555f8080612d78565b91926020600181928685015181550194019201612d65565b91909182516001600160401b0381116107d957612de681612de08454611c3a565b84612c5d565b6020601f8211600114612e19578190612e159394955f926124105750508160011b915f199060031b1c19161790565b9055565b601f19821690612e2c845f5260205f2090565b915f5b818110612e6657509583600195969710612e4e575b505050811b019055565b01515f1960f88460031b161c191690555f8080612e44565b9192602060018192868b015181550194019201612e2f565b919080519283516001600160401b0381116107d957612ea181612de08454611c3a565b6020601f8211600114612fa257612f7b92612edb8360c0946005946107ed999a5f926124105750508160011b915f199060031b1c19161790565b81555b60208501516001820180546001600160a01b0319166001600160a01b03909216919091179055612f15604086015160028301612dbf565b612f26606086015160038301612dbf565b612f37608086015160048301612dbf565b0192612f6d612f5060a08301516001600160401b031690565b855467ffffffffffffffff19166001600160401b03909116178555565b01516001600160401b031690565b67ffffffffffffffff60401b82549160401b169067ffffffffffffffff60401b1916179055565b601f19821695612fb5845f5260205f2090565b965f5b818110612fff5750836107ed9798600594612f7b979460c09760019510612fe7575b505050811b018155612ede565b01515f1960f88460031b161c191690555f8080612fda565b83830151895560019098019760209384019301612fb8565b9998979361305a9361304c9161303e613068999460809b99968f60a0908181520191612605565b8d810360208f015291612605565b918a830360408c0152612605565b918783036060890152612605565b930152565b9d9c909c9b91959a939697999294989b6130856139f1565b60035461309a906001600160a01b0316610fba565b916001600160a01b03831615611105576127106001600160601b038c1611612b885760408a11612b795760808e11612b6a5760408611612b5b578f8f91928f938f8f8f8f8f988f938f95928f94938f946040519d8e9963565ca10760e11b60208c015260248b019961310b9a6132b4565b03601f198101865261311d90866107b8565b60405163027f58e560e61b8152968795869561313f9530919060048901612685565b03815a6020945f91f1908115611100575f91613295575b50156110c2575f549b8c9761316a89612b97565b5f556131746107de565b61317f36878961087e565b81526001600160a01b038316602082015261319b368a8e61087e565b60408201526131ab368e8d61087e565b60608201526131bb36868661087e565b60808201526001600160401b03881660a08201526001600160401b03421660c08201526131f08a5f52600260205260405f2090565b906131fa91612e7e565b6132026119b1565b61320d908a84613fa4565b61321890828a614145565b600160a01b6001900316998a98604051976001600160401b038998169b4296613241988a613017565b037fe1f019067723227459da3288a64e57be1e0fd18c77031e2ad16b5d6c8f74084e91a460405163565ca10760e11b81526001600160a01b0392909216915f5160206149245f395f51905f5290602090a390565b6132ae915060203d6020116110f9576110eb81836107b8565b5f613156565b9896946001600160601b036105419b99956001600160401b036132e86133109a9561330298978f60c0908181520191612605565b951660208d01521660408b015289830360608b0152612605565b918683036080880152612605565b9260a0818503910152612605565b60ff9161176461332d926121ba565b541690565b335f9081527f75442b0a96088b5456bc4ed01394c96a4feec0f883c9494257d76b96ab1c9b6b602052604090205460ff161561336a57565b63e2517d3f60e01b5f52336004527f65d7a28e3265b37a6474929f336521b332c1681b933f6cb9f3376673440d862a60245260445ffd5b335f9081527fab71e3f32666744d246edff3f96e4bdafee2e9867098cdd118a979a7464786a8602052604090205460ff16156133d957565b63e2517d3f60e01b5f52336004527f189ab7a9244df0848122154315af71fe140f3db0fe014031783b0946b8c9d2e360245260445ffd5b335f9081527fb7db2dd08fcb62d0c9e08c51941cae53c267786a0b75803fb7960902fc8ef97d602052604090205460ff161561344857565b63e2517d3f60e01b5f52336004525f60245260445ffd5b5f8181525f5160206149645f395f51905f526020908152604080832033845290915290205460ff161561348f5750565b63e2517d3f60e01b5f523360045260245260445ffd5b6001600160a01b0381165f9081527fb7db2dd08fcb62d0c9e08c51941cae53c267786a0b75803fb7960902fc8ef97d602052604090205460ff1661353c576001600160a01b03165f8181527fb7db2dd08fcb62d0c9e08c51941cae53c267786a0b75803fb7960902fc8ef97d60205260408120805460ff191660011790553391905f5160206148a45f395f51905f528180a4600190565b505f90565b6001600160a01b0381165f9081527fab71e3f32666744d246edff3f96e4bdafee2e9867098cdd118a979a7464786a8602052604090205460ff1661353c576001600160a01b0381165f9081527fab71e3f32666744d246edff3f96e4bdafee2e9867098cdd118a979a7464786a860205260409020805460ff1916600117905533906001600160a01b03167f189ab7a9244df0848122154315af71fe140f3db0fe014031783b0946b8c9d2e35f5160206148a45f395f51905f525f80a4600190565b6001600160a01b0381165f9081527f75442b0a96088b5456bc4ed01394c96a4feec0f883c9494257d76b96ab1c9b6b602052604090205460ff1661353c576001600160a01b0381165f9081527f75442b0a96088b5456bc4ed01394c96a4feec0f883c9494257d76b96ab1c9b6b60205260409020805460ff1916600117905533906001600160a01b03167f65d7a28e3265b37a6474929f336521b332c1681b933f6cb9f3376673440d862a5f5160206148a45f395f51905f525f80a4600190565b5f8181525f5160206149645f395f51905f52602090815260408083206001600160a01b038616845290915290205460ff16613752575f8181525f5160206149645f395f51905f52602090815260408083206001600160a01b03861684529091529020805460ff1916600117905533916001600160a01b0316905f5160206148a45f395f51905f525f80a4600190565b50505f90565b5f8181525f5160206149645f395f51905f52602090815260408083206001600160a01b038616845290915290205460ff1615613752575f8181525f5160206149645f395f51905f52602090815260408083206001600160a01b03861684529091529020805460ff1916905533916001600160a01b0316907ff6391f5c32d9c69d2a47ea670b442974b53935d1edc7fd64eb21e047a839171b5f80a4600190565b613800614414565b613808614414565b8051906001600160401b0382116107d957613839826138345f5160206148c45f395f51905f5254611c3a565b612c01565b602090601f83116001146138d057918061386c9261388095945f926124105750508160011b915f199060031b1c19161790565b5f5160206148c45f395f51905f5255612cac565b6138a85f7fa16a46d94261c7517cc8ff89f61c0ce93598e3c849801011dee649a6a557d10055565b6107ed5f7fa16a46d94261c7517cc8ff89f61c0ce93598e3c849801011dee649a6a557d10155565b5f5160206148c45f395f51905f525f52601f19831691907f42ad5d3e1f2e6e70edcf6d991b8a3023d3fca8047a131592f9edb9fd9b89d57d925f5b81811061395757509160019391856138809796941061393f575b505050811b015f5160206148c45f395f51905f5255612cac565b01515f1960f88460031b161c191690555f8080613925565b9293602060018192878601518155019501930161390b565b6001600160a01b031680156139cf576040519061398d6040836107b8565b8082526101f46020909201919091526001600160a01b0316607d60a21b177fdaedc9ab023613a7caf35e703657e986ccfad7e3eb0af93a2853f8d65dd86b0055565b635b6cc80560e11b5f525f60045260245ffd5b90816020910312610354575190565b60ff5f5160206149845f395f51905f525416613a0957565b63d93c066560e01b5f5260045ffd5b60025f5160206149a45f395f51905f525414613a415760025f5160206149a45f395f51905f5255565b633ee5aeb560e01b5f5260045ffd5b9060405160e08101908082106001600160401b038311176107d9576107ed9160405260c0613aec60058396613a8481611dec565b855260018101546001600160a01b03166020860152613aa560028201611dec565b6040860152613ab660038201611dec565b6060860152613ac760048201611dec565b608086015201546001600160401b03811660a085015260401c6001600160401b031690565b6001600160401b0316910152565b60408051909190613b0b83826107b8565b6001815291601f1901366020840137565b60405160609190613b2d83826107b8565b6002815291601f1901366020840137565b3d15613b68573d90613b4f82610863565b91613b5d60405193846107b8565b82523d5f602084013e565b606090565b929493613b8760ff92604094606087526060870191612605565b95602085015216910152565b929695919490955f5487101561063d5760ff86169160028311613dcd576104008611613dbe5785158080613db6575b80613dae575b613d9f5715928380613d94575b613d8557613bf3613bee8a5f52600260205260405f2090565b613a50565b9083613c54575b50505050613c0b575b505050505050565b7f19a5aae49af5681d63d1a8c6ea9dc7b88af86e08d71ade984e2087fada0d4c4a93613c469160405194859460018060a01b03169885613b6d565b0390a35f8080808080613c03565b600203613ce75750505f80808084613c74610fba610fba60015460601c90565b5af1613c7e613b3e565b5015613cd8575b6040805160ff88168152602081019290925242908201526001600160a01b0384169087907fa47847c5419013bc5fa344eaa882ed5b33f76d87a7ce6a1a760d5af198afd9e590606090a35f808080613bfa565b6312171d8360e31b5f5260045ffd5b613d3d613d4391613d00613cf96119b1565b8c8a613fa4565b876020613d0b613afa565b92018051909590613d38906001600160a01b03165b613d2985612523565b6001600160a01b039091169052565b6144e1565b83614537565b9081613d51575b5050613c85565b515f91829182918291613d6e90610fba906001600160a01b031681565b5af1613d78613b3e565b5015613cd8575f80613d4a565b633f7d56c960e11b5f5260045ffd5b506004548310613bd5565b630eb90eff60e01b5f5260045ffd5b508215613bc8565b508315613bc2565b63251f56a160e21b5f5260045ffd5b631556136560e01b5f5260045ffd5b91939290925f5484101561063d576001600160a01b0382168015613f22578615613d8557613e64613e5e613e1b613bee885f52600260205260405f2090565b613e2d613e266119b1565b8989613fa4565b866020613e38613b1c565b92018051909690613e51906001600160a01b0316613d20565b613d3888613d2985612535565b88614537565b613e78613e718260011c90565b80926128e5565b9281613eee575b505081613ed1575b5050604080516001600160a01b0392831681526020810196909652429086015216927f3e2236223f9ef11dd92492a8d35ef88d2ef5bea632e11697c2565e8a55d2b40190606090a4565b5f80809381935af1613ee1613b3e565b5015613cd8575f80613e87565b515f91829182918291613f0b90610fba906001600160a01b031681565b5af1613f15613b3e565b5015613cd8575f80613e7f565b633e510d3960e21b5f5260045ffd5b905f8091602081519101845af48080613f91575b15613f54575050610541614624565b15613f7957639996b31560e01b5f9081526001600160a01b0391909116600452602490fd5b3d15155f036126cc5763d6bda27560e01b5f5260045ffd5b503d151580613f455750813b1515613f45565b9291906001600160a01b0384161561203a576001613fdf60405192600184526020840152604083019160018352606084015260808301604052565b9080518251908181036141305750506001600160a01b03851693841515935f5b83518110156140645780868960019360051b602080828a010151918a0101519261402d575b50505001613fff565b61405a91611764614052925f525f5160206149445f395f51905f5260205260405f2090565b91825461463d565b90555f8981614024565b509390959460018351145f146140f5576020838101518582015160408051928352928201525f9133917fc3d58168c5ae7397731d063d5bbf3d657854427343f4c083240f7aacaa2d0f629190a45b6140bd575b50505050565b80516001036140e557906020806140dc95930151910151915f33614805565b5f8080806140b7565b6140f0935f336146d7565b6140dc565b5f6040517f4a39dc06d4c0dbc64b70af90fd698a233a518aa5d07e595d983b8c0526c8f7fb33918061412889898361464a565b0390a46140b2565b635b05999160e01b5f5260045260245260445ffd5b92916001600160601b031661271081116141fb576001600160a01b038216156141e4576107ed92936141bc91604051936141806040866107b8565b60018060a01b0316845260208401525f527fdaedc9ab023613a7caf35e703657e986ccfad7e3eb0af93a2853f8d65dd86b0160205260405f2090565b815160209092015160a01b6001600160a01b0319166001600160a01b03909216919091179055565b83634b4f842960e11b5f526004525f60245260445ffd5b8363dfd1fc1b60e01b5f5260045260245261271060445260645ffd5b94939290919384518251908181036141305750506001600160a01b038681169586151595918516801515939192905f5b8451811015614347578060051b90898988602080868b010151958c010151926142ac575b9360019461427d575b50505001614247565b6142a291611764614052925f525f5160206149445f395f51905f5260205260405f2090565b90555f8981614274565b505090916142d28d611764835f525f5160206149445f395f51905f5260205260405f2090565b54828110614310578291898f614307600197968f950391611764855f525f5160206149445f395f51905f5260205260405f2090565b5590945061426b565b6040516303dee4c560e01b81526001600160a01b038f16600482015260248101919091526044810183905260648101829052608490fd5b5091989593929790965060018851145f146143da5760208881015186820151604080519283529282015233917fc3d58168c5ae7397731d063d5bbf3d657854427343f4c083240f7aacaa2d0f6291a45b6143a3575b5050505050565b84516001036143c9576020806143bf9601519201519233614805565b5f8080808061439c565b6143d5949192336146d7565b6143bf565b6040517f4a39dc06d4c0dbc64b70af90fd698a233a518aa5d07e595d983b8c0526c8f7fb33918061440c898d8361464a565b0390a4614397565b60ff5f5160206149c45f395f51905f525460401c161561443057565b631afcd79f60e31b5f5260045ffd5b90813b156144c0575f5160206149045f395f51905f5280546001600160a01b0319166001600160a01b0384169081179091557fbc7cd75a20ee27fd9adebab32041f755214dbc6bffa90cc0225b39da2e5c2d3b5f80a28051156144a8576144a591613f31565b50565b5050346144b157565b63b398979f60e01b5f5260045ffd5b50634c9c8ce360e01b5f9081526001600160a01b0391909116600452602490fd5b916001600160a01b0380841692168214614530575f5b815181101561452a576001600160a01b036145128284612545565b51168314614522576001016144f7565b505050505f90565b50505090565b5050505f90565b60015490916145526107486001600160601b03841685612223565b906001600160a01b0316801561461c578161456f61074886612206565b935b816145f0575b505082614592575b5061458d90610541936128e5565b6128e5565b905f80808086865af16145a3613b3e565b5015613cd8576105419361458d927f6292f4f27d8047af4537a4bd86906de0e2c880c20086f7f58b81eacfeb639126604051806145e588829190602083019252565b0390a293509061457f565b5f808093614605610fba610fba849660601c90565b5af161460f613b3e565b5015613cd857815f614577565b815f93614571565b604051903d82523d5f602084013e60203d830101604052565b9190820180921161221e57565b909161466161054193604084526040840190610c16565b916020818403910152610c16565b9081602091031261035457516105418161042f565b6001600160a01b0391821681529116602082015260a06040820181905261054194919391926146c992916146bb9190860190610c16565b908482036060860152610c16565b91608081840391015261050c565b9091949293853b6146ea57505050505050565b60209361470c91604051968795869563bc197c8160e01b875260048701614684565b03815f6001600160a01b0387165af15f918161479b575b5061475d5750614731613b3e565b805191908261475657632bfa23e760e11b5f526001600160a01b03821660045260245ffd5b6020915001fd5b6001600160e01b0319166343e6837f60e01b0161478057505f8080808080613c03565b632bfa23e760e11b5f526001600160a01b031660045260245ffd5b6147be91925060203d6020116147c5575b6147b681836107b8565b81019061466f565b905f614723565b503d6147ac565b6001600160a01b039182168152911660208201526040810191909152606081019190915260a0608082018190526105419291019061050c565b9091949293853b61481857505050505050565b60209361483a91604051968795869563f23a6e6160e01b8752600487016147cc565b03815f6001600160a01b0387165af15f9181614882575b5061485f5750614731613b3e565b6001600160e01b031916630dc5919f60e01b0161478057505f8080808080613c03565b61489c91925060203d6020116147c5576147b681836107b8565b905f61485156fe2f8788117e7eff1d82e926ec794901d17c78024a50270940304540a733656f0da16a46d94261c7517cc8ff89f61c0ce93598e3c849801011dee649a6a557d102a16a46d94261c7517cc8ff89f61c0ce93598e3c849801011dee649a6a557d103360894a13ba1a3210667c828492db98dca3e2076cc3735a920a3ca505d382bbce915025b6f599b245c9c1c02d463228c896354d64dceb469760c99544153be6d88be536d5240c274a3b1d3a1be54482fd9caa294f08c62a7cde569f49a3c450002dd7bc7dec4dceedda775e58dd541e08a116c6c53815c0bd028192f7b626800cd5ed15c6e187e77e9aee88184c21f4f2182ab5827cb3b7e07fbedcd63f033009b779b17422d0df92223018b32b4d1fa46e071723d6817e2486d003becc55f00f0c57e16840df040f15088dc2f81fe391c3923bec73e23a9662efc9c229c6a0088be536d5240c274a3b1d3a1be54482fd9caa294f08c62a7cde569f49a3c4502a2646970667358221220e0e126e09c39a94d7bdd56a885d0a7faf01a028ba4f807a6c59b6dfe08b8831b64736f6c634300081e0033f0c57e16840df040f15088dc2f81fe391c3923bec73e23a9662efc9c229c6a00","linkReferences":{}},"methodIdentifiers":{"DEFAULT_ADMIN_ROLE()":"a217fddf","MAX_COMMENT_LENGTH()":"5856e4fa","MAX_COVER_IMAGE_LENGTH()":"ec176f2c","MAX_ORIGINAL_AUTHOR_LENGTH()":"19e94a6e","MAX_TITLE_LENGTH()":"2ef9a160","PAUSER_ROLE()":"e63ab1e9","SCORE_DISLIKE()":"fde84719","SCORE_LIKE()":"e1d90b34","SCORE_NEUTRAL()":"473106b2","UPGRADER_ROLE()":"f72c0d8b","UPGRADE_INTERFACE_VERSION()":"ad3cb1cc","articles(uint256)":"edcfafe6","balanceOf(address,uint256)":"00fdd58e","balanceOfBatch(address[],uint256[])":"4e1273f4","eip712Domain()":"84b0196e","evaluate(uint256,uint8,string,address,uint256)":"ff1f090a","evaluateWithSessionKey(address,address,uint256,uint8,string,address,uint256,uint256,bytes)":"63c4ea4d","follow(address,bool)":"63c3cc16","followWithSessionKey(address,address,address,bool,uint256,bytes)":"5780400b","getRoleAdmin(bytes32)":"248a9ca3","grantRole(bytes32,address)":"2f2ff15d","hasRole(bytes32,address)":"91d14854","initialize(address,address)":"485cc955","isApprovedForAll(address,address)":"e985e9c5","likeComment(uint256,uint256,address,address)":"dffd40f2","likeCommentWithSessionKey(address,address,uint256,uint256,address,address,uint256,bytes)":"79c61f28","minActionValue()":"8cbd215e","multicall(bytes[])":"ac9650d8","nextArticleId()":"85c3ab54","pause()":"8456cb59","paused()":"5c975abb","platformFeeBps()":"22dcd13e","platformTreasury()":"e138818c","proxiableUUID()":"52d1902d","publish(string,uint64,uint96,string,string,string)":"acb9420e","publishWithSessionKey(address,address,string,uint64,uint96,string,string,string,uint256,bytes)":"bc802e55","renounceRole(bytes32,address)":"36568abe","revokeRole(bytes32,address)":"d547741f","royaltyInfo(uint256,uint256)":"2a55205a","safeBatchTransferFrom(address,address,uint256[],uint256[],bytes)":"2eb2c2d6","safeTransferFrom(address,address,uint256,uint256,bytes)":"f242432a","sessionKeyManager()":"0b826190","setApprovalForAll(address,bool)":"a22cb465","setMinActionValue(uint256)":"52cbd3be","setPlatformFee(uint96)":"f99e5dbb","setPlatformTreasury(address)":"7cd86d60","setSessionKeyManager(address)":"837fa3fd","supportsInterface(bytes4)":"01ffc9a7","unpause()":"3f4ba83a","upgradeToAndCall(address,bytes)":"4f1ef286","uri(uint256)":"0e89341c"},"id":63}