{"abi":[{"type":"constructor","inputs":[],"stateMutability":"nonpayable"},{"type":"function","name":"DEFAULT_ADMIN_ROLE","inputs":[],"outputs":[{"name":"","type":"bytes32","internalType":"bytes32"}],"stateMutability":"view"},{"type":"function","name":"MAX_COMMENT_LENGTH","inputs":[],"outputs":[{"name":"","type":"uint256","internalType":"uint256"}],"stateMutability":"view"},{"type":"function","name":"MAX_ORIGINAL_AUTHOR_LENGTH","inputs":[],"outputs":[{"name":"","type":"uint256","internalType":"uint256"}],"stateMutability":"view"},{"type":"function","name":"PAUSER_ROLE","inputs":[],"outputs":[{"name":"","type":"bytes32","internalType":"bytes32"}],"stateMutability":"view"},{"type":"function","name":"SCORE_DISLIKE","inputs":[],"outputs":[{"name":"","type":"uint8","internalType":"uint8"}],"stateMutability":"view"},{"type":"function","name":"SCORE_LIKE","inputs":[],"outputs":[{"name":"","type":"uint8","internalType":"uint8"}],"stateMutability":"view"},{"type":"function","name":"SCORE_NEUTRAL","inputs":[],"outputs":[{"name":"","type":"uint8","internalType":"uint8"}],"stateMutability":"view"},{"type":"function","name":"UPGRADER_ROLE","inputs":[],"outputs":[{"name":"","type":"bytes32","internalType":"bytes32"}],"stateMutability":"view"},{"type":"function","name":"UPGRADE_INTERFACE_VERSION","inputs":[],"outputs":[{"name":"","type":"string","internalType":"string"}],"stateMutability":"view"},{"type":"function","name":"articles","inputs":[{"name":"","type":"uint256","internalType":"uint256"}],"outputs":[{"name":"arweaveHash","type":"string","internalType":"string"},{"name":"author","type":"address","internalType":"address"},{"name":"originalAuthor","type":"string","internalType":"string"},{"name":"categoryId","type":"uint64","internalType":"uint64"},{"name":"timestamp","type":"uint64","internalType":"uint64"}],"stateMutability":"view"},{"type":"function","name":"balanceOf","inputs":[{"name":"account","type":"address","internalType":"address"},{"name":"id","type":"uint256","internalType":"uint256"}],"outputs":[{"name":"","type":"uint256","internalType":"uint256"}],"stateMutability":"view"},{"type":"function","name":"balanceOfBatch","inputs":[{"name":"accounts","type":"address[]","internalType":"address[]"},{"name":"ids","type":"uint256[]","internalType":"uint256[]"}],"outputs":[{"name":"","type":"uint256[]","internalType":"uint256[]"}],"stateMutability":"view"},{"type":"function","name":"eip712Domain","inputs":[],"outputs":[{"name":"fields","type":"bytes1","internalType":"bytes1"},{"name":"name","type":"string","internalType":"string"},{"name":"version","type":"string","internalType":"string"},{"name":"chainId","type":"uint256","internalType":"uint256"},{"name":"verifyingContract","type":"address","internalType":"address"},{"name":"salt","type":"bytes32","internalType":"bytes32"},{"name":"extensions","type":"uint256[]","internalType":"uint256[]"}],"stateMutability":"view"},{"type":"function","name":"evaluate","inputs":[{"name":"_articleId","type":"uint256","internalType":"uint256"},{"name":"_score","type":"uint8","internalType":"uint8"},{"name":"_content","type":"string","internalType":"string"},{"name":"_referrer","type":"address","internalType":"address"},{"name":"_parentCommentId","type":"uint256","internalType":"uint256"}],"outputs":[],"stateMutability":"payable"},{"type":"function","name":"evaluateWithSessionKey","inputs":[{"name":"owner","type":"address","internalType":"address"},{"name":"sessionKey","type":"address","internalType":"address"},{"name":"_articleId","type":"uint256","internalType":"uint256"},{"name":"_score","type":"uint8","internalType":"uint8"},{"name":"_content","type":"string","internalType":"string"},{"name":"_referrer","type":"address","internalType":"address"},{"name":"_parentCommentId","type":"uint256","internalType":"uint256"},{"name":"deadline","type":"uint256","internalType":"uint256"},{"name":"signature","type":"bytes","internalType":"bytes"}],"outputs":[],"stateMutability":"payable"},{"type":"function","name":"follow","inputs":[{"name":"_target","type":"address","internalType":"address"},{"name":"_status","type":"bool","internalType":"bool"}],"outputs":[],"stateMutability":"nonpayable"},{"type":"function","name":"followWithSessionKey","inputs":[{"name":"owner","type":"address","internalType":"address"},{"name":"sessionKey","type":"address","internalType":"address"},{"name":"_target","type":"address","internalType":"address"},{"name":"_status","type":"bool","internalType":"bool"},{"name":"deadline","type":"uint256","internalType":"uint256"},{"name":"signature","type":"bytes","internalType":"bytes"}],"outputs":[],"stateMutability":"nonpayable"},{"type":"function","name":"getRoleAdmin","inputs":[{"name":"role","type":"bytes32","internalType":"bytes32"}],"outputs":[{"name":"","type":"bytes32","internalType":"bytes32"}],"stateMutability":"view"},{"type":"function","name":"grantRole","inputs":[{"name":"role","type":"bytes32","internalType":"bytes32"},{"name":"account","type":"address","internalType":"address"}],"outputs":[],"stateMutability":"nonpayable"},{"type":"function","name":"hasRole","inputs":[{"name":"role","type":"bytes32","internalType":"bytes32"},{"name":"account","type":"address","internalType":"address"}],"outputs":[{"name":"","type":"bool","internalType":"bool"}],"stateMutability":"view"},{"type":"function","name":"initialize","inputs":[{"name":"_initialOwner","type":"address","internalType":"address"},{"name":"_treasury","type":"address","internalType":"address"}],"outputs":[],"stateMutability":"nonpayable"},{"type":"function","name":"isApprovedForAll","inputs":[{"name":"account","type":"address","internalType":"address"},{"name":"operator","type":"address","internalType":"address"}],"outputs":[{"name":"","type":"bool","internalType":"bool"}],"stateMutability":"view"},{"type":"function","name":"likeComment","inputs":[{"name":"_articleId","type":"uint256","internalType":"uint256"},{"name":"_commentId","type":"uint256","internalType":"uint256"},{"name":"_commenter","type":"address","internalType":"address"},{"name":"_referrer","type":"address","internalType":"address"}],"outputs":[],"stateMutability":"payable"},{"type":"function","name":"likeCommentWithSessionKey","inputs":[{"name":"owner","type":"address","internalType":"address"},{"name":"sessionKey","type":"address","internalType":"address"},{"name":"_articleId","type":"uint256","internalType":"uint256"},{"name":"_commentId","type":"uint256","internalType":"uint256"},{"name":"_commenter","type":"address","internalType":"address"},{"name":"_referrer","type":"address","internalType":"address"},{"name":"deadline","type":"uint256","internalType":"uint256"},{"name":"signature","type":"bytes","internalType":"bytes"}],"outputs":[],"stateMutability":"payable"},{"type":"function","name":"minActionValue","inputs":[],"outputs":[{"name":"","type":"uint256","internalType":"uint256"}],"stateMutability":"view"},{"type":"function","name":"multicall","inputs":[{"name":"data","type":"bytes[]","internalType":"bytes[]"}],"outputs":[{"name":"results","type":"bytes[]","internalType":"bytes[]"}],"stateMutability":"nonpayable"},{"type":"function","name":"nextArticleId","inputs":[],"outputs":[{"name":"","type":"uint256","internalType":"uint256"}],"stateMutability":"view"},{"type":"function","name":"pause","inputs":[],"outputs":[],"stateMutability":"nonpayable"},{"type":"function","name":"paused","inputs":[],"outputs":[{"name":"","type":"bool","internalType":"bool"}],"stateMutability":"view"},{"type":"function","name":"platformFeeBps","inputs":[],"outputs":[{"name":"","type":"uint96","internalType":"uint96"}],"stateMutability":"view"},{"type":"function","name":"platformTreasury","inputs":[],"outputs":[{"name":"","type":"address","internalType":"address"}],"stateMutability":"view"},{"type":"function","name":"proxiableUUID","inputs":[],"outputs":[{"name":"","type":"bytes32","internalType":"bytes32"}],"stateMutability":"view"},{"type":"function","name":"publish","inputs":[{"name":"_arweaveId","type":"string","internalType":"string"},{"name":"_categoryId","type":"uint64","internalType":"uint64"},{"name":"_royaltyBps","type":"uint96","internalType":"uint96"},{"name":"_originalAuthor","type":"string","internalType":"string"}],"outputs":[{"name":"","type":"uint256","internalType":"uint256"}],"stateMutability":"nonpayable"},{"type":"function","name":"renounceRole","inputs":[{"name":"role","type":"bytes32","internalType":"bytes32"},{"name":"callerConfirmation","type":"address","internalType":"address"}],"outputs":[],"stateMutability":"nonpayable"},{"type":"function","name":"revokeRole","inputs":[{"name":"role","type":"bytes32","internalType":"bytes32"},{"name":"account","type":"address","internalType":"address"}],"outputs":[],"stateMutability":"nonpayable"},{"type":"function","name":"royaltyInfo","inputs":[{"name":"tokenId","type":"uint256","internalType":"uint256"},{"name":"salePrice","type":"uint256","internalType":"uint256"}],"outputs":[{"name":"receiver","type":"address","internalType":"address"},{"name":"amount","type":"uint256","internalType":"uint256"}],"stateMutability":"view"},{"type":"function","name":"safeBatchTransferFrom","inputs":[{"name":"from","type":"address","internalType":"address"},{"name":"to","type":"address","internalType":"address"},{"name":"ids","type":"uint256[]","internalType":"uint256[]"},{"name":"values","type":"uint256[]","internalType":"uint256[]"},{"name":"data","type":"bytes","internalType":"bytes"}],"outputs":[],"stateMutability":"nonpayable"},{"type":"function","name":"safeTransferFrom","inputs":[{"name":"from","type":"address","internalType":"address"},{"name":"to","type":"address","internalType":"address"},{"name":"id","type":"uint256","internalType":"uint256"},{"name":"value","type":"uint256","internalType":"uint256"},{"name":"data","type":"bytes","internalType":"bytes"}],"outputs":[],"stateMutability":"nonpayable"},{"type":"function","name":"sessionKeyManager","inputs":[],"outputs":[{"name":"","type":"address","internalType":"contract ISessionKeyManager"}],"stateMutability":"view"},{"type":"function","name":"setApprovalForAll","inputs":[{"name":"operator","type":"address","internalType":"address"},{"name":"approved","type":"bool","internalType":"bool"}],"outputs":[],"stateMutability":"nonpayable"},{"type":"function","name":"setMinActionValue","inputs":[{"name":"_minActionValue","type":"uint256","internalType":"uint256"}],"outputs":[],"stateMutability":"nonpayable"},{"type":"function","name":"setPlatformFee","inputs":[{"name":"_feeBps","type":"uint96","internalType":"uint96"}],"outputs":[],"stateMutability":"nonpayable"},{"type":"function","name":"setPlatformTreasury","inputs":[{"name":"_treasury","type":"address","internalType":"address"}],"outputs":[],"stateMutability":"nonpayable"},{"type":"function","name":"setSessionKeyManager","inputs":[{"name":"_sessionKeyManager","type":"address","internalType":"address"}],"outputs":[],"stateMutability":"nonpayable"},{"type":"function","name":"supportsInterface","inputs":[{"name":"interfaceId","type":"bytes4","internalType":"bytes4"}],"outputs":[{"name":"","type":"bool","internalType":"bool"}],"stateMutability":"view"},{"type":"function","name":"unpause","inputs":[],"outputs":[],"stateMutability":"nonpayable"},{"type":"function","name":"upgradeToAndCall","inputs":[{"name":"newImplementation","type":"address","internalType":"address"},{"name":"data","type":"bytes","internalType":"bytes"}],"outputs":[],"stateMutability":"payable"},{"type":"function","name":"uri","inputs":[{"name":"_id","type":"uint256","internalType":"uint256"}],"outputs":[{"name":"","type":"string","internalType":"string"}],"stateMutability":"view"},{"type":"event","name":"ApprovalForAll","inputs":[{"name":"account","type":"address","indexed":true,"internalType":"address"},{"name":"operator","type":"address","indexed":true,"internalType":"address"},{"name":"approved","type":"bool","indexed":false,"internalType":"bool"}],"anonymous":false},{"type":"event","name":"ArticleEvaluated","inputs":[{"name":"articleId","type":"uint256","indexed":true,"internalType":"uint256"},{"name":"user","type":"address","indexed":true,"internalType":"address"},{"name":"score","type":"uint8","indexed":false,"internalType":"uint8"},{"name":"amountPaid","type":"uint256","indexed":false,"internalType":"uint256"},{"name":"timestamp","type":"uint256","indexed":false,"internalType":"uint256"}],"anonymous":false},{"type":"event","name":"ArticlePublished","inputs":[{"name":"articleId","type":"uint256","indexed":true,"internalType":"uint256"},{"name":"author","type":"address","indexed":true,"internalType":"address"},{"name":"categoryId","type":"uint256","indexed":true,"internalType":"uint256"},{"name":"arweaveId","type":"string","indexed":false,"internalType":"string"},{"name":"originalAuthor","type":"string","indexed":false,"internalType":"string"},{"name":"timestamp","type":"uint256","indexed":false,"internalType":"uint256"}],"anonymous":false},{"type":"event","name":"CommentAdded","inputs":[{"name":"articleId","type":"uint256","indexed":true,"internalType":"uint256"},{"name":"commenter","type":"address","indexed":true,"internalType":"address"},{"name":"content","type":"string","indexed":false,"internalType":"string"},{"name":"parentCommentId","type":"uint256","indexed":false,"internalType":"uint256"},{"name":"score","type":"uint8","indexed":false,"internalType":"uint8"}],"anonymous":false},{"type":"event","name":"CommentLiked","inputs":[{"name":"articleId","type":"uint256","indexed":true,"internalType":"uint256"},{"name":"commentId","type":"uint256","indexed":true,"internalType":"uint256"},{"name":"liker","type":"address","indexed":true,"internalType":"address"},{"name":"commenter","type":"address","indexed":false,"internalType":"address"},{"name":"amountPaid","type":"uint256","indexed":false,"internalType":"uint256"},{"name":"timestamp","type":"uint256","indexed":false,"internalType":"uint256"}],"anonymous":false},{"type":"event","name":"EIP712DomainChanged","inputs":[],"anonymous":false},{"type":"event","name":"FollowStatusChanged","inputs":[{"name":"follower","type":"address","indexed":true,"internalType":"address"},{"name":"target","type":"address","indexed":true,"internalType":"address"},{"name":"isFollowing","type":"bool","indexed":false,"internalType":"bool"}],"anonymous":false},{"type":"event","name":"Initialized","inputs":[{"name":"version","type":"uint64","indexed":false,"internalType":"uint64"}],"anonymous":false},{"type":"event","name":"MinActionValueUpdated","inputs":[{"name":"newValue","type":"uint256","indexed":false,"internalType":"uint256"}],"anonymous":false},{"type":"event","name":"Paused","inputs":[{"name":"account","type":"address","indexed":false,"internalType":"address"}],"anonymous":false},{"type":"event","name":"PlatformFeeUpdated","inputs":[{"name":"newFeeBps","type":"uint96","indexed":false,"internalType":"uint96"}],"anonymous":false},{"type":"event","name":"ReferralPaid","inputs":[{"name":"referrer","type":"address","indexed":true,"internalType":"address"},{"name":"amount","type":"uint256","indexed":false,"internalType":"uint256"}],"anonymous":false},{"type":"event","name":"RoleAdminChanged","inputs":[{"name":"role","type":"bytes32","indexed":true,"internalType":"bytes32"},{"name":"previousAdminRole","type":"bytes32","indexed":true,"internalType":"bytes32"},{"name":"newAdminRole","type":"bytes32","indexed":true,"internalType":"bytes32"}],"anonymous":false},{"type":"event","name":"RoleGranted","inputs":[{"name":"role","type":"bytes32","indexed":true,"internalType":"bytes32"},{"name":"account","type":"address","indexed":true,"internalType":"address"},{"name":"sender","type":"address","indexed":true,"internalType":"address"}],"anonymous":false},{"type":"event","name":"RoleRevoked","inputs":[{"name":"role","type":"bytes32","indexed":true,"internalType":"bytes32"},{"name":"account","type":"address","indexed":true,"internalType":"address"},{"name":"sender","type":"address","indexed":true,"internalType":"address"}],"anonymous":false},{"type":"event","name":"SessionKeyManagerUpdated","inputs":[{"name":"newManager","type":"address","indexed":true,"internalType":"address"}],"anonymous":false},{"type":"event","name":"SessionKeyOperationExecuted","inputs":[{"name":"owner","type":"address","indexed":true,"internalType":"address"},{"name":"sessionKey","type":"address","indexed":true,"internalType":"address"},{"name":"selector","type":"bytes4","indexed":false,"internalType":"bytes4"}],"anonymous":false},{"type":"event","name":"TransferBatch","inputs":[{"name":"operator","type":"address","indexed":true,"internalType":"address"},{"name":"from","type":"address","indexed":true,"internalType":"address"},{"name":"to","type":"address","indexed":true,"internalType":"address"},{"name":"ids","type":"uint256[]","indexed":false,"internalType":"uint256[]"},{"name":"values","type":"uint256[]","indexed":false,"internalType":"uint256[]"}],"anonymous":false},{"type":"event","name":"TransferSingle","inputs":[{"name":"operator","type":"address","indexed":true,"internalType":"address"},{"name":"from","type":"address","indexed":true,"internalType":"address"},{"name":"to","type":"address","indexed":true,"internalType":"address"},{"name":"id","type":"uint256","indexed":false,"internalType":"uint256"},{"name":"value","type":"uint256","indexed":false,"internalType":"uint256"}],"anonymous":false},{"type":"event","name":"TreasuryUpdated","inputs":[{"name":"newTreasury","type":"address","indexed":false,"internalType":"address"}],"anonymous":false},{"type":"event","name":"URI","inputs":[{"name":"value","type":"string","indexed":false,"internalType":"string"},{"name":"id","type":"uint256","indexed":true,"internalType":"uint256"}],"anonymous":false},{"type":"event","name":"Unpaused","inputs":[{"name":"account","type":"address","indexed":false,"internalType":"address"}],"anonymous":false},{"type":"event","name":"Upgraded","inputs":[{"name":"implementation","type":"address","indexed":true,"internalType":"address"}],"anonymous":false},{"type":"error","name":"AccessControlBadConfirmation","inputs":[]},{"type":"error","name":"AccessControlUnauthorizedAccount","inputs":[{"name":"account","type":"address","internalType":"address"},{"name":"neededRole","type":"bytes32","internalType":"bytes32"}]},{"type":"error","name":"AddressEmptyCode","inputs":[{"name":"target","type":"address","internalType":"address"}]},{"type":"error","name":"ArticleNotFound","inputs":[]},{"type":"error","name":"ContentRequiredForScore","inputs":[]},{"type":"error","name":"ERC1155InsufficientBalance","inputs":[{"name":"sender","type":"address","internalType":"address"},{"name":"balance","type":"uint256","internalType":"uint256"},{"name":"needed","type":"uint256","internalType":"uint256"},{"name":"tokenId","type":"uint256","internalType":"uint256"}]},{"type":"error","name":"ERC1155InvalidApprover","inputs":[{"name":"approver","type":"address","internalType":"address"}]},{"type":"error","name":"ERC1155InvalidArrayLength","inputs":[{"name":"idsLength","type":"uint256","internalType":"uint256"},{"name":"valuesLength","type":"uint256","internalType":"uint256"}]},{"type":"error","name":"ERC1155InvalidOperator","inputs":[{"name":"operator","type":"address","internalType":"address"}]},{"type":"error","name":"ERC1155InvalidReceiver","inputs":[{"name":"receiver","type":"address","internalType":"address"}]},{"type":"error","name":"ERC1155InvalidSender","inputs":[{"name":"sender","type":"address","internalType":"address"}]},{"type":"error","name":"ERC1155MissingApprovalForAll","inputs":[{"name":"operator","type":"address","internalType":"address"},{"name":"owner","type":"address","internalType":"address"}]},{"type":"error","name":"ERC1967InvalidImplementation","inputs":[{"name":"implementation","type":"address","internalType":"address"}]},{"type":"error","name":"ERC1967NonPayable","inputs":[]},{"type":"error","name":"ERC2981InvalidDefaultRoyalty","inputs":[{"name":"numerator","type":"uint256","internalType":"uint256"},{"name":"denominator","type":"uint256","internalType":"uint256"}]},{"type":"error","name":"ERC2981InvalidDefaultRoyaltyReceiver","inputs":[{"name":"receiver","type":"address","internalType":"address"}]},{"type":"error","name":"ERC2981InvalidTokenRoyalty","inputs":[{"name":"tokenId","type":"uint256","internalType":"uint256"},{"name":"numerator","type":"uint256","internalType":"uint256"},{"name":"denominator","type":"uint256","internalType":"uint256"}]},{"type":"error","name":"ERC2981InvalidTokenRoyaltyReceiver","inputs":[{"name":"tokenId","type":"uint256","internalType":"uint256"},{"name":"receiver","type":"address","internalType":"address"}]},{"type":"error","name":"EnforcedPause","inputs":[]},{"type":"error","name":"ExpectedPause","inputs":[]},{"type":"error","name":"FailedCall","inputs":[]},{"type":"error","name":"FeeTooHigh","inputs":[]},{"type":"error","name":"InvalidAddress","inputs":[]},{"type":"error","name":"InvalidCommenter","inputs":[]},{"type":"error","name":"InvalidInitialization","inputs":[]},{"type":"error","name":"InvalidLength","inputs":[]},{"type":"error","name":"InvalidScore","inputs":[]},{"type":"error","name":"NotInitializing","inputs":[]},{"type":"error","name":"OriginalAuthorTooLong","inputs":[]},{"type":"error","name":"ReentrancyGuardReentrantCall","inputs":[]},{"type":"error","name":"RoyaltyTooHigh","inputs":[]},{"type":"error","name":"SessionKeyManagerNotSet","inputs":[]},{"type":"error","name":"SessionKeyValidationFailed","inputs":[]},{"type":"error","name":"SpamProtection","inputs":[]},{"type":"error","name":"TransferFailed","inputs":[]},{"type":"error","name":"UUPSUnauthorizedCallContext","inputs":[]},{"type":"error","name":"UUPSUnsupportedProxiableUUID","inputs":[{"name":"slot","type":"bytes32","internalType":"bytes32"}]},{"type":"error","name":"ZeroAmount","inputs":[]}],"bytecode":{"object":"0x60a080604052346100e65760017f9b779b17422d0df92223018b32b4d1fa46e071723d6817e2486d003becc55f0055306080525f51602061455b5f395f51905f525460ff8160401c166100d7576002600160401b03196001600160401b03821601610084575b60405161447090816100eb8239608051818181610de10152610f550152f35b6001600160401b0319166001600160401b039081175f51602061455b5f395f51905f525581527fc7f505b2f371ae2175ee4913f4499e1f2633a7b5936321eed1cdaeb6115181d290602090a15f80610065565b63f92ee8a960e01b5f5260045ffd5b5f80fdfe60806040526004361015610011575f80fd5b5f3560e01c8062fdd58e1461030e57806301ffc9a714610309578063073b9e26146103045780630b826190146102ff5780630e89341c146102fa57806319e94a6e146102f557806322dcd13e146102f0578063248a9ca3146102eb5780632a55205a146102e65780632eb2c2d6146102e15780632f2ff15d146102dc57806336568abe146102d75780633f4ba83a146102d2578063473106b214610273578063485cc955146102cd5780634e1273f4146102c85780634f1ef286146102c357806352cbd3be146102be57806352d1902d146102b95780635780400b146102b45780635856e4fa146102af5780635c975abb146102aa57806363c3cc16146102a557806363c4ea4d146102a057806379c61f281461029b5780637cd86d6014610296578063837fa3fd146102915780638456cb591461028c57806384b0196e1461028757806385c3ab54146102825780638cbd215e1461027d57806391d1485414610278578063a217fddf14610273578063a22cb4651461026e578063ac9650d814610269578063ad3cb1cc14610264578063d547741f1461025f578063dffd40f21461025a578063e138818c14610255578063e1d90b3414610250578063e63ab1e91461024b578063e985e9c514610246578063edcfafe614610241578063f242432a1461023c578063f72c0d8b14610237578063f99e5dbb14610232578063fde847191461022d5763ff1f090a14610228575f80fd5b611f6d565b611f52565b611ec5565b611e8b565b611d97565b611d04565b611a83565b611a49565b611a2e565b611a0e565b6119bd565b611973565b61192c565b6118ac565b6117a4565b610b11565b611749565b61172c565b611710565b611640565b611570565b611508565b61147b565b6112c2565b611238565b6111ce565b6111a0565b611184565b610fa4565b610f43565b610ef7565b610da3565b610ce4565b610b2b565b610a93565b610a4f565b610a00565b610974565b61077c565b61073d565b610717565b6106fc565b6105ed565b61058d565b6104fc565b610416565b6103af565b600435906001600160a01b038216820361032957565b5f80fd5b602435906001600160a01b038216820361032957565b604435906001600160a01b038216820361032957565b60a435906001600160a01b038216820361032957565b608435906001600160a01b038216820361032957565b606435906001600160a01b038216820361032957565b35906001600160a01b038216820361032957565b346103295760403660031901126103295760206103fb6103cd610313565b6024355f525f51602061437b5f395f51905f52835260405f209060018060a01b03165f5260205260405f2090565b54604051908152f35b6001600160e01b031981160361032957565b346103295760203660031901126103295760043561043381610404565b63ffffffff60e01b16637965db0b60e01b811490811561045c575b506040519015158152602090f35b63152a902d60e11b811491508115610476575b505f61044e565b636cdb3d1360e11b8114915081156104a8575b8115610497575b505f61046f565b6301ffc9a760e01b1490505f610490565b6303a24d0760e21b81149150610489565b9181601f84011215610329578235916001600160401b038311610329576020838186019501011161032957565b604435906001600160601b038216820361032957565b34610329576080366003190112610329576004356001600160401b0381116103295761052c9036906004016104b9565b90602435916001600160401b0383168303610329576105496104e6565b91606435926001600160401b03841161032957610589946105716105799536906004016104b9565b949093612009565b6040519081529081906020820190565b0390f35b34610329575f366003190112610329576003546040516001600160a01b039091168152602090f35b805180835260209291819084018484015e5f828201840152601f01601f1916010190565b9060206105ea9281815201906105b5565b90565b3461032957602036600319011261032957600435801580156106f1575b6106e2575f52600260205260405f206040517368747470733a2f2f617277656176652e6e65742f60601b60208201525f9180549061064782611ab4565b91600181169081156106bb575060011461067f575b61058983610673818703601f19810183528261085d565b604051918291826105d9565b9092505f5260205f205f905b8382106106a4575050908101603401906106738161065c565b60018160209254603485870101520191019061068b565b610589955084925060349150926106739360ff19168284015280151502820101935061065c565b63522e582d60e11b5f5260045ffd5b505f5481101561060a565b34610329575f36600319011261032957602060405160408152f35b34610329575f3660031901126103295760206001600160601b0360015416604051908152f35b346103295760203660031901126103295760206107746004355f525f51602061439b5f395f51905f52602052600160405f20015490565b604051908152f35b34610329576040366003190112610329576004355f9081527fdaedc9ab023613a7caf35e703657e986ccfad7e3eb0af93a2853f8d65dd86b0160205260409020546001600160a01b038116906024359060a01c8215610812575b6107f5916001600160601b036107ed92169061260e565b612710900490565b604080516001600160a01b03939093168352602083019190915290f35b507fdaedc9ab023613a7caf35e703657e986ccfad7e3eb0af93a2853f8d65dd86b00546001600160a01b038116925060a01c6107d6565b634e487b7160e01b5f52604160045260245ffd5b90601f801991011681019081106001600160401b0382111761087e57604052565b610849565b6040519061089260a08361085d565b565b6001600160401b03811161087e5760051b60200190565b9080601f830112156103295781356108c281610894565b926108d0604051948561085d565b81845260208085019260051b82010192831161032957602001905b8282106108f85750505090565b81358152602091820191016108eb565b6001600160401b03811161087e57601f01601f191660200190565b92919261092f82610908565b9161093d604051938461085d565b829481845281830111610329578281602093845f960137010152565b9080601f83011215610329578160206105ea93359101610923565b346103295760a03660031901126103295761098d610313565b61099561032d565b906044356001600160401b038111610329576109b59036906004016108ab565b6064356001600160401b038111610329576109d49036906004016108ab565b90608435936001600160401b038511610329576109f86109fe953690600401610959565b93612621565b005b34610329576040366003190112610329576109fe600435610a1f61032d565b90610a4a610a45825f525f51602061439b5f395f51905f52602052600160405f20015490565b61318d565b6133f1565b3461032957604036600319011261032957600435610a6b61032d565b336001600160a01b03821603610a84576109fe91613486565b63334bd91960e11b5f5260045ffd5b34610329575f36600319011261032957610aab613060565b5f5160206143bb5f395f51905f525460ff811615610b025760ff19165f5160206143bb5f395f51905f52557f5db9ee0a495bf2e6ff9c91a7834c1ba4fdd244a5e8aa4e537bd38aeae4b073aa6020604051338152a1005b638dfc202b60e01b5f5260045ffd5b34610329575f3660031901126103295760206040515f8152f35b3461032957604036600319011261032957610b44610313565b610b4c61032d565b5f5160206143fb5f395f51905f525491906001600160401b03610b7e60ff604086901c1615946001600160401b031690565b1680159081610c98575b6001149081610c8e575b159081610c85575b50610c7657610bdd9183610bd460016001600160401b03195f5160206143fb5f395f51905f525416175f5160206143fb5f395f51905f5255565b610c3c576126b6565b610be357005b610c0d60ff60401b195f5160206143fb5f395f51905f5254165f5160206143fb5f395f51905f5255565b604051600181527fc7f505b2f371ae2175ee4913f4499e1f2633a7b5936321eed1cdaeb6115181d290602090a1005b610c716801000000000000000060ff60401b195f5160206143fb5f395f51905f525416175f5160206143fb5f395f51905f5255565b6126b6565b63f92ee8a960e01b5f5260045ffd5b9050155f610b9a565b303b159150610b92565b849150610b88565b90602080835192838152019201905f5b818110610cbd5750505090565b8251845260209384019390920191600101610cb0565b9060206105ea928181520190610ca0565b34610329576040366003190112610329576004356001600160401b038111610329573660238201121561032957806004013590610d2082610894565b91610d2e604051938461085d565b8083526024602084019160051b8301019136831161032957602401905b828210610d8b57836024356001600160401b0381116103295761058991610d79610d7f9236906004016108ab565b90612938565b60405191829182610cd3565b60208091610d988461039b565b815201910190610d4b565b604036600319011261032957610db7610313565b6024356001600160401b03811161032957610dd6903690600401610959565b906001600160a01b037f000000000000000000000000000000000000000000000000000000000000000016308114908115610ed5575b50610ec657610e196130cf565b6040516352d1902d60e01b8152916020836004816001600160a01b0386165afa5f9381610e95575b50610e6257634c9c8ce360e01b5f526001600160a01b03821660045260245ffd5b905f51602061435b5f395f51905f528303610e81576109fe9250613e96565b632a87526960e21b5f52600483905260245ffd5b610eb891945060203d602011610ebf575b610eb0818361085d565b810190613710565b925f610e41565b503d610ea6565b63703e46dd60e11b5f5260045ffd5b5f51602061435b5f395f51905f52546001600160a01b0316141590505f610e0c565b34610329576020366003190112610329577ffcae2461302da2a86e3604d10afc558dc160d49eb88bc010c4bca093793857ff6020600435610f3661313e565b80600455604051908152a1005b34610329575f366003190112610329577f00000000000000000000000000000000000000000000000000000000000000006001600160a01b03163003610ec65760206040515f51602061435b5f395f51905f528152f35b8015150361032957565b346103295760c036600319011261032957610fbd610313565b610fc561032d565b90610fce610343565b60643590610fdb82610f9a565b60843560a4356001600160401b03811161032957610ffd9036906004016104b9565b90611006612dc6565b600354611023906001600160a01b03165b6001600160a01b031690565b6001600160a01b03811615611175576040516331e1e60b60e11b6020808301919091526001600160a01b0387166024830152871515604480840191909152825293909288915f918b9161109a9161107b60648961085d565b60405163027f58e560e61b8152998a98899788963091600489016129e4565b03925af1908115611170575f91611141575b50156111325760405191151582526001600160a01b0392831692169082907f75a1fc5e2239f53dc8407b3712c878c5893431bc3c349ea3561584869670f7f290602090a36040516331e1e60b60e11b81526001600160a01b0392909216917fe915025b6f599b245c9c1c02d463228c896354d64dceb469760c99544153be6d90602090a3005b6309fb5d8760e21b5f5260045ffd5b611163915060203d602011611169575b61115b818361085d565b8101906129cf565b5f6110ac565b503d611151565b612a44565b63022fcd8560e61b5f5260045ffd5b34610329575f3660031901126103295760206040516104008152f35b34610329575f36600319011261032957602060ff5f5160206143bb5f395f51905f5254166040519015158152f35b34610329576040366003190112610329576111e7610313565b602435906111f482610f9a565b6111fc612dc6565b60405191151582526001600160a01b03169033907f75a1fc5e2239f53dc8407b3712c878c5893431bc3c349ea3561584869670f7f290602090a3005b6101203660031901126103295761124d610313565b61125561032d565b6044359160643560ff81168103610329576084356001600160401b038111610329576112859036906004016104b9565b61128d610359565b9060c4359260e4359461010435986001600160401b038a11610329576112ba6109fe9a36906004016104b9565b999098612a4f565b610100366003190112610329576112d7610313565b6112df61032d565b6064356044356112ed61036f565b6112f5610359565b9060c43560e4356001600160401b038111610329576113189036906004016104b9565b9061132161371f565b611329612dc6565b60035461133e906001600160a01b0316611017565b6001600160a01b0381161561117557604051636ffea07960e11b60208281019190915260248201899052604482018a90526001600160a01b03808816606484015288166084830152938a935f918d916113ca91906113a98660a481015b03601f19810188528761085d565b60405163027f58e560e61b8152998a98899788963492309160048a01612bc1565b03925af1908115611170575f9161145c575b501561113257341561144d576113f493349387613aa6565b604051636ffea07960e11b81526001600160a01b0391821692909116907fe915025b6f599b245c9c1c02d463228c896354d64dceb469760c99544153be6d90602090a36109fe60015f5160206143db5f395f51905f5255565b631f2a200560e01b5f5260045ffd5b611475915060203d6020116111695761115b818361085d565b5f6113dc565b3461032957602036600319011261032957611494610313565b61149c61313e565b6001600160a01b0381169081156114f9577f7dae230f18360d76a040c81f050aa14eb9d6dc7901b20fc5d855e2a20fe814d1916114f06020926001600160601b036001549181199060601b16911617600155565b604051908152a1005b63e6c4247b60e01b5f5260045ffd5b3461032957602036600319011261032957611521610313565b61152961313e565b6001600160a01b031680156114f957600380546001600160a01b031916821790557f4d57218e59793e6845c36a961c3af7acfce8c54b13a697da231466fc265fdb615f80a2005b34610329575f36600319011261032957611588613060565b611590612dc6565b600160ff195f5160206143bb5f395f51905f525416175f5160206143bb5f395f51905f52557f62e78cea01bee320cd4e420270b5ea74000d11b0c9f74754ebdbfc544b05a2586020604051338152a1005b91611616906116086105ea97959693600f60f81b865260e0602087015260e08601906105b5565b9084820360408601526105b5565b60608301949094526001600160a01b031660808201525f60a082015280830360c090910152610ca0565b34610329575f366003190112610329577fa16a46d94261c7517cc8ff89f61c0ce93598e3c849801011dee649a6a557d1005415806116e7575b156116aa57611686611aec565b61168e611bb9565b9061058961169a6128a1565b60405193849330914691866115e1565b60405162461bcd60e51b81526020600482015260156024820152741152540dcc4c8e88155b9a5b9a5d1a585b1a5e9959605a1b6044820152606490fd5b507fa16a46d94261c7517cc8ff89f61c0ce93598e3c849801011dee649a6a557d1015415611679565b34610329575f3660031901126103295760205f54604051908152f35b34610329575f366003190112610329576020600454604051908152f35b3461032957604036600319011261032957602060ff61179860043561176c61032d565b905f525f51602061439b5f395f51905f52845260405f209060018060a01b03165f5260205260405f2090565b54166040519015158152f35b34610329576040366003190112610329576117bd610313565b6024356117c981610f9a565b6001600160a01b03821691821561183b576117fc906117e733611fd1565b9060018060a01b03165f5260205260405f2090565b60ff1981541660ff8315151617905560405190151581527f17307eab39ab6107e8899845ad3d59bd9653f200f220920489ca2b5937696c3160203392a3005b62ced3e160e81b5f525f60045260245ffd5b602081016020825282518091526040820191602060408360051b8301019401925f915b83831061187f57505050505090565b909192939460208061189d600193603f1986820301875289516105b5565b97019301930191939290611870565b34610329576020366003190112610329576004356001600160401b0381116103295736602382011215610329578060040135906001600160401b038211610329573660248360051b830101116103295761058991602461190c9201612cf6565b6040519182918261184d565b6040519061192760208361085d565b5f8252565b34610329575f3660031901126103295761058960405161194d60408261085d565b60058152640352e302e360dc1b60208201526040519182916020835260208301906105b5565b34610329576040366003190112610329576109fe60043561199261032d565b906119b8610a45825f525f51602061439b5f395f51905f52602052600160405f20015490565b613486565b6080366003190112610329576119fb6004356024356119da610343565b6119e2610385565b916119eb61371f565b6119f3612dc6565b349333613aa6565b60015f5160206143db5f395f51905f5255005b34610329575f36600319011261032957602060015460601c604051908152f35b34610329575f36600319011261032957602060405160018152f35b34610329575f3660031901126103295760206040517f65d7a28e3265b37a6474929f336521b332c1681b933f6cb9f3376673440d862a8152f35b3461032957604036600319011261032957602060ff611798611aa3610313565b6117e7611aae61032d565b91611fd1565b90600182811c92168015611ae2575b6020831014611ace57565b634e487b7160e01b5f52602260045260245ffd5b91607f1691611ac3565b604051905f825f51602061431b5f395f51905f525491611b0b83611ab4565b8083529260018116908115611b9a5750600114611b2f575b6108929250038361085d565b505f51602061431b5f395f51905f525f90815290917f42ad5d3e1f2e6e70edcf6d991b8a3023d3fca8047a131592f9edb9fd9b89d57d5b818310611b7e57505090602061089292820101611b23565b6020919350806001915483858901015201910190918492611b66565b6020925061089294915060ff191682840152151560051b820101611b23565b604051905f825f51602061433b5f395f51905f525491611bd883611ab4565b8083529260018116908115611b9a5750600114611bfb576108929250038361085d565b505f51602061433b5f395f51905f525f90815290917f5f9ce34815f8e11431c7bb75a8e6886a91478f7ffc1dbb0a98dc240fddd76b755b818310611c4a57505090602061089292820101611b23565b6020919350806001915483858901015201910190918492611c32565b9060405191825f825492611c7984611ab4565b8084529360018116908115611ce25750600114611c9e575b506108929250038361085d565b90505f9291925260205f20905f915b818310611cc6575050906020610892928201015f611c91565b6020919350806001915483858901015201910190918492611cad565b90506020925061089294915060ff191682840152151560051b8201015f611c91565b34610329576020366003190112610329576004355f526002602052611d6e60405f20611d2f81611c66565b906001600160401b03611d8160018060a01b036001840154166003611d5660028601611c66565b9401549360405196879660a0885260a08801906105b5565b91602087015285820360408701526105b5565b91818116606085015260401c1660808301520390f35b346103295760a036600319011261032957611db0610313565b611db861032d565b60443590606435926084356001600160401b03811161032957611ddf903690600401610959565b926001600160a01b0382163381141580611e7a575b611e64576001600160a01b03841615611e515715611e3f576109fe94611e3760405192600184526020840152604083019160018352606084015260808301604052565b929091613c6e565b626a0d4560e21b5f525f60045260245ffd5b632bfa23e760e11b5f525f60045260245ffd5b63711bec9160e11b5f523360045260245260445ffd5b50611e853384612db2565b15611df4565b34610329575f3660031901126103295760206040517f189ab7a9244df0848122154315af71fe140f3db0fe014031783b0946b8c9d2e38152f35b34610329576020366003190112610329576004356001600160601b0381168103610329576001600160601b0390611efa61313e565b16610bb88111611f43576020817f7cb8fa1ce2fc1ff6556e563c0dcba551db7cdeb3f3b0911243692639ac80e94d926001600160601b03196001541617600155604051908152a1005b63cd4e616760e01b5f5260045ffd5b34610329575f36600319011261032957602060405160028152f35b60a03660031901126103295760243560043560ff8216820361032957604435916001600160401b03831161032957611fac6119fb9336906004016104b9565b611fb4610385565b9160843593611fc161371f565b611fc9612dc6565b34953361385d565b6001600160a01b03165f9081527f88be536d5240c274a3b1d3a1be54482fd9caa294f08c62a7cde569f49a3c45016020526040902090565b9490929194612016612dc6565b6127106001600160601b038416116121165760408211612107576120ef956121016001600160401b03927e72fe24c2bb7820d3181ca0ddc98a946a44d0b02900ac5bd5165ebedb01431d945f54998a9761206f89612139565b5f556120d661207c610883565b612087368d88610923565b815233602082015261209a36868f610923565b60408201526001600160401b03881660608201526001600160401b03428a161660808201526120d18b5f52600260205260405f2090565b612431565b6120e86120e1611918565b8a33612ded565b3389612f8e565b604051948594169833984293866125c7565b0390a490565b631750ba0360e01b5f5260045ffd5b63c2b03beb60e01b5f5260045ffd5b634e487b7160e01b5f52601160045260245ffd5b5f1981146121475760010190565b612125565b601f8111612158575050565b5f51602061441b5f395f51905f525f5260205f20906020601f840160051c8301931061219e575b601f0160051c01905b818110612193575050565b5f8155600101612188565b909150819061217f565b601f81116121b4575050565b5f51602061431b5f395f51905f525f5260205f20906020601f840160051c830193106121fa575b601f0160051c01905b8181106121ef575050565b5f81556001016121e4565b90915081906121db565b601f821161221157505050565b5f5260205f20906020601f840160051c83019310612249575b601f0160051c01905b81811061223e575050565b5f8155600101612233565b909150819061222a565b9081516001600160401b03811161087e576122928161227f5f51602061433b5f395f51905f5254611ab4565b5f51602061433b5f395f51905f52612204565b602092601f82116001146122de576122c2929382915f926122d3575b50508160011b915f199060031b1c19161790565b5f51602061433b5f395f51905f5255565b015190505f806122ae565b5f51602061433b5f395f51905f525f52601f198216937f5f9ce34815f8e11431c7bb75a8e6886a91478f7ffc1dbb0a98dc240fddd76b75915f5b86811061235a5750836001959610612342575b505050811b015f51602061433b5f395f51905f5255565b01515f1960f88460031b161c191690555f808061232b565b91926020600181928685015181550194019201612318565b91909182516001600160401b03811161087e57612399816123938454611ab4565b84612204565b6020601f82116001146123cc5781906123c89394955f926122d35750508160011b915f199060031b1c19161790565b9055565b601f198216906123df845f5260205f2090565b915f5b81811061241957509583600195969710612401575b505050811b019055565b01515f1960f88460031b161c191690555f80806123f7565b9192602060018192868b0151815501940192016123e2565b919080519283516001600160401b03811161087e57612454816123938454611ab4565b6020601f82116001146125335761250c9261248e83608094600394610892999a5f926122d35750508160011b915f199060031b1c19161790565b81555b60208501516001820180546001600160a01b0319166001600160a01b039092169190911790556124c8604086015160028301612372565b01926124fe6124e160608301516001600160401b031690565b855467ffffffffffffffff19166001600160401b03909116178555565b01516001600160401b031690565b67ffffffffffffffff60401b82549160401b169067ffffffffffffffff60401b1916179055565b601f19821695612546845f5260205f2090565b965f5b81811061258f575083610892979860039461250c979460809760019510612578575b505050811b018155612491565b01515f1983871b60f8161c191690555f808061256b565b83830151895560019098019760209384019301612549565b908060209392818452848401375f828201840152601f01601f1916010190565b9594936125e3604094926125f19460608a5260608a01916125a7565b9187830360208901526125a7565b930152565b906103e88202918083046103e8149015171561214757565b8181029291811591840414171561214757565b939291906001600160a01b038516338114158061265a575b611e64576001600160a01b03821615611e515715611e3f5761089294613c6e565b5060ff61266a336117e789611fd1565b541615612639565b6040519061268160408361085d565b6007825266213637b3a43ab160c91b6020830152565b604051906126a660408361085d565b60018252601960f91b6020830152565b604051929160206126c7818661085d565b5f85526126d2613e6b565b6126da613e6b565b8451906001600160401b03821161087e5761270b826127065f51602061441b5f395f51905f5254611ab4565b61214c565b602090601f83116001146127fa5750816127c59392612743926127e297985f926122d35750508160011b915f199060031b1c19161790565b5f51602061441b5f395f51905f52555b61275b613e6b565b612763613e6b565b61276b613e6b565b612773613e6b565b61278c61277e612672565b612786612697565b90613526565b612795836131d3565b5061279f8361326f565b506127a983613330565b506001600160601b036001549181199060601b16911617600155565b6127dd60fa6001600160601b03196001541617600155565b61369d565b6127eb60015f55565b6108926512309ce54000600455565b5f51602061441b5f395f51905f525f52601f198316969091907ff429cb5e2ec84cbb765e76b31964a56ccde03e7a6122d6cc4afb19edc55edeed925f905b8982106128895750509183916001936127c596956127e2999a10612871575b505050811b015f51602061441b5f395f51905f5255612753565b01515f1960f88460031b161c191690555f8080612857565b80600185968294968601518155019501930190612838565b604051906128b060208361085d565b5f808352366020840137565b906128c682610894565b6128d3604051918261085d565b82815280926128e4601f1991610894565b0190602036910137565b634e487b7160e01b5f52603260045260245ffd5b80511561290f5760200190565b6128ee565b80516001101561290f5760400190565b805182101561290f5760209160051b010190565b919091805183518082036129ba57505061295281516128bc565b905f5b81518110156129b357806129a160019260051b602080828701015191890101515f525f51602061437b5f395f51905f5260205260405f209060018060a01b03165f5260205260405f2090565b546129ac8286612924565b5201612955565b5090925050565b635b05999160e01b5f5260045260245260445ffd5b9081602091031261032957516105ea81610f9a565b6001600160a01b039182168152918116602083015290911660408201526331e1e60b60e11b6060820152610100608082018190526105ea95939492612a2b918301906105b5565b935f60a083015260c082015260e08185039101526125a7565b6040513d5f823e3d90fd5b9990989791969594939297612a6261371f565b612a6a612dc6565b600354612a7f906001600160a01b0316611017565b6001600160a01b0381161561117557895f8d612ae56020968f96612ac48f8f8f908f918f9261139b936040519c8d96637f8f848560e11b602089015260248801612b84565b60405163027f58e560e61b8152998a98899788963492309160048a01612c23565b03925af1908115611170575f91612b65575b501561113257612b099534958961385d565b604051600162707b7b60e11b031981526001600160a01b0391821692909116907fe915025b6f599b245c9c1c02d463228c896354d64dceb469760c99544153be6d90602090a361089260015f5160206143db5f395f51905f5255565b612b7e915060203d6020116111695761115b818361085d565b5f612af7565b92909360ff612bad9360809699989799865216602085015260a0604085015260a08401916125a7565b6001600160a01b0390951660608201520152565b6001600160a01b03918216815291811660208301529091166040820152636ffea07960e11b6060820152610100608082018190526105ea96939593949192612c0b918401906105b5565b9460a083015260c082015260e08185039101526125a7565b6001600160a01b03918216815291811660208301529091166040820152600162707b7b60e11b03196060820152610100608082018190526105ea96939593949192612c0b918401906105b5565b9190820391821161214757565b919081101561290f5760051b81013590601e19813603018212156103295701908135916001600160401b038311610329576020018236038113610329579190565b60208061089293959486604051978895848701378401908282015f8152815193849201905e01015f815203601f19810184528361085d565b612cff5f610908565b612d0c604051918261085d565b5f8152601f19612d1b5f610908565b01366020830137612d2b83610894565b92612d39604051948561085d565b808452601f19612d4882610894565b015f5b818110612da15750505f5b818110612d64575050505090565b80612d85612d7f85612d79600195878a612c7d565b90612cbe565b30613bfb565b612d8f8288612924565b52612d9a8187612924565b5001612d56565b806060602080938901015201612d4b565b60ff916117e7612dc192611fd1565b541690565b60ff5f5160206143bb5f395f51905f525416612dde57565b63d93c066560e01b5f5260045ffd5b9291906001600160a01b03841615611e51576001612e2860405192600184526020840152604083019160018352606084015260808301604052565b908051825190818103612f795750506001600160a01b03851693841515935f5b8351811015612ead5780868960019360051b602080828a010151918a01015192612e76575b50505001612e48565b612ea3916117e7612e9b925f525f51602061437b5f395f51905f5260205260405f2090565b918254614094565b90555f8981612e6d565b509390959460018351145f14612f3e576020838101518582015160408051928352928201525f9133917fc3d58168c5ae7397731d063d5bbf3d657854427343f4c083240f7aacaa2d0f629190a45b612f06575b50505050565b8051600103612f2e5790602080612f2595930151910151915f3361425c565b5f808080612f00565b612f39935f3361412e565b612f25565b5f6040517f4a39dc06d4c0dbc64b70af90fd698a233a518aa5d07e595d983b8c0526c8f7fb339180612f718989836140a1565b0390a4612efb565b635b05999160e01b5f5260045260245260445ffd5b92916001600160601b03166127108111613044576001600160a01b0382161561302d5761089292936130059160405193612fc960408661085d565b60018060a01b0316845260208401525f527fdaedc9ab023613a7caf35e703657e986ccfad7e3eb0af93a2853f8d65dd86b0160205260405f2090565b815160209092015160a01b6001600160a01b0319166001600160a01b03909216919091179055565b83634b4f842960e11b5f526004525f60245260445ffd5b8363dfd1fc1b60e01b5f5260045260245261271060445260645ffd5b335f9081527f75442b0a96088b5456bc4ed01394c96a4feec0f883c9494257d76b96ab1c9b6b602052604090205460ff161561309857565b63e2517d3f60e01b5f52336004527f65d7a28e3265b37a6474929f336521b332c1681b933f6cb9f3376673440d862a60245260445ffd5b335f9081527fab71e3f32666744d246edff3f96e4bdafee2e9867098cdd118a979a7464786a8602052604090205460ff161561310757565b63e2517d3f60e01b5f52336004527f189ab7a9244df0848122154315af71fe140f3db0fe014031783b0946b8c9d2e360245260445ffd5b335f9081527fb7db2dd08fcb62d0c9e08c51941cae53c267786a0b75803fb7960902fc8ef97d602052604090205460ff161561317657565b63e2517d3f60e01b5f52336004525f60245260445ffd5b5f8181525f51602061439b5f395f51905f526020908152604080832033845290915290205460ff16156131bd5750565b63e2517d3f60e01b5f523360045260245260445ffd5b6001600160a01b0381165f9081527fb7db2dd08fcb62d0c9e08c51941cae53c267786a0b75803fb7960902fc8ef97d602052604090205460ff1661326a576001600160a01b03165f8181527fb7db2dd08fcb62d0c9e08c51941cae53c267786a0b75803fb7960902fc8ef97d60205260408120805460ff191660011790553391905f5160206142fb5f395f51905f528180a4600190565b505f90565b6001600160a01b0381165f9081527fab71e3f32666744d246edff3f96e4bdafee2e9867098cdd118a979a7464786a8602052604090205460ff1661326a576001600160a01b0381165f9081527fab71e3f32666744d246edff3f96e4bdafee2e9867098cdd118a979a7464786a860205260409020805460ff1916600117905533906001600160a01b03167f189ab7a9244df0848122154315af71fe140f3db0fe014031783b0946b8c9d2e35f5160206142fb5f395f51905f525f80a4600190565b6001600160a01b0381165f9081527f75442b0a96088b5456bc4ed01394c96a4feec0f883c9494257d76b96ab1c9b6b602052604090205460ff1661326a576001600160a01b0381165f9081527f75442b0a96088b5456bc4ed01394c96a4feec0f883c9494257d76b96ab1c9b6b60205260409020805460ff1916600117905533906001600160a01b03167f65d7a28e3265b37a6474929f336521b332c1681b933f6cb9f3376673440d862a5f5160206142fb5f395f51905f525f80a4600190565b5f8181525f51602061439b5f395f51905f52602090815260408083206001600160a01b038616845290915290205460ff16613480575f8181525f51602061439b5f395f51905f52602090815260408083206001600160a01b03861684529091529020805460ff1916600117905533916001600160a01b0316905f5160206142fb5f395f51905f525f80a4600190565b50505f90565b5f8181525f51602061439b5f395f51905f52602090815260408083206001600160a01b038616845290915290205460ff1615613480575f8181525f51602061439b5f395f51905f52602090815260408083206001600160a01b03861684529091529020805460ff1916905533916001600160a01b0316907ff6391f5c32d9c69d2a47ea670b442974b53935d1edc7fd64eb21e047a839171b5f80a4600190565b61352e613e6b565b613536613e6b565b8051906001600160401b03821161087e57613567826135625f51602061431b5f395f51905f5254611ab4565b6121a8565b602090601f83116001146135fe57918061359a926135ae95945f926122d35750508160011b915f199060031b1c19161790565b5f51602061431b5f395f51905f5255612253565b6135d65f7fa16a46d94261c7517cc8ff89f61c0ce93598e3c849801011dee649a6a557d10055565b6108925f7fa16a46d94261c7517cc8ff89f61c0ce93598e3c849801011dee649a6a557d10155565b5f51602061431b5f395f51905f525f52601f19831691907f42ad5d3e1f2e6e70edcf6d991b8a3023d3fca8047a131592f9edb9fd9b89d57d925f5b81811061368557509160019391856135ae9796941061366d575b505050811b015f51602061431b5f395f51905f5255612253565b01515f1960f88460031b161c191690555f8080613653565b92936020600181928786015181550195019301613639565b6001600160a01b031680156136fd57604051906136bb60408361085d565b8082526101f46020909201919091526001600160a01b0316607d60a21b177fdaedc9ab023613a7caf35e703657e986ccfad7e3eb0af93a2853f8d65dd86b0055565b635b6cc80560e11b5f525f60045260245ffd5b90816020910312610329575190565b60025f5160206143db5f395f51905f5254146137485760025f5160206143db5f395f51905f5255565b633ee5aeb560e01b5f5260045ffd5b9060405160a081018181106001600160401b0382111761087e5760405260806001600160401b036003839561378b81611c66565b855260018101546001600160a01b031660208601526137ac60028201611c66565b60408601520154818116606085015260401c16910152565b604080519091906137d5838261085d565b6001815291601f1901366020840137565b604051606091906137f7838261085d565b6002815291601f1901366020840137565b3d15613832573d9061381982610908565b91613827604051938461085d565b82523d5f602084013e565b606090565b92949361385160ff926040946060875260608701916125a7565b95602085015216910152565b929695919490955f548710156106e25760ff86169160028311613a97576104008611613a885785158080613a80575b80613a78575b613a695715928380613a5e575b613a4f576138bd6138b88a5f52600260205260405f2090565b613757565b908361391e575b505050506138d5575b505050505050565b7f19a5aae49af5681d63d1a8c6ea9dc7b88af86e08d71ade984e2087fada0d4c4a936139109160405194859460018060a01b03169885613837565b0390a35f80808080806138cd565b6002036139b15750505f8080808461393e61101761101760015460601c90565b5af1613948613808565b50156139a2575b6040805160ff88168152602081019290925242908201526001600160a01b0384169087907fa47847c5419013bc5fa344eaa882ed5b33f76d87a7ce6a1a760d5af198afd9e590606090a35f8080806138c4565b6312171d8360e31b5f5260045ffd5b613a07613a0d916139ca6139c3611918565b8c8a612ded565b8760206139d56137c4565b92018051909590613a02906001600160a01b03165b6139f385612902565b6001600160a01b039091169052565b613f38565b83613f8e565b9081613a1b575b505061394f565b515f91829182918291613a3890611017906001600160a01b031681565b5af1613a42613808565b50156139a2575f80613a14565b633f7d56c960e11b5f5260045ffd5b50600454831061389f565b630eb90eff60e01b5f5260045ffd5b508215613892565b50831561388c565b63251f56a160e21b5f5260045ffd5b631556136560e01b5f5260045ffd5b91939290925f548410156106e2576001600160a01b0382168015613bec578615613a4f57613b2e613b28613ae56138b8885f52600260205260405f2090565b613af7613af0611918565b8989612ded565b866020613b026137e6565b92018051909690613b1b906001600160a01b03166139ea565b613a02886139f385612914565b88613f8e565b613b42613b3b8260011c90565b8092612c70565b9281613bb8575b505081613b9b575b5050604080516001600160a01b0392831681526020810196909652429086015216927f3e2236223f9ef11dd92492a8d35ef88d2ef5bea632e11697c2565e8a55d2b40190606090a4565b5f80809381935af1613bab613808565b50156139a2575f80613b51565b515f91829182918291613bd590611017906001600160a01b031681565b5af1613bdf613808565b50156139a2575f80613b49565b633e510d3960e21b5f5260045ffd5b905f8091602081519101845af48080613c5b575b15613c1e5750506105ea61407b565b15613c4357639996b31560e01b5f9081526001600160a01b0391909116600452602490fd5b3d15155f03612a445763d6bda27560e01b5f5260045ffd5b503d151580613c0f5750813b1515613c0f565b9493929091938451825190818103612f795750506001600160a01b038681169586151595918516801515939192905f5b8451811015613d9e578060051b90898988602080868b010151958c01015192613d03575b93600194613cd4575b50505001613c9e565b613cf9916117e7612e9b925f525f51602061437b5f395f51905f5260205260405f2090565b90555f8981613ccb565b50509091613d298d6117e7835f525f51602061437b5f395f51905f5260205260405f2090565b54828110613d67578291898f613d5e600197968f9503916117e7855f525f51602061437b5f395f51905f5260205260405f2090565b55909450613cc2565b6040516303dee4c560e01b81526001600160a01b038f16600482015260248101919091526044810183905260648101829052608490fd5b5091989593929790965060018851145f14613e315760208881015186820151604080519283529282015233917fc3d58168c5ae7397731d063d5bbf3d657854427343f4c083240f7aacaa2d0f6291a45b613dfa575b5050505050565b8451600103613e2057602080613e16960151920151923361425c565b5f80808080613df3565b613e2c9491923361412e565b613e16565b6040517f4a39dc06d4c0dbc64b70af90fd698a233a518aa5d07e595d983b8c0526c8f7fb339180613e63898d836140a1565b0390a4613dee565b60ff5f5160206143fb5f395f51905f525460401c1615613e8757565b631afcd79f60e31b5f5260045ffd5b90813b15613f17575f51602061435b5f395f51905f5280546001600160a01b0319166001600160a01b0384169081179091557fbc7cd75a20ee27fd9adebab32041f755214dbc6bffa90cc0225b39da2e5c2d3b5f80a2805115613eff57613efc91613bfb565b50565b505034613f0857565b63b398979f60e01b5f5260045ffd5b50634c9c8ce360e01b5f9081526001600160a01b0391909116600452602490fd5b916001600160a01b0380841692168214613f87575f5b8151811015613f81576001600160a01b03613f698284612924565b51168314613f7957600101613f4e565b505050505f90565b50505090565b5050505f90565b6001549091613fa96107ed6001600160601b0384168561260e565b906001600160a01b031680156140735781613fc66107ed866125f6565b935b81614047575b505082613fe9575b50613fe4906105ea93612c70565b612c70565b905f80808086865af1613ffa613808565b50156139a2576105ea93613fe4927f6292f4f27d8047af4537a4bd86906de0e2c880c20086f7f58b81eacfeb6391266040518061403c88829190602083019252565b0390a2935090613fd6565b5f80809361405c611017611017849660601c90565b5af1614066613808565b50156139a257815f613fce565b815f93613fc8565b604051903d82523d5f602084013e60203d830101604052565b9190820180921161214757565b90916140b86105ea93604084526040840190610ca0565b916020818403910152610ca0565b9081602091031261032957516105ea81610404565b6001600160a01b0391821681529116602082015260a0604082018190526105ea949193919261412092916141129190860190610ca0565b908482036060860152610ca0565b9160808184039101526105b5565b9091949293853b61414157505050505050565b60209361416391604051968795869563bc197c8160e01b8752600487016140db565b03815f6001600160a01b0387165af15f91816141f2575b506141b45750614188613808565b80519190826141ad57632bfa23e760e11b5f526001600160a01b03821660045260245ffd5b6020915001fd5b6001600160e01b0319166343e6837f60e01b016141d757505f80808080806138cd565b632bfa23e760e11b5f526001600160a01b031660045260245ffd5b61421591925060203d60201161421c575b61420d818361085d565b8101906140c6565b905f61417a565b503d614203565b6001600160a01b039182168152911660208201526040810191909152606081019190915260a0608082018190526105ea929101906105b5565b9091949293853b61426f57505050505050565b60209361429191604051968795869563f23a6e6160e01b875260048701614223565b03815f6001600160a01b0387165af15f91816142d9575b506142b65750614188613808565b6001600160e01b031916630dc5919f60e01b016141d757505f80808080806138cd565b6142f391925060203d60201161421c5761420d818361085d565b905f6142a856fe2f8788117e7eff1d82e926ec794901d17c78024a50270940304540a733656f0da16a46d94261c7517cc8ff89f61c0ce93598e3c849801011dee649a6a557d102a16a46d94261c7517cc8ff89f61c0ce93598e3c849801011dee649a6a557d103360894a13ba1a3210667c828492db98dca3e2076cc3735a920a3ca505d382bbc88be536d5240c274a3b1d3a1be54482fd9caa294f08c62a7cde569f49a3c450002dd7bc7dec4dceedda775e58dd541e08a116c6c53815c0bd028192f7b626800cd5ed15c6e187e77e9aee88184c21f4f2182ab5827cb3b7e07fbedcd63f033009b779b17422d0df92223018b32b4d1fa46e071723d6817e2486d003becc55f00f0c57e16840df040f15088dc2f81fe391c3923bec73e23a9662efc9c229c6a0088be536d5240c274a3b1d3a1be54482fd9caa294f08c62a7cde569f49a3c4502a2646970667358221220af8f69378e075dab246c43bfb51e61b917522d8609489abcf922a10e3947eefd64736f6c634300081e0033f0c57e16840df040f15088dc2f81fe391c3923bec73e23a9662efc9c229c6a00","linkReferences":{}},"methodIdentifiers":{"DEFAULT_ADMIN_ROLE()":"a217fddf","MAX_COMMENT_LENGTH()":"5856e4fa","MAX_ORIGINAL_AUTHOR_LENGTH()":"19e94a6e","PAUSER_ROLE()":"e63ab1e9","SCORE_DISLIKE()":"fde84719","SCORE_LIKE()":"e1d90b34","SCORE_NEUTRAL()":"473106b2","UPGRADER_ROLE()":"f72c0d8b","UPGRADE_INTERFACE_VERSION()":"ad3cb1cc","articles(uint256)":"edcfafe6","balanceOf(address,uint256)":"00fdd58e","balanceOfBatch(address[],uint256[])":"4e1273f4","eip712Domain()":"84b0196e","evaluate(uint256,uint8,string,address,uint256)":"ff1f090a","evaluateWithSessionKey(address,address,uint256,uint8,string,address,uint256,uint256,bytes)":"63c4ea4d","follow(address,bool)":"63c3cc16","followWithSessionKey(address,address,address,bool,uint256,bytes)":"5780400b","getRoleAdmin(bytes32)":"248a9ca3","grantRole(bytes32,address)":"2f2ff15d","hasRole(bytes32,address)":"91d14854","initialize(address,address)":"485cc955","isApprovedForAll(address,address)":"e985e9c5","likeComment(uint256,uint256,address,address)":"dffd40f2","likeCommentWithSessionKey(address,address,uint256,uint256,address,address,uint256,bytes)":"79c61f28","minActionValue()":"8cbd215e","multicall(bytes[])":"ac9650d8","nextArticleId()":"85c3ab54","pause()":"8456cb59","paused()":"5c975abb","platformFeeBps()":"22dcd13e","platformTreasury()":"e138818c","proxiableUUID()":"52d1902d","publish(string,uint64,uint96,string)":"073b9e26","renounceRole(bytes32,address)":"36568abe","revokeRole(bytes32,address)":"d547741f","royaltyInfo(uint256,uint256)":"2a55205a","safeBatchTransferFrom(address,address,uint256[],uint256[],bytes)":"2eb2c2d6","safeTransferFrom(address,address,uint256,uint256,bytes)":"f242432a","sessionKeyManager()":"0b826190","setApprovalForAll(address,bool)":"a22cb465","setMinActionValue(uint256)":"52cbd3be","setPlatformFee(uint96)":"f99e5dbb","setPlatformTreasury(address)":"7cd86d60","setSessionKeyManager(address)":"837fa3fd","supportsInterface(bytes4)":"01ffc9a7","unpause()":"3f4ba83a","upgradeToAndCall(address,bytes)":"4f1ef286","uri(uint256)":"0e89341c"},"id":63}