{"abi":[{"type":"constructor","inputs":[],"stateMutability":"nonpayable"},{"type":"function","name":"DOMAIN_SEPARATOR","inputs":[],"outputs":[{"name":"","type":"bytes32","internalType":"bytes32"}],"stateMutability":"view"},{"type":"function","name":"MAX_SESSION_DURATION","inputs":[],"outputs":[{"name":"","type":"uint48","internalType":"uint48"}],"stateMutability":"view"},{"type":"function","name":"OPERATION_TYPEHASH","inputs":[],"outputs":[{"name":"","type":"bytes32","internalType":"bytes32"}],"stateMutability":"pure"},{"type":"function","name":"REGISTER_TYPEHASH","inputs":[],"outputs":[{"name":"","type":"bytes32","internalType":"bytes32"}],"stateMutability":"pure"},{"type":"function","name":"eip712Domain","inputs":[],"outputs":[{"name":"fields","type":"bytes1","internalType":"bytes1"},{"name":"name","type":"string","internalType":"string"},{"name":"version","type":"string","internalType":"string"},{"name":"chainId","type":"uint256","internalType":"uint256"},{"name":"verifyingContract","type":"address","internalType":"address"},{"name":"salt","type":"bytes32","internalType":"bytes32"},{"name":"extensions","type":"uint256[]","internalType":"uint256[]"}],"stateMutability":"view"},{"type":"function","name":"getAllowedSelectors","inputs":[{"name":"owner","type":"address","internalType":"address"},{"name":"sessionKey","type":"address","internalType":"address"}],"outputs":[{"name":"","type":"bytes4[]","internalType":"bytes4[]"}],"stateMutability":"view"},{"type":"function","name":"getRemainingSpendingLimit","inputs":[{"name":"owner","type":"address","internalType":"address"},{"name":"sessionKey","type":"address","internalType":"address"}],"outputs":[{"name":"","type":"uint256","internalType":"uint256"}],"stateMutability":"view"},{"type":"function","name":"getSessionKeyData","inputs":[{"name":"owner","type":"address","internalType":"address"},{"name":"sessionKey","type":"address","internalType":"address"}],"outputs":[{"name":"","type":"tuple","internalType":"struct ISessionKeyManager.SessionKeyData","components":[{"name":"sessionKey","type":"address","internalType":"address"},{"name":"validAfter","type":"uint48","internalType":"uint48"},{"name":"validUntil","type":"uint48","internalType":"uint48"},{"name":"allowedContract","type":"address","internalType":"address"},{"name":"allowedSelectors","type":"bytes4[]","internalType":"bytes4[]"},{"name":"spendingLimit","type":"uint256","internalType":"uint256"},{"name":"spentAmount","type":"uint256","internalType":"uint256"},{"name":"nonce","type":"uint256","internalType":"uint256"}]}],"stateMutability":"view"},{"type":"function","name":"isSessionKeyActive","inputs":[{"name":"owner","type":"address","internalType":"address"},{"name":"sessionKey","type":"address","internalType":"address"}],"outputs":[{"name":"","type":"bool","internalType":"bool"}],"stateMutability":"view"},{"type":"function","name":"ownerNonces","inputs":[{"name":"","type":"address","internalType":"address"}],"outputs":[{"name":"","type":"uint256","internalType":"uint256"}],"stateMutability":"view"},{"type":"function","name":"registerSessionKey","inputs":[{"name":"sessionKey","type":"address","internalType":"address"},{"name":"validAfter","type":"uint48","internalType":"uint48"},{"name":"validUntil","type":"uint48","internalType":"uint48"},{"name":"allowedContract","type":"address","internalType":"address"},{"name":"allowedSelectors","type":"bytes4[]","internalType":"bytes4[]"},{"name":"spendingLimit","type":"uint256","internalType":"uint256"}],"outputs":[],"stateMutability":"nonpayable"},{"type":"function","name":"registerSessionKeyWithSignature","inputs":[{"name":"owner","type":"address","internalType":"address"},{"name":"sessionKey","type":"address","internalType":"address"},{"name":"validAfter","type":"uint48","internalType":"uint48"},{"name":"validUntil","type":"uint48","internalType":"uint48"},{"name":"allowedContract","type":"address","internalType":"address"},{"name":"allowedSelectors","type":"bytes4[]","internalType":"bytes4[]"},{"name":"spendingLimit","type":"uint256","internalType":"uint256"},{"name":"deadline","type":"uint256","internalType":"uint256"},{"name":"signature","type":"bytes","internalType":"bytes"}],"outputs":[],"stateMutability":"nonpayable"},{"type":"function","name":"revokeSessionKey","inputs":[{"name":"sessionKey","type":"address","internalType":"address"}],"outputs":[],"stateMutability":"nonpayable"},{"type":"function","name":"validateAndUseSessionKey","inputs":[{"name":"owner","type":"address","internalType":"address"},{"name":"sessionKey","type":"address","internalType":"address"},{"name":"target","type":"address","internalType":"address"},{"name":"selector","type":"bytes4","internalType":"bytes4"},{"name":"callData","type":"bytes","internalType":"bytes"},{"name":"value","type":"uint256","internalType":"uint256"},{"name":"deadline","type":"uint256","internalType":"uint256"},{"name":"signature","type":"bytes","internalType":"bytes"}],"outputs":[{"name":"success","type":"bool","internalType":"bool"}],"stateMutability":"nonpayable"},{"type":"function","name":"validateSessionKey","inputs":[{"name":"owner","type":"address","internalType":"address"},{"name":"sessionKey","type":"address","internalType":"address"},{"name":"target","type":"address","internalType":"address"},{"name":"selector","type":"bytes4","internalType":"bytes4"},{"name":"value","type":"uint256","internalType":"uint256"}],"outputs":[{"name":"valid","type":"bool","internalType":"bool"}],"stateMutability":"view"},{"type":"event","name":"EIP712DomainChanged","inputs":[],"anonymous":false},{"type":"event","name":"SessionKeyRegistered","inputs":[{"name":"owner","type":"address","indexed":true,"internalType":"address"},{"name":"sessionKey","type":"address","indexed":true,"internalType":"address"},{"name":"allowedContract","type":"address","indexed":false,"internalType":"address"},{"name":"validAfter","type":"uint48","indexed":false,"internalType":"uint48"},{"name":"validUntil","type":"uint48","indexed":false,"internalType":"uint48"},{"name":"spendingLimit","type":"uint256","indexed":false,"internalType":"uint256"}],"anonymous":false},{"type":"event","name":"SessionKeyRevoked","inputs":[{"name":"owner","type":"address","indexed":true,"internalType":"address"},{"name":"sessionKey","type":"address","indexed":true,"internalType":"address"}],"anonymous":false},{"type":"event","name":"SessionKeyUsed","inputs":[{"name":"owner","type":"address","indexed":true,"internalType":"address"},{"name":"sessionKey","type":"address","indexed":true,"internalType":"address"},{"name":"target","type":"address","indexed":false,"internalType":"address"},{"name":"selector","type":"bytes4","indexed":false,"internalType":"bytes4"},{"name":"value","type":"uint256","indexed":false,"internalType":"uint256"}],"anonymous":false},{"type":"error","name":"ECDSAInvalidSignature","inputs":[]},{"type":"error","name":"ECDSAInvalidSignatureLength","inputs":[{"name":"length","type":"uint256","internalType":"uint256"}]},{"type":"error","name":"ECDSAInvalidSignatureS","inputs":[{"name":"s","type":"bytes32","internalType":"bytes32"}]},{"type":"error","name":"InvalidNonce","inputs":[]},{"type":"error","name":"InvalidSessionKey","inputs":[]},{"type":"error","name":"InvalidShortString","inputs":[]},{"type":"error","name":"InvalidSignature","inputs":[]},{"type":"error","name":"InvalidTimeRange","inputs":[]},{"type":"error","name":"ReentrancyGuardReentrantCall","inputs":[]},{"type":"error","name":"SessionKeyAlreadyExists","inputs":[]},{"type":"error","name":"SessionKeyExpired","inputs":[]},{"type":"error","name":"SessionKeyNotActive","inputs":[]},{"type":"error","name":"SignatureExpired","inputs":[]},{"type":"error","name":"SpendingLimitExceeded","inputs":[]},{"type":"error","name":"StringTooLong","inputs":[{"name":"str","type":"string","internalType":"string"}]},{"type":"error","name":"UnauthorizedContract","inputs":[]},{"type":"error","name":"UnauthorizedSelector","inputs":[]},{"type":"error","name":"ZeroAddress","inputs":[]}],"bytecode":{"object":"0x6101606040523461015557604051610018604082610159565b6011815260208101907029b2b9b9b4b7b725b2bca6b0b730b3b2b960791b825260405191610047604084610159565b600183526020830191603160f81b835261006081610190565b6101205261006d84610326565b61014052519020918260e05251902080610100524660a0526040519060208201927f8b73c3c69bb8fe3d512ecc4cf759cc79239f7b179b0ffacaa9a75d522b39400f8452604083015260608201524660808201523060a082015260a081526100d660c082610159565b5190206080523060c05260017f9b779b17422d0df92223018b32b4d1fa46e071723d6817e2486d003becc55f00556040516119ba908161045f823960805181611063015260a05181611120015260c0518161102d015260e051816110b2015261010051816110d80152610120518161079d015261014051816107c60152f35b5f80fd5b601f909101601f19168101906001600160401b0382119082101761017c57604052565b634e487b7160e01b5f52604160045260245ffd5b908151602081105f1461020a575090601f8151116101ca5760208151910151602082106101bb571790565b5f198260200360031b1b161790565b604460209160405192839163305a27a960e01b83528160048401528051918291826024860152018484015e5f828201840152601f01601f19168101030190fd5b6001600160401b03811161017c575f54600181811c9116801561031c575b602082101461030857601f81116102d6575b50602092601f821160011461027757928192935f9261026c575b50508160011b915f199060031b1c1916175f5560ff90565b015190505f80610254565b601f198216935f8052805f20915f5b8681106102be57508360019596106102a6575b505050811b015f5560ff90565b01515f1960f88460031b161c191690555f8080610299565b91926020600181928685015181550194019201610286565b5f8052601f60205f20910160051c810190601f830160051c015b8181106102fd575061023a565b5f81556001016102f0565b634e487b7160e01b5f52602260045260245ffd5b90607f1690610228565b908151602081105f14610351575090601f8151116101ca5760208151910151602082106101bb571790565b6001600160401b03811161017c57600154600181811c91168015610454575b602082101461030857601f8111610421575b50602092601f82116001146103c057928192935f926103b5575b50508160011b915f199060031b1c19161760015560ff90565b015190505f8061039c565b601f1982169360015f52805f20915f5b86811061040957508360019596106103f1575b505050811b0160015560ff90565b01515f1960f88460031b161c191690555f80806103e3565b919260206001819286850151815501940192016103d0565b60015f52601f60205f20910160051c810190601f830160051c015b8181106104495750610382565b5f815560010161043c565b90607f169061037056fe60806040526004361015610011575f80fd5b5f3560e01c80630d1e494714610b845780632b85fa4e14610ae55780633644e51514610acb5780634802254e1461092357806356916b04146108eb5780636a5306a3146108b15780637659316d1461087d57806384b0196e1461078557806384f4fc6a1461069657806393aaa1461461065c5780639b71d99c146104535780639f84256e146103d85780639fd6394014610129578063cd8cd4ad1461010c5763f514eac6146100be575f80fd5b346101085760a03660031901126101085760206100fe6100dc610c0f565b6100e4610c25565b6100ec610c3b565b6100f4610ce9565b9160843593611549565b6040519015158152f35b5f80fd5b34610108575f36600319011261010857602060405162093a808152f35b346101085761010036600319011261010857610143610c0f565b61014b610c25565b610153610c3b565b9161015c610ce9565b9260843567ffffffffffffffff81116101085761017d903690600401610cbb565b94909160a4359060c4359460e43567ffffffffffffffff8111610108576101a8903690600401610cbb565b9160027f9b779b17422d0df92223018b32b4d1fa46e071723d6817e2486d003becc55f0054146103c95760027f9b779b17422d0df92223018b32b4d1fa46e071723d6817e2486d003becc55f00558742116103ba5761020a8587868c85611549565b156103ab57600160a01b600190031697885f52600260205260405f20600160a01b6001900382165f5260205260405f2096600588019a8b549b61024c8d610fc9565b9055369061025992610fd7565b80519060200120976040519060208201927fd622edfbd59ead0e83f1c798b423bfeb21dd6e8b137c613c0c0bc6fbb3cc150884528b6040840152600160a01b60019003169b8c96876060850152600160a01b60019003169889608085015263ffffffff60e01b169a8b60a085015260c08401528760e084015261010083015261012082015261012081526102ef61014082610d46565b5190206102fb90611146565b91369061030792610fd7565b61031091611849565b61031991611883565b6001600160a01b03160361039c577f45c102106effd6bb868bd8deeb1d34a9025f7839028351831a77efb9f614ec4b9360046060940161035a83825461101d565b905560405192835260208301526040820152a360017f9b779b17422d0df92223018b32b4d1fa46e071723d6817e2486d003becc55f0055602060405160018152f35b638baa579f60e01b5f5260045ffd5b63316d9f2160e11b5f5260045ffd5b630819bdcd60e01b5f5260045ffd5b633ee5aeb560e01b5f5260045ffd5b346101085760c0366003190112610108576103f1610c0f565b6024359065ffffffffffff821682036101085761040c610c75565b606435926001600160a01b0384168403610108576084359367ffffffffffffffff851161010857610444610451953690600401610c8a565b93909260a435953361116c565b005b34610108576101203660031901126101085761046d610c0f565b610475610c25565b9061047e610c75565b6064359065ffffffffffff82168203610108576084356001600160a01b03811681036101085760a43567ffffffffffffffff8111610108576104c4903690600401610c8a565b9390926101043567ffffffffffffffff8111610108576104e8903690600401610cbb565b60e43542116103ba576001600160a01b0388165f81815260036020526040902080549193918b9161051882610fc9565b90556040516020810190818b5f8e5b8110610629575050936105ff936106059693836105546105f79561060e9b9903601f198101835282610d46565b519020906040519160208301937f88b303814bbfde713cfa92943cd276d0c3dc8e4236156d20df5d2fc01440131c85528b604085015260018060a01b0316606084015265ffffffffffff8c16608084015265ffffffffffff8d1660a08401528d60018060a01b031660c084015260e083015260c43561010083015261012082015260e43561014082015261014081526105ef61016082610d46565b519020611146565b923691610fd7565b90611849565b90929192611883565b6001600160a01b03160361039c576104519660c4359661116c565b9160019193949596506020809163ffffffff60e01b61064787610d00565b1681520193019101908f95949392918e610527565b34610108575f3660031901126101085760206040517fd622edfbd59ead0e83f1c798b423bfeb21dd6e8b137c613c0c0bc6fbb3cc15088152f35b34610108576020366003190112610108576106af610c0f565b335f9081526002602090815260408083206001600160a01b038581168552925290912054161561077657335f52600260205260405f2060018060a01b0382165f5260205260405f205f81555f6001820155600281018054905f815581610752575b835f600585826003820155826004820155015560018060a01b0316337f744157ccffbd293a2e8644928cd7d23d650f869b88f72d7bfea8041b76ca6bec5f80a3005b5f52600760205f20910160031c8101905b81811015610710575f8155600101610763565b635f8874dd60e11b5f5260045ffd5b34610108575f366003190112610108576108216107c17f0000000000000000000000000000000000000000000000000000000000000000611653565b6107ea7f0000000000000000000000000000000000000000000000000000000000000000611779565b602061082f604051926107fd8385610d46565b5f84525f368137604051958695600f60f81b875260e08588015260e0870190610c51565b908582036040870152610c51565b4660608501523060808501525f60a085015283810360c08501528180845192838152019301915f5b82811061086657505050500390f35b835185528695509381019392810192600101610857565b346101085760403660031901126101085760206108a961089b610c0f565b6108a3610c25565b90610f6c565b604051908152f35b34610108575f3660031901126101085760206040517f88b303814bbfde713cfa92943cd276d0c3dc8e4236156d20df5d2fc01440131c8152f35b34610108576020366003190112610108576001600160a01b0361090c610c0f565b165f526003602052602060405f2054604051908152f35b346101085760403660031901126101085761093c610c0f565b610944610c25565b905f60e060405161095481610d15565b828152826020820152826040820152826060820152606060808201528260a08201528260c0820152015260018060a01b03165f52600260205260405f209060018060a01b03165f5260205260405f20604051906109b082610d15565b80546001600160a01b03808216845260a082901c65ffffffffffff166020850190815260d09290921c6040850190815260018401549091166060850190815291926109fd60028201610d68565b6080860190815260038201549360a0870194855265ffffffffffff600560048501549460c08a0195865201549460e08901958652816040519860208a526101208a019a60018060a01b0390511660208b0152511660408901525116606087015260018060a01b039051166080860152519261010060a086015283518096526020610140860194015f965b808810610aaa5750508495505160c08501525160e0840152516101008301520390f35b909460208060019263ffffffff60e01b895116815201960197019690610a87565b34610108575f3660031901126101085760206108a961102a565b3461010857604036600319011261010857610afe610c0f565b610b06610c25565b6001600160a01b039182165f9081526002602081815260408084209590941683529390935220610b369101610d68565b6040518091602082016020835281518091526020604084019201905f5b818110610b61575050500390f35b82516001600160e01b031916845285945060209384019390920191600101610b53565b3461010857604036600319011261010857610b9d610c0f565b610ba5610c25565b6001600160a01b039182165f9081526002602090815260408083209385168352928152919020549091811615159081610bf8575b81610bea575b506040519015158152f35b905060d01c42111582610bdf565b905065ffffffffffff8160a01c1642101590610bd9565b600435906001600160a01b038216820361010857565b602435906001600160a01b038216820361010857565b604435906001600160a01b038216820361010857565b805180835260209291819084018484015e5f828201840152601f01601f1916010190565b6044359065ffffffffffff8216820361010857565b9181601f840112156101085782359167ffffffffffffffff8311610108576020808501948460051b01011161010857565b9181601f840112156101085782359167ffffffffffffffff8311610108576020838186019501011161010857565b606435906001600160e01b03198216820361010857565b35906001600160e01b03198216820361010857565b610100810190811067ffffffffffffffff821117610d3257604052565b634e487b7160e01b5f52604160045260245ffd5b90601f8019910116810190811067ffffffffffffffff821117610d3257604052565b90604051918281549182825260208201905f5260205f20925f905b806007830110610ec757610dd9945491818110610ea8575b818110610e89575b818110610e6a575b818110610e4b575b818110610e2c575b818110610e0d575b818110610df0575b10610ddb575b500383610d46565b565b6001600160e01b03191681526020015f610dd1565b602083811b6001600160e01b031916855290930192600101610dcb565b604083901b6001600160e01b0319168452602090930192600101610dc3565b606083901b6001600160e01b0319168452602090930192600101610dbb565b608083901b6001600160e01b0319168452602090930192600101610db3565b60a083901b6001600160e01b0319168452602090930192600101610dab565b60c083901b6001600160e01b0319168452602090930192600101610da3565b60e083901b6001600160e01b0319168452602090930192600101610d9b565b916008919350610100600191865463ffffffff60e01b8160e01b16825263ffffffff60e01b8160c01b16602083015263ffffffff60e01b8160a01b16604083015263ffffffff60e01b8160801b16606083015263ffffffff60e01b8160601b16608083015263ffffffff60e01b8160401b1660a083015263ffffffff60e01b8160201b1660c083015263ffffffff60e01b1660e0820152019401920185929391610d83565b60018060a01b03165f52600260205260405f209060018060a01b03165f5260205260405f206004600382015491015480821115610fc3578103908111610faf5790565b634e487b7160e01b5f52601160045260245ffd5b50505f90565b5f198114610faf5760010190565b92919267ffffffffffffffff8211610d325760405191611001601f8201601f191660200184610d46565b829481845281830111610108578281602093845f960137010152565b91908201809211610faf57565b307f00000000000000000000000000000000000000000000000000000000000000006001600160a01b0316148061111d575b15611085577f000000000000000000000000000000000000000000000000000000000000000090565b60405160208101907f8b73c3c69bb8fe3d512ecc4cf759cc79239f7b179b0ffacaa9a75d522b39400f82527f000000000000000000000000000000000000000000000000000000000000000060408201527f000000000000000000000000000000000000000000000000000000000000000060608201524660808201523060a082015260a0815261111760c082610d46565b51902090565b507f0000000000000000000000000000000000000000000000000000000000000000461461105c565b60429061115161102a565b906040519161190160f01b8352600283015260228201522090565b6001600160a01b0390911696949592949391929091871561153a576001600160a01b031694851561153a5765ffffffffffff8091169316918383101561152b5782840365ffffffffffff8111610faf5765ffffffffffff62093a8091161161152b576001600160a01b039081165f8181526002602090815260408083208c845290915290205490979181161515908161151d575b5061150e576040519161121283610d15565b88835260208301918483526040840191868352606085019189835267ffffffffffffffff8211610d32578160051b60208101926112526040519485610d46565b8352602083019082019136831161010857905b8282106114f6575050506080850190815260a085019188835260c08601935f855260e08701955f87528c5f5260026020528d60405f20905f5260205260405f209760018060a01b039060018060a01b03905116166bffffffffffffffffffffffff60a01b895416178855519087549065ffffffffffff60d01b905160d01b169165ffffffffffff60a01b9060a01b169060018060a01b03161717865560018060a01b03905116600186019060018060a01b03166bffffffffffffffffffffffff60a01b82541617905560028501905180519067ffffffffffffffff8211610d3257680100000000000000008211610d3257825482845580831061149c575b50602001915f5260205f208160031c915f5b838110611451575060071981169003806113e1575b50509151600386015550505160048301555160059091015560408051948552602085019190915283015260608201527ffb073c1f3afcaef0dd69fdb4fe0c69ede2f129ef77ea38869b0a39f38b08e59b90608090a3565b925f935f5b81811061141c575050500155828260057ffb073c1f3afcaef0dd69fdb4fe0c69ede2f129ef77ea38869b0a39f38b08e59b61138a565b9091946020611447600192885160e01c908560021b63ffffffff809160031b9316831b921b19161790565b96019291016113e6565b5f5f5b60088110611469575083820155600101611375565b95906020611493600192845160e01c908a60021b63ffffffff809160031b9316831b921b19161790565b92019601611454565b835f5260205f20600780850160031c8201920160031c0190601c8460021b16806114db575b505b8181106114d05750611363565b5f81556001016114c3565b5f198201908154905f199060200360031b1c1690555f6114c1565b6020809161150384610d00565b815201910190611265565b630f51161360e01b5f5260045ffd5b9050429060d01c115f611200565b63536a71af60e01b5f5260045ffd5b63d92e233d60e01b5f5260045ffd5b6001600160a01b039081165f90815260026020908152604080832094841683529390529190912080549394909390929181161561164a5765ffffffffffff8160a01c16421061164a5760d01c42116116425760018301546001600160a01b0390811691160361163b5760028201805493905f805b8681101561162f57825f5260205f208160031c015463ffffffff60e01b85169063ffffffff60e01b9060e08460051b161c60e01b16146115ff576001016115bd565b5050505090915060015b15610fc35761161e600391600484015461101d565b9101541061162b57600190565b5f90565b50929394505050611609565b5050505f90565b505050505f90565b50505050505f90565b60ff81146116995760ff811690601f821161168a5760405191611677604084610d46565b6020808452838101919036833783525290565b632cd44ac360e21b5f5260045ffd5b506040515f5f548060011c916001821691821561176f575b60208410831461175b57838552849290811561173c57506001146116df575b6116dc92500382610d46565b90565b505f80805290917f290decd9548b62a8d60345a988386fc84ba6bc95484008f6362f93160ef3e5635b8183106117205750509060206116dc928201016116d0565b6020919350806001915483858801015201910190918392611708565b602092506116dc94915060ff191682840152151560051b8201016116d0565b634e487b7160e01b5f52602260045260245ffd5b92607f16926116b1565b60ff811461179d5760ff811690601f821161168a5760405191611677604084610d46565b506040515f6001548060011c916001821691821561183f575b60208410831461175b57838552849290811561173c57506001146117e0576116dc92500382610d46565b5060015f90815290917fb10e2d527612073b26eecdfd717e6a320cf44b4afac2b0732d9fcbe2b7fa0cf65b8183106118235750509060206116dc928201016116d0565b602091935080600191548385880101520191019091839261180b565b92607f16926117b6565b8151919060418303611879576118729250602082015190606060408401519301515f1a906118f7565b9192909190565b50505f9160029190565b60048110156118e35780611895575050565b600181036118ac5763f645eedf60e01b5f5260045ffd5b600281036118c7575063fce698f760e01b5f5260045260245ffd5b6003146118d15750565b6335e2f38360e21b5f5260045260245ffd5b634e487b7160e01b5f52602160045260245ffd5b91907f7fffffffffffffffffffffffffffffff5d576e7357a4501ddfe92f46681b20a08411611979579160209360809260ff5f9560405194855216868401526040830152606082015282805260015afa1561196e575f516001600160a01b0381161561196457905f905f90565b505f906001905f90565b6040513d5f823e3d90fd5b5050505f916003919056fea2646970667358221220cb4f6724a4a53afa06a9ba4e8887dce4b97db427ac9ac35578178deda058b5a264736f6c634300081e0033","linkReferences":{}},"methodIdentifiers":{"DOMAIN_SEPARATOR()":"3644e515","MAX_SESSION_DURATION()":"cd8cd4ad","OPERATION_TYPEHASH()":"93aaa146","REGISTER_TYPEHASH()":"6a5306a3","eip712Domain()":"84b0196e","getAllowedSelectors(address,address)":"2b85fa4e","getRemainingSpendingLimit(address,address)":"7659316d","getSessionKeyData(address,address)":"4802254e","isSessionKeyActive(address,address)":"0d1e4947","ownerNonces(address)":"56916b04","registerSessionKey(address,uint48,uint48,address,bytes4[],uint256)":"9f84256e","registerSessionKeyWithSignature(address,address,uint48,uint48,address,bytes4[],uint256,uint256,bytes)":"9b71d99c","revokeSessionKey(address)":"84f4fc6a","validateAndUseSessionKey(address,address,address,bytes4,bytes,uint256,uint256,bytes)":"9fd63940","validateSessionKey(address,address,address,bytes4,uint256)":"f514eac6"},"id":70}